:020000040800F2
:10000000580D002049010008E91F0008311E0008B2
:10001000E51F0008D3090008B13A000800000000FD
:100020000000000000000000000000007D25000826
:100030006D1700080000000075220008D52E00088A
:100040006301000863010008630100086301000800
:100050006301000863010008211800086D180008FA
:10006000B5180008051900085519000863010008B3
:1000700063010008630100086301000863010008D0
:1000800063010008630100086301000863010008C0
:100090004D3900086301000863010008A119000838
:1000A00063010008630100086301000863010008A0
:1000B00063010008E12F00086301000863010008E4
:1000C0006301000863010008630100086301000880
:1000D000630100087D330008630100086301000824
:1000E00063010008630100089736000863010008F7
:1000F0006301000863010008630100086301000850
:100100006301000863010008113000086301000862
:10011000630100086301000863010008630100082F
:10012000630100086301000863010008630100081F
:10013000DFF810D000F07EFA00480047954900082B
:10014000AFF30080580D002006488047064800475E
:10015000FEE7FEE7FEE7FEE7FEE7FEE7FEE7FEE777
:10016000FEE7FEE7E52E000831010008421C10F80A
:10017000011B0029FBD1801A70472DE9FE4F81EA4F
:10018000030404F0004421F0004100944FF0000B00
:1001900023F0004350EA01045ED052EA03045BD02E
:1001A000C3F30A54C1F30A552C44A4F2F334019466
:1001B000A0FB0254C1F3130141F48011C3F31303F4
:1001C00043F4801301FB024400FB034E840A970AA8
:1001D00044EA815447EA8357A4FB076802958D0AD5
:1001E00005FB07854FEA932C04FB0C542705029D61
:1001F0004FEA065847EA1637B5EB08056EEB070CD1
:10020000870E920E47EA811742EA8312A7FB02018A
:10021000B6EB0B0164EB00042B0D43EA0C335E18C4
:1002200044EB1C50DA465146E7FB0201C5F31304C8
:100230004FEA0B3343EA14534FEA0432019C43EA7A
:100240000603A4F10C040294009CCDE900B400F074
:10025000CBF803B0BDE8F08F00200146F9E72DE9A7
:10026000F04D81EA030404F0004B21F000451446F0
:100270004FF0000A23F0004150EA050220D054EA72
:1002800001021DD0C5F30A570246C5F31303C1F39B
:100290001300C1F30A5640F4801543F48013A7EB12
:1002A0000608101BD64608F2FD3873EB050002D392
:1002B00008F1010801E092185B41B8F1000F03DA80
:1002C00000200146BDE8F08D00204FF48011064665
:1002D00084460EE0171B73EB050705D3121B63EB77
:1002E000050306434CEA010C49084FEA3000921816
:1002F0005B4150EA0107EDD152EA030012D082EAD5
:10030000040083EA0501084305D0101BAB4106D267
:100310000122002306E000224FF0004302E06FF0CC
:10032000010253101AEB06004CEB085110EB0A00C7
:1003300041EB0B01BDE8F04D00F047B830B50B467E
:10034000014600202022012409E021FA02F59D4205
:1003500005D303FA02F5491B04FA02F52844151ED9
:10036000A2F10102F1DC30BD2DE9F05F054600206D
:1003700092469B4688460646814640241BE0284616
:1003800041464746224600F076F953465A46C01A7F
:10039000914110D311461846224600F05DF92D1AFE
:1003A00067EB01084F4622460120002100F054F976
:1003B00017EB00094E41201EA4F10104DFDC484682
:1003C00031462A464346BDE8F09F10B5141E73F12E
:1003D000000408DA401C41F1000192185B411A4305
:1003E00001D120F0010010BD2DE9F04D92469B4651
:1003F00011B1B1FA81F202E0B0FA80F220329046F7
:1004000000F02AF904460F4640EA0A0041EA0B01CF
:1004100053465A46084313D0114653EA010019D0F7
:10042000C8F14002504600F026F905460E465046F7
:100430005946424600F010F9084305D0012004E077
:1004400020463946BDE8F08D0020054346EAE076B7
:100450002C4337430A986305E40AA0EB0800002206
:10046000FD0A44EA47540A3002D500200146E9E774
:10047000010510196941DDE9084500196941BDE828
:10048000F04DA2E72DE9FE4F804681EA0300C00F40
:100490000C46009021F0004123F00045B8EB02002B
:1004A000A94105D24046214690461C460B460246CD
:1004B00023F00040104347D0270DC7F30A00C3F3D1
:1004C0000A510290401A019040286BDAC3F31300DE
:1004D00040F4801B0098924620B10023D2EB030A1F
:1004E00063EB0B0B01985946C0F14002504600F0F7
:1004F000B3F806460D4650465946019A00F0CBF82F
:1005000010EB08006141002487EA115284EAE77386
:100510001A4340D0009A62B3019A012A4FEA075267
:1005200015DC001B61EB02014FF0004202EA0752AA
:10053000CDE90042001C41F5801132462B46FFF701
:1005400053FF03B0BDE8F08F40462146F9E7001B9A
:1005500061EB0201001C41F5801300185B4120187B
:10056000A2F5001747EB030140EAD570B6196D41BB
:1005700011E06D084FEA360645EAC0754FEA0752AA
:10058000001B61EB0201001C41F5801149084FEA94
:1005900030000019514132462B4603B0BDE8F04F00
:1005A000FFF713BF0098012240000023D0EB0202A6
:1005B00063EBE073009821464FEAE074B8EB00006B
:1005C00061EB0401E9E783F000435BE781F0004160
:1005D00058E7C1F30A52C1F3130140F2FF3341F46B
:1005E00080119A4202DA00200146704740F23343FC
:1005F0009A42A2F2334202DC524200F03CB800F0D0
:100600002BB8000030B5041E71F1000404DB4FF07C
:100610000044404264EB0101141E73F1000405DB49
:100620001C464FF00043524263EB0403994208BF5B
:10063000904230BD064C074D06E0E06840F00103F3
:1006400094E8070098471034AC42F6D3FFF774FDE6
:10065000684C0008884C0008202A04DB203A00FA85
:1006600002F1002070479140C2F1200320FA03F309
:10067000194390407047202A04DB203A21FA02F007
:100680000021704721FA02F3D040C2F120029140CC
:10069000084319467047202A06DBCB17203A41FA57
:1006A00002F043EAE07306E041FA02F3D040C2F1FF
:1006B0002002914008431946704770B58C1810F815
:1006C000015B15F0070301D110F8013B2A1106D197
:1006D00010F8012B03E010F8016B01F8016B5B1EB1
:1006E000F9D12B0705D40023521E0DD401F8013B8C
:1006F000FAE710F8013BCB1A921C03E013F8015BF8
:1007000001F8015B521EF9D5A142D8D3002070BD7B
:1007100000B591B00121084601F0FEFD01214FF422
:10072000017001F019FE4FF4004001F0E9FD0F20C7
:10073000ADF8400000208DF8430003208DF8420002
:1007400010A93E4801F0EEF93D4800F041FD3D485A
:1007500005903D480690002007905020089000200A
:10076000099080200A9040000B9080000C9000209F
:100770000D904FF400500E9000200F9005A93048C6
:1007800000F0CCFD01212E4800F016FD0020009065
:1007900001208DF804008DF805004FF460200290D0
:1007A0000020039004208DF81000694625484C383D
:1007B00000F076F807230122002122484C3800F08F
:1007C00097F80723022201211E484C3800F090F8C8
:1007D0000723032202211B484C3800F089F8072325
:1007E0000422032117484C3800F082F801211548F3
:1007F0004C3800F036F8012112484C3800F026F849
:1008000010484C3800F0D0F800BF0E484C3800F0CB
:100810003DF80028F9D10B484C3800F0D5F800BF5E
:1008200008484C3800F028F80028F9D10121054883
:100830004C3800F0BEF811B000BD000000080140C7
:10084000080002404C240140B001002021B1826820
:1008500042F00102826003E0826822F001028260BD
:10086000704721B1826842F48072826003E082683E
:1008700022F4807282607047014600208A6802F08C
:1008800004020AB1012000E0002070470146002068
:100890008A6802F008020AB1012000E000207047D7
:1008A00030B502460020002350680F4C20400D79DF
:1008B0000C6844EA05242043506090680B4C2040AB
:1008C000D1E902542C434D7944EA45042043906019
:1008D000D06A20F470000C7C641EE4B2234340EA2A
:1008E0000350D06230BD0000FFFEF0FFFDF7F1FFC6
:1008F000F0B504460D4600200021092D11DDE06809
:10090000A5F10A0606EB4607072606FA07F1884313
:10091000A5F10A0606EB460603FA06F10843E06075
:100920000CE0206905EB4507072606FA07F1884326
:1009300005EB450603FA06F108432061072A0FDAA2
:10094000606B561E06EB86071F2606FA07F18843E2
:10095000561E06EB860605FA06F10843606322E0A0
:100960000D2A0FDA206BD61F06EB86071F2606FA24
:1009700007F18843D61F06EB860605FA06F1084301
:10098000206310E0E06AA2F10D0606EB86071F2641
:1009900006FA07F18843A2F10D0606EB860605FA72
:1009A00006F10843E062F0BD816841F00801816012
:1009B000704721B1826842F4A002826003E082683D
:1009C00022F4A00282607047816841F004018160D6
:1009D000704700BFFEE7000010B54FF0E0208469CB
:1009E00078480078022827D1142003F049FF01211C
:1009F000754801F06BF9F8B97448006828B94FF0F0
:100A0000E02080697149086016E04FF0E0208069BD
:100A10006E490968401A142806D3042069490870F1
:100A200000206A49086007E002F090FC68A003F02B
:100A3000AFF90320634908706A480078022824D17E
:100A400003F01EFF0221604801F040F9D0B966486A
:100A50000068201A142803D304206249087014E0A7
:100A60006148006861490968401A0A2806D80520CB
:100A70005C49087000205D49086006E00320594980
:100A8000087002E000205749087056480078032893
:100A900011D15548006855490968401A0A2803D8F9
:100AA00005205049087006E000204E4908704E4865
:100AB00000684E4908604B480078042805D14CA0D6
:100AC00003F066F900204749087046480078052879
:100AD00005D14DA003F05CF900204249087051484F
:100AE0000078022825D1142003F0CAFE04213648DC
:100AF00001F0ECF8E8B94C48006828B94FF0E02064
:100B000080694949086014E04FF0E0208069464957
:100B10000968401A142806D30420424908700020AE
:100B20004149086005E041A003F032F903203D4946
:100B300008703C480078042805D142A003F028F949
:100B40000320384908704548007802280DD1142048
:100B500003F096FE08211C4801F0B8F828B940A01F
:100B600003F016F903203D49087043480078022835
:100B700025D1142003F084FE1021134801F0A6F8BB
:100B8000E8B93E48006828B94FF0E02080693B4949
:100B9000086014E04FF0E020806938490968401A85
:100BA000142806D304203449087000203349086013
:100BB00005E033A003F0ECF803202F4908702E481D
:100BC000007810BD08000020001001401000002037
:100BD000546F67676C655F506F7765722072756ED2
:100BE0000D0A00000900002014000020440000202D
:100BF000427574746F6E2032204C6F6E6720507295
:100C000065737365640A0000427574746F6E2032F8
:100C100020446F75626C6520436C69636B65640A80
:100C2000000000000A00002018000020456E7465D6
:100C3000725F5245435F4D6F64652072756E0D0A99
:100C400000000000566965775F486973746F7279B8
:100C50005F446174612072756E0D0A000B00002004
:100C60004C6F636B5F556E6C6F636B5F4461746157
:100C70002072756E0D0A00000C000020200000207C
:100C80005363726F6C6C5F446F776E2072756E2069
:100C90000D0A00001FB50121152001F05DFB102099
:100CA0008DF80F00ADF80C0003208DF80E0003A99D
:100CB0002F4800F037FF3F20ADF80C0028208DF8BA
:100CC0000F0003A92B4800F02DFF0021022000F0A7
:100CD00009FF0121022000F005FF0221084600F073
:100CE00001FF0321022000F0FDFE0421022000F09C
:100CF000F9FE0521022000F0F5FE3F2001900020C2
:100D00008DF808000C208DF8090001208DF80A00EC
:100D100001A800F085FE06208DF8000002208DF865
:100D200001008DF8020001208DF80300684601F0F3
:100D300063F907208DF80000684601F05DF908208E
:100D40008DF80000684601F057F909208DF8000081
:100D5000684601F051F90A208DF80000684601F05C
:100D60004BF917208DF80000684601F045F91FBDCA
:100D7000000801400010014000B589B001210520A4
:100D800001F0EAFA0121084601F0D6FA01211E48D5
:100D900000F054FF4FF40040ADF8200018208DF80B
:100DA000230003208DF8220008A9184800F0BAFE9D
:100DB00040F2E730ADF818004720ADF814000020ED
:100DC000ADF81A00ADF8160005A94FF0804002F00A
:100DD0006BFA6020ADF804000120ADF80600002099
:100DE000ADF80A00ADF80C0001A94FF0804002F008
:100DF0009FF90121880702F07AF94FF40041034876
:100E000000F06DFF09B000BD0003180000080140AC
:100E100010B500214FF0804002F041FA10BD10B52E
:100E20004FF4FA71080702F03AFA10BD70B50546A2
:100E30004FF08040008D401C68430A490968B1FBAF
:100E4000F0F0401E84B221464FF0804002F025FAB7
:100E5000264604EBD67041104FF0804002F01FFA96
:100E600070BD0000700000200146CAB20B1243EAB8
:100E70000220704770B500244FF496750DE04FF4D2
:100E8000FA70FFF7D3FF822003F020FDFFF7C0FFC9
:100E9000782003F01BFD601C84B2AC42EFDB70BD18
:100EA00008B50020009022E19748008800F00F006C
:100EB000964908700846007800287CD1944800685C
:100EC000944908800846008800F030009249088064
:100ED0009048008800F440508E4908808C49096889
:100EE0004BF6BF7201EA020080F4005080F020004F
:100EF00040F4004141F08001854A11608248008839
:100F000000F0100090BB1046006848F60F710840D2
:100F10001146086000F08EFF7D4909684BF6BF72EC
:100F200001EA02007B49098801F4805109B180F48B
:100F300080507849098801F4005109B180F40050CB
:100F40007549098801F0100109B180F0100072495B
:100F5000098801F0200109B180F0200081B241F43C
:100F6000004141F080016A4A116008BDFFE768480E
:100F7000006880B20090BDF8000000F40060B0B3DB
:100F800063480068C0F30E0048F68F71084060495E
:100F9000086001F097FC5E4909684BF6BF7201EAF0
:100FA00002005C49098801F4805109B180F4805045
:100FB0005849098800E056E001F4005109B180F475
:100FC00000505549098801F0100109B180F0100066
:100FD0005149098801F0200109B180F0200081B257
:100FE00041F4004141F08001494A1160BDE7FFE74B
:100FF000BDF8000000F40040002878D044480068A4
:10100000C0F30E0048F68F7108404149086001F0B6
:10101000F5F83F4909684BF6BF7201EA02003D4905
:10102000098801F4805109B180F480503949098858
:1010300001F4005109B180F400503749098801F0EA
:10104000100109B180F010003349098801F0200136
:1010500009B180F0200081B241F4004141F08001EB
:101060002B4A116081E7294800782C4901EB800068
:10107000D0F8000C80B20090BDF8000000F40040F1
:10108000C0B12248007801EB8000D0F8000CC0F31A
:101090000E0048F68F7108401C4909781F4A02EB80
:1010A0008101C1F8000C19490978491E1C4A52F8FF
:1010B00021008047BDF8000000F08000B8B113485F
:1010C0000078164901EB8000D0F8000C48F60F714B
:1010D00008400E490978114A02EB8101C1F8000C61
:1010E0000A490978491E0F4A52F8210080470848EA
:1010F0004430006880B20449088000F400400028B1
:101100007FF4D2AE00BF30E7CC0000209400002076
:10111000005C0040A8000020AA0000200050004011
:10112000F4000020D80000200B4A02EB8001D1F827
:10113000001C01F4804171B102EB8001D1F8001C68
:1011400048F68F7211404CF280021143024B03EBC0
:101150008002C2F8001C7047005000400B4A02EBAE
:101160008001D1F8001C01F0400171B102EB800157
:10117000D1F8001C48F68F72114048F2C0021143AA
:10118000024B03EB8002C2F8001C70470050004085
:10119000084A02EB8001D1F8001C48F68F6211402A
:1011A00048F280021143034B03EB8002C2F8001C9B
:1011B000704700000050004021B1026842F0010277
:1011C000026004E002684FF6FE731A400260704746
:1011D00001684FF6FE72114001600021016041601C
:1011E0008160C1604B49884208D14A490839496841
:1011F00041F00F01474A083A51608AE045491431ED
:10120000884208D143490839496841F0F001414A10
:10121000083A51607DE03F492831884208D13D4974
:101220000839496841F470613A4A083A516070E0FF
:1012300038493C31884208D136490839496841F477
:101240007041344A083A516063E032495031884273
:1012500008D130490839496841F470212D4A083ACB
:10126000516056E02B496431884208D12949083938
:10127000496841F47001274A083A516049E025491C
:101280007831884208D123490839496841F07061B2
:10129000204A083A51603CE01F49884206D1011FAC
:1012A000096841F00F01021F116032E01A49143140
:1012B000884208D11849091F096841F0F001164A0F
:1012C000121F116025E014492831884208D11249C3
:1012D000091F096841F470610F4A121F116018E07C
:1012E0000D493C31884208D10B49091F096841F476
:1012F0007041094A121F11600BE0074950318842C2
:1013000007D10549091F096841F47021024A121FDB
:1013100011607047080002400804024010B5002226
:10132000026847F6F0739A430C6A8B6823430C6992
:1013300023434C6923438C692343CC6923434C6A80
:1013400023438C6A23431A430260CB6843600B68D3
:1013500083604B68C36010BD2DE9F04728480068E2
:1013600000F110052E8826480068077AD6B9042FA8
:1013700018D12448007801280FD1002122480068A4
:1013800080B2801C214A42F8101030202049088089
:1013900000BF00201B49087003E0072710201C49EC
:1013A000088027E0AC88A64201D8042000E0022093
:1013B0000746B44200D93446A0B2A968884780469F
:1013C000002000F0B3FC8146A2B24946404602F03C
:1013D00083FBA1B2002001F09DF92888001B288022
:1013E0006888204468803020094908800002094943
:1013F000088000BF024909680F72BDE8F08700004D
:101400009800002090000020505C004000600040E8
:10141000AA000020A80000202DE9F041284800681B
:1014200000F110042688A068C0B1BEB1A588B542FD
:1014300000D93546A8B2A168884707462088401BD6
:101440002080608828446080002000F04DFC8046A9
:10145000AAB24146384600F0F9FE00BF208850B1DC
:101460004FF44050174908800021084601F052F916
:101470003020154908802088A188884204DB032099
:101480000F490968087218E02088002804DD05204B
:101490000B490968087210E0208870B906200849D5
:1014A0000968087200210948006880B2801C084A57
:1014B00042F81010302004490880BDE8F081000097
:1014C00098000020A8000020AA000020505C0040E6
:1014D000006000402DE9F84F9B48006845780027E0
:1014E000BA46062D1BD198480068007800F07F00AE
:1014F000002813D1944909688878012803D19349B9
:101500000968CF690AE0022803D1904909680F6A87
:1015100004E0032802D18D4909684F6A94E0002D48
:1015200064D189480068408800285FD186480068F7
:10153000C08802285AD1844800680079002855D113
:1015400081480068007800F07F0028B97E48006874
:10155000808808B97E4F77E07B480068007800F00B
:101560007F00012810D178490968487977490968CE
:101570008A6900219047002866D173480068807A04
:10158000002861D0724F5FE06F480068007800F07B
:101590007F00022858D16C480068407900F00F069F
:1015A00069480068407900F0700967480068407930
:1015B00000F0800038B1674901EB8600D0F8000CDC
:1015C00000F0300806E0634901EB8600D0F8000C1B
:1015D00000F4405860480078B04235D9B9F1000FA6
:1015E00032D1B8F1000F2FD0594F2DE0082D07D17F
:1015F00055480068007800F07F0028BB574F23E073
:101600000A2D21D150480068007800F07F000128A1
:101610001AD14D480068807AB0B14B4800684088C4
:1016200090B949480068007970B947480068C08897
:10163000012809D1444909684879444909688A69F7
:101640000021904700B9464F57B13F480068A0F8C5
:1016500012A03D48006887610020B84700240FE0D1
:10166000394A12685078394A126811698847044625
:10167000032C05D10920344909680872BDE8F88FA8
:1016800031480068008A4FF6FF71884204D1092072
:101690002D4909680872F1E7022C03D02A48006836
:1016A000008A20B90820284909680872E6E7264818
:1016B0000068007800F08000E0B323480068C0882C
:1016C000009021480068008A0099884204D91E4988
:1016D00000980968088223E01B480068008A1A49BC
:1016E0000968C98888421BDA17480068008A1749C8
:1016F000096891F82C10884203DA00201949087013
:101700000EE011480068008A1049096891F82C1011
:1017100090FBF1F201FB120010B901201149087091
:101720000A48006890F82C10074800688182FFF78B
:1017300013FE07E0FFE7032003490968087200036E
:101740000949088000BF99E7980000209C0000200C
:10175000652B0008005000401C010020E92A000809
:10176000392B000890000020A800002070470000DE
:1017700070B52248B0F802042049B1F8001488423C
:1017800000D170BD1D48B0F802041C49B1F8001426
:10179000884208DA1948B0F800041849B1F8021470
:1017A000401A84B205E01548B0F80204C0F5806024
:1017B00084B2402C00DD40241048B0F80254B0F848
:1017C000020420440D49A1F802040846B0F80204BE
:1017D000B0F5806F02DB0020A1F802040749481928
:1017E0002246C02102F078F92146012000F092FF44
:1017F000012000F0BDFF00BFC3E70000640300202C
:1018000010B50649032002F0E3F884B2E1B20348C0
:1018100002F0F6F8032000F053FF10BDF808002096
:1018200010B5012000F0E8F878B101F08FFD02203A
:10183000064908704FF0E02080690549086005A05E
:1018400002F0A6FA012000F0D1F810BD0800002037
:1018500010000020504F57455220627574746F6E0F
:1018600020707265737365640D0A000010B5022064
:1018700000F0C2F878B10220074908704FF0E0206C
:1018800080690649086006A002F082FAFFF7F2FAC2
:10189000022000F0ABF810BD090000201400002069
:1018A000555020627574746F6E2070726573736525
:1018B000640D0A0010B5042000F09EF888B10220E3
:1018C000084908704FF0E02080690749086007A0C8
:1018D00002F05EFA00F040FB03F01EF8042000F076
:1018E00085F810BD0A000020180000205245432052
:1018F000627574746F6E20707265737365640D0A1F
:101900000000000010B5082000F076F888B1022031
:10191000084908704FF0E02080690749086007A077
:1019200002F036FA02F05AFF00F0DCFA082000F06C
:101930005DF810BD0B0000201C0000204C4F434BF5
:1019400020627574746F6E20707265737365640DB8
:101950000A00000010B5102000F04EF878B1022007
:10196000074908704FF0E02080690649086006A02A
:1019700002F00EFAFFF753FA102000F037F810BD0E
:101980000C00002020000020444F574E2062757448
:10199000746F6E20707265737365640D0A000000C9
:1019A00010B5202000F028F878B10220074908700F
:1019B0004FF0E02080690649086006A002F0E8F9CF
:1019C000FFF726FA202000F011F810BD0D000020CE
:1019D00024000020503D3020627574746F6E2070BA
:1019E0007265737365640D0A0000000001490860A8
:1019F0007047000014040140014600200022074BFC
:101A00001B6803EA0102054B14331B680B4013B13A
:101A10000AB1012000E000207047000000040140EE
:101A2000002123498279002A3AD00A4612680368C5
:101A30009A430B461A600A1D126803689A430B1DED
:101A40001A60027911440A6803681A430A60184A46
:101A50000832126803689A43154B08331A601A1D3E
:101A6000126803689A43124B0C331A604279102AA9
:101A70000ED11A1F126803681A430D4B08331A60FF
:101A80001A1D126803681A43094B0C331A600DE0E3
:101A90000749427911440A6803681A430A6005E05D
:101AA000027911440A6803689A430A60704700008B
:101AB0000004014010B503A002F06AF903200849B0
:101AC000086010BD75736220656E746572206C6F5E
:101AD0007720706F776572206D6F64650D0A000066
:101AE000A401002030B500228B071C0F0F2303FA3E
:101AF00004F20B4B8C1053F824309343084C8D1098
:101B000044F8253023468C1053F824308C07240FDA
:101B100000FA04F42343024C8D1044F8253030BD04
:101B2000080001402DE9F041024600250026002072
:101B300000230024002791F803C00CF00F0591F852
:101B400003C00CF0100CBCF1000F03D091F802C0E0
:101B50004CEA050591F800C0BCF1000F31D01468C3
:101B600000202BE04FF0010C0CFA00F3B1F800C09C
:101B70000CEA03069E4220D183004FF00F0C0CFAB2
:101B800003F7BC4305FA03FC4CEA040491F803C0D4
:101B9000BCF1280F06D14FF0010C0CFA00FCC2F882
:101BA00014C00AE091F803C0BCF1480F05D14FF012
:101BB000010C0CFA00FCC2F810C0401C0828D1D35C
:101BC0001460B1F800C0BCF1FF0F34DD5468002090
:101BD0002EE000F1080C4FF0010808FA0CF3B1F800
:101BE00000C00CEA03069E4221D183004FF00F0C87
:101BF0000CFA03F7BC4305FA03FC4CEA040491F821
:101C000003C0BCF1280F05D100F1080C08FA0CF84C
:101C1000C2F8148091F803C0BCF1480F07D100F15D
:101C2000080C4FF0010808FA0CF8C2F81080401CAC
:101C30000828CED35460BDE8F0810000F0B50A4614
:101C4000002300240021002500F00046B6F1004FDB
:101C500002D11D4EF16901E01B4E7168C0F30345CE
:101C600083B200F44016B6F5401F08D121F0706130
:101C7000154E766826F07066134F7E6012E000F411
:101C80008016B6F5801F06D1032606FA05F4A14397
:101C900041F0706106E0460D360103FA06F6B143E5
:101CA00041F0706122B1460D360103FA06F6314368
:101CB00000F00046B6F1004F02D1034EF16101E0A1
:101CC000014E7160F0BD000000000140024600209E
:101CD00093680B400BB1012000E000207047416188
:101CE000704701617047000001460548006880B2F6
:101CF00000EBC100001D034A32F8100080B27047AB
:101D0000505C00400060004001460648006880B218
:101D100000EBC100801D044A32F81000C0F3090036
:101D200070470000505C00400060004001460548DC
:101D3000006880B200EBC100034A32F8100080B2A4
:101D400070470000505C00400060004070B50A48D9
:101D50000468001D0568001D0668344454B108225B
:101D60000649204600F09EF8042204491031284616
:101D700000F098F870BD0000E8F7FF1FB0000020E9
:101D800070B504460D46002621E004F0800028B11D
:101D90004FF480510F48FFF7A4FF04E04FF4805147
:101DA0000C48FFF79CFF4FF400510A48FFF797FFDC
:101DB000022002F08BFD4FF400510648FFF791FF1F
:101DC0006006040E042002F081FD701CC6B2AE4213
:101DD000DBDB70BD000C014070B504460D460026EB
:101DE00020E004F0010028B14FF480510F48FFF7C4
:101DF00078FF04E04FF480510C48FFF770FF4FF478
:101E000000510A48FFF76BFF022002F05FFD4FF41C
:101E100000510648FFF765FF6410042002F056FDEC
:101E2000701CC6B2AE42DCDB70BD0000000C01408D
:101E300000BFFEE710B518480068047A022C01D0F4
:101E4000042C05D1FFF788FA13480068047A1CE0D7
:101E5000062C19D110480068407805280ED10E488C
:101E60000068007800F07F0040B90B490968C87825
:101E700000F0A6FB09490968086A80470849096813
:101E800088688047082400E00824034909680C7228
:101E900000F0F2F910BD000098000020A40000201E
:101EA0009C00002030B50B46002100BF16E00A243C
:101EB000B4EB107F05D9302404EB107403F8114003
:101EC00005E0412404EB10740A3C03F811400001C2
:101ED00000254C00641C1D554C1CE1B29142E6DB10
:101EE00030BD000010B508210448FFF7F8FE0020BF
:101EF00000F046FB022000F043FB10BD000C014047
:101F000008B50121282000F027FA0820ADF80000CC
:101F100010208DF8030003208DF8020069460D485B
:101F2000FFF700FE4FF47040ADF8000010208DF870
:101F3000030001208DF8020069460648FFF7F2FD14
:101F400008210448FFF7CBFE4FF470410148FFF72A
:101F5000C8FE08BD000C014010B508210448FFF779
:101F6000C0FE012000F00CFB032000F009FB10BDB7
:101F7000000C014010B5074C07A001F009FFA07A42
:101F800018B105200A49086002E0012008490860EC
:101F900010BD0000480300206C65617665206C6F01
:101FA0007720706F776572206D6F64650D0A000091
:101FB000A401002010B500F095FF02F03FFC00F0F6
:101FC00015F84FF4E13002F087FD01F073FDFEF7E4
:101FD0009FFBFEF75FFE00F0EDF800F0B3FFFEF7A9
:101FE000CBFE10BD00BFFEE77047704710B54FF441
:101FF000A06000F039F810BD70B5002100230F2259
:10200000C47804B3154C246804F4E064C4F5E064B7
:10201000210AC1F10403CA40447804FA03F1847828
:102020001440214309010E4C0678A155047804F0B0
:102030001F050124AC4005786D11AD0005F1E025C8
:10204000C5F8004109E0047804F01F050124AC4004
:10205000044D0678761145F8264070BD0CED00E081
:1020600000E400E080E100E002490143024A11601F
:10207000704700000000FA050CED00E070B5022684
:1020800047480068447846480068007800F07F00C0
:10209000002844D1092C03D100F0E4FD06465FE09E
:1020A000052C14D13E480068C0787F280BDC3C48E2
:1020B0000068807838B93A480068808818B938488C
:1020C0000068807A08B1082565E0002648E0032C06
:1020D0000ED133480068C078012807D13048006825
:1020E000808818B900F0E2FD064639E0022637E0A4
:1020F000012C35D12A480068C07801280DD1284824
:102100000068808848B926480068407A00F02000BE
:1021100018B100F033FC064622E0022620E02048F9
:102120000068007800F07F00012805D10B2C17D142
:1021300000F038FE064613E019480068007800F009
:102140007F0002280BD1012C03D100F017FC0646BA
:1021500006E0032C04D100F0BDFD064600E0022697
:102160004EB1E0B20F4A1268516988470646032E05
:1021700001D109250FE00EB108250CE0062500214C
:102180000948006880B2801C084A42F810103020CC
:102190000749088000BF024909680D7270BD000040
:1021A000980000209C000020505C0040006000402F
:1021B000AA00002008B50121084600F0CDF8012151
:1021C0000C48FFF73BFD0121082000F0C5F8102066
:1021D0008DF803000820ADF8000002208DF8020001
:1021E00069460548FFF79EFC08210348FFF777FD85
:1021F00008BD000000023000000C014010B511487D
:102200000068047A022C01D0042C01D1082412E0C9
:10221000032C01D0052C05D1FFF7FEF80948006812
:10222000047A08E0072C05D107490968C868804787
:10223000082400E00824034909680C7200F01CF827
:1022400010BD0000980000209C000020F0B5561C36
:102250007510074E06EB41042B4605E034F8047B6D
:1022600020F8017B401C5B1E002BF7D1F0BD000065
:10227000006000407047000010B50D4890F82C1029
:10228000002000F0D7F90B480068007A082805D133
:102290004002094908801020084908800548006864
:1022A000007A092801D1012010BD0020FCE70000C0
:1022B0002001002098000020A8000020AA00002093
:1022C00010B5012001F0EEF901240B480460002054
:1022D0000A49088008460088074908600020091D4F
:1022E00008604FF4E050054908800846008802491C
:1022F0000860002010BD0000405C0040A2000020EB
:1023000001460020034A506820F4404008435060D2
:10231000704700000010024029B1064A526902438A
:10232000044B5A6104E0034A52698243014B5A61EB
:10233000704700000010024029B1064AD2690243EA
:10234000044BDA6104E0034AD2698243014BDA614B
:10235000704700000010024029B1064A926902430A
:10236000044B9A6104E0034A92698243014B9A61EB
:10237000704700000010024030B500210022002408
:1023800000232D4D6D6805F00C0121B1042905D005
:10239000082923D105E0294D056022E0274D05607D
:1023A0001FE0254D6D6805F47012234D6D6805F42E
:1023B0008034022505EB92421CB9214D554305603E
:1023C0000BE01D4D6D6805F400351DB11C4D5543E6
:1023D000056002E0194D5543056002E0174D0560A8
:1023E00000BF00BF144D6D6805F0F0010909154DDF
:1023F0006B5C0568DD4045600F4D6D6805F4E0617C
:10240000090A104D6B5C4568DD4085600A4D6D68BA
:1024100005F46051C90A0B4D6B5C4568DD40C56031
:10242000054D6D6805F44041890B074D6B5CC5682F
:10243000B5FBF3F5056130BD0010024000127A00D3
:1024400000093D005C0000206C000020014908608C
:1024500070470000D800424270B50546072D01D0F4
:102460002E4805702D48007808284ED2DFE800F08D
:1024700004111A202B384E4F2948006828B900F063
:1024800053F806202549087002E00520234908700A
:1024900041E000F049F8042020490870012020495B
:1024A000086038E002201D4948700320087032E0BF
:1024B0001A484078401E194948700846407808B9C3
:1024C0000420087027E01748006884B244F0100424
:1024D000144804600520114908700A2048701AE069
:1024E0000E484078401E0D4948700846407858B95B
:1024F0000C48006884B224F010040A4804600620E6
:10250000087000200649086005E000BF00BF0620F3
:102510000249087000BF00BF70BD0000A901002083
:10252000AC010020405C004010B50748006884B250
:1025300024F0040404480460FFF71CFD4FF43F40FE
:102540000149086010BD0000405C004010B509481A
:10255000006805280CD1084801680068401C064A3C
:102560001060052904D1002011460860FFF700F92A
:1025700010BD0000A4010020C8000020704700002A
:1025800010B504464FF400410848FFF7A8FB0321AB
:102590008020FFF7F5FB09212046FFF7F1FB4FF400
:1025A00000410248FFF79DFB10BD0000000C0140F8
:1025B0004FF6F8710140014A11607047505C0040CD
:1025C00030B501460F4B1A78002014E003060E4C7C
:1025D00004EB9353D3F8003C48F68F74234048F241
:1025E00080042343C4B223430406074D05EB9454EF
:1025F000C4F8003C401C9042E8D341F08003034CF7
:10260000236030BD1C010020005000404C5C0040A5
:1026100010B54A105300054A126892B202EBC0028C
:10262000121D034C44F8123010BD0000505C0040F5
:102630000060004010B502460F48006880B200EB11
:10264000C200801D0D4C04EB40033E290BDD4811F8
:1026500001F01F040CB9441EA0B24FF4004444EA38
:1026600080241C6007E0481001F001040CB1441CF8
:10267000A0B284021C6010BD505C004000600040AD
:1026800030B50E4C04EB8003D3F8003C4BF68F744E
:1026900003EA040201F480530BB182F4805201F486
:1026A00000530BB182F4005242F4004343F0800324
:1026B000024D05EB8004C4F8003C30BD00500040E2
:1026C00010B50B4B03EB8002D2F8002C4BF68F7346
:1026D00002EA030181F4805181F4005141F4004287
:1026E00042F08002024C04EB8003C3F8002C10BDC2
:1026F0000050004010B54A105200044B1B689BB2BA
:1027000003EBC003024C44F8132010BD505C0040A2
:1027100000600040044A126892B202EBC002921CB0
:10272000024B43F812107047505C004000600040BC
:1027300030B50E4C04EB8003D3F8003C48F6BF7470
:1027400003EA040201F010030BB182F0100201F061
:1027500020030BB182F0200242F4004343F08003D7
:10276000024D05EB8004C4F8003C30BD0050004031
:1027700010B50B4B03EB8002D2F8002C48F6BF7368
:1027800002EA030181F0100181F0200141F40042CE
:1027900042F08002024C04EB8003C3F8002C10BD11
:1027A0000050004010B5074B03EB8002D2F8002C1C
:1027B00048F68F131A400A43024C04EB8003C3F817
:1027C000002C10BD0050004010B500F001F810BD05
:1027D0000CB50020019000903348006840F4803030
:1027E0003149086000BF3048006800F400300090B4
:1027F0000198401C0190009818B90198B0F5A06F9D
:10280000F1D12948006800F4003010B10120009097
:1028100001E0002000900098012843D1234800687F
:1028200040F01000214908600846006820F00300CD
:1028300008600846006840F0020008601A484068D6
:10284000194948600846406848600846406840F4B6
:10285000806048600846406820F47C104860084664
:10286000406840F4E81048600846006840F0807016
:10287000086000BF0C48006800F000700028F9D024
:102880000948406820F0030007494860084640684E
:1028900040F00200486000BF0348406800F00C00B0
:1028A0000828F9D10CBD00000010024000200240B1
:1028B00010B50020FFF7CAFD0121C805FFF73CFD58
:1028C00010BD000038B501242948006880B2001D01
:1028D000284931F8100080B201EB400000902648F2
:1028E0000068007A092832D00098007822490968E7
:1028F00008700098401C0090009800781E490968F4
:1029000048700098401C0090009800EB4400009034
:10291000009931F8020B0091FEF7A6FA16490968F2
:102920004880009800EB44000090009931F8020BB9
:102930000091FEF799FA104909688880009800EB29
:1029400044000090009800880B490968C880012065
:1029500009490968087208480068C08810B9FFF77B
:102960008DFB01E0FEF7B6FDFFF786FC38BD0000E9
:10297000505C004000600040980000202DE9F047C6
:1029800054480068007800F07F08B8F1000F0AD1C1
:1029900050480068407A00F0DF004E4909684872EC
:1029A0000020BDE8F087B8F1020F7CD149480068EB
:1029B000408818B947480068007908B10220F0E75C
:1029C000DFF8149143480068477927F080052C46CA
:1029D00040480068407900F0800038B13F4901EB81
:1029E0008400D0F8000C00F0300606E03B4901EB13
:1029F0008400D0F8000C00F4405699F80000A8427A
:102A000004D91EB133480068807A08B90220C8E7AB
:102A100007F0800080B1314901EB8400D0F8000C50
:102A200000F0300010284BD1E0B2FEF797FBE0B287
:102A30003021FFF77DFE43E0284901EB8400D0F808
:102A4000000C00F44050B0F5805F39D1E4B9244A5D
:102A500092F82C10E0B2FFF7EDFD204A02EB840162
:102A6000D1F8001C4BF68F7201EA020080F480500E
:102A700080F4005040F4004141F08001174B03EB1B
:102A80008402C2F8001C1BE0E0B2FEF74DFB134AC3
:102A900002EB8401D1F8001C4BF68F7201EA0200B0
:102AA00080F4805000E011E080F4005040F40041D8
:102AB00041F08001094B03EB8402C2F8001C00BF07
:102AC000084909684869804700206AE700BF02207A
:102AD00067E70000980000201C0100200050004023
:102AE00020010020A400002010B504462CB90120CC
:102AF000064909680882002010BD05490968086870
:102B00008047024800680A30F6E70000980000207D
:102B1000A400002010B5024606480068438A32B976
:102B20008888C01A034C24682082002010BD0868E1
:102B30001844FBE79800002010B504462CB901208A
:102B4000064909680882002010BD0549096888689F
:102B50008047024800680C30F6E70000980000202B
:102B6000A400002010B504462CB902203949096898
:102B70000882002010BD00203749088035480068D1
:102B8000007800F07F0018BB32490968487A00F0ED
:102B9000200131B13049097841F002012E4A11700B
:102BA00005E02D49097801F0FD012B4A117000F074
:102BB000400131B12849097841F00101264A1170DC
:102BC00005E02549097801F0FE01234A11703AE039
:102BD00020480068007800F07F00012801D11E48DD
:102BE000C8E71C480068007800F07F00022828D160
:102BF000184A1268517901F00F0001F080027AB191
:102C0000164B03EB8002D2F8002C02F03002102A9F
:102C100016D1114A127842F001020F4B1A700FE0E0
:102C20000E4B03EB8002D2F8002C02F44052B2F5B6
:102C3000805F05D1084A127842F00102064B1A70F3
:102C400001E0002096E706490968086980470248C4
:102C500090E70000980000208E0000200050004007
:102C6000A400002010B50E480068C0780D494978CE
:102C7000884213DC0A480068807878B90848006800
:102C8000808858B906480068C07805490968887284
:102C90000549096848688047002010BD0220FCE70C
:102CA000980000201C010020A400002010B5074857
:102CB0000068407A40F020000449096848720449DD
:102CC0000968C8698047002010BD000098000020F6
:102CD000A40000202DE9F0412E480068467926F036
:102CE00080073C462B480068407900F0800038B1EE
:102CF000294901EB8400D0F8000C00F0300506E013
:102D0000254901EB8400D0F8000C00F4405523481D
:102D10000078A04208D91F480068408820B91DB13A
:102D20001C480068807A10B90220BDE8F08106F0E6
:102D30008000A0B1184A02EB8401D1F8001C48F6CB
:102D4000BF7201EA020080F0100040F4004141F03F
:102D50008001114B03EB8402C2F8001C14E00E4A00
:102D600002EB8401D1F8001C4BF68F7201EA0200DD
:102D700080F4805040F4004141F08001064B03EBA9
:102D80008402C2F8001C00BF0549096888698047B1
:102D90000020CAE798000020005000401C010020DD
:102DA000A400002010B5174B1B68D978154B1B6881
:102DB0005879154B1B689A6990470446114800687A
:102DC000807AE8B13CB90F480068007918B90D481D
:102DD0000068807808B1022010BD8CB90B490968E1
:102DE000C868804707480068407906490968C87282
:102DF00004480068C0780349096808730020EBE7BD
:102E00000220E9E7980000209C000020A400002098
:102E100038B50025002000902148006884B200BF2A
:102E200009E0204901EB8500D0F8000C80B21E4972
:102E300041F825006D1C082DF3D344F48064184834
:102E4000046044F00104046024F00104046000BF45
:102E50001348001D006800F480600028F8D04FF689
:102E6000FF300F49091D0860002509E00E4850F8A1
:102E7000250080B20B4A02EB8501C1F8000C6D1CE5
:102E8000082DF3D344F0080405480460006884B2B8
:102E900044F0040402480460FEF70CFE38BD000054
:102EA000405C00400050004038090020042808D150
:102EB0004FF0E021096941F004014FF0E022116177
:102EC00007E04FF0E021096921F004014FF0E02212
:102ED0001161704702480068401C01490860704752
:102EE0000000002010B51348006840F001001149AF
:102EF000086008464068104908400E494860084686
:102F000000680E4908400B4908600846006820F434
:102F1000802008600846406820F4FE0048604FF4B6
:102F20001F008860FFF750FC4FF000600449086004
:102F300010BD0000001002400000FFF8FFFFF6FE89
:102F400008ED00E000B589B001210920FFF704FA7F
:102F500001210846FFF7F0F901211F48FEF76EFE38
:102F600018208DF823000820ADF8200002208DF8ED
:102F7000220008A91948FEF7D5FD40F2E730ADF868
:102F800018004720ADF814000020ADF81A00ADF885
:102F9000160005A94FF0804000F086F96020ADF8DA
:102FA00004000120ADF806000020ADF80A00ADF8DD
:102FB0000C0001A94FF0804000F010F901218807B2
:102FC00000F086F80821C80600F05AF901218807A8
:102FD00000F08DF809B000BD00031800000C01409E
:102FE00010B50121084800F091F858B101210648B8
:102FF00000F07AF80548006808B9012000E00020D8
:103000000249086010BD000000040040B4012242E3
:1030100010B52C48007800F0800000284CD1012128
:10302000294800F073F8D0B12648007800F040003D
:10303000A8B12448007800F03F003F280AD1214879
:10304000007840F080001F4908704FF6FF701F495C
:10305000088004E01B480078401C1A4908700221CF
:10306000194800F053F838B31648007800F04000D3
:1030700078B11448007840F0800012490870124876
:1030800000F041F81149088000210F4800F09CF839
:1030900012E000200B4908700C49088000210A4802
:1030A00000F0FFF80748007840F04000054908703C
:1030B0000221054800F088F80321034800F014F8C5
:1030C00010BD000004000020000C0040060000209D
:1030D00021B1028842F08002028004E002884FF6AB
:1030E0007F731A4002807047CA430282704721B141
:1030F000028842F00102028004E002884FF6FE736B
:103100001A40028070470146888E704730B50246EB
:10311000002000230024158A05EA0103958905EAA9
:10312000010413B10CB1012000E0002030BD00000B
:1031300070B5002400220023058C4FF6FE76354042
:103140000584028C8388048B4FF68F752C40B51E46
:103150002C400D882C43751E2A400D892A434D882A
:103160002A43144DA8420BD0134DA84208D0134D4A
:10317000A84205D0124DA84202D0124DA84213D148
:103180004FF6F7752A404D892A434FF6FB752A40C2
:103190008D882A434FF6FF652B404FF6FF552B4095
:1031A0008D892B43CD892B4383800483CD888586ED
:1031B000028470BD002C01400034014000400140F9
:1031C00000440140004801400A460021018C4FF6AE
:1031D000FD731940114301847047000070B500244D
:1031E00000220023058C4FF6EF7635400584028CD3
:1031F0008388048B48F6FF752C404FF6FF452C4022
:103200000D884FF6FF7606EA05252C434FF6DF754D
:103210002A400D8906EA05152A434D8806EA051558
:103220002A43154DA84202D0144DA8421DD14FF695
:103230007F752A404D894FF6FF7606EA05152A4329
:103240004FF6BF752A408D8806EA05152A434FF6CA
:10325000FF352B404FF2FF752B408D8906EA85051F
:103260002B43CD8906EA85052B4383800483CD88D3
:103270000587028470BD0000002C0140003401402D
:103280000A460021018B4FF2FF7319404FF6FF737E
:1032900003EA0223194301837047818570478186C1
:1032A0007047818470470000002202881D4B9842BD
:1032B0000ED01D4B98420BD0B0F1804F08D01B4B65
:1032C000984205D01A4B984202D01A4B984204D12A
:1032D0004FF68F731A404B881A43174B984207D00A
:1032E000164B984204D04FF6FF431A40CB881A433E
:1032F00002808B8883850B8803850A4B98420BD00C
:10330000094B984208D00E4B984205D00D4B98427D
:1033100002D00D4B984201D10B7A038601238382A0
:1033200070470000002C01400034014000040040C0
:1033300000080040000C0040001000400014004055
:1033400000400140004401400048014010B50948D8
:10335000007838B910210848FEF7C3FC0120054960
:10336000087006E010210448FEF7B9FC002001496E
:10337000087010BD5B0000200008014070B540F2ED
:103380002551244800F0C2F8002841D0214800F01F
:1033900079F9C4B22048008800F40040C0BB1E4840
:1033A000008800F4804060B10A2C03D000201A4944
:1033B00008802DE01848008840F400401649088035
:1033C00026E00D2C06D11448008840F480401249B4
:1033D00008801DE010480088C0F30D000F490C5410
:1033E0000D480088401C0C49088008460088C72802
:1033F00001DD0020088040F22551064800F010F859
:10340000044800F03FF905462946024800F03FF91C
:1034100070BD0000003801408C00002080020020B8
:1034200010B50022002340F66A14A14200D100BF6B
:103430000A1201249440A3B2DC43048010BD21B1E0
:10344000828942F40052828104E082894DF6FF7342
:103450001A4082817047000010B500200E49A1F883
:103460000204A1F800040D4908800D4801790DA05F
:1034700000F08EFC0A48417910A000F089FC084851
:10348000817915A000F084FC0548016819A000F0BE
:103490007FFC012010BD000064030020AC00002070
:1034A000140100206C696E65636F64696E672E6637
:1034B0006F726D61743A25640D0A00006C696E6567
:1034C000636F64696E672E70617269747974797064
:1034D000653A25640D0A00006C696E65636F646966
:1034E0006E672E64617461747970653A25640D0AA3
:1034F000000000006C696E65636F64696E672E6220
:103500006974726174653A25640D0A0070B50246EB
:10351000002400230025002040F66A16B14200D1A5
:1035200000BFC1F3421501F01F03012606FA03F3A1
:10353000012D02D19689334006E0022D02D1168A70
:10354000334001E0968A33400C12012606FA04F457
:103550001688344013B10CB1012000E0002070BD8A
:10356000F0B50346002400260025002040F66A1727
:10357000B94200D100BF1846C1F3421401F01F0642
:10358000012707FA06F5012C01D10C3004E0022CCA
:1035900001D1103000E014301AB107682F430760E2
:1035A00002E00768AF430760F0BD00002DE9F04777
:1035B00086B005460E460024A24600BFA14600275D
:1035C000B08900B100BF2F462C8A4CF6FF70044032
:1035D000F08804432C82AC894EF6F3100440B08886
:1035E00031890843718908430443AC81AC8A4FF6A2
:1035F000FF400440B0890443AC8201A8FEF7BCFE42
:103600001F48874202D1DDF810A001E0DDF80CA0D0
:10361000A88900F4004040B10AEBCA0000EB0A1090
:1036200031684900B0FBF1F807E00AEBCA0000EB93
:103630000A1031688900B0FBF1F86420B8FBF0F0A3
:1036400004012009642101FB1089A88900F40040CD
:1036500040B1322000EBC900B0FBF1F000F00700F0
:10366000044308E0322000EB09106421B0FBF1F0C4
:1036700000F00F0004432C8106B0BDE8F087000085
:103680000038014001468888C0F308007047C1F344
:1036900008028280704710B54FF48020FEF7A6F92B
:1036A00010BD000010B504461CB104A000F070FB72
:1036B00002E008A000F06CFB10BD000075736220F2
:1036C00070756C6C20757020656E61626C650D0A9A
:1036D000000000007573622070756C6C207570209E
:1036E00064697361626C650D0A00000010B50848DA
:1036F00008490860022009680872074807490860FD
:10370000074808490860054909680868804710BDEE
:103710004803002098000020200100209C00002089
:1037200050010020A40000200EB54FF48020FEF7C9
:103730005DF94FF48020009008208DF805000120ED
:103740008DF806006846FEF76BF914208DF8080026
:1037500001208DF8090000208DF80A0001208DF865
:103760000B0002A8FEF748FC2A208DF80800002074
:103770008DF8090002A8FEF73FFC0EBD10B588B019
:10378000002469480068694908800846008800F4F8
:10379000007067490988084050B14FF6FF506249F0
:1037A000086064480078401C62490870FEF7CEFE4D
:1037B0005E48008800F400405D490988084008B16F
:1037C000FDF76EFB5948008800F48060584909886D
:1037D000084030B14FF6FF305349086056494868F9
:1037E00080475248008800F4005051490988084039
:1037F00018B14DF6FF704C4908604C48008800F441
:1038000080504B490988084030B14EF6FF70464958
:1038100008600020FEF720FE4448008800F40060A5
:1038200043490988084060B14448007810B1FFF767
:10383000EFFA02E00220FEF70FFE4FF2FF703A4966
:1038400008603A48008800F48070394909880840C7
:10385000002866D04FF6FF6033490860081D0068F5
:1038600000F40040002856D035480068401C344918
:10387000086008460068032850D92B48001F0068DC
:1038800000F00800002849D12748001F006880B2D6
:103890002C490860002408E02B4901EB8400D0F893
:1038A000000C80B24DF82400641C082CF4D3254889
:1038B000006840F00100234908600846006880B2B3
:1038C0001949091F08601F48006820F001001D49C0
:1038D00008600846006880B21349091F086000BFED
:1038E0001148006800F480600028F9D04FF6FF30DE
:1038F0000D490860002408E05DF8240080B2124AF7
:1039000002EB8401C1F8000C641C082CF4D30020E5
:103910000B49086002E00020094908600720FEF713
:103920009BFD08B010BD0000445C0040CC000020AE
:10393000A2000020CE00002020010020A8010020CD
:10394000D0000020D40000200050004010B5FFF748
:1039500015FF10BD10B5044601210420FEF7FCFC44
:103960003CB10F48006880B220F002000C490860AA
:1039700014E00B48006880B240F00200084908607B
:103980000848006820F47F2006490860084600685F
:1039900040F44C30086000200349086010BD00006E
:1039A000405C004004080140B0012142002006496B
:1039B00008604FF43F4005490880084600880249E6
:1039C000091F086000207047445C0040A2000020EE
:1039D0002DE9F04104460E46002504F07F00FEF775
:1039E00093F9054604F07F00FEF77EF907462A4664
:1039F00039463046FEF72AFC2846BDE8F081000033
:103A000030B503460A46002133E0585C1A4C24883E
:103A100004F400445CBB184C248804F4804464B172
:103A20000A2803D00024144D2C8020E0124C248856
:103A300044F40044104D2C8019E00D2806D10E4CA2
:103A4000248844F480440C4D2C8010E00A4C2488D7
:103A5000C4F30D04094D2855074C2488641C064DF9
:103A60002C802C462488C72C01DD00242C804C1C83
:103A7000E1B29142C9DB30BDAC000020300800202B
:103A80000A49B1F80014094A50541146B1F800141B
:103A9000491CA2F800141146B1F80014B1F5806F6A
:103AA00002D10021A2F80014704700006403002036
:103AB00000BFFEE710B50020FFF74CFF4FF42F705A
:103AC00000F0DEFE0120FFF745FFFEF7F1FEFFF7F5
:103AD0002BFEFFF70BFE10BDF0B5144604F1010CF0
:103AE0004FEA6C07DFF824C00CEB41033D460AE0C7
:103AF0000678401C90F800C046EA0C2223F8022BFE
:103B00009B1C401C6D1E002DF2D1F0BD00600040DA
:103B100070B504460025212C08D1124800680078B1
:103B200000F07F0021280ED10F4D0CE0202C0AD18F
:103B30000C480068007800F07F00212800D10B4D70
:103B400020200B4908700DB9022070BD054800689F
:103B5000856100210348006841820020A8470020B9
:103B6000F3E70000980000209D3B00082D3D000871
:103B70001001002010B5044602492046FEF7CAFF96
:103B800010BD00007C01002010B50446024920460B
:103B9000FEF7C0FF10BD000074010020014629B9E6
:103BA0000820034A12681082002070470148FCE791
:103BB000980000201401002070B5054606480068F2
:103BC000C478042C01DD002070BD044800EBC40162
:103BD0002846FEF79FFFF7E79800002084010020A9
:103BE0000246002901DD02207047012A01DD022082
:103BF000FAE70020F8E7000001460848006800786E
:103C000000F07F00212807D1022901D10020704750
:103C1000222901D10020FAE70220F8E798000020CD
:103C200010B500203449096888723448C079324997
:103C300009684872002030490968C872FEF7B8FC6C
:103C40004FF400710020FEF7ADFD10210020FEF7BB
:103C50006FFD40210020FEF7DBFC80210020FEF7F5
:103C600049FD0020FDF794FA254890F82C1000201B
:103C7000FEF7E0FC0020FEF723FD00210120FEF707
:103C800091FDC0210120FEF735FD20210120FEF726
:103C90004FFD00210120FEF7F3FC4FF4C06102202C
:103CA000FEF780FD4FF480710220FEF723FD002116
:103CB0000220FEF7E5FC20210220FEF739FD00215D
:103CC0000320FEF76FFD4FF488710320FEF7A0FC80
:103CD00040210320FEF7AEFC4FF440510320FEF7D5
:103CE000CFFC00210320FEF723FD0020FEF768FC37
:103CF00001200449086010BD98000020C64B000850
:103D000020010020A40100200348817A11B105217F
:103D1000024A11607047000048030020A4010020FF
:103D20000420014908607047A4010020014629B918
:103D30000820034A12681082002070470148FCE7FF
:103D4000980000201401002010B5054800782028B4
:103D500004D1FFF781FB00200149087010BD00006D
:103D6000100100207047000010B5FDF7EFFF0020A4
:103D7000054909688872FEF7A3FAFFF717FE0020CD
:103D80000249086010BD000098000020A401002036
:103D90000FB4054B10B503A9044A029800F0ECF8E3
:103DA00010BC5DF814FB0000794900088800002071
:103DB00037B514460846064B6A46214600F086F998
:103DC00004466946002000F004FD20463EBD000088
:103DD000D347000802E008C8121F08C1002AFAD120
:103DE00070477047002001E001C1121F002AFBD17B
:103DF000704700002DE9FF5F82B00021DDE904304B
:103E0000020DDDF840B0034318D044F61050A2F282
:103E1000FF3242431514119801281FD0A5EB0B0067
:103E2000401C5FEA000A4FF000064E4FDFF8389161
:103E3000B046504615D5CAF1000413E0119801248C
:103E40004AA3012801D16FEA0B010298119AC0E937
:103E50000031C0E9024206B0BDE8F09FCBF100009E
:103E6000DFE704460021404A491842EB0450CDE9FF
:103E7000001012E0E00707D032463B464046494674
:103E8000FCF77BF98046894632463B461046194688
:103E9000FCF773F906460F466410002CEAD1DDE901
:103EA0000401DDE90023BAF1000F06DAFCF765F939
:103EB00042464B46FCF761F905E0FCF7D0F9424673
:103EC0004B46FCF7CCF904460E460022284BFCF783
:103ED00099FB03D84FF0FF30014607E00022254B45
:103EE00020463146FCF7CEFAFCF773FB102409E0BC
:103EF000002C0ADB0A220023FCF736FA039B30323F
:103F00001A55641E50EA0102F2D1641C039AC4F1EE
:103F100011031444119A012A03D0012208430DD140
:103F20000AE0084304D000204FF0110B119072E713
:103F3000A3EB0B056D1E0DE05B4504DD4FF00002A9
:103F400005F1010504E003DA4FF00002A5F10105D7
:103F5000002AECD002981199C0E90231C0E900456D
:103F600079E70000000014400000F03F300000003E
:103F70000000F0430000E03F2DE9FF4F89B09B4671
:103F80000446002506E025280BD05A460B99904799
:103F9000641C6D1C20780028F5D10DB02846BDE8C2
:103FA000F08F0027B8460122474900E0074314F884
:103FB000013F203B02FA03F00842F7D120782E2877
:103FC00019D114F8010F47F004072A280ED06FF01A
:103FD0002F022078A0F1300109290CD808EB8801C4
:103FE00002EB410100EB0108641CF2E70A98641C33
:103FF00050F8048B0A9020780028CED0642808D08E
:10400000692806D075281ED05A460B9990476D1C1A
:1040100058E00A994FF00A0901C90A91002802DA0A
:1040200040422D2102E0390504D52B218DF82010C6
:10403000012103E0F90704D02021F7E78A4608AE02
:104040000DE00021FAE70A994FF00A0901C90A9127
:10405000F7E74946FCF772F9303106F8011D0028F0
:10406000F7D1ADEB060000F12009780701D44FF03D
:104070000108C84502DDA8EB090000E000208046E9
:10408000002706E008A85A46C05D0B9990476D1CB2
:104090007F1C5745F6DB04E030205A460B999047C9
:1040A0006D1CB8F10001A8F10108F5DC05E016F877
:1040B000010B5A460B9990476D1CB9F10001A9F10B
:1040C0000109F4DC641C65E7092801002DE9FF4FB4
:1040D00095B09A46884606460025EEE1252877D118
:1040E00000242746F94A0121039400E0044316F80E
:1040F000013F203B01FA03F01042F7D130782A2823
:1041000011D06FF02F033078A0F13002092A16D8B1
:10411000039A44F0020402EB820203EB42021044D1
:10412000761C0390EFE758F8042B0392002A03DA79
:10413000504244F40054039044F00204761C30785A
:104140002E2816D116F8010F44F004042A280DD0A9
:104150006FF02F023078A0F13003092B09D807EB5C
:10416000870302EB4303C718761CF3E758F8047B78
:10417000761C30786C280FD006DC4C2817D06828C5
:104180000DD06A2814D104E0742810D07A280FD1F9
:104190000DE044F400140AE044F4801401E044F417
:1041A00040147278824202D104F58014761C761C89
:1041B000307866280BD013DC582877D009DC00282B
:1041C00075D04528F6D04628F4D047281AD193E177
:1041D00018E0632835D0642879D0652812D18BE1A6
:1041E000702873D008DC6728F1D069286FD06E285A
:1041F0000DD06F2806D1ACE073282CD0752874D070
:10420000782853D05246179990476D1C54E1C4F357
:104210000250022809D003280DD0D8F80010042835
:104220000DD00D6008F1040846E1D8F80010EA1737
:10423000C1E90052F6E7D8F800100D80F2E70D70E2
:10424000F0E718F8041B8DF8001000208DF801002D
:10425000EB46012003E058F804BB4FF0FF30610744
:104260004FF0000102D40DE009F101018946B94285
:104270000FDA8145F8DB1BF809100029F4D108E0BA
:1042800009F1010189468142FADB1BF80910002976
:10429000F6D103985346A0EB090721463846179AF2
:1042A00000F080FA284400EB090507E044E008E14B
:1042B0000DE01BF8010B524617999047B9F101091F
:1042C000F7D2534621463846179AF2E039E00A21E0
:1042D000C4F302524FF0000B0091022A06D058F8A6
:1042E000040BC117032A09D00AE023E008F10700F4
:1042F00020F00702F2E80201904605E000B2C11783
:10430000042A01D140B2C117002906DA0A46002169
:10431000404261EB02012D2202E0220504D52B224E
:104320008DF80420012203E0E20701D02022F7E704
:10433000914657E00A2100E010214FF0000B009158
:104340000BE010214FF0000B44F00404082700910B
:1043500003E008204FF0000B0090C4F30252022A41
:1043600005D058F8040B0021032A08D008E008F112
:10437000070020F00702F2E80201904603E080B255
:10438000042A00D1C0B24FF0000922072AD53278A2
:10439000702A07D0DDF800C08CF0100C5CEA0B0C22
:1043A00005D00EE040228DF80420012208E050EAFA
:1043B000010306D030238DF804308DF80520022249
:1043C0009146009B83F0080353EA0B030AD150EA9D
:1043D000010201D1620705D530228DF804204FF08B
:1043E00001097F1E3278582A04D039A20C920CAAF7
:1043F00002920BE03BA2F9E75B46009AFBF7B4FFA1
:104400000C9B9B5C029A521E0292137050EA0102AE
:10441000F2D1029804A9081A00F1200B600702D516
:1044200024F4803400E001275F4502DDA7EB0B0098
:1044300000E0002000EB0B01009003984944401A73
:104440000390E00306D453462146179A039800F0E0
:10445000A9F90544002706E001A85246C05D179956
:1044600090476D1C7F1C4F45F6DBE0030CD553468F
:104470002146179A039800F095F9054404E030208E
:104480005246179990476D1C0099481E00900029CC
:10449000F5DC08E00298029952460078491C029126
:1044A000179990476D1CBBF10001ABF1010BF1DCDA
:1044B0005BE100F065F90544761C307800287FF454
:1044C0000DAE19B02846BDE8F08F000009280100A4
:1044D000303132333435363738396162636465667A
:1044E000000000003031323334353637383941423C
:1044F0004344454600000000600700D4062708F149
:10450000070020F00700F0E80223804603F0004C8B
:104510005FEA0C0001D097A009E0200501D596A024
:1045200005E0E00701D095A001E0AFF24C00139048
:10453000307823F0004365280CD006DC452809D0EC
:1045400046281DD047287FD13BE0662818D0672831
:104550007AD136E00021112F01DB112000E0781C18
:10456000CDE9000104A90CA8FFF744FCDDE90D0129
:104570000C9A4FF0000B07F10109109200914EE0E8
:104580004FF000400097CDE9011004A90CA8FFF7F7
:1045900031FCDDE90D020C9B0F994FF0000B9146A9
:1045A0001093009211B9791C00EB0109B7EB0900D7
:1045B00003D4C0F1FF3B07F10109A9EB070001900B
:1045C00042E0012F00DA01270021112F01DD112027
:1045D00000E03846CDE9000104A90CA8FFF70AFC69
:1045E000DDE90D010C9A00914FF0000BB9461092D5
:1045F00021070FD4009A4A4503DA914601E0A9F158
:104600000109B9F1010F05DD109AA9F10101515C11
:104610003029F4D0B84202DA10F1040F03DA012194
:10462000CDE9011010E0002803DC8344A9EB000170
:1046300002E0411C494500DD8946A0EB0B00401C0F
:1046400001904FF000400290200705D401984845A2
:1046500002DB4FF0FF30019000208DF84B000298F4
:104660000DF14B07B0F1004F25D002200C902B200C
:104670000D90029800280CDA404202902D200D90F7
:1046800007E00A210298FBF759FE3031029007F843
:10469000011D0C99481E0C900029F2DC029800289C
:1046A000EFD1791E0D980870307800F0200040F0AE
:1046B000450007F8020D11A8C01BC01D02901398F9
:1046C000007800B1012000EB0901019801EBE071D5
:1046D000029801440398401A401E0390E00306D458
:1046E00053462146179A039800F05CF80544139846
:1046F000007818B15246179990476D1CE00323D5F6
:1047000053462146179A039800F04CF805441BE0E5
:10471000BBF1000F07DB0098584504DD109817998E
:1047200010F80B0001E0179930205246904701988D
:104730000BF1010B401E05F10105019004D12E2063
:104740005246179990476D1CB9F10001A9F1010972
:10475000DEDC05E017F8010B5246179990476D1CF7
:104760000299481E02900029F4DC53462146179A0C
:1047700003989EE62D0000002B00000020000000A2
:104780002DE9F041044600251E461746880404D44E
:1047900005E039462020B0476D1C641EF9D5284637
:1047A000BDE8F0812DE9F041044600251E46904603
:1047B000C80301D5302700E02027880404D505E090
:1047C00041463846B0476D1C641EF9D52846BDE801
:1047D000F0810A68531C0B601070704710B54FF4DD
:1047E00000411448FDF77BFA0321A020FDF7C8FA29
:1047F00007210020FDF7C4FA002409E0042100206D
:10480000FDF7EAFA04210020FDF7E6FA601CC4B2C5
:10481000302CF3DB4FF400410648FDF762FA002428
:1048200004E0002004490855601CC4B2302CF8DBB9
:1048300010BD0000000C01405002002010B56FF0C8
:104840000400FEF733FB0A4800680A49B0FBF1F0A8
:10485000094908700846007800EB4001C1EBC01020
:104860004FF6FF7101EAC0000449088010BD000046
:104870007000002000127A008400002086000020D2
:104880000146114A12884A434FF0E0235A61002240
:104890009A611A46126942F001021A6100BF4FF094
:1048A000E022106900F001021AB100F48032002AFF
:1048B000F5D04FF0E022126922F001024FF0E02320
:1048C0001A6100229A617047860000200146114A51
:1048D00012784A434FF0E0235A6100229A611A4647
:1048E000126942F001021A6100BF4FF0E022106924
:1048F00000F001021AB100F48032002AF5D04FF026
:10490000E022126922F001024FF0E0231A61002236
:104910009A6170478400002010B54FF4004114489C
:10492000FDF7DDF90321A020FDF72AFA0721002079
:10493000FDF726FA002409E00421FF20FDF74CFAD8
:104940000421FF20FDF748FA601CC4B2302CF3DBD1
:104950004FF400410648FDF7C4F9002404E0FF20AD
:1049600004490855601CC4B2302CF8DB10BD0000AF
:10497000000C01405002002000BF054A128802F0DE
:104980004002002AF9D0C2B2014B1B1D1A807047A9
:104990000038014000270026FDF70CFBFDF7B0FAB8
:1049A000FDF7DAFAFFF71AFF24A0FFF7F1F943E069
:1049B0002EA000F0E1F8FCF70FF8314800688642BD
:1049C0000DD02F480068C6B2052E04D1294627A075
:1049D00000F0D2F803E029462AA000F0CDF82F48D5
:1049E000008800F40040C0B12C480088C0F30D05D9
:1049F00029462BA000F0C0F8002405E02E49085DF0
:104A0000FFF73EF8601C84B2AC42F7DB2BA000F04D
:104A1000B3F80020214908800EE0781C87B241F2EB
:104A2000883097FBF0F100FB117010B925A000F061
:104A3000A3F80A20FFF724FFBAE700002D2D2D2D43
:104A40002D2D2D2D2D2D2D2D2D2D2D2D696E2064EF
:104A50006576656C6F706D656E742D2D2D2D2D2D09
:104A60002D2D2D2D2D2D2D0A000000000D0A555342
:104A70004220436F6E6E65637465640D0A0D0A0013
:104A8000A40100200D0A55534220646973436F6EE0
:104A90006E65637465640D0A0D0A0000AC000020A9
:104AA0000D0AC4FAB7A2CBCDB5C4CFFBCFA2CEAA14
:104AB0003A25640D0A0D0A00300800200D0A0D0A7F
:104AC000000000000D0A555342D0E9C4E2B4AEBF65
:104AD000DACAB5D1E90D0A0010B586B00446012145
:104AE00044F20400FDF738FC4FF40070ADF81400F8
:104AF00003208DF8160018208DF8170005A91C4812
:104B0000FDF710F84FF48060ADF8140004208DF824
:104B1000170005A91648FDF705F825208DF80000B7
:104B200003208DF801008DF8020001208DF80300AC
:104B30006846FDF761FA01940020ADF80800ADF871
:104B40000A00ADF80C00ADF810000C20ADF80E0016
:104B500001A90848FEF72AFD012240F22551054827
:104B6000FEF7FEFC01210348FEF769FC06B010BD0C
:104B700000080140003801400FB438B505A8009086
:104B80000B48009A0499FFF713F900200090084899
:104B9000FBF7ECFA85B2002405E00549085DFEF755
:104BA0006FFF601C84B2AC42F7DB38BC5DF814FBCD
:104BB00068070020120100020200004083044057F1
:104BC00000020102030109024300020100C0320990
:104BD0000400000102020100052400100105240167
:104BE00000010424020205240600010705820308CF
:104BF00000FF09040100020A00000007050302404B
:104C00000000070581024000000403090426035345
:104C10000054004D006900630072006F0065006C75
:104C20000065006300740072006F006E006900632D
:104C30000073003203530054004D00330032002053
:104C4000005600690072007400750061006C00205D
:104C50000043004F004D00200050006F00720074B0
:104C60000020002000000000884C00080000002008
:104C7000B0010000BA0600081C4D0008B001002079
:104C8000A80B0000E43D000801602D0102030404AC
:104C900010090607080902040608ACA24A041C29E8
:104CA00018012A141A03531254124D1233021F32E0
:104CB0001371170C1C08EB1F040B1001181451334F
:104CC000C20112081A040713693D1408213C1B088D
:104CD00049081A650413113B1B08F9041AE1041A68
:104CE00089041A75041AB90441324029441A092862
:104CF0000916741A211C13B44B3308121AC6083251
:104D00004313094C3308041A0D0832261A330829B4
:0C4D1000E022AE73201A2992410000003E
:0400000508000131BD
:00000001FF
