:020000040800F2
:10000000900E002095080008390400083B04000801
:100010003F040008430400084704000800000000F3
:100020000000000000000000000000004B04000879
:100030004D040008000000004F04000851040008AF
:10004000AF080008AF080008AF080008AF080008B4
:10005000AF080008AF080008AF080008AF080008A4
:10006000AF080008AF080008AF080008AF08000894
:10007000AF080008AF080008AF080008AF08000884
:10008000AF080008AF080008AF080008AF08000874
:100090008D2D0008AF080008AF080008AF08000861
:1000A000AF080008AF080008AF080008AF08000854
:1000B000AF080008AF080008AF080008AF08000844
:1000C000AF080008AF080008AF080008AF08000834
:1000D000AF08000809080008AF080008AF080008CA
:1000E000AF080008AF080008812D0008AF0800081D
:1000F000AF080008AF080008AF080008AF08000804
:10010000AF080008AF080008AF080008AF080008F3
:10011000AF080008AF080008AF080008AF080008E3
:10012000AF080008AF080008AF080008AF080008D3
:1001300000F002F800F0B0F80AA090E8000C824449
:100140008344AAF10107DA4501D100F0A5F8AFF226
:10015000090EBAE80F0013F0010F18BFFB1A43F0A5
:10016000010318477C4E00009C4E00000A444FF0EB
:10017000000C10F8013B13F0070408BF10F8014B06
:100180001D1108BF10F8015B641E05D010F8016B4B
:10019000641E01F8016BF9D113F0080F1EBF10F8AF
:1001A000014BAD1C0C1B09D16D1E58BF01F801CBD2
:1001B000FAD505E014F8016B01F8016B6D1EF9D555
:1001C0009142D6D37047000000230024002500266A
:1001D000103A28BF78C1FBD8520728BF30C148BFAA
:1001E0000B6070476E2903F03785702903F0878311
:1001F000662904F02F86652904F02C86672904F00F
:1002000029866129AFF3008003681B0A28BF41F0EB
:100210008001692903F0F882642903F0F5827529C9
:1002200003F0F2826F2903F01886782903F05383D4
:10023000E92903F0B385E42903F0B085F52903F03B
:10024000AD85EF2903F01586F82903F05283036882
:10025000DB0928BF41F08001632904F07380732912
:1002600004F07880E32904F08380F32904F0888087
:10027000002070471FB504F0D9F8040000200021C9
:1002800004F0D2FD401C60600020002104F0B6FDA7
:10029000E0601FBD10B510BD04F09AF81146FFF7DD
:1002A000E9FF00F009F804F077F903B4FFF7F2FF73
:1002B00003BC00F04FFA00000024002700F0E0F932
:1002C0004FF4A06000F006FB4FF4E13000F050FA6C
:1002D00000F0B0F94FF4E16000F00FFA002002F0F6
:1002E000AEFD4FF42F7000F008FA012002F0A7FDD8
:1002F00002F050FD02F06EFD01F014FF55E02B48B6
:10030000006887420DD029480068C7B2052F04D184
:10031000314627A002F05CFE03E0314629A002F03E
:1003200057FE2E48008800F40040C0B12B480088DA
:10033000C0F30D0631462AA002F04AFE002505E072
:100340002D49485D02F02FFE681C85B2B542F7DBEF
:100350002AA002F03DFE00202049088025E0601C14
:1003600084B241F2883094FBF0F100FB114010B9E7
:1003700024A002F02DFEC82094FBF0F100FB1140F8
:1003800010B925A002F024FE1E2094FBF0F100FB22
:10039000114038B92748006808B9012000E0002062
:1003A000244908600A2000F0A8F9A8E748010020C5
:1003B0000D0A55534220436F6E6E65637465640D7C
:1003C0000A0D0A000D0A55534220646973436F6E8B
:1003D0006E65637465640D0A0D0A0000500000200C
:1003E0000D0AC4FAB7A2CBCDB5C4CFFBCFA2CEAA1B
:1003F0003A25640D0A0D0A00040700200D0A0D0AB3
:10040000000000000D0A555342D0E9C4E2B4AEBF6B
:10041000DACAB5D1E90D0A00C7EBCAE4C8EBCAFDD8
:10042000BEDD2CD2D4BBD8B3B5BCFCBDE1CAF80D3F
:100430000A00000094812142704700BFFEE700BF20
:10044000FEE700BFFEE700BFFEE77047704770475A
:10045000704700000CB50020019000906C480068C7
:1004600040F480306A49086000BF6948006800F4C1
:10047000003000900198401C0190009818B9019834
:10048000B0F5A06FF1D16248006800F4003010B1FF
:100490000120009001E0002000900098012843D145
:1004A0005C48006840F010005A490860084600683F
:1004B00020F0030008600846006840F00200086071
:1004C00053484068524948600846406848600846BA
:1004D000406840F4806048600846406820F47C1022
:1004E00048600846406840F4E810486008460068E4
:1004F00040F08070086000BF4548006800F0007060
:100500000028F9D04248406820F003004049486084
:100510000846406840F00200486000BF3C48406820
:1005200000F00C000828F9D10CBD10B5FFF792FFC0
:1005300010BD10B53648006840F00100344908602D
:100540000846406834490840314948600846006818
:10055000324908402E4908600846006820F480208F
:1005600008600846406820F4FE0048604FF41F0011
:100570008860FFF7DAFF4FF000602949086010BD7E
:1005800010B5002100200022214B5B6803F00C0114
:1005900021B1042906D0082928D107E0214B224C9B
:1005A000236027E01F4B204C236023E0184B5B683F
:1005B00003F47010164B5B6803F48032022303EBE4
:1005C000904022B9194B4343174C23600DE0104B68
:1005D0005B6803F4003323B1144B4343124C236094
:1005E00003E0104B4343104C236003E00D4B0E4CD3
:1005F000236000BF00BF064B5B68C3F303130C4CC2
:10060000E15C094B1B68CB40074C236010BD000028
:1006100000100240002002400000FFF8FFFFF6FE3D
:1006200008ED00E000127A000000002000093D0003
:100630000400002008B50121482000F0D5FC20204E
:10064000ADF8000010208DF8030003208DF80200A3
:100650006946094800F00CFA2021074800F0B5FA75
:100660002020ADF800006946044800F001FA20217E
:10067000024800F0AAFA08BD000C01400018014031
:1006800010B56FF0040000F074F92E4800682E4990
:10069000B0FBF1F02D4908700846007800EB4001EE
:1006A000C1EBC0104FF6FF7101EAC0002849088075
:1006B00010BD0146254A12784A434FF0E0235A61A3
:1006C00000229A611A46126942F001021A6100BFC3
:1006D0004FF0E022106900F001021AB100F48032FC
:1006E000002AF5D04FF0E022126922F001024FF00B
:1006F000E0231A6100229A6170470146144A128869
:100700004A434FF0E0235A6100229A611A46126967
:1007100042F001021A6100BF4FF0E022106900F0C0
:1007200001021AB100F48032002AF5D04FF0E02225
:10073000126922F001024FF0E0231A6100229A614F
:10074000704700000000002000127A001400002012
:100750001600002000BF704700BF4A4A128802F00E
:100760004002002AF9D0C2B2464B1B1D1A807047C6
:1007700010B586B00446012144F2040000F034FCB8
:100780004FF40070ADF8140003208DF81600182007
:100790008DF8170005A93C4800F06AF94FF4806015
:1007A000ADF8140004208DF8170005A9364800F0B4
:1007B0005FF925208DF8000003208DF801008DF8E9
:1007C000020001208DF80300684600F088F80194CB
:1007D0000020ADF80800ADF80A00ADF80C00ADF847
:1007E00010000C20ADF80E0001A9264800F0A3FC73
:1007F000012240F22551234800F035FD0121214816
:1008000000F025FD06B010BD10B540F225511D4881
:1008100000F00EFE10B31B4800F08AFDC4B21B4866
:10082000008800F40040C8B91848008800F48040EF
:1008300060B10A2C03D000201449088020E013483E
:10084000008840F400401149088019E00D2C06D1C1
:100850000E48008840F480400C49088010E00B48A6
:100860000088C0F30D000A490C5408480088401C59
:100870000649088008460088C72801DD0020088056
:1008800010BD000000380140000801401C0000209D
:10089000540100200948804709480047FEE7FEE769
:1008A000FEE7FEE7FEE7FEE7FEE7FEE7FEE7FEE720
:1008B00004480549054A064B704700003305000807
:1008C0003101000890080020900E0020900A0020BE
:1008D000900A002031490143314A1160704770B5D8
:1008E000002100230F22C47804B32D4C246804F4A3
:1008F000E064C4F5E064210AC1F10403CA4044780D
:1009000004FA03F18478144021430901254C067848
:10091000A155047804F01F050124AC4005786D1141
:10092000AD0005F1E025C5F8004109E0047804F0C8
:100930001F050124AC401C4D0678761145F8264071
:1009400070BD1A4A0A400243154B1B1F1A607047BC
:1009500039B1134A121D12680243114B1B1D1A6054
:1009600006E00F4A121D126882430D4B1B1D1A60D0
:100970007047042808D14FF0E021096941F00401D3
:100980004FF0E022116107E04FF0E021096921F00A
:1009900004014FF0E0221161704700000000FA05E9
:1009A0000CED00E000E400E080E100E080FFFF1FCC
:1009B00010B50446CC48844208D10121042000F03F
:1009C0002DFB0021042000F029FB46E0C7488442AB
:1009D00008D10121082000F021FB0021082000F0AF
:1009E0001DFB3AE0C248844208D10121102000F0EA
:1009F00015FB0021102000F011FB2EE0BD488442C1
:100A000008D10121202000F009FB0021202000F066
:100A100005FB22E0B848844208D10121402000F0C3
:100A2000FDFA0021402000F0F9FA16E0B3488442B4
:100A300008D10121802000F0F1FA0021802000F08F
:100A4000EDFA0AE0AE48844207D10121801500F09A
:100A5000E5FA0021A01500F0E1FA10BD10B5012162
:100A6000084600F0DBFA0021012000F0D7FA10BDA3
:100A70002DE9F04102460025002600200023002435
:100A8000002791F803C00CF00F0591F803C00CF09B
:100A9000100CBCF1000F03D091F802C04CEA050520
:100AA00091F800C0BCF1000F31D0146800202BE099
:100AB0004FF0010C0CFA00F3B1F800C00CEA030689
:100AC0009E4220D183004FF00F0C0CFA03F7BC4379
:100AD00005FA03FC4CEA040491F803C0BCF1280FAA
:100AE00006D14FF0010C0CFA00FCC2F814C00AE069
:100AF00091F803C0BCF1480F05D14FF0010C0CFA7E
:100B000000FCC2F810C0401C0828D1D31460B1F812
:100B100000C0BCF1FF0F34DD546800202EE000F16E
:100B2000080C4FF0010808FA0CF3B1F800C00CEA09
:100B300003069E4221D183004FF00F0C0CFA03F7FD
:100B4000BC4305FA03FC4CEA040491F803C0BCF171
:100B5000280F05D100F1080C08FA0CF8C2F814802F
:100B600091F803C0BCF1480F07D100F1080C4FF019
:100B7000010808FA0CF8C2F81080401C0828CED3EF
:100B80005460BDE8F0814FF6FF7101800221817051
:100B90000421C17070470246002093680B400BB1DE
:100BA000012000E0002070470146886880B270474D
:100BB00002460020D3680B400BB1012000E000206A
:100BC00070470146C86880B2704701617047416153
:100BD00070470AB1016100E041617047C160704730
:100BE0004FF480320A438261816182618269826945
:100BF000704702460020434B18684FF68073184038
:100C000040EA021008433F4B186070473E49C861F4
:100C10007047F0B50A46002300240021002500F0AB
:100C20000046B6F1004F02D1364EF16901E0354E73
:100C30007168C0F3034583B200F44016B6F5401F57
:100C400008D121F070612F4E766826F070662D4F26
:100C50007E6012E000F48016B6F5801F06D10326F0
:100C600006FA05F4A14341F0706106E0460D360135
:100C700003FA06F6B14341F0706122B1460D360128
:100C800003FA06F6314300F00046B6F1004F02D1F8
:100C90001C4EF16101E01B4E7160F0BD30B50022C9
:100CA0008B071C0F0F2303FA04F2164B08338C102A
:100CB00053F824309343134C08348D1044F82530F6
:100CC00023468C1053F824308C07240F00FA04F4C8
:100CD00023430C4C08348D1044F8253030BD0A49AC
:100CE000DC3108607047000000080140000C014042
:100CF000001001400014014000180140001C014098
:100D0000002001400000014000002042DF48006850
:100D100040F00100DD49086008464068DC490840B1
:100D2000DA49486008460068DA490840D74908604F
:100D30000846006820F4802008600846406820F4D7
:100D4000FE0048604FF41F0088607047CF49096873
:100D500021F48031CD4A11601146096821F48021C7
:100D60001160B0F5803F03D0B0F5802F0ED106E0C2
:100D7000C649096841F48031C44A116007E0C3499B
:100D8000096841F4A021C14A116000E000BF00BF22
:100D9000704710B501460022002300204A11012AA5
:100DA00002D1BA4C236806E0022A02D1B74C236A6A
:100DB00001E0B64C636A01F01F02012494401C401C
:100DC0000CB1012000E0002010BD38B500200090DB
:100DD0000024002500BF3120FFF7DBFF0546009807
:100DE000401C00900098B0F5A06F01D0002DF2D00B
:100DF0003120FFF7CEFF08B1012400E00024204697
:100E000038BD01460020A14A106820F0F80040EAF1
:100E1000C10010607047A04908607047024600207A
:100E20009A4B586820F47C1042EA01031843974B10
:100E30005860704798490866704701460020934AF9
:100E4000506820F003000843506070478F484068A6
:100E500000F00C007047014600208C4A506820F0DA
:100E6000F00008435060704701460020874A5068F0
:100E700020F4E06008435060704701460020834A38
:100E8000506820F4605040EAC1005060704729B1BA
:100E90007E4A527A02437D4B5A7204E07B4A527A70
:100EA00082437A4B5A7270477B49D8310860704749
:100EB00001460020754A506820F4404008435060C5
:100EC00070470021714A20321170704A82F8201058
:100ED000012802D004280AD104E001216B4A203203
:100EE000117005E00521694A2032117000E000BF51
:100EF00000BF70476949086070476449096A014347
:100F0000624A11627047654944390860704730B5DC
:100F100000210022002400235C4D6D6805F00C01C7
:100F200021B1042905D0082923D105E05C4D0560D5
:100F300022E05B4D05601FE0544D6D6805F47012B2
:100F4000524D6D6805F48034022505EB92421CB9C0
:100F5000544D554305600BE04C4D6D6805F400356C
:100F60001DB1504D5543056002E04D4D55430560A0
:100F700002E04B4D056000BF00BF444D6D6805F0B9
:100F8000F0010909484D6B5C0568DD4045603F4D47
:100F90006D6805F4E061090A434D6B5C4568DD400E
:100FA00085603A4D6D6805F46051C90A3E4D6B5C31
:100FB0004568DD40C560354D6D6805F44041890BDD
:100FC0003A4D6B5CC568B5FBF3F5056130BD29B1E1
:100FD0002E4A526902432D4B5A6104E02B4A526952
:100FE00082432A4B5A61704729B1284A92690243C9
:100FF000264B9A6104E0254A92698243234B9A6109
:10100000704729B1214AD2690243204BDA6104E0DA
:101010001E4AD26982431D4BDA61704729B11B4ACF
:10102000D2680243194BDA6004E0184AD26882435E
:10103000164BDA60704729B1144A12690243134B08
:101040001A6104E0114A12698243104B1A61704719
:1010500012494039086070470F49C86470470B490E
:10106000C87170470948406A40F08070074948627B
:10107000704701460020054A92680A400AB10120E3
:1010800000E000207047014988727047001002405C
:101090000000FFF8FFFFF6FE0000424280044242DB
:1010A00000127A0000093D001E0000202E000020E2
:1010B00010B50446FB48844209D101218803FFF79B
:1010C000ADFF00214FF48040FFF7A8FF32E0F64863
:1010D000844209D101214804FFF7ADFF00214FF4FC
:1010E0000030FFF7A8FF25E0F048844209D1012134
:1010F0008804FFF7A0FF00214FF48020FFF79BFF3B
:1011000018E0EB48844209D10121C804FFF793FF9E
:1011100000214FF40020FFF78EFF0BE0E5488442EA
:1011200008D101210805FFF786FF00214FF4801048
:10113000FFF781FF10BD2DE9F04786B005460E464A
:101140000024A24600BFA1460027B08900B100BF1D
:101150002F462C8A4CF6FF700440F08804432C8202
:10116000AC894EF6F3100440B08831890843718988
:1011700008430443AC81AC8A4FF6FF400440B08979
:101180000443AC8201A8FFF7C2FEC648874202D1E1
:10119000DDF810A001E0DDF80CA0A88900F4004003
:1011A00040B10AEBCA0000EB0A1031684900B0FBFD
:1011B000F1F807E00AEBCA0000EB0A103168890079
:1011C000B0FBF1F86420B8FBF0F0040120096421C1
:1011D00001FB1089A88900F4004040B1322000EBE7
:1011E000C900B0FBF1F000F00700044308E0322032
:1011F00000EB09106421B0FBF1F000F00F00044394
:101200002C8106B0BDE8F0874FF416510160002133
:101210008180C18001810C21418100218181704741
:1012200010B502460020108A4FF2FF0318400B88C9
:101230004C8823438C882343CC8823431843108253
:1012400010BD0021018041808180C180704721B1A3
:10125000828942F40052828104E082894DF6FF7354
:101260001A4082817047F0B503460024002600250D
:10127000002040F66A17B94200D100BF1846C1F3FA
:10128000421401F01F06012707FA06F5012C01D1CF
:101290000C3004E0022C01D1103000E014301AB1FF
:1012A00007682F43076002E00768AF430760F0BD9F
:1012B0001AB1838A0B43838202E0838A8B43838241
:1012C0007047028A4FF6F0731A400282028A0A437C
:1012D0000282704782894FF2FF731A4082818289AD
:1012E0000A438281704721B1828942F002028281E1
:1012F00004E082894FF6FD731A4082817047028AAA
:101300004FF6DF731A400282028A0A430282704754
:1013100021B1028A42F48042028204E0028A4BF642
:10132000FF731A4002827047C1F30802828070473F
:1013300001468888C0F308007047818941F00101A7
:1013400081817047028BD2B20283028B42EA012272
:1013500002837047028B02F47F420283028B0A43AE
:101360000283704721B1828A42F02002828204E027
:10137000828A4FF6DF731A408282704721B1828AD7
:1013800042F01002828204E0828A4FF6EF731A4024
:101390008282704721B1828A42F00802828204E090
:1013A000828A4FF6F7731A408282704721B1828990
:1013B00042F40042828103E08289C2F30E028281FC
:1013C000704721B1828A42F40062828204E0828AFC
:1013D0004FF2FF731A4082827047828A4FF6FB7386
:1013E0001A408282828A0A438282704721B1828AAD
:1013F00042F00202828204E0828A4FF6FD731A40B4
:101400008282704702460020B1F5007F00D100BF04
:1014100013880B400BB1012000E00020704701F45D
:101420000072B2F5007F00D100BFCA43028070474E
:1014300070B50246002400230025002040F66A16FD
:10144000B14200D100BFC1F3421501F01F030126D4
:1014500006FA03F3012D02D19689334006E0022DEE
:1014600002D1168A334001E0968A33400C120126DD
:1014700006FA04F41688344013B10CB1012000E0E0
:10148000002070BD10B50022002340F66A14A1426E
:1014900000D100BF0A1201249440A3B2DC430480AF
:1014A00010BD0000003801400044004000480040EA
:1014B000004C004000500040002044490860091DD5
:1014C0000860091D0860091D086041483F49143142
:1014D0000860704700213D498279002A3AD00A46C7
:1014E000126803689A430B461A600A1D1268036863
:1014F0009A430B1D1A60027911440A6803681A4363
:101500000A60324A0832126803689A432F4B083344
:101510001A601A1D126803689A432C4B0C331A6028
:101520004279102A0ED11A1F126803681A43274BFA
:1015300008331A601A1D126803681A43234B0C33D0
:101540001A600DE02149427911440A6803681A4380
:101550000A6005E0027911440A6803689A430A6048
:1015600070470021016001710C21417100218171DE
:1015700070471649103109680143144A103211604E
:10158000704701460020114A143212680A400AB11D
:10159000012000E0002070470C49143108607047BA
:1015A000014600200022094B1B6803EA0102074B99
:1015B00014331B680B4013B10AB1012000E0002076
:1015C0007047024914310860704700000004014070
:1015D000FFFF0F0010B504462CB90120F649096839
:1015E0000882002010BDF549096808688047F24864
:1015F00000680A30F6E710B5EF480068C078F04997
:101600004978884213DCEC480068807878B9EA4869
:101610000068808858B9E8480068C078E6490968D9
:101620008872E649096848688047002010BD02209A
:10163000FCE710B504462CB90120DF49096808828F
:10164000002010BDDD49096888688047DA480068D5
:101650000C30F6E710B5D84B1B68D978D64B1B6811
:101660005879D84B1B689A6990470446D24800685D
:10167000807AE8B13CB9D0480068007918B9CE4802
:101680000068807808B1022010BD8CB9CB49096888
:10169000C8688047C84800684079C7490968C87267
:1016A000C5480068C078C449096808730020EBE7A2
:1016B0000220E9E710B504462CB90220BE490968AA
:1016C0000882002010BD0020BF490880BA48006889
:1016D000007800F07F0018BBB7490968487A00F02D
:1016E000200131B1B849097841F00201B64A1170C0
:1016F00005E0B549097801F0FD01B34A117000F029
:10170000400131B1B049097841F00101AE4A117090
:1017100005E0AD49097801F0FE01AB4A11703AE0ED
:10172000A5480068007800F07F00012801D1A64894
:10173000C8E7A1480068007800F07F00022828D19F
:101740009D4A1268517901F00F0001F080027AB1D0
:101750009E4B03EB8002D2F8002C02F03002102ADC
:1017600016D1994A127842F00102974B1A700FE095
:10177000964B03EB8002D2F8002C02F44052B2F5F3
:10178000805F05D1904A127842F001028E4B1A70A8
:1017900001E0002096E789490968086980478A487E
:1017A00090E72DE9F04784480068007800F07F0852
:1017B000B8F1000F0AD180480068407A00F0DF00DD
:1017C0007D49096848720020BDE8F087B8F1020F32
:1017D0007ED179480068408818B977480068007958
:1017E00008B10220F0E7DFF8D89173480068477924
:1017F00027F080052C4670480068407900F0800092
:1018000038B1724901EB8400D0F8000C00F03006CA
:1018100006E06E4901EB8400D0F8000C00F440565D
:1018200099F80000A84204D91EB163480068807A84
:1018300008B90220C8E707F0800080B1634901EBD6
:101840008400D0F8000C00F0300010284BD1E0B23A
:1018500001F01DF8E0B2302100F09FFE43E05B494B
:1018600001EB8400D0F8000C00F44050B0F5805F2C
:1018700039D1E4B9564A92F82C10E0B201F091F84F
:10188000524A02EB8401D1F8001C4BF68F7201EA38
:10189000020080F4805080F4005040F4004141F098
:1018A00080014A4B03EB8402C2F8001C1BE0E0B24B
:1018B00000F0D5FF454A02EB8401D1F8001C4BF63D
:1018C0008F7201EA020080F4805080F4005000E042
:1018D0000FE040F4004141F080013C4B03EB8402F7
:1018E000C2F8001C00BF35490968486980470020DC
:1018F0006AE700BF022067E72DE9F0412E48006843
:10190000467926F080073C462B480068407900F075
:10191000800038B12D4901EB8400D0F8000C00F0B4
:10192000300506E0294901EB8400D0F8000C00F4F2
:10193000405523480078A04208D91F4800684088D5
:1019400020B91DB11C480068807A10B90220BDE89A
:10195000F08106F08000A0B11C4A02EB8401D1F8AE
:10196000001C48F6BF7201EA020080F0100040F44B
:10197000004141F08001154B03EB8402C2F8001CCA
:1019800014E0124A02EB8401D1F8001C4BF68F726E
:1019900001EA020080F4805040F4004141F08001EF
:1019A0000A4B03EB8402C2F8001C00BF034909681C
:1019B000886980470020CAE73C00002048000020DA
:1019C000C0000020400000203200002000500040F5
:1019D000C400002010B5F7480068407A40F02000AD
:1019E000F44909684872F4490968C86980470020C9
:1019F00010BD10B50246EF480068438A32B98888A6
:101A0000C01AEC4C24682082002010BD08681844DD
:101A1000FBE72DE9F041E748006800F11004268853
:101A2000A068C0B1BEB1A588B54200D93546A8B2FC
:101A3000A168884707462088401B2080608828448A
:101A40006080002000F07FFF8046AAB24146384601
:101A500000F03EFD00BF208850B14FF44050D74900
:101A600008800021084600F07AFF3020D449088021
:101A70002088A188884204DB0320CE4909680872C7
:101A800018E02088002804DD0520CA49096808728A
:101A900010E0208870B90620C64909680872002144
:101AA000C848006880B2801CC74A42F81010302035
:101AB000C3490880BDE8F0812DE9F047BD480068C2
:101AC00000F110052E88BB480068077AD6B9042FAC
:101AD00018D1BE48007801280FD10021B94800680C
:101AE00080B2801CB84A42F810103020B4490880F7
:101AF00000BF0020B549087003E007271020B04957
:101B0000088027E0AC88A64201D8042000E002202B
:101B10000746B44200D93446A0B2A9688847804637
:101B2000002000F005FF8146A2B24946404600F081
:101B3000B5FCA1B2002000F012FF2888001B28800D
:101B400068882044688030209D49088000029B49B5
:101B5000088000BF974909680F72BDE8F08770B52B
:101B6000022694480068447892480068007800F0A3
:101B70007F00002844D1092C03D1FFF73CFD064625
:101B80005FE0052C14D18B480068C0787F280BDCFF
:101B900088480068807838B986480068808818B915
:101BA00084480068807A08B1082565E0002648E08E
:101BB000032C0ED17F480068C078012807D17D48EA
:101BC0000068808818B9FFF705FF064639E002264D
:101BD00037E0012C35D177480068C07801280DD155
:101BE00074480068808848B972480068407A00F0FC
:101BF000200018B1FFF7D5FD064622E0022620E0BE
:101C00006C480068007800F07F00012805D10B2C9B
:101C100017D1FFF71FFD064613E0664800680078FD
:101C200000F07F0002280BD1012C03D1FFF7B9FD92
:101C3000064606E0032C04D1FFF75EFE064600E0F0
:101C400002264EB1E0B2624A1268516988470646E0
:101C5000032E01D109250FE00EB108250CE0062561
:101C600000215848006880B2801C574A42F8101082
:101C700030205349088000BF4E4909680D7270BD7D
:101C80002DE9F84F4B48006845780027BA46062DE5
:101C90001BD148480068007800F07F00002813D16D
:101CA000444909688878012803D149490968CF69FE
:101CB0000AE0022803D1464909680F6A04E00328B4
:101CC00002D1434909684F6AADE0002D67D1394818
:101CD00000684088002862D136480068C088022821
:101CE0005DD1344800680079002858D13148006837
:101CF000007800F07F0030B92E480068808810B965
:101D0000AFF24F678FE02B480068007800F07F004B
:101D1000012811D12749096848792D4909688A693C
:101D20000021904700287ED122480068807A002850
:101D300079D0AFF27F6776E01E480068007800F047
:101D40007F0002286FD11B480068407900F00F0621
:101D500018480068407900F070091648006840791A
:101D600000F0800038B11B4901EB8600D0F8000C70
:101D700000F0300806E0174901EB8600D0F8000CAF
:101D800000F4405814480078B0424CD9B9F1000F23
:101D900049D1B8F1000F46D0AFF2E76743E0082D14
:101DA0001CD104480068007800F07F00D8BBAFF277
:101DB000DB7738E03C000020480000204C00002089
:101DC0004E000020505C00400060004034000020C5
:101DD0004000002000500040C00000200A2D22D109
:101DE000C5480068007800F07F0001281BD1C24878
:101DF0000068807AB8B1C0480068408898B9BE4889
:101E00000068007978B9BC480068C08801280AD108
:101E1000B94909684879B94909688A690021904730
:101E200008B9AFF2F17757B1B3480068A0F812A033
:101E3000B148006887610020B84700240FE0AE4A2F
:101E400012685078AD4A1268116988470446032C1D
:101E500005D10920A84909680872BDE8F88FA6488D
:101E60000068008A4FF6FF71884204D10920A24918
:101E700009680872F1E7022C03D09F480068008AC5
:101E800020B908209C4909680872E6E79A4800686A
:101E9000007800F08000E0B397480068C0880090A8
:101EA00095480068008A0099884204D992490098B0
:101EB0000968088223E090480068008A8E49096812
:101EC000C98888421BDA8C480068008A8B490968F7
:101ED00091F82C10884203DA0020894908700EE03E
:101EE00085480068008A8549096891F82C1090FBA4
:101EF000F1F201FB120010B90120814908707F48FE
:101F0000006890F82C107C4800688182FFF7D4FDAF
:101F100007E0FFE703207849096808720003794960
:101F2000088000BF99E710B5774890F82C10002082
:101F300000F037FD70480068007A082805D140029B
:101F4000704908801020714908806B480068007A49
:101F5000092801D1012010BD0020FCE738B501247B
:101F60006B48006880B2001D6A4931F8100080B2E9
:101F700001EB4000009060480068007A092832D0E8
:101F8000009800785C49096808700098401C00902F
:101F9000009800785849096848700098401C0090E3
:101FA000009800EB44000090009931F8020B00917A
:101FB00000F0A0FE504909684880009800EB4400FA
:101FC0000090009931F8020B009100F093FE4A490D
:101FD00009688880009800EB440000900098008811
:101FE00045490968C8800120434909680872424888
:101FF0000068C08810B9FFF7B2FD01E0FFF740FEAE
:10200000FFF791FF38BD30B50146434B1A780020E9
:1020100014E00306414C04EB9353D3F8003C48F61C
:102020008F74234048F280042343C4B22343040640
:102030003A4D05EB9454C4F8003C401C9042E8D360
:1020400041F08003324C241F236030BD10B52A4874
:102050000068047A022C01D0042C05D1FFF72CFD76
:1020600025480068047A1CE0062C19D12248006833
:10207000407805280ED120480068007800F07F00E5
:1020800040B91D490968C878FFF7BDFF24490968B0
:10209000086A80471949096888688047082400E071
:1020A0000824154909680C72FFF73DFF10BD10B5F3
:1020B00011480068047A022C01D0042C01D10824B4
:1020C00012E0032C01D0052C05D1FFF7A2FC0A4831
:1020D0000068047A08E0072C05D108490968C86837
:1020E0008047082400E00824034909680C72FFF7C0
:1020F0001AFF10BD704700003C0000204000002087
:10210000340000204C000020C40000204E000020BD
:10211000505C004000600040C000002000500040C3
:102120004800002010B508480849086002200968E6
:1021300008720748074908600748084908600549C8
:1021400009680868804710BD1C0200203C00002080
:10215000C400002040000020F400002048000020BF
:1021600008B50020009022E1C448008800F00F006C
:10217000C34908700846007800287CD1C14800682F
:10218000C14908800846008800F03000BF49088037
:10219000BD48008800F44050BB490880B94909682F
:1021A0004BF6BF7201EA020080F4005080F020007C
:1021B00040F4004141F08001B24A1160AF4800880C
:1021C00000F0100090BB1046006848F60F71084000
:1021D00011460860FFF73AFFAA4909684BF6BF723B
:1021E00001EA0200A849098801F4805109B180F48C
:1021F0008050A549098801F4005109B180F40050CC
:10220000A249098801F0100109B180F010009F492E
:10221000098801F0200109B180F0200081B241F469
:10222000004141F08001974A116008BDFFE79548E1
:10223000006880B20090BDF8000000F40060B0B308
:1022400090480068C0F30E0048F68F7108408D4931
:102250000860FFF783FE8B4909684BF6BF7201EAFD
:1022600002008949098801F4805109B180F4805045
:102270008549098800E056E001F4005109B180F475
:1022800000508249098801F0100109B180F0100066
:102290007E49098801F0200109B180F0200081B257
:1022A00041F4004141F08001764A1160BDE7FFE74B
:1022B000BDF8000000F40040002878D071480068A4
:1022C000C0F30E0048F68F7108406E490860FFF7B2
:1022D000EEFE6C4909684BF6BF7201EA02006A49DA
:1022E000098801F4805109B180F480506649098859
:1022F00001F4005109B180F400506449098801F0EB
:10230000100109B180F010006049098801F0200136
:1023100009B180F0200081B241F4004141F0800118
:10232000584A116081E756480078594901EB80000E
:10233000D0F8000C80B20090BDF8000000F400401E
:10234000C0B14F48007801EB8000D0F8000CC0F31A
:102350000E0048F68F710840494909784C4A02EB53
:102360008101C1F8000C46490978491E494A52F8D2
:1023700021008047BDF8000000F08000B8B140485F
:102380000078434901EB8000D0F8000C48F60F714B
:1023900008403B4909783E4A02EB8101C1F8000C34
:1023A00037490978491E3C4A52F821008047354890
:1023B0004430006880B23149088000F400400028B1
:1023C0007FF4D2AE00BF30E710B500244AE047F6F4
:1023D000FF702C49443108602848008800F00F0045
:1023E0002749087008460078294901EB8000D0F899
:1023F000000C84B204F40040C8B12148007801EB1D
:102400008000D0F8000CC0F30E0048F68F71084031
:102410001B4909781E4A02EB8101C1F8000C1849DA
:102420000978491E1B4A52F8210080471AE004F03F
:102430008000B8B112480078154901EB8000D0F84F
:10244000000C48F60F7108400D490978104A02EB5C
:102450008101C1F8000C0A490978491E0E4A52F858
:102460002100804707484430006880B20349088053
:1024700000F400400028AAD110BD00007000002028
:1024800038000020005C00404C0000204E0000207E
:1024900000500040980000207C000020F0B5144659
:1024A00004F1010C4FEA6C07DFF848C00CEB410364
:1024B0003D460AE00678401C90F800C046EA0C222F
:1024C00023F8022B9B1C401C6D1E002DF2D1F0BD89
:1024D000F0B5561C7510074E06EB41042B4605E07F
:1024E00034F8047B20F8017B401C5B1E002BF7D1E5
:1024F000F0BD000000600040FA4908607047F948EC
:10250000006880B27047F749091D08607047F548B8
:10251000001D006880B27047F2480830006880B241
:102520007047F0490C3108607047EE480C30006885
:1025300080B270474FF6F8710140EA4A10321160DC
:102540007047E8481030006880B27047E64B03EBF4
:102550008002C2F8001C70470146E34A02EB81008A
:10256000D0F8000C80B2704710B5DF4B03EB80024F
:10257000D2F8002C48F68F131A400A43DA4C04EBC9
:102580008003C3F8002C10BD0146D74A02EB81003E
:10259000D0F8000C00F4C060704730B5D24C04EBAA
:1025A0008003D3F8003C48F6BF7403EA040201F04C
:1025B00010030BB182F0100201F020030BB182F086
:1025C000200242F4004343F08003C74D05EB800432
:1025D000C4F8003C30BD30B5C34C04EB8003D3F8E5
:1025E000003C4BF68F7403EA040201F480530BB1F4
:1025F00082F4805201F400530BB182F4005242F491
:10260000004343F08003B84D05EB8004C4F8003C60
:1026100030BD30B503460C461846FFF79DFF054612
:10262000012C07D125F48050AF4A02EB8301C1F899
:10263000000C08E0022C06D125F01000AA4A02EB9B
:102640008301C1F8000C30BD0146A74A02EB8100AE
:10265000D0F8000C00F0300070470146A24A02EBAF
:102660008100D0F8000C00F44050704710B59E4B2C
:1026700003EB8002D2F8002C48F6BF7302EA030194
:1026800081F0100181F0200141F4004242F080020B
:10269000954C04EB8003C3F8002C10BD10B5924B91
:1026A00003EB8002D2F8002C4BF68F7302EA030191
:1026B00081F4805181F4005141F4004242F08002E3
:1026C000894C04EB8003C3F8002C10BD864A02EB52
:1026D0008001D1F8001C41F4807148F68F721140DE
:1026E00048F280021143804B03EB8002C2F8001CC9
:1026F00070477D4A02EB8001D1F8001C48F68F62DA
:10270000114048F280021143774B03EB8002C2F87C
:10271000001C7047744A02EB8001D1F8001C48F697
:102720008F62114048F2800211436F4B03EB80022D
:10273000C2F8001C70476C4A02EB8001D1F8001C03
:1027400041F4807148F68F72114048F280021143C3
:10275000654B03EB8002C2F8001C7047624A02EB33
:102760008001D1F8001C41F4807148F68F7211404D
:1027700048F2800211435C4B03EB8002C2F8001C5C
:102780007047594A02EB8001D1F8001C48F68F626D
:10279000114048F280021143534B03EB8002C2F810
:1027A000001C70470146504A02EB8100D0F8000C33
:1027B00000F03000102801D1012070470020FCE714
:1027C0000146494A02EB8100D0F8000C00F4405069
:1027D000B0F5805F01D1012070470020FCE7424A3C
:1027E00002EB8001D1F8001CC1F30E0148F68F7294
:1027F00011403D4B03EB8002C2F8001C70473A4A7F
:1028000002EB8001D1F8001C48F60F721140364BE4
:1028100003EB8002C2F8001C7047334A02EB8001D0
:10282000D1F8001C48F68F7211404CF2800211431F
:102830002D4B03EB8002C2F8001C70472A4A02EBC2
:102840008001D1F8001C48F68F72114048F2C00296
:102850001143254B03EB8002C2F8001C7047224A4B
:1028600002EB8001D1F8001C01F4804171B102EB50
:102870008001D1F8001C48F68F7211404CF28002A2
:102880001143194B03EB8002C2F8001C7047164A33
:1028900002EB8001D1F8001C01F0400171B102EBA4
:1028A0008001D1F8001C48F68F72114048F2C00236
:1028B00011430D4B03EB8002C2F8001C704710B5AA
:1028C000094B03EB8002D2F8002C48F68F731A40B4
:1028D00048F280031A430A43034C04EB8003C3F815
:1028E000002C10BD405C0040005000400146FC4AF6
:1028F00002EB8100D0F8000C00F00F00704710B51B
:102900004A105200F74B1B689BB203EBC003F64C16
:1029100044F8132010BD10B54A105300F14A126854
:1029200092B202EBC002121DEF4C44F8123010BDFF
:102930000146EC48006880B200EBC100EA4A32F878
:10294000100080B270470146E648006880B200EB94
:10295000C100001DE44A32F8100080B27047E14A1D
:10296000126892B202EBC002921CDF4B43F81210C5
:10297000704702463E290BDD481101F01F030BB9D9
:10298000431E98B24FF4004343EA8023136007E0EC
:10299000481001F001030BB1431C98B2830213608D
:1029A000704710B50246CF48006880B200EBC20005
:1029B000801DCD4C04EB40033E290BDD481101F096
:1029C0001F040CB9441EA0B24FF4004444EA802412
:1029D0001C6007E0481001F001040CB1441CA0B2D7
:1029E00084021C6010BD0146BE48006880B200EB46
:1029F000C100801CBC4A32F81000C0F309007047C7
:102A00000146B848006880B200EBC100801DB64A9C
:102A100032F81000C0F30900704730B54B105B006E
:102A2000B04C2468A4B204EBC004AF4D45F8143098
:102A300053105C00AB4B1B689BB203EBC0031B1D28
:102A400045F8134030BD10B54A105200A54B1B6825
:102A50009BB203EBC003A44C44F8132010BD10B587
:102A60004A1053009F4A126892B202EBC002121D34
:102A70009D4C44F8123010BD01469A48006880B25F
:102A800000EBC100984A32F8100080B2704701464E
:102A90009448006880B200EBC100001D924A32F8F1
:102AA000100080B2704730B50B46012B1FD18D4905
:102AB000096889B201EBC001891C8B4D05EB41040B
:102AC0003E2A0BDD511102F01F050DB94D1EA9B2B2
:102AD0004FF4004545EA8125256007E0511002F0DA
:102AE00001050DB14D1CA9B28D0225600AE0022B33
:102AF00008D17C49096889B201EBC001891C7A4C74
:102B000044F81120012B1FD17649096889B201EBE5
:102B1000C001891D744D05EB41043E2A0BDD5111A6
:102B200002F01F050DB94D1EA9B24FF4004545EA4C
:102B30008125256007E0511002F001050DB14D1C03
:102B4000A9B28D0225600AE0022B08D16549096807
:102B500089B201EBC001891D634C44F8112030BDDE
:102B600030B5034601291FD15E48006880B200EBF2
:102B7000C300801C5C4D05EB40043E2A0BDD501168
:102B800002F01F050DB9451EA8B24FF4004545EAF5
:102B90008025256007E0501002F001050DB1451CAD
:102BA000A8B2850225600AE0022908D14D480068D4
:102BB00080B200EBC300801C4B4C44F8102030BDA9
:102BC00030B5034601291FD14648006880B200EBAA
:102BD000C300801D444D05EB40043E2A0BDD50111F
:102BE00002F01F050DB9451EA8B24FF4004545EA95
:102BF0008025256007E0501002F001050DB1451C4D
:102C0000A8B2850225600AE0022908D1354800688B
:102C100080B200EBC300801D334C44F8102030BD5F
:102C200001463048006880B200EBC100801C2E4A8B
:102C300032F81000C0F309007047014629480068C7
:102C400080B200EBC100801D274A32F81000C0F3AB
:102C50000900704701462348006880B200EBC100BC
:102C6000801D214A32F8100000F47C4008B1012098
:102C700070471C48006880B200EBC100801C1A4AF3
:102C800032F81000C0F3090008B10220F0E700207C
:102C9000EEE710B5012910D1114B03EB8002D2F8F9
:102CA000002C48F68F731A4048F2C0031A430C4CAC
:102CB00004EB8003C3F8002C11E002290FD1084B6C
:102CC00003EB8002D2F8002C48F68F731A404CF2C6
:102CD00080031A43024C04EB8003C3F8002C10BDA0
:102CE00000500040505C004000600040024641EA55
:102CF000022070470146CAB20B1243EA0220704715
:102D000000201D4908604FF43F401C4908800846D8
:102D100000881949091F0860002070472DE9F0411B
:102D200004460E46154604F07F00FFF701FE0746F5
:102D3000AAB239463046FFF7B1FBA9B204F07F00D2
:102D4000FFF70DFE0020BDE8F0812DE9F0410446BB
:102D50000E46002504F07F00FFF752FE054604F002
:102D60007F00FFF7F0FD07462A4639463046FFF759
:102D7000AFFB2846BDE8F081445C004046000020DF
:102D800010B54FF48020FEF71CFC10BD10B500F00C
:102D900027FA10BD10B50020FEF786F80121C805FE
:102DA000FEF72FF910BD10B597A000F021FD03200C
:102DB0009C49086010BD10B59B4C9CA000F018FD0C
:102DC000A07A18B105209749086002E001209549D2
:102DD000086010BD0EB54FF48020FEF7F2FB4FF4F3
:102DE0008020009008208DF8050001208DF8060055
:102DF0006846FEF76FFB14208DF8080001208DF85F
:102E0000090000208DF80A0001208DF80B0002A8AF
:102E1000FDF765FD2A208DF8080000208DF80900D7
:102E200002A8FDF75CFD0EBD10B504461CB185A0DF
:102E300000F0DEFC02E089A000F0DAFC10BD10B565
:102E4000044601210420FEF7CFF83CB18948006810
:102E500080B220F002008749086014E085480068CD
:102E600080B240F00200834908608348006820F483
:102E70007F20814908600846006840F44C300860B3
:102E800000207E49086010BD30B50B46002100BF10
:102E900016E00A24B4EB107F05D9302404EB10743B
:102EA00003F8114005E0412404EB10740A3C03F8D8
:102EB0001140000100254C00641C1D554C1CE1B262
:102EC0009142E6DB30BD70B56D480468001D0568B1
:102ED000001D0668344454B108226A492046FFF7B1
:102EE000D3FF0422674910312846FFF7CDFF70BD9C
:102EF00010B500206449A1F80204A1F80004634958
:102F000008806348017963A000F072FC6048417951
:102F100066A000F06DFC5E4881796BA000F068FC53
:102F20005B4801686FA000F063FC012010BD30B564
:102F300003460A46002133E0585C544C248804F4CC
:102F400000445CBB514C248804F4804464B10A28DA
:102F500003D000244D4D2C8020E04C4C248844F4B8
:102F600000444A4D2C8019E00D2806D1474C248896
:102F700044F48044454D2C8010E0444C2488C4F334
:102F80000D045E4D2855414C2488641C3F4D2C8017
:102F90002C462488C72C01DD00242C804C1CE1B277
:102FA0009142C9DB30BD3849B1F80014364A50545B
:102FB0001146B1F80014491CA2F800141146B1F8EA
:102FC0000014B1F5806F02D10021A2F800147047FF
:102FD0000FB438B505A800904948009A049900F04C
:102FE000F5FB00200090464800F058FD85B2002413
:102FF00005E04349085DFFF7D6FF601C84B2AC4290
:10300000F7DB38BC5DF814FB75736220656E746580
:1030100072206C6F7720706F776572206D6F6465BA
:103020000D0A0000480100201C0200206C6561763A
:1030300065206C6F7720706F776572206D6F6465A7
:103040000D0A00007573622070756C6C207570201D
:10305000656E61626C650D0A000000007573622088
:1030600070756C6C2075702064697361626C650D9D
:103070000A000000405C004004080140B001214209
:10308000E8F7FF1F54000020380200205000002005
:10309000B80000206C696E65636F64696E672E66A8
:1030A0006F726D61743A25640D0A00006C696E657B
:1030B000636F64696E672E70617269747974797078
:1030C000653A25640D0A00006C696E65636F64697A
:1030D0006E672E64617461747970653A25640D0AB7
:1030E000000000006C696E65636F64696E672E6234
:1030F0006974726174653A25640D0A000407002042
:103100003C06002070B53248B0F802043049B1F8EE
:103110000014884200D170BD2D48B0F802042C493B
:10312000B1F80014884208DA2948B0F800042849A8
:10313000B1F80214401A84B205E02548B0F8020440
:10314000C0F5806084B2402C00DD40242048B0F8F7
:103150000254B0F8020420441D49A1F802040846B4
:10316000B0F80204B0F5806F02DB0020A1F8020481
:10317000174948192246C021FFF790F9214601203E
:10318000FFF7EDFB0120FFF771FA00BFC3E710B5B1
:1031900010490320FFF7D9FD84B2E1B20D48FFF7D3
:1031A000C6FE0320FFF77AFA10BD10B50A48006882
:1031B00005280CD1094801680068401C074A1060C6
:1031C000052904D1002011460860FFF79BFF10BDC0
:1031D00038020020CC070020480100206C000020AD
:1031E00010B588B00024694800686949088008461D
:1031F000008800F4007067490988084050B14FF614
:10320000FF506249086064480078401C62490870B9
:10321000FFF7CBFF5E48008800F400405D49098855
:10322000084008B1FEF79CFF5948008800F4806010
:1032300058490988084030B14FF6FF3053490860BB
:103240005649486880475248008800F40050514968
:103250000988084018B14DF6FF704C4908604C4889
:10326000008800F480504B490988084030B14EF680
:10327000FF7046490860002000F039FA4448008891
:1032800000F4006043490988084060B14448007870
:1032900010B100F0D6F902E0022000F028FA4FF257
:1032A000FF703A4908603A48008800F48070394954
:1032B00009880840002866D04FF6FF60334908604F
:1032C000081D006800F40040002856D0354800680A
:1032D000401C3449086008460068032850D92B4830
:1032E000001F006800F00800002849D12748001F8F
:1032F000006880B22C490860002408E02B4901EBEB
:103300008400D0F8000C80B24DF82400641C082C16
:10331000F4D32548006840F00100234908600846BE
:10332000006880B21949091F08601F48006820F032
:1033300001001D4908600846006880B21349091F52
:10334000086000BF1148006800F480600028F9D0D0
:103350004FF6FF300D490860002408E05DF82400B6
:1033600080B2124A02EB8401C1F8000C641C082CE4
:10337000F4D300200B49086002E0002009490860EE
:10338000072000F0B4F908B010BD0000445C004014
:10339000700000204600002072000020C4000020C1
:1033A0004C010020740000207800002000500040F4
:1033B00010B5FFF788FD002083490968887200F086
:1033C00017F9FFF79DFC00208049086010BD10B57B
:1033D00000207D49096888727D48C0797A4909686A
:1033E0004872002078490968C872FFF7A3F84FF4C3
:1033F00000710020FFF7B8F810210020FFF7CDF88A
:1034000040210020FFF787FA80210020FFF777FA9C
:103410000020FFF77FF96F4890F82C100020FFF78D
:10342000C0FA0020FFF73AF900210120FFF79CF8CD
:10343000C0210120FFF763FA20210120FFF7ADF83A
:1034400000210120FFF7C7F84FF4C0610220FFF709
:103450008BF84FF480710220FFF751FA002102200F
:10346000FFF7B9F820210220FFF797F80021032089
:10347000FFF77AF84FF488710320FFF74CFA4021E8
:103480000320FFF78EFA4FF440510320FFF7A3F813
:1034900000210320FFF781F80020FEF7B4FD012092
:1034A0004A49086010BD4C48817A11B10521474A4C
:1034B00011607047042045490860704710B54748BF
:1034C0000078202804D1FFF713FD0020434908703D
:1034D00010BD7047014629B908203B4A1268108286
:1034E000002070473E48FCE7014629B90820364ACB
:1034F00012681082002070473948FCE770B5044616
:103500000025212C09D130480068007800F07F00A8
:10351000212810D1AFF22F050DE0202C0BD12A4825
:103520000068007800F07F00212801D1AFF25B0530
:1035300020202A4908700DB9022070BD2248006879
:10354000856100212048006841820020A8470020B2
:10355000F3E701461C480068007800F07F0021284E
:1035600007D1022901D100207047222901D1002072
:10357000FAE70220F8E710B504461A492046FEF79C
:1035800038FA10BD10B5044617492046FEF731FA47
:1035900010BD70B505460C480068C478042C01DDE8
:1035A000002070BD114800EBC4012846FEF721FA47
:1035B000F7E70246002901DD02207047012A01DDFC
:1035C0000220FAE70020F8E73C0000204801002034
:1035D0006A4E0008C40000201C020020B400002035
:1035E000B800002018010020200100202801002040
:1035F00010B50120FFF718FC01246D48046000207D
:103600006C49088008460088694908600020091D47
:1036100008604FF4E0506749088008460088644914
:103620000860002010BD10B501206149086000202D
:10363000091D0860FFF7F8FB03205D4908600020C2
:1036400010BD38B50025002000905948006884B2AC
:1036500000BF09E0584901EB8500D0F8000C80B2AA
:10366000564941F825006D1C082DF3D344F48064BD
:103670004F48046044F00104046024F00104046035
:1036800000BF4B48001D006800F480600028F8D09F
:103690004FF6FF304649091D0860002509E04748FC
:1036A00050F8250080B2444A02EB8501C1F8000CB5
:1036B0006D1C082DF3D344F008043D4804600068F5
:1036C00084B244F004043A480460FFF76CFB38BD50
:1036D00010B53748006884B224F00404344804600C
:1036E000FFF769FB4FF43F403149086010BD70B5EA
:1036F0000546072D01D0324805703148007808286A
:103700004ED2DFE800F004111A202B384E4F2D481E
:10371000006828B9FFF7DCFF06202949087002E09D
:1037200005202749087041E0FFF7D2FF0420244913
:10373000087001202349086038E0022020494870C1
:103740000320087032E01E484078401E1C49487033
:103750000846407808B90420087027E0144800683B
:1037600084B244F010041248046005201449087023
:103770000A2048701AE012484078401E10494870EC
:103780000846407858B90A48006884B224F010040A
:10379000074804600620087000200A49086005E018
:1037A00000BF00BF06200649087000BF00BF70BD03
:1037B000405C004046000020005000400C08002003
:1037C0004D01002050010020704700001CB50C4640
:1037D000064B7B4469460090204600F056FA0446AA
:1037E0000020694600F064FA20461CBDDB0400009E
:1037F0000FB4044910B503AA029800F05FFA10BC98
:103800005DF814FB180000202DE9F0410646002465
:1038100010687529314616A510D000F089F90028E6
:1038200002DA404213A507E031688A0701D512A5E4
:1038300002E0490704D511A5012401E000F081F957
:1038400000210A2206F1240709E0B0FBF2FCB0FBDC
:10385000F2F302FB1C00303078541846491C002853
:10386000F3D123462A463046BDE8F04100F09BB92B
:10387000000000002D0000002B00000020000000D0
:10388000F0B40D460188090502D5214C7C4402E0C4
:103890001F4C7C440E34002100F1240608E002F0A5
:1038A0000F071209E75D42EA03721B097754491CAE
:1038B00052EA0307F3D102780023120704D5702DD2
:1038C00006D009B1022311342246F0BC00F06BB9D6
:1038D00001231034F8E770B504460D462146106800
:1038E00000F02FF9024629462046BDE8704000232B
:1038F000C6E7D21D22F00703D3E90023C0E703681F
:10390000126843F0200303600823C3610023B7E774
:10391000791600002DE9F05F894604464FF0000A51
:10392000DFF874B1FB44C0F820A02046E168884766
:10393000002874D0252806D0D4E901219047206AB8
:10394000401C2062F1E700265F462046E168884778
:103950002028054607DB312D05D2781910F8200CF8
:1039600008B10643F1E7B00701D526F00406C4F814
:103970001CA00027C4F818A02A2D09D0284601F061
:1039800035FA38B304EB8708303DC8F8185019E011
:1039900059F8041B204604EB87029161E1688847CF
:1039A000012F054618D1E069002820DA26F020060C
:1039B0001DE0D8F8180000EB800005EB400030381F
:1039C000C8F818002046E1688847054601F00EFA5D
:1039D0000028EED1012F0AD02E2D08D12046E16813
:1039E00088477F1C0546022F46F02006C4DBA069ED
:1039F000002803DA404246F00106A061F00701D03A
:103A000026F010066C2D0BD0682D09D04C2D39D026
:103A10006A2D35D0742D35D07A2D33D016E038E0AC
:103A2000E1682F4620468847B842054609D16C2FE9
:103A300026D04FF48060E16806432046884705465B
:103A400004E06C2F1AD04FF4807006430DB3A5F13B
:103A50004100192802D8203546F400664A46294616
:103A6000204626604E46FCF7BDFB80B101280BD0F6
:103A7000F61D26F0070000F1080956E74020E4E7AC
:103A80008020D8E70020D6E706F104094DE7284654
:103A900052E7206ABDE8F09F0916000010B5431CEC
:103AA00002E010F8011B71B18107FAD14FF0013229
:103AB00002C88C1A8C4314EAC211F9D0C01A0A0643
:103AC00003D0C01E10BDC01A10BD0A0401D0801E54
:103AD00010BD0902FCD0401E10BD704770477047F2
:103AE000704770B5044685690068C10601D5302667
:103AF00000E02026C00707D070BDD4E90121304680
:103B00009047206A401C20626D1EF6D570BD70B5CE
:103B1000044685690078C00707D170BDD4E901214A
:103B200020209047206A401C20626D1EF6D570BD93
:103B300009684A0501D540B27047C905FCD500B2F5
:103B4000704709684A0501D5C0B27047C905FCD560
:103B500080B2704770B50C460546012A05D028781A
:103B6000800600D5EA69002302E0012305E05B1C22
:103B7000934202D2E05C0028F9D1A869E618C01A85
:103B8000A861286A184428622846FFF7AAFF04E0C3
:103B9000D5E9012114F8010B9047B442F8D3284627
:103BA000FFF7B5FF70BD2DE9F0470D4699469246E7
:103BB000044600F124080168880604D5E06921F074
:103BC0001001216000E00120A84201DD471B00E058
:103BD0000027A1697A1902EB0900081AA061207870
:103BE000C00602D42046FFF77CFF002608E0D4E997
:103BF00001211AF806009047206A401C761C2062BA
:103C00004E45F4DB2078C0060AD52046FFF769FF51
:103C100006E0D4E9012130209047206A401C206250
:103C2000381EA7F10107F4DC07E0D4E9012118F8F8
:103C300005009047206A401C2062281EA5F101055E
:103C4000F3DC2046FFF763FF2078000602D5022050
:103C5000BDE8F0870120FBE711680268006A5305A0
:103C600001D508700AE0D30501D5088006E01306E7
:103C700003D5C217C1E9000200E0086001207047C7
:103C800001694A1C02610878704700B58FB0CDE920
:103C900001310021059105497944CDE90310114610
:103CA0006846FFF737FE0FB000BD0000E5FFFFFFDD
:103CB0000A6802F8010B0A6070470000074B70B5F4
:103CC0000D467B44FFF7E1FF0446284600F05CFB0D
:103CD00010B14FF0FF3070BD204670BD93CAFFFF9A
:103CE0002DE9FF5F15468A460446DFF8AC80F844AC
:103CF0000027D8E900103E46CDE9001010E03AF860
:103D000016106A4602A800F043FB411C07D0217838
:103D1000890603D5E269391891420DD80744761C0B
:103D20002078800602D5E069B84205DDAE42E6DBC8
:103D30003AF816000028E2D1A069C01BA061204615
:103D4000FFF7CFFED8E90010CDE90010002017E002
:103D50003AF818106A4602A800F01AFBB0F1FF3FCB
:103D600081460BD000250DF1080B05E0D4E90121B7
:103D70001BF8050090476D1C4D45F7D308F1010075
:103D8000B0428046E4DB206A384420622046FFF7D8
:103D9000BEFEBDE8FF9F0000521200002DE9F04179
:103DA0008046D21D22F007020025D2E90002F52943
:103DB00015A614D0011E72F1000106DA0023D0EB23
:103DC000030063EB020211A608E0D8F800108B078D
:103DD00001D50FA602E0490701D50EA6012511461F
:103DE000002408F1240704E000F04EF830323A5580
:103DF000641C50EA0102F7D12B4632462146404668
:103E0000BDE8F041FFF7CFBE000000002D0000002C
:103E10002B0000002000000030B4002100F1240439
:103E200008E002F00705D208303542EA4372DB08A9
:103E30006554491C52EA0305F3D10468002310A21B
:103E4000250707D5A40600D421B1C46901230DA21A
:103E5000641EC46130BCFFF7A6BE10B504462146FF
:103E60001068FFF76EFE02462046BDE810400023B2
:103E7000D2E7D21D22F00701D1E90023CCE70000F0
:103E8000000000003000000030B5B0F10A024FEA37
:103E9000900E71F100034EEA817EB0EB0E0061EBF3
:103EA00091014FEA101E4EEA017E10EB0E0041EB2D
:103EB00011114FEA102E4EEA016E10EB0E0041EB8D
:103EC00011214FEA104E4EEA014E10EB0E0041EB6D
:103ED0001141401841F100014FEAD00040EA417021
:103EE0004FEAD10110EB80054FEA810444EA907457
:103EF00044EB01046D1944EB0404521BA3414FF041
:103F0000000348BF0A3200D530BD401C41F100011A
:103F100030BD70472DE9FF4F0C461E464FF0FF376E
:103F20008BB0D2E90001DDF860800A908A46C1F3C7
:103F30000A5505B93D46002108464FF00000BAF188
:103F4000000F00F4400005DA00EB80004FF4400160
:103F500001EA50004FEA9059B9F1010F00DDB9466E
:103F60000A9850EA4A000ED044F61050A5F2FF35E8
:103F700045432F14B8F1000F1ED07542291E1EDDD7
:103F8000C9F100021CE0B8F1010F4FF0000001D0B0
:103F9000302103E0F24305E02154401CB042FBDB3A
:103FA00030460022002121540B99C1F80880C1E954
:103FB00000200FB0BDE8F08FBD1B6D1CDEE74A4648
:103FC00000DA694206A800F075FA06AB93E807002C
:103FD00003AB83E8070050460A9900F02BFB8DE8FD
:103FE0000700A0F500501F3800900398002D0ADD4F
:103FF00042F21F014A460844002303A90390684681
:1040000000F094FD09E0A0F500504A461F38002357
:1040100003A90390684600F09EFD8DE807000004A8
:10402000000C03D04FF0FF30410800E01046B8F11B
:10403000000F03D00022009215461EE0751E05D425
:10404000FFF722FF303262556D1EF9D5B3460122CB
:10405000084302D000227F1C04E02078302801D1E0
:1040600000227F1E002A099784D01DE0112D07DA57
:10407000FFF70AFF303262556D1C50EA0102F5D19C
:10408000084302D00098C8B10EE00021681E05E088
:10409000235C625C63542254401E491C8142F7DB5E
:1040A000AB46A81B401E0990002004F80B000B989B
:1040B000099AC0F80880C0E9002B7AE711264FF072
:1040C000000857E72DE9F04F88460446D21D22F03C
:1040D000070191B0D1E90001CDE90A0100F072FEBB
:1040E00002460B98C00F01D02D2007E02068810701
:1040F00001D52B2002E0202101EAC000032A09900B
:1041000001D0072A05DB03464146204600F092F91C
:104110000BE12078800601D5E06900E00620B8F1C7
:10412000650F814606D0B8F1660F18D0B8F1670F59
:1041300070D131E00020B9F1110F009001DB1123A3
:1041400001E009F101030AAA01A90CA8FFF7E2FEA8
:10415000DDE90C70002609F10105834647E00120E6
:104160004B4600904FF000470AAA01A90CA8FFF7A0
:10417000D1FEDDE90DB00C995D46002610B909F1BC
:1041800001000D18B9EB050003D4C0F1FF3609F1A9
:104190000105A5EB09002BE0B9F1010F01DA4FF0A1
:1041A00001090020B9F1110F0090484601DD1123EB
:1041B00000E003460AAA01A90CA8FFF7ABFEDDE95F
:1041C0000C704D4600268346207800070AD4AB4584
:1041D00000DA5D4601A8012D04DD411911F8011C2A
:1041E000302907D04F4502DA17F1040F04DA012015
:1041F00082460FE06D1EEEE7002F02DCED1B3E4411
:1042000003E0781CA84200DD7D1CB81B00F1010A08
:104210004FF000472078000703D4AA4501DB4FF098
:10422000FF3A0021B7F1004F0DF143088DF843101C
:1042300024D002202B23002F01DA7F422D230A21D4
:10424000021EA0F1010000DC5FB197FBF1FC97FBBF
:10425000F1F201FB1C7C17460CF1300C08F801CD83
:10426000EEE7A8F1010003702188090501D5452179
:1042700000E06521A0F1010800F8011C09980FA9D0
:10428000A1EB0807FF1D00B10120411901EBEA7005
:10429000A1693844081A401EA0612078C00602D4E3
:1042A0002046FFF71EFC099828B1D4E90121904768
:1042B000206A401C20622078C00622D52046FFF7E5
:1042C00010FC1EE0002E04DBB34502DD01A8805D7A
:1042D00000E03020D4E901219047206A401C206290
:1042E000761CAAF101005FEA000A0AD100F09EF8EC
:1042F000C0680168405CD4E901219047206A401CF5
:104300002062281EA5F10105DCDC07E0D4E90121CB
:1043100018F8010B9047206A401C2062381EA7F154
:104320000107F3DC2046FFF7F2FB032011B041E662
:1043300010B5436913B1AFF3008001E0FFF70AFC49
:10434000012010BD127800F124010A7000224A7089
:104350000122EDE711684FF0FF32E9E710B543693C
:1043600013B1AFF3008001E0FFF7BAFC012010BDEC
:10437000128800F1240182840022C2840122EDE728
:1043800011684FF0FF32E9E7007B00F080007047D2
:1043900070B516460C46054600F040F8036893F8E1
:1043A0000101012806D0FF2C0FD8185D68B101204B
:1043B0002C7070BDD3F807013246214603F2071373
:1043C00003442846BDE8704018474FF0FF3070BDE9
:1043D000754600F0EBF8AE4605006946534620F0FE
:1043E0000700854618B020B5FCF762FABDE820400A
:1043F0004FF000064FF000074FF000084FF0000BA1
:1044000021F00701AC46ACE8C009ACE8C009ACE853
:10441000C009ACE8C0098D467047000010B500F037
:1044200005F8001D10BD00BF010A000000487047DC
:104430004C0800202DE9F0411F4604460326016880
:10444000072A01F4006004DB08B116A505E016A5F3
:1044500003E008B115A500E015A521F010002060CB
:10446000A069C01EA0610FB1401EA0612046FFF7E9
:1044700038FB4FB1D4E9012138469047206A401CEF
:104480002062C01C206206E0206AFAE7D4E901211C
:1044900015F8010B9047761EF8D22046FFF737FB40
:1044A000BDE8F0814E414E006E616E00494E4600FF
:1044B000696E66002DE9F047814616468AB0354898
:1044C00078440DC88DE80D0032487844801C03AC58
:1044D0000DC884E80D0041F69B300844372190FB5D
:1044E000F1F290FBF1F5A5F1800501FB12041B3CF4
:1044F00002D56442012000E00020DFF898A0804649
:104500000027FA44AAF1BE0A0EE0E0070AD03246BC
:10451000684607EB470101230AEB810100F01BFB12
:104520008DE8070064107F1C002CEED1194F7F44EA
:10453000AE3F19E0E80715D007EB04100DF1180A9B
:1045400090E80E008AE80E00C068F04201D1981988
:1045500008903246012306A903A800F0FCFA03AB39
:1045600083E807006D10641C002DE3D14FF00103B8
:1045700032466946B8F1000F03A802D000F0D6FA1F
:1045800001E000F0E8FAC9E90001C9F808200AB022
:10459000BDE8F087040B000010B50446AFF30080BF
:1045A0002046BDE81040FBF780BE00000048704781
:1045B0002C0800204FF0013C50F8042B51F8043B2C
:1045C0009A4221D1A2EB0C03934313EACC1317D1E7
:1045D00050F8042B51F8043B9A4215D1A2EB0C037E
:1045E000934313EACC130BD150F8042B51F8043B3E
:1045F0009A4209D1A2EB0C03934313EACC13DBD00C
:104600004FF00000704700BFD01A01BAB1FA81F133
:1046100001F0180122FA01F0CB40C1F12001DBB218
:10462000C0B2C01A2CFA01F3D11A914311EAC31196
:10463000E6D170475FEA400C08BF91F0000F4FEAE7
:104640008C234FEAC12243EA51514FEA1C5018BF54
:1046500000F5F0404FEA300018BF41F000415FEA3A
:104660006C5C00F02980BCF1FF3F08BF40F0804047
:104670007047130C06BF12044FF0100C4FF0000CE3
:10468000130E04BF12020CF1080C130F04BF120129
:104690000CF1040C930F04BF92000CF1020CD30F29
:1046A00004BF52000CF1010C11464FF00002A0F1C2
:1046B0001F00A0EB0C00704711F0004F08BF7047BF
:1046C00031F000413FF4D5AF0B0C06BF09044FF0A9
:1046D000100C4FF0000C0B0E04BF09020CF1080C7B
:1046E0000B0F04BF09010CF1040C8B0F04BF8900F0
:1046F0000CF1020CCB0F04BF49000CF1010CCCF102
:104700002003A0EB0C0022FA03F302FA0CF241EAB8
:10471000030100F10100704720F07F4C80EA0300A4
:1047200023F07F47ACEB070303F57C5300F0004018
:1047300003F1FF032DE980494FEA154B09B44FEA15
:10474000144325EA0B4E24EA03480FF2042606EB35
:10475000132749083E785FEA320203FB0667C7F574
:10476000000707FB06F64FEA54374FEAD64606F134
:10477000020607FB066CCCF1005C4FEA1C472CEAF2
:10478000074C07FB06F40CFB06F504EB15464FEA55
:10479000961634BF00204FF000404FEAD13706FB99
:1047A00007FC4FEA1C4C0CFB0BF7D21B03FB0CF76E
:1047B00061EB07010CFB0EF7B0EB074072EB174201
:1047C0000CFB08F734BFA2EB0742B2EB074261EBE8
:1047D00017414FEA0C444FEA910706FB07FC4FEAEA
:1047E0001C4C0CFB0BF7B0EBC74072EB573203FBD2
:1047F0000CF734BFA2EBC742B2EBC74261EB5731B3
:104800000CFB0EF7B0EBC70072EB57720CFB08F70E
:1048100034BFA2EBC702B2EBC70261EB5771039F33
:104820004FEA816141EA921104EBCC044FEAD1379F
:104830004FEA826206FB07FC42EA90124FEA806070
:104840004FEA1C4C0CFB0BF7D21B03FB0CF761EB84
:1048500007010CFB0EF7B0EB074072EB17420CFBA5
:1048600008F734BFA2EB0742B2EB074261EB1741F6
:104870004FEA8C554FEA910704EB9C2406FB07FC9A
:104880004FEA1C4C0CFB0BF7B0EBC74072EB5732F6
:1048900003FB0CF734BFA2EBC742B2EBC74261EB9C
:1048A00057310CFB0EF7B0EBC70072EB57720CFBE5
:1048B00008F734BFA2EBC702B2EBC70261EB577136
:1048C00015EB4C254FEA816141EA92114FEA826271
:1048D0004FEAD13742EA901206FB07FC44F100048C
:1048E0004FEA80604FEA1C4C0CFB0BF7D21B03FB1A
:1048F0000CF761EB07010CFB0EF7B0EB074072EB16
:1049000017420CFB08F734BFA2EB0742B2EB074299
:1049100061EB174115EB1C154FEA813141EA9241D9
:104920004FEA823242EA90424FEA80304FEA0C76F8
:1049300044F1000448EA03434EEA0B484FF0000EEE
:10494000B2EB080C71EB030724BF624639464EEB0D
:104950000E0E4FF0000B0018524149414BEB0B0B70
:10496000B2EB080C71EB03077BF1000B24BF62462E
:1049700039464EEB0E0E4FF0000B001852414941E4
:104980004BEB0B0BB2EB080C71EB03077BF1000B4D
:1049900024BF624639464EEB0E0E51EA020718BF9D
:1049A00046F0010616EB0E7655F1000254F10001B7
:1049B00003D5BDE88901BDE80088BDE88901BDE8EF
:1049C0000048B619524141EB0101A3F101037047C0
:1049D00080807F7E7D7C7B7A79787776767574733C
:1049E000727171706F6E6E6D6C6C6B6A6A696868FB
:1049F000676666656464636362616160605F5F5E91
:104A00005E5D5D5C5C5B5B5A5A5959585857575606
:104A1000565555555454535352525251515050506B
:104A20004F4F4F4E4E4D4D4D4C4C4C4B4B4B4A4ABD
:104A30004A49494948484847474747464646454501
:104A4000454444444443434343424242424141413A
:104A5000002B9C4630D477002BD01CB54FEA37078B
:104A600003B44FF010004FF01001BAF1000F06D060
:104A7000BCF1000FDCBF40F0080040F008014FF02F
:104A800000000FBCBDE810400BF1010BBBF1010FA2
:104A900008BF5FEA170722BF12F1010211F10101FD
:104AA0004FF0004143F1000300F0004043EA0000F2
:104AB0007047F9D35708D0E746EA064613F1400F8E
:104AC0004FEA16461FDD13F1200FDFBF16430A46DB
:104AD000002120335B42BED0C3F1200746EA0646E0
:104AE00002FA07F74FEA164646EA0706C3F120071F
:104AF00022FA03F201FA07F721FA03F14FF000035B
:104B000042EA0702A7E746EA020646EA06464FEAF5
:104B1000164646EA0106BCBF46EA0646360C4FF08A
:104B200000034FF000024FF0000194E72DE9804CA4
:104B30009A46934670B491E8380007C831EA400CB1
:104B400048BF34EA430C03D5FFF7E6FDFFF780FFCB
:104B5000F0BCBDE8008C2DE9804C9A46934670B4B9
:104B600091E8380007C810F0804F08BF13F0804F5D
:104B700003D100F005F8FFF76BFFF0BCBDE8008C37
:104B800020F07F4780EA030023F07F4C07EB0C0303
:104B9000A3F57C5300F00040A3F1FE0392F0000F58
:104BA00000F0B38095F0000F00F077802DE9014907
:104BB0004FEA11404FEA144621EA004800FB06FC88
:104BC00024EA064708FB06F607FB08F800FB07F790
:104BD00018EB06484CEB164C4FEA124B18EB074803
:104BE0004FEA15464CEB174022EA0B4E0BFB06FC36
:104BF00025EA06470EFB06F607FB0EFE0BFB07F742
:104C00001EEB064E4CEB164C4FF000061EEB074E0B
:104C10004CEB174B18EB0B0840F1000018EB0E0B98
:104C200058EB000840F100008F1A4FF000013CBF24
:104C3000C943661B14BFB5EB040C00213CBFC9433C
:104C4000F61B4FEA17444EEA8E0E27EA04454FEA58
:104C50001C4704FB07622CEA074C05FB07F70CFB1B
:104C600005F604FB0CFC16EB074642EB174216EB6D
:104C70000C4642EB1C421BEB060658EB020241417C
:104C800046EA9E0601D5BDE80189B619524141EBBD
:104C90000101A3F10103BDE801894FEA14454FEA80
:104CA000114724EA054621EA074C05FB07F406FBF9
:104CB00007F70CFB06F105FB0CFC11EB074144EB7D
:104CC00017444FEA124711EB0C4144EB1C4422EA13
:104CD000074C05FB07F206FB07F70CFB06F605FB86
:104CE0000CFC16EB074642EB174216EB0C4642EB68
:104CF0001C456A1854F1000148BF7047B61952416B
:104D000041EB0101A3F10103704795F0000F37D08B
:104D10004FEA11424FEA144721EA024624EA074CBF
:104D200002FB07F106FB07F70CFB06F402FB0CFC89
:104D300014EB074441EB17414FEA154714EB0C44C1
:104D400041EB1C4125EA074C02FB07F506FB07F780
:104D50000CFB06F602FB0CFC16EB074645EB174571
:104D600016EB0C4645EB1C42121951F1000148BFED
:104D70007047B619524141EB0101A3F1010370479D
:104D80004FEA14454FEA114724EA054621EA074C49
:104D900005FB07F106FB07F70CFB06F24FF00006D8
:104DA00005FB0CFC12EB074241EB174112EB0C42E6
:104DB00051EB1C4148BF7047921841EB0101A3F130
:104DC00001037047490050EAC12018BF04204A0D72
:104DD00018BF40F0010040F2FF72B2EB515F08BF14
:104DE00040F00200012808BF0520704730380A282B
:104DF00001D20120704700207047000010B5002943
:104E00000AD00878002807D005487844FFF7D2FB7D
:104E1000002801D0002010BD0248784410BD0000D9
:104E2000F6010000EE01000010B500290AD0087854
:104E3000002807D005487844FFF7BCFB002801D0C4
:104E4000002010BD0248784410BD0000E6010000BB
:104E5000DE010000FFF736B9120100020200004037
:104E600083044057000201020301090243000201CA
:104E700000C03209040000010202010005240010F4
:104E80000105240100010424020205240600010793
:104E90000582030800FF09040100020A0000000760
:104EA00005030240000007058102400000040309D9
:104EB000042603530054004D006900630072006F24
:104EC0000065006C0065006300740072006F006E86
:104ED000006900630073003203530054004D003337
:104EE00000320020005600690072007400750061F5
:104EF000006C00200043004F004D00200050006F68
:104F00000072007400200020003031323334353616
:104F100037383941424344454640305800303132F9
:104F200033343536373839616263646566403078CA
:104F30000004000008000000000000000200010062
:104F4000001000000000000000000000024000000F
:104F5000000000A00000000005400000000000C8A4
:104F6000000000000C4000000000409C0000000019
:104F7000194000000020BCBE0000000034400000CA
:104F8000BFC91B8E00000004B5400000504BCFD0BD
:104F90006607E2CF010000006C4100003E8251AA8A
:104FA000DFEEA73401000000D9420000DCB5A0E22A
:104FB0003A301F97FFFFFFFFB4450000FD25A0C852
:104FC000E9A3C14FFFFFFFFFFF3F0000000000808B
:104FD00000000000FF3F0000000000800000000013
:104FE0002C51000800000020540100006C01000852
:104FF000BC510008540100203C0D0000C80100080D
:105000001C00000043000000F8FFFFFF0C00000040
:105010000E0000000F0000002E0000001001000034
:1050200043000000F8FFFFFF004040404040404088
:10503000404041414141414040404040404040406B
:10504000404040404040404040050202020202020F
:10505000020202020202020202202020202020205E
:105060002020200202020202020290909090909072
:105070001010101010101010101010101010101030
:1050800010101010020202020202888888888888A4
:105090000808080808080808080808080808080890
:1050A0000808080802020202400000000000000098
:1050B00000000000000000000000000000000000F0
:1050C00000000000000000000000000000000000E0
:1050D00000000000000000000000000000000000D0
:1050E00000000000000000000000000000000000C0
:1050F00000000000000000000000000000000000B0
:10510000000000000000000000000000000000009F
:10511000000000000000000000000000000000008F
:105120000000000000000000000000001184A24AFE
:1051300004E00901020304060708092916691A0593
:105140002002040608141A03531254124D1233029B
:105150001F321305310C1C08F520040A118F24514D
:1051600033C20112081A040713B1331B08CF04130A
:10517000BD341B08D3041AFD041353351B08B304B4
:105180001A77041A85041A930441324029441AA755
:10519000240916741AB51C13584E3308121A6A08DB
:1051A00032431AAD0832041AB10832261AD7082938
:0C51B000E0225273201A299241000000F6
:0400000508000131BD
:00000001FF
