:020000040800F2
:10000000A0BE0020491800082104000823040008AD
:10001000270400082B0400082F040008000000003B
:100020000000000000000000000000003304000891
:1000300035040008000000003704000839040008F7
:1000400063180008631800086318000863180008A4
:100050006318000863180008631800086318000894
:100060006318000863180008631800086318000884
:100070006318000863180008631800086318000874
:100080006318000863180008631800086318000864
:10009000093A00086318000863180008631800088C
:1000A0006318000863180008631800086318000844
:1000B0006318000879140008631800086318000822
:1000C0006318000863180008631800086318000824
:1000D000631800080918000863180008631800086E
:1000E0006318000863180008FD3900086318000849
:1000F00063180008631800086318000863180008F4
:1001000063180008631800086318000863180008E3
:1001100063180008631800086318000863180008D3
:1001200063180008631800086318000863180008C3
:1001300000F002F800F0B0F80AA090E8000C824449
:100140008344AAF10107DA4501D100F0A5F8AFF226
:10015000090EBAE80F0013F0010F18BFFB1A43F0A5
:1001600001031847A0770000C07700000A444FF051
:10017000000C10F8013B13F0070408BF10F8014B06
:100180001D1108BF10F8015B641E05D010F8016B4B
:10019000641E01F8016BF9D113F0080F1EBF10F8AF
:1001A000014BAD1C0C1B09D16D1E58BF01F801CBD2
:1001B000FAD505E014F8016B01F8016B6D1EF9D555
:1001C0009142D6D37047000000230024002500266A
:1001D000103A28BF78C1FBD8520728BF30C148BFAA
:1001E0000B6070476E2905F09087702906F0E58056
:1001F000662907F0AB82652907F0A882672907F016
:10020000A582612907F0A48203681B0A28BF41F078
:100210008001692905F03485642905F03185752947
:1002200005F02E856F2906F07280782906F0B180DE
:10023000E92906F00D80E42906F00A80F52906F088
:100240000780EF2906F06F80F82906F0B080036878
:10025000DB0928BF41F08001632906F0EF84732990
:1002600006F0F484E32906F0FF84F32906F0048500
:10027000002070471FB506F055FD04000020002146
:1002800007F04EFA401C60600020002107F032FAAF
:10029000E0601FBD10B510BD06F016FD1146FFF75A
:1002A000E9FF00F01EF806F0F3FD03B4FFF7F2FFDC
:1002B00003BC01F04FFA000080F30888704700008B
:1002C00010B5002003F0F9FB642001F016FA0120BC
:1002D00003F0F3FB03F09CFB03F0BAFB04F082FE97
:1002E00010BD00BF002600F0D4F9002710E008215F
:1002F0003C4801F02AFC012809D13B48406800F045
:100300007F40B0F1006F02D1374803F058FB7F1CEB
:100310004FF6FF708742EADB4FF4A06001F0B4FAB9
:1003200001F092F94FF4E13001F022FA41F61F4159
:10033000312001F075F800F0F0F801F0A1F900BFEC
:100340002A4800680028FBD000F03CFEFFF7B8FF09
:1003500046E026480068012807D10121214801F024
:10036000F4FB10B900202249086022480068864248
:1003700019D020480068C6B2052E0AD101220821F2
:100380000F2000F092FD012280210E2000F08DFD53
:1003900009E0002208210F2000F087FD00228021C3
:1003A0000E2000F082FD1448008800F40040B8B12F
:1003B00011480088C0F30D05294610A003F016FC73
:1003C000002405E01349085D03F0FBFB601C84B2C8
:1003D000AC42F7DB10A003F009FC002006490880BE
:1003E000B7E7000000100140000001088000002075
:1003F000A0000020CC010020C80000200D0AC4FA93
:10040000B7A2CBCDB5C4CFFBCFA2CEAA3A25640DFF
:100410000A0D0A00941D00200D0A0D0A00000000BC
:10042000704700BFFEE700BFFEE700BFFEE700BF6A
:10043000FEE7704770477047704700000CB500201A
:10044000019000906C48006840F480306A49086070
:1004500000BF6948006800F4003000900198401C1B
:100460000190009818B90198B0F5A06FF1D16248D9
:10047000006800F4003010B10120009001E000207D
:1004800000900098012843D15C48006840F01000BB
:100490005A4908600846006820F0030008600846D2
:1004A000006840F0020008605348406852494860C4
:1004B0000846406848600846406840F480604860EC
:1004C0000846406820F47C1048600846406840F4C4
:1004D000E81048600846006840F08070086000BF7F
:1004E0004548006800F000700028F9D04248406894
:1004F00020F00300404948600846406840F0020090
:10050000486000BF3C48406800F00C000828F9D162
:100510000CBD10B5FFF792FF10BD10B5364800684E
:1005200040F00100344908600846406834490840FA
:100530003149486008460068324908402E49086041
:100540000846006820F4802008600846406820F4CF
:10055000FE0048604FF41F008860FFF7DAFF4FF09D
:1005600000602949086010BD10B50021002000225C
:10057000214B5B6803F00C0121B1042906D0082946
:1005800028D107E0214B224C236027E01F4B204C51
:10059000236023E0184B5B6803F47010164B5B6814
:1005A00003F48032022303EB904022B9194B4343FA
:1005B000174C23600DE0104B5B6803F4003323B14C
:1005C000144B4343124C236003E0104B4343104C45
:1005D000236003E00D4B0E4C236000BF00BF064BB1
:1005E0005B68C3F303130C4CE15C094B1B68CB4005
:1005F000074C236010BD00000010024000200240A4
:100600000000FFF8FFFFF6FE08ED00E000127A00A0
:100610000800002000093D000C00002010B5012159
:10062000D04801F092FA10BD10B50221CD4801F07A
:100630008CFA10BD10B50421CA4801F086FA10BD2D
:1006400010B50821C74801F080FA10BD10B510217F
:10065000C44801F07AFA10BD10B52021C14801F05C
:1006600074FA10BD10B50446A068804740B9BE4872
:10067000844202D10120A0700AE00020A07007E0AF
:10068000B948844202D10020A07001E00120A0708E
:1006900010BD08B50121102001F080FC3E20ADF80E
:1006A000000003208DF8020004208DF80300694645
:1006B000AC4801F0B7F90120ADF8000003208DF837
:1006C000020028208DF803006946A64801F0AAF927
:1006D0000020A5490873A5490873A5490873A549D1
:1006E0000873A5490873A549087308BD10B50446E9
:1006F0009D48844272D12046FFF7B4FFE078062877
:100700006DD2DFE800F0030E1939466DA07820B9EC
:100710000120E0700020207102E00020E0702071D4
:1007200083E0A07820B90220E0700020207102E070
:100730000020E070207178E0A07848B92088C828AF
:1007400006DB0320E070042020710020208012E0EE
:10075000A07850B92088C82807DA2088401C20805B
:100760000220E0700020207105E00020208004209D
:10077000E0700020207158E0A07828B90320E070D4
:1007800000202071208003E00020E0702071208094
:100790004BE0A07840B12088012805DB00202080B4
:1007A000E0700120207118E0A07850B12088012865
:1007B00007DA2088401C20800420E070002020718F
:1007C0000BE000202080207B20B10520E07000207D
:1007D000207102E00120E070207126E026E023E095
:1007E000A07848B92088C82806DB0320E0700120E3
:1007F00020710020208016E0A07850B92088C828F9
:1008000007DA2088401C20800520E070002020713D
:1008100009E000202080E070207B10B102202071D0
:1008200001E00120207100E000BF99E02046FFF7C1
:1008300019FFE078062878D2DFE800F0030E1939B6
:10084000466BA07820B90120E0700020207102E002
:100850000020E070207182E0A07820B90220E070D2
:100860000020207102E00020E070207177E0A07885
:1008700048B92088C82806DB0320E07004202071D6
:100880000020208012E0A07850B92088C82807DA1C
:100890002088401C20800220E0700020207105E0AC
:1008A000002020800420E0700020207157E0A07814
:1008B00028B90320E07000202071208003E0002090
:1008C000E070207120804AE0A07840B120880128A3
:1008D00005DB00202080E0700120207118E0A07866
:1008E00050B12088012807DA2088401C208004208D
:1008F000E070002020710BE000202080207B20B1E0
:100900000520E0700020207102E00120E0702071DD
:1009100025E0A07850B92088C82807DB0320E070C4
:10092000012020710020208017E017E0A07850B946
:100930002088C82807DA2088401C20800520E07025
:100940000020207109E000202080E070207B10B1A1
:100950000220207101E00120207100E000BF00BFF3
:1009600010BD0000001001401C0000202C000020E1
:100970003C0000204C0000205C0000206C000020A7
:100980000146088870472DE9F04105460E46174696
:10099000002407E036F81410284601F0CEFEAD1C06
:1009A000601C84B2BC42F5DBBDE8F08130B5034683
:1009B0000C461546002207E01846FFF7E1FF24F831
:1009C00012009B1C501C82B2AA42F5DB30BD2DE9FF
:1009D000F05F80468A461746B8F1006F02D3374869
:1009E000804501D3BDE8F09F01F05FFDA8F1006BE9
:1009F0004FEADB25CBF34909C9F58064A74200DC47
:100A00003C464DE04FF0006101EBC5204A142C49F3
:100A1000FFF7CCFF00260BE009EB0600284931F870
:100A200010004FF6FF71884200D003E0701C86B2C0
:100A3000A642F1DB00BFA6421BDA4FF0006101EBDA
:100A4000C52001F077FD002608E03AF8160006EB15
:100A500009011B4A22F81100701C86B2A642F4DB81
:100A60004FF0006101EBC5204A141549FFF78BFFD9
:100A700004E0224651464046FFF785FFA74200D1D9
:100A80000FE06D1C4FF000090AEB440AA044381B2C
:100A900087B2B7F5806F02DD4FF4806400E03C461A
:100AA000B0E700BF01F00DFD00BF9BE713B50446A2
:100AB000012201A92046FFF78AFF1CBD000008089B
:100AC000F401002008B50121092001F067FA012195
:100AD000FC4801F078F80820ADF8000010208DF8EF
:100AE000030003208DF802006946F74800F09AFFE2
:100AF0004FF47040ADF8000010208DF80300032083
:100B00008DF802006946F04800F08CFF0821EE489D
:100B100001F037F84FF47041EB4801F030F808BDB0
:100B200070B504460D46002621E004F0800028B18F
:100B30004FF48051E44801F022F804E04FF4805172
:100B4000E14801F01EF84FF40051DF4801F019F8B8
:100B5000022000F0AEFD4FF40051DB4801F00FF829
:100B60006006040E042000F0A4FD701CC6B2AE4264
:100B7000DBDB70BD70B504460D46002620E004F0B6
:100B8000010028B14FF48051CF4800F0F8FF04E095
:100B90004FF48051CC4800F0F4FF4FF40051CA48A4
:100BA00000F0EFFF022000F084FD4FF40051C64832
:100BB00000F0E5FF6410042000F07BFD701CC6B25D
:100BC000AE42DCDB70BD10B504464FF40041BE48B8
:100BD00000F0D7FF03218020FFF7A2FF0921204664
:100BE000FFF79EFF4FF40041B74800F0C8FF10BD6B
:100BF00070B504460D464FF40041B34800F0C1FF04
:100C00000321A020FFF78CFFA106080E0721FFF7A4
:100C100087FF04212846FFF7ADFF4FF40041AA48A3
:100C200000F0ADFF70BD2DE9F04104460D462746AA
:100C3000002608E029463846FFF7DAFF781CC7B2DD
:100C40002D11701CC6B2022EF4DBBDE8F0812DE937
:100C5000F04104460D462746002608E0294638465E
:100C6000FFF7C6FF781EC7B22D11701CC6B2022E48
:100C7000F4DBBDE8F0812DE9F04104460D4627463E
:100C8000002609E029463846FFF7B2FFA7F11D000C
:100C9000C7B22D11701CC6B2022EF3DBBDE8F08185
:100CA00070B504460D464FF40041874800F069FFD7
:100CB0000321A020FFF734FFA106080E0721FFF74C
:100CC0002FFF2907080E0821FFF754FF4FF40041BA
:100CD0007D4800F054FF70BD2DE9F04104460D46FB
:100CE0002746002608E029463846FFF7D9FF781C3A
:100CF000C7B22D11701CC6B2022EF4DBBDE8F08124
:100D00002DE9F04104460D462746002609E0294614
:100D10003846FFF7C5FFA7F11D00C7B22D11701CA3
:100D2000C6B2022EF3DBBDE8F0812DE9F0410446A6
:100D30000D462746002608E029463846FFF7B0FF53
:100D4000781EC7B22D11701CC6B2022EF4DBBDE8AE
:100D5000F08170B504460D464FF400415A4800F04A
:100D600010FF0321A020FFF7DBFEA106080E0721DC
:100D7000FFF7D6FE08212846FFF7FCFE4FF400419E
:100D8000514800F0FCFE70BD2DE9F04105460E46CD
:100D90001446A8464FF400414B4800F0F2FE0321F0
:100DA000A020FFF7BDFE4FEA8861080E0721FFF77C
:100DB000B7FE00270BE020780421FFF7DBFE217847
:100DC00008110421FFF7D6FE641C781CC7B2B74295
:100DD000F1DB4FF400413C4800F0D1FEBDE8F0816A
:100DE00010B54FF48041384800F0CBFE042000F0ED
:100DF00060FC4FF48041344800F0C1FE042000F054
:100E000058FC10BD38B500244FF48050ADF80000F8
:100E100048208DF8030069462B4800F003FE0420AB
:100E200000F047FC00250CE06410FFF7D9FF4FF4F9
:100E30008051254800F089FE08B144F08004681C08
:100E4000C5B2082DF0DB4FF48050ADF80000032050
:100E50008DF8020010208DF8030069461A4800F052
:100E6000E1FD4FF48051184800F089FE204638BD5E
:100E700070B504464FF40041134800F082FE032190
:100E8000C020FFF74DFEA106080E0721FFF748FE20
:100E9000042000F00EFCFFF7B5FF05464FF40041BB
:100EA000094800F06CFE284670BD2DE9F041074668
:100EB0000C4616463846FFF7DBFF054636B125439C
:100EC00005E0000000023000000C0140A543294667
:100ED0003846FFF73EFFBDE8F08110B5654A302186
:100EE0000020FFF751FF10BD70B505460C46614864
:100EF000005D0121A94008435E4908550846015D8F
:100F00002046FFF790FE70BD5A4A525C0123834091
:100F10009A43584B5A54704710B54FF40041564805
:100F200000F02FFE0321A020FFF7FAFD072100208B
:100F3000FFF7F6FD002409E004210020FFF71AFE68
:100F400004210020FFF716FE601CC4B2302CF3DB36
:100F50004FF40041484800F012FE002404E0002055
:100F600044490855601CC4B2302CF8DB10BD10B5E4
:100F70004FF40041404800F004FE0321A020FFF799
:100F8000CFFD07210020FFF7CBFD002409E004215D
:100F9000FF20FFF7EFFD0421FF20FFF7EBFD601CB2
:100FA000C4B2302CF3DB4FF40041334800F0E7FDCE
:100FB000002404E0FF202F490855601CC4B2302CE7
:100FC000F8DB10BD10B5FFF77DFD0120FFF7FBFD3D
:100FD0000320FFF7F8FDFFF79FFF0821264800F0E8
:100FE000CEFD012240210F20FFF75FFF234800685C
:100FF000012804D1012220210F20FFF756FF10BD48
:1010000010B5FFF76AFF10BD10B508211A4800F0AF
:10101000B8FD0020FFF7D7FD0220FFF7D4FD10BD7B
:10102000002004E00021134A1154411CC8B22828B2
:10103000F8DB00210F4A82F82810114691F8291098
:1010400001F07F0182F829107047002004E00021A0
:10105000084A1154411CC8B22828F8DB0021054A6F
:1010600082F82810114691F8291001F07F0182F8CA
:1010700029107047F4090020000C0140240A0020C8
:1010800010B504469948006808B100F0D4FA012C64
:1010900002D0042C4ED121E09548006808B9012007
:1010A00000E00020924908600846006860B9082105
:1010B000904800F064FD012240210F20FFF7F5FE6B
:1010C000322000F01AFB08E008218A4800F059FDA0
:1010D000002240210F20FFF7E8FE2CE08648006840
:1010E00008B9012000E00020834908600846006834
:1010F00080B11021814800F042FD08217D4800F0B8
:101100003EFD012240210F20FFF7CFFE322000F0EC
:10111000F4FA0EE00821774800F033FDFFF7FCFEFB
:10112000002240210F20FFF7C0FE1021734800F07D
:1011300028FD00E000BF00BF10BD10B504466B489D
:10114000006808B100F077FA012C02D0042C23D1FA
:1011500021E06B480088B8B16AA002F047FD6E48F4
:10116000406800F07F40B0F1006F09D16448028808
:101170006A496B4802F0F4FB6AA002F037FD06E012
:101180006CA002F033FD02E06FA002F02FFD0720FB
:101190007349087001E000E000BF00BF10BD10B54A
:1011A00004465248006808B100F045FA012C02D00C
:1011B000042C35D11FE06BA002F018FD58484068A0
:1011C00000F07F40B0F1006F0ED100BF6C480068A6
:1011D00000F4E0606B490843001D69490860BFF3F3
:1011E0004F8F00BF00BFFEE767A002F0FFFC0720A3
:1011F0005B49087015E06BA002F0F8FC46484068B7
:1012000000F07F40B0F1005F03D1434802F0D7FB0C
:1012100002E06BA002F0EAFC07205149087000E0F0
:1012200000BF00BF10BD10B504463048006808B1CB
:1012300000F001FA012C02D0042C29D127E0012270
:1012400004210F20FFF731FE0120644908704FF49C
:10125000967000F052FA002204210F20FFF725FEBD
:101260005FA004F001FD38A002F0C0FC2448008813
:1012700030B15DA002F0BAFC00202149088002E0F4
:101280005DA002F0B3FC07203549087001E000E0E2
:1012900000BF00BF10BD10B55D48007930B15C499A
:1012A0000879FFF7EDFE0020594908715948007987
:1012B00030B158490879FFF740FF002055490871BF
:1012C0005548007930B154490879FFF768FF00208C
:1012D000514908715148007930B150490879FFF7F8
:1012E000A2FF00204D49087110BD0000240A002013
:1012F00084000020000C0140800000200008014014
:1013000002000020BFAACABCB8FCD0C2B9CCBCFE47
:101310002E2E2E0D0A0000000010002000100020CC
:1013200000000108B9CCBCFEB8FCD0C2CDEAB3C9FC
:10133000210D0A00B7C7464C415348D3A6D3C3B3C7
:10134000CCD0F2210D0A0000C3BBD3D0BFC9D2D488
:10135000B8FCD0C2B5C4B9CCBCFE210D0A00000057
:1013600004000020BFAACABCD6B4D0D0464C41531A
:1013700048D3C3BBA7B4FAC2EB21210D0A00000079
:101380000CED00E00000FA05B7C7464C415348D3C6
:10139000A6D3C3B3CCD0F22CCEDEB7A8D6B4D0D06F
:1013A000210D0A00BFAACABCD6B4D0D05352414DB9
:1013B000D3C3BBA7B4FAC2EB21210D0A0000000081
:1013C000B7C75352414DD3A6D3C3B3CCD0F22CCE22
:1013D000DEB7A8D6B4D0D0210D0A00007C000020D2
:1013E0005A45524F0D0A0000B9CCBCFEC7E5B3FD0B
:1013F000CDEAB3C9210D0A00C3BBD3D0BFC9D2D433
:10140000C7E5B3FDB5C4B9CCBCFE210D0A00000090
:101410001C0000203C0000204C0000206C0000203C
:101420007FB505460C460121022000F0C4FDADF851
:101430000850ADF804400020ADF80A00ADF80600F1
:1014400001A93A4801F0C4FB01221146374801F0D6
:1014500036FF1D208DF8000000208DF801008DF86A
:10146000020001208DF80300684600F012FA012105
:101470002E4801F009FF7FBD10B501212B4802F075
:10148000CCF900284FD00121284802F0D7F9FFF706
:1014900002FF27480068401C254908602548FFF7DF
:1014A00025F92548FFF722F92448FFF71FF92448BA
:1014B000FFF71CF92348006858B90121224800F0C1
:1014C00044FB012805D121480068401C1F490860E1
:1014D00002E000201D4908601C480068B0F5C87F84
:1014E00003DD01201749086010BD16480068012877
:1014F0000BD10121144800F028FB012805D1144824
:101500000068401C1249086002E000201049086091
:101510000F480068B0F5C87F05D90420FFF7B0FD7B
:1015200000200B49086000BFDEE700000004004017
:101530008C0000201C0000203C0000204C000020FB
:101540006C00002080000020001001409C00002062
:10155000A000002000B589B00121052000F01EFD8B
:101560000121084600F027FD0121424800F02BFB35
:101570004FF40040ADF8200018208DF82300032020
:101580008DF8220008A93C4800F04CFA40F2E73000
:10159000ADF818004720ADF814000020ADF81A008F
:1015A000ADF8160005A94FF0804001F011FB602056
:1015B000ADF804000120ADF806000020ADF80A00E7
:1015C000ADF80C0001A94FF0804001F03EFB012175
:1015D000880701F059FE4FF40041274800F0D1FA86
:1015E00009B000BD10B54FF4FA71080702F0E4F835
:1015F00010BD10B500214FF0804002F0DDF810BDA5
:1016000070B505464FF08040008D401C68431B4973
:101610000968B1FBF0F0401E84B221464FF08040D3
:1016200002F0C8F8264604EBD67041104FF0804017
:1016300002F0C2F870BD10B5FFF7D4FF642000F0CF
:101640005CF8FFF7D6FF10BD08B50121052000F0BA
:10165000A5FC10208DF80300ADF8000003208DF8E4
:1016600002006946044800F0DDF91021024800F04C
:1016700086FA08BD00031800000801400800002099
:1016800010B56FF0040000F04EF92E4800682E49A6
:10169000B0FBF1F02D4908700846007800EB4001DE
:1016A000C1EBC0104FF6FF7101EAC0002849088065
:1016B00010BD0146254A12784A434FF0E0235A6193
:1016C00000229A611A46126942F001021A6100BFB3
:1016D0004FF0E022106900F001021AB100F48032EC
:1016E000002AF5D04FF0E022126922F001024FF0FB
:1016F000E0231A6100229A6170470146144A128859
:101700004A434FF0E0235A6100229A611A46126957
:1017100042F001021A6100BF4FF0E022106900F0B0
:1017200001021AB100F48032002AF5D04FF0E02215
:10173000126922F001024FF0E0231A6100229A613F
:10174000704700000800002000127A00A40000206A
:10175000A600002000BF704700BF374A128802F081
:101760004002002AF9D0C2B2334B1B1D1A807047C9
:1017700010B586B00446012144F2040000F00EFCCE
:101780004FF40070ADF8140003208DF816001820F7
:101790008DF8170005A9294800F044F94FF480603E
:1017A000ADF8140004208DF8170005A9234800F0B7
:1017B00039F925208DF8000003208DF801008DF8FF
:1017C000020001208DF80300684600F062F80194E1
:1017D0000020ADF80800ADF80A00ADF80C00ADF837
:1017E00010000C20ADF80E0001A9134800F07DFC9C
:1017F000012240F22551104800F00FFD01210E4852
:1018000000F0FFFC06B010BD0B49098801F0200173
:1018100081B10949091D0988C8B209490988C8293F
:1018200008DA0849064A1288885405490988491C7B
:10183000034A118070470000003801400008014051
:10184000AE000020001000200948804709480047EA
:10185000FEE7FEE7FEE7FEE7FEE7FEE7FEE7FEE760
:10186000FEE7FEE704480549054A064B70470000BD
:101870001B05000831010008100B0020A0BE00204D
:10188000100D0020A0BA002031490143314A1160F7
:10189000704770B5002100230F22C47804B32D4C8B
:1018A000246804F4E064C4F5E064210AC1F104038F
:1018B000CA40447804FA03F18478144021430901B2
:1018C000254C0678A155047804F01F050124AC408E
:1018D00005786D11AD0005F1E025C5F8004109E07E
:1018E000047804F01F050124AC401C4D06787611E5
:1018F00045F8264070BD1A4A0A400243154B1B1F8B
:101900001A60704739B1134A121D12680243114B15
:101910001B1D1A6006E00F4A121D126882430D4B10
:101920001B1D1A607047042808D14FF0E021096997
:1019300041F004014FF0E022116107E04FF0E02197
:10194000096921F004014FF0E022116170470000A5
:101950000000FA050CED00E000E400E080E100E0AA
:1019600080FFFF1F10B50446CC48844208D10121F6
:10197000042000F02DFB0021042000F029FB46E0AC
:10198000C748844208D10121082000F021FB002132
:10199000082000F01DFB3AE0C248844208D1012132
:1019A000102000F015FB0021102000F011FB2EE0AC
:1019B000BD48844208D10121202000F009FB00210C
:1019C000202000F005FB22E0B848844208D1012124
:1019D000402000F0FDFA0021402000F0F9FA16E066
:1019E000B348844208D10121802000F0F1FA00219F
:1019F000802000F0EDFA0AE0AE48844207D10121D0
:101A0000801500F0E5FA0021A01500F0E1FA10BD04
:101A100010B50121084600F0DBFA0021012000F09A
:101A2000D7FA10BD2DE9F04102460025002600201E
:101A300000230024002791F803C00CF00F0591F853
:101A400003C00CF0100CBCF1000F03D091F802C0E1
:101A50004CEA050591F800C0BCF1000F31D01468C4
:101A600000202BE04FF0010C0CFA00F3B1F800C09D
:101A70000CEA03069E4220D183004FF00F0C0CFAB3
:101A800003F7BC4305FA03FC4CEA040491F803C0D5
:101A9000BCF1280F06D14FF0010C0CFA00FCC2F883
:101AA00014C00AE091F803C0BCF1480F05D14FF013
:101AB000010C0CFA00FCC2F810C0401C0828D1D35D
:101AC0001460B1F800C0BCF1FF0F34DD5468002091
:101AD0002EE000F1080C4FF0010808FA0CF3B1F801
:101AE00000C00CEA03069E4221D183004FF00F0C88
:101AF0000CFA03F7BC4305FA03FC4CEA040491F822
:101B000003C0BCF1280F05D100F1080C08FA0CF84D
:101B1000C2F8148091F803C0BCF1480F07D100F15E
:101B2000080C4FF0010808FA0CF8C2F81080401CAD
:101B30000828CED35460BDE8F0814FF6FF710180D4
:101B4000022181700421C170704702460020936811
:101B50000B400BB1012000E000207047014688686F
:101B600080B2704702460020D3680B400BB10120C1
:101B700000E0002070470146C86880B270470161EC
:101B80007047416170470AB1016100E041617047EF
:101B9000C16070474FF480320A4382618161826183
:101BA00082698269704702460020434B18684FF6ED
:101BB0008073184040EA021008433F4B186070479A
:101BC0003E49C8617047F0B50A4600230024002151
:101BD000002500F00046B6F1004F02D1364EF16903
:101BE00001E0354E7168C0F3034583B200F440163E
:101BF000B6F5401F08D121F070612F4E766826F0AF
:101C000070662D4F7E6012E000F48016B6F5801FDE
:101C100006D1032606FA05F4A14341F0706106E0FF
:101C2000460D360103FA06F6B14341F0706122B168
:101C3000460D360103FA06F6314300F00046B6F1D0
:101C4000004F02D11C4EF16101E01B4E7160F0BDEE
:101C500030B500228B071C0F0F2303FA04F2164B3A
:101C600008338C1053F824309343134C08348D10F0
:101C700044F8253023468C1053F824308C07240F69
:101C800000FA04F423430C4C08348D1044F825303A
:101C900030BD0A49DC31086070470000000801408F
:101CA000000C0140001001400014014000180140E8
:101CB000001C0140002001400000014000002042C3
:101CC000DF48006840F00100DD49086008464068D0
:101CD000DC490840DA49486008460068DA490840AB
:101CE000D74908600846006820F48020086008464C
:101CF000406820F4FE0048604FF41F008860704781
:101D0000CF49096821F48031CD4A11601146096834
:101D100021F480211160B0F5803F03D0B0F5802F11
:101D20000ED106E0C649096841F48031C44A116009
:101D300007E0C349096841F4A021C14A116000E0ED
:101D400000BF00BF704710B50146002200230020ED
:101D50004A11012A02D1BA4C236806E0022A02D1B4
:101D6000B74C236A01E0B64C636A01F01F020124FC
:101D700094401C400CB1012000E0002010BD38B59B
:101D8000002000900024002500BF3120FFF7DBFF7A
:101D900005460098401C00900098B0F5A06F01D057
:101DA000002DF2D03120FFF7CEFF08B1012400E072
:101DB0000024204638BD01460020A14A106820F0CA
:101DC000F80040EAC10010607047A0490860704701
:101DD000024600209A4B586820F47C1042EA010326
:101DE0001843974B586070479849086670470146FA
:101DF0000020934A506820F0030008435060704769
:101E00008F48406800F00C007047014600208C4A63
:101E1000506820F0F00008435060704701460020F1
:101E2000874A506820F4E0600843506070470146DC
:101E30000020834A506820F4605040EAC10050609E
:101E4000704729B17E4A527A02437D4B5A7204E0B0
:101E50007B4A527A82437A4B5A7270477B49D83117
:101E60000860704701460020754A506820F44040E1
:101E70000843506070470021714A20321170704A47
:101E800082F82010012802D004280AD104E00121A0
:101E90006B4A2032117005E00521694A2032117029
:101EA00000E000BF00BF704769490860704764499F
:101EB000096A0143624A1162704765494439086002
:101EC000704730B500210022002400235C4D6D686E
:101ED00005F00C0121B1042905D0082923D105E022
:101EE0005C4D056022E05B4D05601FE0544D6D6860
:101EF00005F47012524D6D6805F48034022505EB2F
:101F000092421CB9544D554305600BE04C4D6D6831
:101F100005F400351DB1504D5543056002E04D4DAF
:101F20005543056002E04B4D056000BF00BF444DC6
:101F30006D6805F0F0010909484D6B5C0568DD40EE
:101F400045603F4D6D6805F4E061090A434D6B5CE7
:101F50004568DD4085603A4D6D6805F46051C90AF9
:101F60003E4D6B5C4568DD40C560354D6D6805F4E0
:101F70004041890B3A4D6B5CC568B5FBF3F50561D3
:101F800030BD29B12E4A526902432D4B5A6104E0FB
:101F90002B4A526982432A4B5A61704729B1284A19
:101FA00092690243264B9A6104E0254A9269824372
:101FB000234B9A61704729B1214AD2690243204BD1
:101FC000DA6104E01E4AD26982431D4BDA61704730
:101FD00029B11B4AD2680243194BDA6004E0184A5F
:101FE000D2688243164BDA60704729B1144A1269ED
:101FF0000243134B1A6104E0114A12698243104BE9
:102000001A61704712494039086070470F49C86427
:1020100070470B49C87170470948406A40F08070AA
:1020200007494862704701460020054A92680A4005
:102030000AB1012000E00020704701498872704712
:10204000001002400000FFF8FFFFF6FE00004242D1
:102050008004424200127A0000093D00B0000020D6
:10206000C000002010B50446FB48844209D101217C
:102070008803FFF7ADFF00214FF48040FFF7A8FF72
:1020800032E0F648844209D101214804FFF7ADFF50
:1020900000214FF40030FFF7A8FF25E0F04884420C
:1020A00009D101218804FFF7A0FF00214FF480200F
:1020B000FFF79BFF18E0EB48844209D10121C804D7
:1020C000FFF793FF00214FF40020FFF78EFF0BE096
:1020D000E548844208D101210805FFF786FF002169
:1020E0004FF48010FFF781FF10BD2DE9F04786B057
:1020F00005460E460024A24600BFA1460027B0892F
:1021000000B100BF2F462C8A4CF6FF700440F088C7
:1021100004432C82AC894EF6F3100440B088318918
:102120000843718908430443AC81AC8A4FF6FF40F1
:102130000440B0890443AC8201A8FFF7C2FEC64840
:10214000874202D1DDF810A001E0DDF80CA0A889DB
:1021500000F4004040B10AEBCA0000EB0A103168FD
:102160004900B0FBF1F807E00AEBCA0000EB0A10E7
:1021700031688900B0FBF1F86420B8FBF0F004018D
:102180002009642101FB1089A88900F4004040B1B6
:10219000322000EBC900B0FBF1F000F0070004436F
:1021A00008E0322000EB09106421B0FBF1F000F0F0
:1021B0000F0004432C8106B0BDE8F0874FF41651A0
:1021C000016000218180C18001810C2141810021B9
:1021D0008181704710B502460020108A4FF2FF033C
:1021E00018400B884C8823438C882343CC88234396
:1021F0001843108210BD0021018041808180C18080
:10220000704721B1828942F40052828104E08289C0
:102210004DF6FF731A4082817047F0B503460024E3
:1022200000260025002040F66A17B94200D100BF01
:102230001846C1F3421401F01F06012707FA06F5FC
:10224000012C01D10C3004E0022C01D1103000E04F
:1022500014301AB107682F43076002E00768AF43E4
:102260000760F0BD1AB1838A0B43838202E0838A40
:102270008B4383827047028A4FF6F0731A400282C2
:10228000028A0A430282704782894FF2FF731A4022
:10229000828182890A438281704721B1828942F01A
:1022A0000202828104E082894FF6FD731A40828126
:1022B0007047028A4FF6DF731A400282028A0A438D
:1022C0000282704721B1028A42F48042028204E015
:1022D000028A4BF6FF731A4002827047C1F308026C
:1022E0008280704701468888C0F308007047818962
:1022F00041F0010181817047028BD2B20283028BCF
:1023000042EA012202837047028B02F47F42028379
:10231000028B0A430283704721B1828A42F0200275
:10232000828204E0828A4FF6DF731A40828270470D
:1023300021B1828A42F01002828204E0828A4FF642
:10234000EF731A408282704721B1828A42F00802FC
:10235000828204E0828A4FF6F7731A4082827047C5
:1023600021B1828942F40042828103E08289C2F372
:102370000E028281704721B1828A42F40062828219
:1023800004E0828A4FF2FF731A4082827047828A89
:102390004FF6FB731A408282828A0A438282704718
:1023A00021B1828A42F00202828204E0828A4FF6E0
:1023B000FD731A408282704702460020B1F5007F0B
:1023C00000D100BF13880B400BB1012000E00020BA
:1023D000704701F40072B2F5007F00D100BFCA431C
:1023E0000280704770B502460024002300250020BB
:1023F00040F66A16B14200D100BFC1F3421501F0A8
:102400001F03012606FA03F3012D02D196893340FA
:1024100006E0022D02D1168A334001E0968A33404D
:102420000C12012606FA04F41688344013B10CB1DC
:10243000012000E0002070BD10B50022002340F60E
:102440006A14A14200D100BF0A1201249440A3B231
:10245000DC43048010BD000000380140004400400F
:1024600000480040004C0040005000400146002061
:10247000FE4A106800F03800084310607047FB49BE
:10248000096821F00801F94A116011460968014301
:1024900011607047F549096821F01001F34A116095
:1024A00011460968014311607047F148EF494860DF
:1024B000F04848607047EE48EC494860ED48486095
:1024C0007047EA48006940F08000E84908617047B9
:1024D000E648006940F08000E44908617047042044
:1024E000E249C96801F0010109B101200EE0DF49AC
:1024F000C96801F0040109B1022007E0DB49C9689D
:1025000001F0100109B1032000E00420704700B57C
:1025100002460423FFF7E3FF034603E0FFF7DFFF74
:102520000346521E012B01D1002AF7D102B905231F
:10253000184600BD30B5044604254FF43020FFF79F
:10254000E6FF0546042D17D1C848006940F0020097
:10255000C649086108464461006940F040000861CE
:102560004FF43020FFF7D3FF0546C048006941F61D
:10257000FD710840BD490861284630BD10B50424EE
:102580004FF43020FFF7C3FF0446042C16D1B748A0
:10259000006940F00400B54908610846006940F050
:1025A000400008614FF43020FFF7B1FF0446AF4808
:1025B000006941F6FB710840AC490861204610BD36
:1025C00000B502460423FFF78AFF034603E0FFF746
:1025D00086FF0346521E012B01D1002AF7D102B912
:1025E0000523184600BD10B504244FF43020FFF732
:1025F000E7FF0446042C16D19C48006940F0040013
:102600009A4908610846006940F0400008614FF4AB
:102610003020FFF7D5FF04469448006941F6FB716E
:10262000084092490861204610BD00208F49C969C1
:1026300001F0020109B1012000E00020704730B52F
:10264000A5250424FFF7F1FF00B100254FF4302049
:10265000FFF75DFF0446042C3AD185488349886022
:10266000844888600846006940F0200008610846F8
:10267000006940F0400008614FF43020FFF747FF49
:102680000446042C1BD17948006941F6DF710840EB
:10269000764908610846006940F0100008617648F4
:1026A0000580E002FFF733FF0446052C10D06F4889
:1026B000006941F6EF7108406C49086108E0052C9B
:1026C00006D06A48006941F6EF7108406749086121
:1026D000204630BD78B506460C4604250020009003
:1026E000E802FFF714FF0546042D24D15F48006976
:1026F00040F001005D4908613480E802FFF707FF00
:102700000546042D10D1B01C0090200C00990880C3
:10271000E802FFF7FCFE05465448006941F6FE71E9
:1027200008405249086106E05048006941F6FE71D0
:1027300008404E490861284678BD70B504460D46EC
:102740000426F002FFF7E3FE0646042E11D14748A7
:10275000006940F00100454908612580F002FFF75B
:10276000D6FE06464148006941F6FE7108403F49E1
:102770000861304670BD70B505460E460424E0027F
:10278000FFF7C5FE0446042C17D139483749886045
:10279000384888600846006940F0100008612E80C3
:1027A000E002FFF7B4FE0446052C06D02F4800696E
:1027B00041F6EF7108402D490861204670BD2DE9B2
:1027C000F04304464FF6FF763746B046B14604253F
:1027D000E443E6B2C4F30727C4F307484FEA146999
:1027E000E802FFF794FE0546042D49D120481F4911
:1027F0008860204888600846006940F01000086141
:10280000FF2E06D01C4808300680E802FFF77FFE46
:102810000546042D08D1FF2F06D017480A3007803F
:10282000E802FFF774FE0546042D0AD1B8F1FF0F48
:1028300007D011480C30A0F80080E802FFF767FECF
:102840000546042D0AD1B9F1FF0F07D00A480E3012
:10285000A0F80090E802FFF75AFE0546052D0FD0BC
:102860000248006941F6EF71084007E0002002408D
:1028700023016745AB89EFCD00F8FF1F664908616A
:102880002846BDE8F08330B5054604244FF43020D7
:10289000FFF73DFE0446042C41D160485E49886044
:1028A0005F4888600846006940F0200008610846DB
:1028B000006940F0400008614FF43020FFF727FE28
:1028C0000446042C22D15448006941F6DF710840C7
:1028D000514908610846006940F0100008611DB1C7
:1028E00000205049088002E0A5204E4908804FF49E
:1028F0003020FFF70CFE0446052C10D04648006936
:1029000041F6EF7108404449086108E0052C06D003
:102910004148006941F6DF7108403F49086120469F
:1029200030BDF0B505460E46174604243B483A49EB
:1029300088603B488860E002FFF7E9FD0446042C0C
:1029400019D13548006940F010003349086147F05B
:10295000F800304328433349891C0880E002FFF720
:10296000D6FD0446052C06D02B48006941F6EF71D0
:102970000840294908612046F0BD2748C069800801
:1029800070472548006A704700202349096801F014
:10299000200109B1012000E00020704729B11E4A42
:1029A000126902431C4B1A6104E01B4A12698243FC
:1029B000194B1A61704701460020012908D1164AB7
:1029C000D26902F001020AB1012008E0002006E00D
:1029D000114AD2680A400AB1012000E00020704785
:1029E0000D49C860704704200B49C96801F0010116
:1029F00009B101200EE00849C96801F0040109B1DC
:102A0000022007E00449C96801F0100109B1032060
:102A100000E00420704700000020024023016745C9
:102A2000AB89EFCD00F8FF1F10B50446FE48844285
:102A300008D10121C014FFF7CBFA0021E014FFF701
:102A4000C7FAC4E0B4F1804F08D101210846FFF76E
:102A5000CCFA00210120FFF7C8FAB8E0F34884421D
:102A600008D101210220FFF7C0FA00210220FFF760
:102A7000BCFAACE0EE48844208D101210420FFF703
:102A8000B4FA00210420FFF7B0FAA0E0E94884423C
:102A900008D101210820FFF7A8FA00210820FFF73C
:102AA000A4FA94E0E448844208D101211020FFF701
:102AB0009CFA00211020FFF798FA88E0DF48844252
:102AC00008D101212020FFF790FA00212020FFF7F4
:102AD0008CFA7CE0DA48844208D101214014FFF7E7
:102AE00077FA00216014FFF773FA70E0D54884424A
:102AF00009D10121C804FFF76BFA00214FF400202F
:102B0000FFF766FA63E0D048844209D10121080545
:102B1000FFF75EFA00214FF48010FFF759FA56E0F4
:102B2000CA48844209D101214805FFF751FA002122
:102B30004FF40010FFF74CFA49E0C548844208D131
:102B400001214020FFF751FA00214020FFF74DFA04
:102B50003DE0C048844208D101218020FFF745FABA
:102B600000218020FFF741FA31E0BB48844208D1C0
:102B700001218015FFF739FA0021A015FFF735FA7A
:102B800025E0B648844209D101210804FFF720FA64
:102B900000214FF48030FFF71BFA18E0B048844260
:102BA00009D101214804FFF713FA00214FF4003046
:102BB000FFF70EFA0BE0AB48844208D101218804EC
:102BC000FFF706FA00214FF48020FFF701FA10BD4D
:102BD00000220288944B98420ED0994B98420BD019
:102BE000B0F1804F08D0914B984205D0904B98425D
:102BF00002D0904B984204D14FF68F731A404B8805
:102C00001A438D4B984207D08C4B984204D04FF614
:102C1000FF431A40CB881A4302808B8883850B8838
:102C20000385814B98420BD0854B984208D08B4B43
:102C3000984205D08A4B984202D08A4B984201D1E3
:102C40000B7A038601238382704770B5002400222B
:102C50000023058C4FF6FE7635400584028C838870
:102C6000048B4FF68F752C40B51E2C400D882C43DD
:102C7000751E2A400D892A434D882A436A4DA84271
:102C80000BD06F4DA84208D0744DA84205D0744DAA
:102C9000A84202D0734DA84213D14FF6F7752A40CF
:102CA0004D892A434FF6FB752A408D882A434FF6FB
:102CB000FF652B404FF6FF552B408D892B43CD8967
:102CC0002B4383800483CD888586028470BD70B5D4
:102CD000002400220023058C4FF6EF763540058452
:102CE000028C8388048B48F6FF752C404FF6FF4515
:102CF0002C400D884FF6FF7606EA05252C434FF64B
:102D0000DF752A400D8906EA05152A434D8806EA33
:102D100005152A43444DA84202D0494DA8421DD171
:102D20004FF67F752A404D894FF6FF7606EA051566
:102D30002A434FF6BF752A408D8806EA05152A43B7
:102D40004FF6FF352B404FF2FF752B408D8906EA79
:102D500085052B43CD8906EA85052B4383800483B3
:102D6000CD880587028470BD70B500240022002341
:102D7000058C4FF6FF6635400584028C8388848B72
:102D80004FF68F752C404FF6FC752C400D882C4368
:102D90004FF6FF552A400D894FF6FF7606EA0525C6
:102DA0002A434D8806EA05252A431F4DA84202D032
:102DB000234DA8421DD14FF2FF752A404D894FF691
:102DC000FF7606EA05252A434FF6FF352A408D880F
:102DD00006EA05252A434EF6FF752B404DF6FF7592
:102DE0002B408D8906EA05152B43CD8906EA05158A
:102DF0002B4383808483CD888587028470BD70B522
:102E0000002200230024058C4EF6FF763540058411
:102E1000038C8488828B48F6FF752A404FF6FF4565
:102E20002A400D8820E00000002C014000040040F2
:102E300000080040000C004000100040001400405A
:102E400000340140004C014000500140005401405A
:102E500000180040001C00400020004000400140DD
:102E600000440140004801404FF6FF7606EA052580
:102E70002A434DF6FF752B400D8906EA05352B4395
:102E80004D8806EA05352B43FA4DA84202D0FA4D8B
:102E9000A84208D14BF6FF752C408D894FF6FF767E
:102EA00006EA85152C4384808283CD88A0F84050A3
:102EB000038470BD828B4FF2FF331A408283828B72
:102EC0004FF6FF7303EA01231A4382837047F0B57C
:102ED0000C461546002200210026078C4EF6FF7C8A
:102EE00007EA0C070784828B018C4FF6FF7707EA0D
:102EF000043640F6FF473A404FF6FF7707EA0527CA
:102F00003A434FF6FF7707EA03373A43D94FB842BF
:102F10000ED0D94FB8420BD0B0F1804F08D0D74F68
:102F2000B84205D0D64FB84202D0D64FB84206D1EB
:102F30004DF6FF77394046F48057394305E047F6B0
:102F4000FF57394044F48057394382830184F0BDF0
:102F5000828B4FF6F3731A408283828B0A438283FB
:102F60007047F0B50C461546002200210026078C5C
:102F70004FF6FF6C07EA0C070784828B018C4FF633
:102F8000FF7707EA04264FF60C773A404FF6FF77B3
:102F900007EA03172F433A43B64FB8420ED0B64F55
:102FA000B8420BD0B0F1804F08D0B44FB84205D032
:102FB000B34FB84202D0B34FB84206D14FF6FF57D5
:102FC000394046F48077394305E04FF2FF573940E6
:102FD00044F48077394382830184F0BD028B4FF241
:102FE000FF331A400283028B4FF6FF7303EA01237B
:102FF0001A4302837047F0B50C46154600220021A3
:103000000026078C4FF6EF7C07EA0C070784028B3B
:10301000018C4FF6FF7707EA041640F6FF473A4067
:103020004FF6FF7707EA03373A434FF6FF7707EA91
:1030300005273A438F4FB8420ED08F4FB8420BD07E
:10304000B0F1804F08D08D4FB84205D08C4FB842B8
:1030500002D08C4FB84206D14FF6DF77394046F0A8
:103060001007394305E04FF65F77394044F0100709
:10307000394302830184F0BD028B4FF6F3731A408B
:103080000283028B0A4302837047F0B50C46154653
:1030900000220021068C4FF6FE773E400684028B0C
:1030A000018C4FF60C7632407E1C06EA03162E4346
:1030B0003243704EB0420ED06F4EB0420BD0B0F1E2
:1030C000804F08D06D4EB04205D06D4EB04202D058
:1030D0006C4EB04206D14FF6FD76314044F0010609
:1030E000314305E04FF6F576314044F001063143B7
:1030F00002830184F0BD70B505460C465D488542EB
:103100000ED05D4885420BD0B5F1804F08D05B48AA
:10311000854205D05A48854202D05A48854200D19E
:1031200000E000BF208850B92389A2886188284622
:10313000FFF7ABFFE1882846FFF79EFF25E02088D8
:1031400004280AD12389A28861882846FFF753FF03
:10315000E1882846FFF742FF17E0208808280AD1B7
:103160002389A28861882846FFF7FBFEE18828466C
:10317000FFF7EEFE09E02389A28861882846FFF761
:10318000A6FEE1882846FFF795FE70BD2DE9F041C7
:1031900005460C4600260127608808B9022600E093
:1031A0000026A088012801D1022700E001272088FD
:1031B000A0B92389A28861882846FFF766FFE188C5
:1031C0002846FFF759FF23893A4631462846FFF73C
:1031D00012FFE1882846FFF701FF13E02389A28848
:1031E00061882846FFF707FFE1882846FFF7F6FECB
:1031F00023893A4631462846FFF747FFE1882846AB
:10320000FFF73AFFBDE8F0810A884B881A438B88A4
:103210001A43CB881A430B891A434B891A438B896B
:103220001A43A0F8442070474FF6FF7181800021B7
:103230000180C1804180017270470021018041807E
:103240008180C180018141818181C18170470021DC
:1032500001804180012181800021C180018170476E
:103260000021018041808180C18001814181818173
:1032700070470000002C0140003401400004004071
:1032800000080040000C004021B1028842F0010219
:10329000028004E002884FF6FE731A4002807047F5
:1032A00031B1B0F8442042F40042A0F8442005E0D7
:1032B000B0F84420C2F30E02A0F8442070471AB1BF
:1032C00083890B43838102E083898B438381704729
:1032D0008182704741EA0203A0F8483070471AB172
:1032E00083890B43838102E083898B438381704709
:1032F00001894FF6F8721140018170470A4600219A
:1033000001894FF68F73194011430181704730B521
:1033100004460D4629462046FFF7F0FF208940F07D
:103320000700208130BD2DE9F04104460D461646C8
:103330001F46602D06D13B46012231462046FFF74D
:103340005AFE05E03B46012231462046FFF79DFE2E
:1033500029462046FFF7D2FF208940F00700208150
:10336000BDE8F08130B50C4600210189C9B24FF6A5
:10337000FF7505EA0325154325432943018130BD27
:103380002DE9F04105460E4617469846002443466F
:103390003A4631462846FFF7E5FF2C894FF6F8708C
:1033A000044044F007044FF68F70044044F070046A
:1033B0002C81BDE8F081F0B504460D4616461F4647
:1033C0003B46324629462046FFF7CCFF208940F491
:1033D00080402081F0BD0185828270470A4600212D
:1033E00001884FF68F731940114301807047F0B583
:1033F0000C4615461E460021002200230189028B3F
:10340000038C4FF6F877394021434FF6FC473A409A
:1034100040F201173A434FF6DD773B404FF6FF7716
:1034200007EA06172F433B43018102830384F0BD63
:103430000A460021018B4FF68F7319401143018317
:1034400070470A460021018B48F6FF7319404FF67A
:10345000FF7303EA02231943018370470A460021E0
:10346000818B4FF68F7319401143818370470A4651
:103470000021818B48F6FF7319404FF6FF7303EA72
:10348000022319438183704721B1028842F08002F0
:10349000028004E002884FF67F731A400280704772
:1034A00021B1828842F00402828004E082884FF6D3
:1034B000FB731A408280704721B1828842F0080273
:1034C000828004E082884FF6F7731A40828070474A
:1034D00021B1828842F00102828004E082884FF6A6
:1034E000FE731A40828070470A460021018B4FF616
:1034F000F77319401143018370470A460021018B7D
:103500004FF2FF7319404FF6FF7303EA022319438A
:10351000018370470A460021818B4FF6F7731940EB
:103520001143818370470A460021818B4FF2FF735C
:1035300019404FF6FF7303EA022319438183704752
:103540000A460021018B4FF6FB731940114301839A
:1035500070470A460021018B4FF6FF3319404FF6A2
:10356000FF7303EA02231943018370470A460021CF
:10357000818B4FF6FB7319401143818370470A46D4
:103580000021818B4FF6FF3319404FF6FF7303EA9A
:1035900002231943818370470A460021018B4FF6AD
:1035A0007F7319401143018370470A460021018B44
:1035B000C1F30E014FF6FF7303EA0223194301839F
:1035C00070470A460021818B4FF67F7319401143E3
:1035D000818370470A460021818BC1F30E014FF6AB
:1035E000FF7303EA02231943818370470A460021CF
:1035F000018C4FF6FD7319401143018470470A4650
:103600000021018C4FF6F773194011430184704774
:103610000A460021018C4FF6DF7319404FF6FF7305
:1036200003EA02131943018470470A460021018C02
:103630004FF67F7319404FF6FF7303EA02131943E5
:10364000018470470A460021018C4FF6FF53194050
:103650004FF6FF7303EA02231943018470470A46B9
:103660000021018C4FF2FF7319404FF6FF7303EAFC
:1036700002231943018470470A460021018C4DF64C
:10368000FF7319404FF6FF7303EA023319430184B5
:10369000704730B5002301248C40A3B2048C9C43B6
:1036A0000484048C02FA01F5ADB22C43048430BDCD
:1036B00030B5002304248C40A3B2048C9C430484C2
:1036C000048C02FA01F5ADB22C43048430BD70B510
:1036D0000346002000241846183001258D40ACB266
:1036E0001D8CA5431D8409B1082909D100EB610097
:1036F000056825F0700505600568154305600EE056
:103700000D1FC5F34E052844056825F4E045056006
:1037100005684FF6FF7606EA02263543056070BD60
:1037200021B1028842F00202028004E002884FF6D2
:10373000FD731A400280704721B1028842F00402F2
:10374000028004E002884FF6FB731A400280704743
:1037500021B1828842F08002828004E082884FF6A4
:103760007F731A408280704702884FF6F7731A40C1
:10377000028002880A430280704782884FF68F7366
:103780001A40828082880A438280704702894FF6FD
:10379000F8731A40028102890A4302817047028944
:1037A0004FF67F731A40028102890A4302817047F3
:1037B0008184704781857047818670470187704793
:1037C00081877047A0F84010704702884FF6FF438A
:1037D0001A40028002880A43028070470146888EA0
:1037E00070470146088F70470146888F7047014631
:1037F000B1F8400070470146888C70470146088D3B
:10380000704702460020138A0B400BB1012000E0F4
:1038100000207047CA430282704730B5024600203C
:1038200000230024158A05EA0103958905EA0104AD
:1038300013B10CB1012000E0002030BDCA43028268
:1038400070470000002044490860091D0860091DF8
:103850000860091D086041483F49143108607047FD
:1038600000213D498279002A3AD00A46126803684D
:103870009A430B461A600A1D126803689A430B1D8F
:103880001A60027911440A6803681A430A60324ACE
:103890000832126803689A432F4B08331A601A1DC6
:1038A000126803689A432C4B0C331A604279102A31
:1038B0000ED11A1F126803681A43274B08331A6087
:1038C0001A1D126803681A43234B0C331A600DE06B
:1038D0002149427911440A6803681A430A6005E0E5
:1038E000027911440A6803689A430A60704700210C
:1038F000016001710C2141710021817170471649ED
:10390000103109680143144A1032116070470146B2
:103910000020114A143212680A400AB1012000E066
:10392000002070470C4914310860704701460020A0
:103930000022094B1B6803EA0102074B14331B6882
:103940000B4013B10AB1012000E00020704702498A
:10395000143108607047000000040140FFFF0F00B1
:103960002DE9F05F06460F4690460024B2463D46DC
:10397000A3461AE068784FEA0029287848441FFADD
:1039800080F9AD1C2046611C8CB2174921F81090BB
:10399000B4F5806F07D100244FF480625046FDF7E4
:1039A00016F80AF5006A0BF1020BC345E2D324B105
:1039B00022460D495046FDF70AF8BDE8F09F10B5C4
:1039C0000446206809490840B0F1005F0BD108485F
:1039D000084908606068084908602068FCF76CFCCA
:1039E00005480068804710BDC81000200000FE2F69
:1039F0000000010808ED00E0C400002010B54FF4FD
:103A00008020FFF7A4FF10BD10B500F04FFA10BDE5
:103A100010B50020FEF722FA0121C805FEF7CBFA07
:103A200010BD10B59CA002F01FF90320A149086049
:103A300010BD10B5A04CA1A002F016F9A07A18B1E3
:103A400005209C49086002E001209A49086010BDE9
:103A50000EB54FF48020FFF77AFF4FF480200090DE
:103A600008208DF8050001208DF806006846FFF754
:103A7000F7FE14208DF8080001208DF809000020C1
:103A80008DF80A0001208DF80B0002A8FDF701FF58
:103A90002A208DF8080000208DF8090002A8FDF703
:103AA000F8FE0EBD10B504461CB18AA002F0DCF889
:103AB00002E08EA002F0D8F810BD10B50446012136
:103AC0000420FEF76BFA3CB18E48006880B220F00B
:103AD00002008C49086014E08A48006880B240F017
:103AE0000200884908608848006820F47F208649E1
:103AF00008600846006840F44C30086000208349A4
:103B0000086010BD30B50B46002100BF16E00A2446
:103B1000B4EB107F05D9302404EB107403F8114086
:103B200005E0412404EB10740A3C03F81140000145
:103B300000254C00641C1D554C1CE1B29142E6DB93
:103B400030BD70B572480468001D0568001D066828
:103B5000344454B108226F492046FFF7D3FF0422B2
:103B60006C4910312846FFF7CDFF70BD10B500201D
:103B70006949A1F80204A1F800046849088068486E
:103B8000017968A002F070F8654841796BA002F0F5
:103B90006BF86348817970A002F066F860480168AC
:103BA00074A002F061F8012010BD10B50020774923
:103BB00008707749086049F64041764802F0C4F938
:103BC00010BD5549B1F80014534A50541146B1F88C
:103BD0000014491CA2F800141146B1F80014B1F504
:103BE000806F02D10021A2F8001470470FB438B5DD
:103BF00005A800906848009A049902F023F8002074
:103C00000090654802F03CF985B2002405E0624965
:103C1000085DFFF7D6FF601C84B2AC42F7DB38BC0E
:103C20005DF814FB70B505460C465848007800B1A5
:103C300070BD57480068204458490968884206D931
:103C400057A0FFF7D3FF002051490860F0E7514922
:103C50004F4A126888182246294602F030F94C482B
:103C6000006820444A490860084600684B490968D2
:103C700088420ED3012045490870484845490268EA
:103C80004E48FFF76DFE4EA0FFF7B0FF0020404901
:103C9000086000BFCCE7000075736220656E746534
:103CA00072206C6F7720706F776572206D6F64651E
:103CB0000D0A0000CC010020900A00206C6561769E
:103CC00065206C6F7720706F776572206D6F64650B
:103CD0000D0A00007573622070756C6C2075702081
:103CE000656E61626C650D0A0000000075736220EC
:103CF00070756C6C2075702064697361626C650D01
:103D00000A000000405C004004080140B00121426C
:103D1000E8F7FF1FD6000020C8180020C8000020C8
:103D20003C0100206C696E65636F64696E672E6686
:103D30006F726D61743A25640D0A00006C696E65DE
:103D4000636F64696E672E706172697479747970DB
:103D5000653A25640D0A00006C696E65636F6469DD
:103D60006E672E64617461747970653A25640D0A1A
:103D7000000000006C696E65636F64696E672E6297
:103D80006974726174653A25640D0A00CA000020E6
:103D9000D00000205C1E0020CC1C0020CC000020A5
:103DA000BDD3CAD5B5BDB5C4CAFDBEDDB3ACB3F68F
:103DB000D4A4C6DAB4F3D0A10D0A000000000108B3
:103DC000B9CCBCFEB8FCD0C2CDEAB3C9210D0A0003
:103DD00070B53248B0F802043049B1F80014884296
:103DE00000D170BD2D48B0F802042C49B1F8001480
:103DF000884208DA2948B0F800042849B1F80214CA
:103E0000401A84B205E02548B0F80204C0F580608D
:103E100084B2402C00DD40242048B0F80254B0F8B1
:103E2000020420441D49A1F802040846B0F8020427
:103E3000B0F5806F02DB0020A1F802041749481991
:103E40002246C02101F08AFA2146012001F0E7FC58
:103E5000012001F06BFB00BFC3E710B51049032040
:103E600001F0D3FE84B2E1B20D48FFF7DBFE032080
:103E700001F074FB10BD10B50A48006805280CD18C
:103E8000094801680068401C074A1060052904D1F0
:103E9000002011460860FFF79BFF10BDC8180020E6
:103EA000300A0020CC010020F000002010B588B0BE
:103EB000002469480068694908800846008800F4C1
:103EC000007067490988084050B14FF6FF506249B9
:103ED000086064480078401C62490870FFF7CBFF17
:103EE0005E48008800F400405D490988084008B138
:103EF00001F096F85948008800F480605849098814
:103F0000084030B14FF6FF305349086056494868C1
:103F100080475248008800F4005051490988084001
:103F200018B14DF6FF704C4908604C48008800F409
:103F300080504B490988084030B14EF6FF70464921
:103F40000860002000F039FA4448008800F400605E
:103F500043490988084060B14448007810B100F036
:103F6000D6F902E0022000F028FA4FF2FF703A4939
:103F700008603A48008800F4807039490988084090
:103F8000002866D04FF6FF6033490860081D0068BE
:103F900000F40040002856D035480068401C3449E1
:103FA000086008460068032850D92B48001F0068A5
:103FB00000F00800002849D12748001F006880B29F
:103FC0002C490860002408E02B4901EB8400D0F85C
:103FD000000C80B24DF82400641C082CF4D3254852
:103FE000006840F00100234908600846006880B27C
:103FF0001949091F08601F48006820F001001D4989
:1040000008600846006880B21349091F086000BFB5
:104010001148006800F480600028F9D04FF6FF30A6
:104020000D490860002408E05DF8240080B2124ABF
:1040300002EB8401C1F8000C641C082CF4D30020AE
:104040000B49086002E0002009490860072000F0E1
:10405000B4F908B010BD0000445C0040F40000203A
:10406000EA010020F600002048010020D0010020D5
:10407000F8000020FC0000200050004010B5FFF7C1
:1040800060FD002083490968887200F017F901F08B
:1040900097FD00208049086010BD10B500207D49C3
:1040A000096888727D48C0797A4909684872002099
:1040B00078490968C87201F09DF94FF40071002039
:1040C00001F0B2F91021002001F0C7F940210020D1
:1040D00001F081FB8021002001F071FB002001F044
:1040E00079FA6F4890F82C10002001F0BAFB0020FC
:1040F00001F034FA0021012001F096F9C0210120DD
:1041000001F05DFB2021012001F0A7F90021012031
:1041100001F0C1F94FF4C061022001F085F94FF4BC
:104120008071022001F04BFB0021022001F0B3F965
:104130002021022001F091F90021032001F074F9FF
:104140004FF48871032001F046FB4021032001F069
:1041500088FB4FF44051032001F09DF9002103201A
:1041600001F07BF9002000F0AEFE01204A49086012
:1041700010BD4C48817A11B10521474A1160704742
:10418000042045490860704710B54748007820284A
:1041900004D1FFF7EBFC00204349087010BD7047C5
:1041A000014629B908203B4A126810820020704756
:1041B0003E48FCE7014629B90820364A12681082B9
:1041C000002070473948FCE770B504460025212CD3
:1041D00009D130480068007800F07F00212810D114
:1041E000AFF22F050DE0202C0BD12A480068007893
:1041F00000F07F00212801D1AFF25B0520202A4981
:1042000008700DB9022070BD224800688561002148
:104210002048006841820020A8470020F3E70146BB
:104220001C480068007800F07F00212807D102298F
:1042300001D100207047222901D10020FAE7022095
:10424000F8E710B504461A49204600F032FB10BDCD
:1042500010B504461749204600F02BFB10BD70B581
:1042600005460C480068C478042C01DD002070BDB0
:10427000114800EBC401284600F01BFBF7E702469B
:10428000002901DD02207047012A01DD0220FAE742
:104290000020F8E7E0010020CC010020667700084C
:1042A00048010020900A0020380100203C01002035
:1042B0009C010020A4010020AC01002010B50120C9
:1042C000FFF7F0FB01246D48046000206C49088072
:1042D00008460088694908600020091D08604FF4FD
:1042E000E05067490880084600886449086000205B
:1042F00010BD10B50120614908600020091D08604B
:10430000FFF7D0FB03205D490860002010BD38B5E1
:104310000025002000905948006884B200BF09E0E1
:10432000584901EB8500D0F8000C80B2564941F89D
:1043300025006D1C082DF3D344F480644F480460BD
:1043400044F00104046024F00104046000BF4B4801
:10435000001D006800F480600028F8D04FF6FF30A0
:104360004649091D0860002509E0474850F8250026
:1043700080B2444A02EB8501C1F8000C6D1C082D87
:10438000F3D344F008043D480460006884B244F06C
:1043900004043A480460FFF744FB38BD10B53748C1
:1043A000006884B224F0040434480460FFF741FB41
:1043B0004FF43F403149086010BD70B50546072DE8
:1043C00001D0324805703148007808284ED2DFE825
:1043D00000F004111A202B384E4F2D48006828B9E0
:1043E000FFF7DCFF06202949087002E00520274975
:1043F000087041E0FFF7D2FF042024490870012033
:104400002349086038E002202049487003200870E2
:1044100032E01E484078401E1C49487008464078EB
:1044200008B90420087027E01448006884B244F0FA
:104430001004124804600520144908700A204870CE
:104440001AE012484078401E1049487008464078EB
:1044500058B90A48006884B224F010040748046080
:104460000620087000200A49086005E000BF00BF70
:1044700006200649087000BF00BF70BD405C0040C8
:10448000EA01002000500040700A0020D101002005
:10449000D401002010B504462CB90120F649096862
:1044A0000882002010BDF549096808688047F24875
:1044B00000680A30F6E710B5EF480068C078F049A8
:1044C0004978884213DCEC480068807878B9EA487B
:1044D0000068808858B9E8480068C078E6490968EB
:1044E0008872E649096848688047002010BD0220AC
:1044F000FCE710B504462CB90120DF4909680882A1
:10450000002010BDDD49096888688047DA480068E6
:104510000C30F6E710B5D84B1B68D978D64B1B6822
:104520005879D84B1B689A6990470446D24800686E
:10453000807AE8B13CB9D0480068007918B9CE4813
:104540000068807808B1022010BD8CB9CB49096899
:10455000C8688047C84800684079C7490968C87278
:10456000C5480068C078C449096808730020EBE7B3
:104570000220E9E710B504462CB90220BE490968BB
:104580000882002010BD0020BF490880BA4800689A
:10459000007800F07F0018BBB7490968487A00F03E
:1045A000200131B1B849097841F00201B64A1170D1
:1045B00005E0B549097801F0FD01B34A117000F03A
:1045C000400131B1B049097841F00101AE4A1170A2
:1045D00005E0AD49097801F0FE01AB4A11703AE0FF
:1045E000A5480068007800F07F00012801D1A648A6
:1045F000C8E7A1480068007800F07F00022828D1B1
:104600009D4A1268517901F00F0001F080027AB1E1
:104610009E4B03EB8002D2F8002C02F03002102AED
:1046200016D1994A127842F00102974B1A700FE0A6
:10463000964B03EB8002D2F8002C02F44052B2F504
:10464000805F05D1904A127842F001028E4B1A70B9
:1046500001E0002096E789490968086980478A488F
:1046600090E72DE9F04784480068007800F07F0863
:10467000B8F1000F0AD180480068407A00F0DF00EE
:104680007D49096848720020BDE8F087B8F1020F43
:104690007ED179480068408818B977480068007969
:1046A00008B10220F0E7DFF8D89173480068477935
:1046B00027F080052C4670480068407900F08000A3
:1046C00038B1724901EB8400D0F8000C00F03006DC
:1046D00006E06E4901EB8400D0F8000C00F440566F
:1046E00099F80000A84204D91EB163480068807A96
:1046F00008B90220C8E707F0800080B1634901EBE8
:104700008400D0F8000C00F0300010284BD1E0B24B
:1047100001F01DF8E0B2302100F09FFE43E05B495C
:1047200001EB8400D0F8000C00F44050B0F5805F3D
:1047300039D1E4B9564A92F82C10E0B201F091F860
:10474000524A02EB8401D1F8001C4BF68F7201EA49
:10475000020080F4805080F4005040F4004141F0A9
:1047600080014A4B03EB8402C2F8001C1BE0E0B25C
:1047700000F0D5FF454A02EB8401D1F8001C4BF64E
:104780008F7201EA020080F4805080F4005000E053
:104790000FE040F4004141F080013C4B03EB840208
:1047A000C2F8001C00BF35490968486980470020ED
:1047B0006AE700BF022067E72DE9F0412E48006854
:1047C000467926F080073C462B480068407900F087
:1047D000800038B12D4901EB8400D0F8000C00F0C6
:1047E000300506E0294901EB8400D0F8000C00F404
:1047F000405523480078A04208D91F4800684088E7
:1048000020B91DB11C480068807A10B90220BDE8AB
:10481000F08106F08000A0B11C4A02EB8401D1F8BF
:10482000001C48F6BF7201EA020080F0100040F45C
:10483000004141F08001154B03EB8402C2F8001CDB
:1048400014E0124A02EB8401D1F8001C4BF68F727F
:1048500001EA020080F4805040F4004141F0800100
:104860000A4B03EB8402C2F8001C00BF034909682D
:10487000886980470020CAE7E0010020EC010020A1
:1048800044010020E4010020D80100200050004035
:104890004801002010B5F7480068407A40F0200039
:1048A000F44909684872F4490968C86980470020DA
:1048B00010BD10B50246EF480068438A32B98888B7
:1048C000C01AEC4C24682082002010BD08681844EF
:1048D000FBE72DE9F041E748006800F11004268865
:1048E000A068C0B1BEB1A588B54200D93546A8B20E
:1048F000A168884707462088401B2080608828449C
:104900006080002000F07FFF8046AAB24146384612
:1049100000F03EFD00BF208850B14FF44050D74911
:1049200008800021084600F07AFF3020D449088032
:104930002088A188884204DB0320CE4909680872D8
:1049400018E02088002804DD0520CA49096808729B
:1049500010E0208870B90620C64909680872002155
:10496000C848006880B2801CC74A42F81010302046
:10497000C3490880BDE8F0812DE9F047BD480068D3
:1049800000F110052E88BB480068077AD6B9042FBD
:1049900018D1BE48007801280FD10021B94800681D
:1049A00080B2801CB84A42F810103020B449088008
:1049B00000BF0020B549087003E007271020B04968
:1049C000088027E0AC88A64201D8042000E002203D
:1049D0000746B44200D93446A0B2A9688847804649
:1049E000002000F005FF8146A2B24946404600F093
:1049F000B5FCA1B2002000F012FF2888001B28801F
:104A000068882044688030209D49088000029B49C6
:104A1000088000BF974909680F72BDE8F08770B53C
:104A2000022694480068447892480068007800F0B4
:104A30007F00002844D1092C03D1FFF73CFD064636
:104A40005FE0052C14D18B480068C0787F280BDC10
:104A500088480068807838B986480068808818B926
:104A600084480068807A08B1082565E0002648E09F
:104A7000032C0ED17F480068C078012807D17D48FB
:104A80000068808818B9FFF705FF064639E002265E
:104A900037E0012C35D177480068C07801280DD166
:104AA00074480068808848B972480068407A00F00D
:104AB000200018B1FFF7D5FD064622E0022620E0CF
:104AC0006C480068007800F07F00012805D10B2CAD
:104AD00017D1FFF71FFD064613E06648006800780F
:104AE00000F07F0002280BD1012C03D1FFF7B9FDA4
:104AF000064606E0032C04D1FFF75EFE064600E002
:104B000002264EB1E0B2624A1268516988470646F1
:104B1000032E01D109250FE00EB108250CE0062572
:104B200000215848006880B2801C574A42F8101093
:104B300030205349088000BF4E4909680D7270BD8E
:104B40002DE9F84F4B48006845780027BA46062DF6
:104B50001BD148480068007800F07F00002813D17E
:104B6000444909688878012803D149490968CF690F
:104B70000AE0022803D1464909680F6A04E00328C5
:104B800002D1434909684F6AADE0002D67D1394829
:104B900000684088002862D136480068C088022832
:104BA0005DD1344800680079002858D13148006848
:104BB000007800F07F0030B92E480068808810B976
:104BC000AFF24F678FE02B480068007800F07F005D
:104BD000012811D12749096848792D4909688A694E
:104BE0000021904700287ED122480068807A002862
:104BF00079D0AFF27F6776E01E480068007800F059
:104C00007F0002286FD11B480068407900F00F0632
:104C100018480068407900F070091648006840792B
:104C200000F0800038B11B4901EB8600D0F8000C81
:104C300000F0300806E0174901EB8600D0F8000CC0
:104C400000F4405814480078B0424CD9B9F1000F34
:104C500049D1B8F1000F46D0AFF2E76743E0082D25
:104C60001CD104480068007800F07F00D8BBAFF288
:104C7000DB7738E0E0010020EC010020F0010020AB
:104C8000F2010020505C004000600040DA0100208A
:104C9000E401002000500040440100200A2D22D1F0
:104CA000C5480068007800F07F0001281BD1C24889
:104CB0000068807AB8B1C0480068408898B9BE489A
:104CC0000068007978B9BC480068C08801280AD11A
:104CD000B94909684879B94909688A690021904742
:104CE00008B9AFF2F17757B1B3480068A0F812A045
:104CF000B148006887610020B84700240FE0AE4A41
:104D000012685078AD4A1268116988470446032C2E
:104D100005D10920A84909680872BDE8F88FA6489E
:104D20000068008A4FF6FF71884204D10920A24929
:104D300009680872F1E7022C03D09F480068008AD6
:104D400020B908209C4909680872E6E79A4800687B
:104D5000007800F08000E0B397480068C0880090B9
:104D600095480068008A0099884204D992490098C1
:104D70000968088223E090480068008A8E49096823
:104D8000C98888421BDA8C480068008A8B49096808
:104D900091F82C10884203DA0020894908700EE04F
:104DA00085480068008A8549096891F82C1090FBB5
:104DB000F1F201FB120010B90120814908707F480F
:104DC000006890F82C107C4800688182FFF7D4FDC1
:104DD00007E0FFE703207849096808720003794972
:104DE000088000BF99E710B5774890F82C10002094
:104DF00000F037FD70480068007A082805D14002AD
:104E0000704908801020714908806B480068007A5A
:104E1000092801D1012010BD0020FCE738B501248C
:104E20006B48006880B2001D6A4931F8100080B2FA
:104E300001EB4000009060480068007A092832D0F9
:104E4000009800785C49096808700098401C009040
:104E5000009800785849096848700098401C0090F4
:104E6000009800EB44000090009931F8020B00918B
:104E700000F0A0FE504909684880009800EB44000B
:104E80000090009931F8020B009100F093FE4A491E
:104E900009688880009800EB440000900098008822
:104EA00045490968C8800120434909680872424899
:104EB0000068C08810B9FFF7B2FD01E0FFF740FEBF
:104EC000FFF791FF38BD30B50146434B1A780020FB
:104ED00014E00306414C04EB9353D3F8003C48F62E
:104EE0008F74234048F280042343C4B22343040652
:104EF0003A4D05EB9454C4F8003C401C9042E8D372
:104F000041F08003324C241F236030BD10B52A4885
:104F10000068047A022C01D0042C05D1FFF72CFD87
:104F200025480068047A1CE0062C19D12248006844
:104F3000407805280ED120480068007800F07F00F6
:104F400040B91D490968C878FFF7BDFF24490968C1
:104F5000086A80471949096888688047082400E082
:104F60000824154909680C72FFF73DFF10BD10B504
:104F700011480068047A022C01D0042C01D10824C5
:104F800012E0032C01D0052C05D1FFF7A2FC0A4842
:104F90000068047A08E0072C05D108490968C86848
:104FA0008047082400E00824034909680C72FFF7D1
:104FB0001AFF10BD70470000E0010020E40100204E
:104FC000DA010020F001002048010020F201002059
:104FD000505C004000600040440100200050004050
:104FE000EC01002010B50848084908600220096853
:104FF00008720748074908600748084908600549DA
:1050000009680868804710BD900A0020E001002070
:1050100048010020E401002078010020EC0100207C
:1050200008B50020009022E1C448008800F00F007D
:10503000C34908700846007800287CD1C148006840
:10504000C14908800846008800F03000BF49088048
:10505000BD48008800F44050BB490880B949096840
:105060004BF6BF7201EA020080F4005080F020008D
:1050700040F4004141F08001B24A1160AF4800881D
:1050800000F0100090BB1046006848F60F71084011
:1050900011460860FFF73AFFAA4909684BF6BF724C
:1050A00001EA0200A849098801F4805109B180F49D
:1050B0008050A549098801F4005109B180F40050DD
:1050C000A249098801F0100109B180F010009F4940
:1050D000098801F0200109B180F0200081B241F47B
:1050E000004141F08001974A116008BDFFE79548F3
:1050F000006880B20090BDF8000000F40060B0B31A
:1051000090480068C0F30E0048F68F7108408D4942
:105110000860FFF783FE8B4909684BF6BF7201EA0E
:1051200002008949098801F4805109B180F4805056
:105130008549098800E056E001F4005109B180F486
:1051400000508249098801F0100109B180F0100077
:105150007E49098801F0200109B180F0200081B268
:1051600041F4004141F08001764A1160BDE7FFE75C
:10517000BDF8000000F40040002878D071480068B5
:10518000C0F30E0048F68F7108406E490860FFF7C3
:10519000EEFE6C4909684BF6BF7201EA02006A49EB
:1051A000098801F4805109B180F48050664909886A
:1051B00001F4005109B180F400506449098801F0FC
:1051C000100109B180F010006049098801F0200148
:1051D00009B180F0200081B241F4004141F080012A
:1051E000584A116081E756480078594901EB800020
:1051F000D0F8000C80B20090BDF8000000F4004030
:10520000C0B14F48007801EB8000D0F8000CC0F32B
:105210000E0048F68F710840494909784C4A02EB64
:105220008101C1F8000C46490978491E494A52F8E3
:1052300021008047BDF8000000F08000B8B1404870
:105240000078434901EB8000D0F8000C48F60F715C
:1052500008403B4909783E4A02EB8101C1F8000C45
:1052600037490978491E3C4A52F8210080473548A1
:105270004430006880B23149088000F400400028C2
:105280007FF4D2AE00BF30E710B500244AE047F605
:10529000FF702C49443108602848008800F00F0056
:1052A0002749087008460078294901EB8000D0F8AA
:1052B000000C84B204F40040C8B12148007801EB2E
:1052C0008000D0F8000CC0F30E0048F68F71084043
:1052D0001B4909781E4A02EB8101C1F8000C1849EC
:1052E0000978491E1B4A52F8210080471AE004F051
:1052F0008000B8B112480078154901EB8000D0F861
:10530000000C48F60F7108400D490978104A02EB6D
:105310008101C1F8000C0A490978491E0E4A52F869
:105320002100804707484430006880B20349088064
:1053300000F400400028AAD110BD0000F4000020B5
:10534000DC010020005C0040F0010020F2010020A0
:10535000005000401C01002000010020F0B5144660
:1053600004F1010C4FEA6C07DFF848C00CEB410375
:105370003D460AE00678401C90F800C046EA0C2240
:1053800023F8022B9B1C401C6D1E002DF2D1F0BD9A
:10539000F0B5561C7510074E06EB41042B4605E090
:1053A00034F8047B20F8017B401C5B1E002BF7D1F6
:1053B000F0BD000000600040FA4908607047F948FD
:1053C000006880B27047F749091D08607047F548CA
:1053D000001D006880B27047F2480830006880B253
:1053E0007047F0490C3108607047EE480C30006897
:1053F00080B270474FF6F8710140EA4A10321160EE
:105400007047E8481030006880B27047E64B03EB05
:105410008002C2F8001C70470146E34A02EB81009B
:10542000D0F8000C80B2704710B5DF4B03EB800260
:10543000D2F8002C48F68F131A400A43DA4C04EBDA
:105440008003C3F8002C10BD0146D74A02EB81004F
:10545000D0F8000C00F4C060704730B5D24C04EBBB
:105460008003D3F8003C48F6BF7403EA040201F05D
:1054700010030BB182F0100201F020030BB182F097
:10548000200242F4004343F08003C74D05EB800443
:10549000C4F8003C30BD30B5C34C04EB8003D3F8F6
:1054A000003C4BF68F7403EA040201F480530BB105
:1054B00082F4805201F400530BB182F4005242F4A2
:1054C000004343F08003B84D05EB8004C4F8003C72
:1054D00030BD30B503460C461846FFF79DFF054624
:1054E000012C07D125F48050AF4A02EB8301C1F8AB
:1054F000000C08E0022C06D125F01000AA4A02EBAD
:105500008301C1F8000C30BD0146A74A02EB8100BF
:10551000D0F8000C00F0300070470146A24A02EBC0
:105520008100D0F8000C00F44050704710B59E4B3D
:1055300003EB8002D2F8002C48F6BF7302EA0301A5
:1055400081F0100181F0200141F4004242F080021C
:10555000954C04EB8003C3F8002C10BD10B5924BA2
:1055600003EB8002D2F8002C4BF68F7302EA0301A2
:1055700081F4805181F4005141F4004242F08002F4
:10558000894C04EB8003C3F8002C10BD864A02EB63
:105590008001D1F8001C41F4807148F68F721140EF
:1055A00048F280021143804B03EB8002C2F8001CDA
:1055B00070477D4A02EB8001D1F8001C48F68F62EB
:1055C000114048F280021143774B03EB8002C2F88E
:1055D000001C7047744A02EB8001D1F8001C48F6A9
:1055E0008F62114048F2800211436F4B03EB80023F
:1055F000C2F8001C70476C4A02EB8001D1F8001C15
:1056000041F4807148F68F72114048F280021143D4
:10561000654B03EB8002C2F8001C7047624A02EB44
:105620008001D1F8001C41F4807148F68F7211405E
:1056300048F2800211435C4B03EB8002C2F8001C6D
:105640007047594A02EB8001D1F8001C48F68F627E
:10565000114048F280021143534B03EB8002C2F821
:10566000001C70470146504A02EB8100D0F8000C44
:1056700000F03000102801D1012070470020FCE725
:105680000146494A02EB8100D0F8000C00F440507A
:10569000B0F5805F01D1012070470020FCE7424A4D
:1056A00002EB8001D1F8001CC1F30E0148F68F72A5
:1056B00011403D4B03EB8002C2F8001C70473A4A90
:1056C00002EB8001D1F8001C48F60F721140364BF6
:1056D00003EB8002C2F8001C7047334A02EB8001E2
:1056E000D1F8001C48F68F7211404CF28002114331
:1056F0002D4B03EB8002C2F8001C70472A4A02EBD4
:105700008001D1F8001C48F68F72114048F2C002A7
:105710001143254B03EB8002C2F8001C7047224A5C
:1057200002EB8001D1F8001C01F4804171B102EB61
:105730008001D1F8001C48F68F7211404CF28002B3
:105740001143194B03EB8002C2F8001C7047164A44
:1057500002EB8001D1F8001C01F0400171B102EBB5
:105760008001D1F8001C48F68F72114048F2C00247
:1057700011430D4B03EB8002C2F8001C704710B5BB
:10578000094B03EB8002D2F8002C48F68F731A40C5
:1057900048F280031A430A43034C04EB8003C3F826
:1057A000002C10BD405C0040005000400146FC4A07
:1057B00002EB8100D0F8000C00F00F00704710B52C
:1057C0004A105200F74B1B689BB203EBC003F64C28
:1057D00044F8132010BD10B54A105300F14A126866
:1057E00092B202EBC002121DEF4C44F8123010BD11
:1057F0000146EC48006880B200EBC100EA4A32F88A
:10580000100080B270470146E648006880B200EBA5
:10581000C100001DE44A32F8100080B27047E14A2E
:10582000126892B202EBC002921CDF4B43F81210D6
:10583000704702463E290BDD481101F01F030BB9EA
:10584000431E98B24FF4004343EA8023136007E0FD
:10585000481001F001030BB1431C98B2830213609E
:10586000704710B50246CF48006880B200EBC20016
:10587000801DCD4C04EB40033E290BDD481101F0A7
:105880001F040CB9441EA0B24FF4004444EA802423
:105890001C6007E0481001F001040CB1441CA0B2E8
:1058A00084021C6010BD0146BE48006880B200EB57
:1058B000C100801CBC4A32F81000C0F309007047D8
:1058C0000146B848006880B200EBC100801DB64AAE
:1058D00032F81000C0F30900704730B54B105B0080
:1058E000B04C2468A4B204EBC004AF4D45F81430AA
:1058F00053105C00AB4B1B689BB203EBC0031B1D3A
:1059000045F8134030BD10B54A105200A54B1B6836
:105910009BB203EBC003A44C44F8132010BD10B598
:105920004A1053009F4A126892B202EBC002121D45
:105930009D4C44F8123010BD01469A48006880B270
:1059400000EBC100984A32F8100080B2704701465F
:105950009448006880B200EBC100001D924A32F802
:10596000100080B2704730B50B46012B1FD18D4916
:10597000096889B201EBC001891C8B4D05EB41041C
:105980003E2A0BDD511102F01F050DB94D1EA9B2C3
:105990004FF4004545EA8125256007E0511002F0EB
:1059A00001050DB14D1CA9B28D0225600AE0022B44
:1059B00008D17C49096889B201EBC001891C7A4C85
:1059C00044F81120012B1FD17649096889B201EBF7
:1059D000C001891D744D05EB41043E2A0BDD5111B8
:1059E00002F01F050DB94D1EA9B24FF4004545EA5E
:1059F0008125256007E0511002F001050DB14D1C15
:105A0000A9B28D0225600AE0022B08D16549096818
:105A100089B201EBC001891D634C44F8112030BDEF
:105A200030B5034601291FD15E48006880B200EB03
:105A3000C300801C5C4D05EB40043E2A0BDD501179
:105A400002F01F050DB9451EA8B24FF4004545EA06
:105A50008025256007E0501002F001050DB1451CBE
:105A6000A8B2850225600AE0022908D14D480068E5
:105A700080B200EBC300801C4B4C44F8102030BDBA
:105A800030B5034601291FD14648006880B200EBBB
:105A9000C300801D444D05EB40043E2A0BDD501130
:105AA00002F01F050DB9451EA8B24FF4004545EAA6
:105AB0008025256007E0501002F001050DB1451C5E
:105AC000A8B2850225600AE0022908D1354800689D
:105AD00080B200EBC300801D334C44F8102030BD71
