:020000040800F2
:100000003815002049010008A33400085D2F0008BE
:100010009F3400088D0D0008FB5000080000000010
:10002000000000000000000000000000A33B0008EA
:100030009D17000800000000E93600084946000846
:100040006301000863010008630100086301000800
:1000500063010008630100086301000863010008F0
:1000600063010008630100086301000863010008E0
:1000700063010008630100086301000863010008D0
:1000800063010008630100086301000863010008C0
:10009000A14F000863010008630100086301000824
:1000A00063010008630100086301000863010008A0
:1000B00063010008AD460008630100086301000801
:1000C0006301000863010008630100086301000880
:1000D00063010008D14900086301000863010008BA
:1000E0006301000863010008EB4C0008630100088D
:1000F0006301000863010008630100086301000850
:10010000630100086301000863010008630100083F
:10011000630100086301000863010008630100082F
:10012000630100086301000863010008630100081F
:10013000DFF810D000F0ACFB0048004785600008F5
:10014000AFF3008038150020064880470648004776
:10015000FEE7FEE7FEE7FEE7FEE7FEE7FEE7FEE777
:10016000FEE7FEE74D4600083101000880EA010283
:1001700010B502F00043400022D04A001FD0010E0B
:1001800001EB1261C0F35600C2F3560240F40000C6
:1001900042F40002A0FB022000047F39140400D0C6
:1001A000401C50EA124001D44000491EC2B20C0665
:1001B00004EBD010401C4008802A02D003E000204D
:1001C00010BD20F00100002900DA0020184310BD06
:1001D00030B480EA010202F0004530F0004221F024
:1001E000004013D090B1C30DD40DC2F31601C0F37B
:1001F0001600E41A41F4000140F400027D349142FB
:1002000001D3641C00E04900002C02DA30BC00205D
:1002100070474FF400000023914201D3891A034331
:1002200040084FEA4101F7D151B1914202D14FF05C
:10023000004105E002D24FF0010101E06FF0010141
:1002400003EBC450284430BC00F05EBA2DE9FE4FE9
:10025000804681EA0300C00F0C46009021F0004167
:1002600023F00045B8EB0200A94105D240462146E3
:1002700090461C460B46024623F00040104347D0F0
:10028000270DC7F30A00C3F30A510290401A0190E8
:1002900040286BDAC3F3130040F4801B00989246A9
:1002A00020B10023D2EB030A63EB0B0B01985946F4
:1002B000C0F14002504600F006FA06460D46504690
:1002C0005946019A00F00EFA10EB08006141002433
:1002D00087EA115284EAE7731A4340D0009A62B366
:1002E000019A012A4FEA075215DC001B61EB02015B
:1002F0004FF0004202EA0752CDE90042001C41F5EE
:10030000801132462B4600F045FA03B0BDE8F08F6D
:1003100040462146F9E7001B61EB0201001C41F554
:10032000801300185B412018A2F5001747EB03016A
:1003300040EAD570B6196D4111E06D084FEA3606F6
:1003400045EAC0754FEA0752001B61EB0201001C31
:1003500041F5801149084FEA3000001951413246F9
:100360002B4603B0BDE8F04F00F005BA009801221B
:1003700040000023D0EB020263EBE07300982146BB
:100380004FEAE074B8EB000061EB0401E9E783F0A9
:1003900000435BE781F0004158E72DE9FE4F81EA19
:1003A000030404F0004421F0004100944FF0000BDE
:1003B00023F0004350EA01045ED052EA03045BD00C
:1003C000C3F30A54C1F30A552C44A4F2F334019444
:1003D000A0FB0254C1F3130141F48011C3F31303D2
:1003E00043F4801301FB024400FB034E840A970A86
:1003F00044EA815447EA8357A4FB076802958D0AB3
:1004000005FB07854FEA932C04FB0C542705029D3E
:100410004FEA065847EA1637B5EB08056EEB070CAE
:10042000870E920E47EA811742EA8312A7FB020168
:10043000B6EB0B0164EB00042B0D43EA0C335E18A2
:1004400044EB1C50DA465146E7FB0201C5F31304A6
:100450004FEA0B3343EA14534FEA0432019C43EA58
:100460000603A4F10C040294009CCDE900B400F052
:1004700091F903B0BDE8F08F00200146F9E72DE9BE
:10048000F04D81EA030404F0004B21F000451446CE
:100490004FF0000A23F0004150EA050220D054EA50
:1004A00001021DD0C5F30A570246C5F31303C1F379
:1004B0001300C1F30A5640F4801543F48013A7EBF0
:1004C0000608101BD64608F2FD3873EB050002D370
:1004D00008F1010801E092185B41B8F1000F03DA5E
:1004E00000200146BDE8F08D00204FF48011064643
:1004F00084460EE0171B73EB050705D3121B63EB55
:10050000050306434CEA010C49084FEA30009218F3
:100510005B4150EA0107EDD152EA030012D082EAB2
:10052000040083EA0501084305D0101BAB4106D245
:100530000122002306E000224FF0004302E06FF0AA
:10054000010253101AEB06004CEB085110EB0A00A5
:1005500041EB0B01BDE8F04D00F00DB996230022F0
:10056000114600F0DAB80EB5C10F80EAE070084419
:10057000CA07002140F233438DE80E000A460B46BD
:1005800000F008F903B000BD20F00040C10DC0F339
:10059000160040F400007F2901DA002070479629F8
:1005A00003DCC1F19601C840704796398840704716
:1005B00000F0004230F000400AD0C10D01F560713A
:1005C000C0F3160042EA0151C208400711437047C8
:1005D00000200146704701F0004330B421F0004193
:1005E00050EA010206D00A0DA2F56072C1F31301B0
:1005F000002A02DC30BC00207047440F44EAC104EA
:10060000C100E01830BC00EBC25000F07DB8000023
:10061000002801DBC0F10040002901DBC1F10041ED
:1006200081427047002801DBC0F10040002901DB56
:10063000C1F100418842704730B50B4601460020A9
:100640002022012409E021FA02F59D4205D303FA94
:1006500002F5491B04FA02F52844151EA2F1010215
:10066000F1DC30BD2DE9F05F0546002092469B4647
:1006700088460646814640241BE0284641464746B8
:10068000224600F017F953465A46C01A914110D33A
:1006900011461846224600F016F82D1A67EB01089D
:1006A0004F4622460120002100F00DF817EB00090B
:1006B0004E41201EA4F10104DFDC484631462A46A3
:1006C0004346BDE8F09F202A04DB203A00FA02F1FD
:1006D000002070479140C2F1200320FA03F3194330
:1006E00090407047202A06DBCB17203A41FA02F0EF
:1006F00043EAE07306E041FA02F3D040C2F120027F
:1007000091400843194670470029A8BF7047401C14
:10071000490008BF20F00100704710B4B0FA80FC17
:1007200000FA0CF050EA010404BF10BC704749B154
:10073000CCF1200421FA04F411FA0CF118BF0121C4
:1007400021430843A3EB0C01CB1D4FEA00614FEAA4
:10075000102042BF002010BC704700EBC350104473
:100760000029A4BF10BC7047401C490008BF20F0FE
:10077000010010BC704710B5141E73F1000408DAB4
:10078000401C41F1000192185B411A4301D120F055
:10079000010010BD2DE9F04D92469B4611B1B1FA12
:1007A00081F202E0B0FA80F220329046FFF78BFF30
:1007B00004460F4640EA0A0041EA0B0153465A46F6
:1007C000084313D0114653EA010019D0C8F1400282
:1007D000504600F06FF805460E46504659464246D0
:1007E000FFF771FF084305D0012004E02046394699
:1007F000BDE8F08D0020054346EAE0762C43374300
:100800000A986305E40AA0EB08000022FD0A44EA06
:1008100047540A3002D500200146E9E701051019C6
:100820006941DDE9084500196941BDE8F04DA2E7DD
:10083000C1F30A52C1F3130140F2FF3341F48011B6
:100840009A4202DA00200146704740F233439A424E
:10085000A2F2334202DC524200F02CB8FFF733BF61
:1008600030B5041E71F1000404DB4FF00044404237
:1008700064EB0101141E73F1000405DB1C464FF00C
:100880000043524263EB0403994208BF904230BDDB
:10089000064C074D06E0E06840F0010394E80700CD
:1008A00098471034AC42F6D3FFF746FC24640008A6
:1008B00044640008202A04DB203A21FA02F00021D7
:1008C000704721FA02F3D040C2F120029140084360
:1008D0001946704770B58C1810F8015B15F00703C6
:1008E00001D110F8013B2A1106D110F8012B03E0C9
:1008F00010F8016B01F8016B5B1EF9D12B0705D4D1
:100900000023521E0DD401F8013BFAE710F8013B19
:10091000CB1A921C03E013F8015B01F8015B521E35
:10092000F9D5A142D8D3002070BD00002DE9F74FC2
:100930008CB08A4693465846FFF73AFECDE9060149
:100940005046FFF735FE04460D464FF08B410C989C
:10095000FFF73EFC0190FFF72BFE06464FF0663294
:10096000104BFFF71AFD22462B46CDE90201FFF797
:100970000EFDCDE90401DDE90623FFF780FD00222D
:10098000094BCDE90801FFF708FD80460022064B20
:10099000FFF75CFCCDE90A01FFF71DFE0FB0BDE8D3
:1009A000F08F000066660A400000244010B504463F
:1009B0000723012221460B4800F04CF90121094888
:1009C00000F0A9F90121074800F052F800BF022108
:1009D000044800F071F80028F9D0024800F068F8E7
:1009E00010BD00000028014000B587B001214FF480
:1009F000816002F00DFF4FF4004002F0DDFE0020A8
:100A00008DF81B002020ADF8180006A9154801F04C
:100A100074FD00208DF80900049001908DF8080005
:100A200001208DF814004FF46020039001A90E48B6
:100A300000F056F801210D4800F01AF80B4800F0BC
:100A400065F900BF094800F040F80028FAD10748CE
:100A500000F06CF900BF054800F020F80028FAD13A
:100A600007B000BD000801400024014000280140FB
:100A700021B1826842F00102826003E0826822F0C4
:100A800001028260704721B1826842F48072826004
:100A900003E0826822F48072826070470146002081
:100AA0008A6802F004020AB1012000E000207047C9
:100AB0000146C86C80B270470246002013680B40A4
:100AC0000BB1012000E000207047014600208A6839
:100AD00002F008020AB1012000E000207047000087
:100AE00030B502460020002350680F4C20400D799D
:100AF0000C6844EA05242043506090680B4C204069
:100B0000D1E902542C434D7944EA450420439060D6
:100B1000D06A20F470000C7C641EE4B2234340EAE7
:100B20000350D06230BD0000FFFEF0FFFDF7F1FF83
:100B300000B591B00121042002F06AFE00208DF87A
:100B400043000F20ADF8400003208DF8420010A9AB
:100B50003C4801F0D2FC0121480202F059FE4FF45A
:100B6000004002F029FE072301220021364800F050
:100B700071F8072302220121334800F06BF80723A4
:100B800003220221304800F065F8072304220321E4
:100B90002D4800F05FF801208DF805008DF8040065
:100BA00004208DF81000002003904FF46020029084
:100BB0000020009069462448FFF792FF0121084673
:100BC00002F006FE20484C30059080150B90002066
:100BD00009901E4806904FF480600C9080200A9087
:100BE000002007900420089000200F900121164853
:100BF000FFF749FF20200D90C0010E9005A9144871
:100C000000F0A4FB0121124800F094FB01210E48E2
:100C1000FFF72EFF0C4800F079F800BF0A48FFF7F5
:100C200054FF0028FAD1084800F080F800BF0648B9
:100C3000FFF734FF0028FAD10121034800F06BF8D8
:100C400011B000BD00080140002401400000002058
:100C500008000240F0B504460D4600200021092D91
:100C600011DDE068A5F10A0606EB4607072606FA3D
:100C700007F18843A5F10A0606EB460603FA06F1DA
:100C80000843E0600CE0206905EB4507072606FAFB
:100C900007F1884305EB450603FA06F10843206196
:100CA000072A0FDA606B561E06EB86071F2606FA28
:100CB00007F18843561E06EB860605FA06F108433F
:100CC000606322E00D2A0FDA206BD61F06EB860741
:100CD0001F2606FA07F18843D61F06EB860605FA9B
:100CE00006F10843206310E0E06AA2F10D0606EB6E
:100CF00086071F2606FA07F18843A2F10D0606EBC8
:100D0000860605FA06F10843E062F0BD816841F00D
:100D100008018160704721B1826842F4A0028260BC
:100D200003E0826822F4A00282607047816841F08B
:100D3000040181607047000008B501210D2002F018
:100D400067FD10208DF80300ADF8000003208DF83A
:100D5000020069460B4801F0D0FBFFF745FE00207A
:100D60008DF803000120ADF8000003208DF802008B
:100D70006946054801F0C1FB1021024801F09BFCC7
:100D800008BD000000080140000C014000BFFEE764
:100D900000B589B00121052002F03AFD0121084685
:100DA00002F026FD01211E4801F032FC4FF4004004
:100DB000ADF8200018208DF8230003208DF82200C4
:100DC00008A9184801F099FB40F2E730ADF8180087
:100DD0004720ADF814000020ADF81A00ADF8160059
:100DE00005A94FF0804003F0A1FD6020ADF804009C
:100DF0000120ADF806000020ADF80A00ADF80C00A7
:100E000001A94FF0804003F043FD0121880703F062
:100E100018FD4FF40041034801F04BFC09B000BD40
:100E2000000318000008014010B500214FF0804079
:100E300003F07AFD10BD10B54FF4FA71080703F006
:100E400073FD10BD0146CAB20B1243EA022070477F
:100E500008B50020009022E19748008800F00F00BC
:100E6000964908700846007800287CD194480068AC
:100E7000944908800846008800F0300092490880B4
:100E80009048008800F440508E4908808C490968D9
:100E90004BF6BF7201EA020080F4005080F020009F
:100EA00040F4004141F08001854A11608248008889
:100EB00000F0100090BB1046006848F60F71084023
:100EC0001146086002F04CF87D4909684BF6BF7284
:100ED00001EA02007B49098801F4805109B180F4DC
:100EE00080507849098801F4005109B180F400501C
:100EF0007549098801F0100109B180F010007249AC
:100F0000098801F0200109B180F0200081B241F48C
:100F1000004141F080016A4A116008BDFFE768485E
:100F2000006880B20090BDF8000000F40060B0B32B
:100F300063480068C0F30E0048F68F7108406049AE
:100F4000086003F079F85E4909684BF6BF7201EA60
:100F500002005C49098801F4805109B180F4805095
:100F60005849098800E056E001F4005109B180F4C5
:100F700000505549098801F0100109B180F01000B6
:100F80005149098801F0200109B180F0200081B2A7
:100F900041F4004141F08001494A1160BDE7FFE79B
:100FA000BDF8000000F40040002878D044480068F4
:100FB000C0F30E0048F68F7108404149086002F006
:100FC00057FB3F4909684BF6BF7201EA02003D49F1
:100FD000098801F4805109B180F4805039490988A9
:100FE00001F4005109B180F400503749098801F03B
:100FF000100109B180F010003349098801F0200187
:1010000009B180F0200081B241F4004141F080013B
:101010002B4A116081E7294800782C4901EB8000B8
:10102000D0F8000C80B20090BDF8000000F4004041
:10103000C0B12248007801EB8000D0F8000CC0F36A
:101040000E0048F68F7108401C4909781F4A02EBD0
:101050008101C1F8000C19490978491E1C4A52F84F
:1010600021008047BDF8000000F08000B8B11348AF
:101070000078164901EB8000D0F8000C48F60F719B
:1010800008400E490978114A02EB8101C1F8000CB1
:101090000A490978491E0F4A52F82100804708483A
:1010A0004430006880B20449088000F40040002801
:1010B0007FF4D2AE00BF30E720010020E80000201E
:1010C000005C0040FC000020FE00002000500040BA
:1010D000480100202C01002010B5012210210F2012
:1010E00003F0F8FF01220321142003F0F3FF4FF473
:1010F000FA7004F06DFF01220C21142003F0EAFFC6
:101100004FF4FA7004F064FF01220C21152003F063
:10111000E1FF4FF4FA7004F05BFF01220321152078
:1011200003F0D8FF4FF4FA7004F052FF00221021B0
:101130000F2003F0CFFF00220F21142003F0CAFF7D
:1011400000220F21152003F0C5FF10BD0B4A02EB52
:101150008001D1F8001C01F4804171B102EB8001E3
:10116000D1F8001C48F68F7211404CF280021143F6
:10117000024B03EB8002C2F8001C70470050004095
:101180000B4A02EB8001D1F8001C01F0400171B163
:1011900002EB8001D1F8001C48F68F72114048F232
:1011A000C0021143024B03EB8002C2F8001C7047DF
:1011B0000050004010B5012406E021464FF0FF30FA
:1011C00000F00EFB601CC4B2142CF6DD10BD10B58F
:1011D000002406E00022FF21204603F07BFF601C74
:1011E000C4B2042CF6DD0022FF210C2003F072FFB4
:1011F00000228021172003F06DFF0022FF211046FE
:1012000003F068FFFFF7D6FF10BD0000084A02EBAD
:101210008001D1F8001C48F68F62114048F280022C
:101220001143034B03EB8002C2F8001C704700001F
:101230000050004010B512480078401C104908705A
:10124000084600783C2817D1002008700D48007827
:10125000401C0C490870084600783C280CD100203E
:10126000087009480078401C074908700846007853
:10127000182801D10020087000F008F810BD000007
:1012800010000020110000201200002010B50122E3
:1012900020210B2003F01EFF234800780A2190FB39
:1012A000F1F40121204603F095FA1F4800780A2145
:1012B00090FBF1F201FB12040221204603F08AFAAE
:1012C000012280210A2003F005FF184800780A2136
:1012D00090FBF1F40321204603F07CFA13480078D8
:1012E0000A2190FBF1F201FB12040421204603F0D5
:1012F00071FA01224021162003F0ECFE0C48007820
:101300000A2190FBF1F40521204603F063FA084816
:1013100000780A2190FBF1F201FB1204062120461D
:1013200003F058FA10BD0000120000201100002048
:101330001000002021B1026842F00102026004E0C6
:1013400002684FF6FE731A400260704710B5002223
:10135000026847F6F0739A430C6A8B6823430C6962
:1013600023434C6923438C692343CC6923434C6A50
:1013700023438C6A23431A430260CB6843600B68A3
:1013800083604B68C36010BD2DE9F04728480068B2
:1013900000F110052E8826480068077AD6B9042F78
:1013A00018D12448007801280FD100212248006874
:1013B00080B2801C214A42F8101030202049088059
:1013C00000BF00201B49087003E0072710201C49BC
:1013D000088027E0AC88A64201D8042000E0022063
:1013E0000746B44200D93446A0B2A968884780466F
:1013F000002001F085F98146A2B24946404603F03B
:101400008FFEA1B2002002F03FFD2888001B28803B
:101410006888204468803020094908800002094912
:10142000088000BF024909680F72BDE8F08700001C
:10143000EC000020E4000020505C00400060004010
:10144000FE000020FC0000202DE9F0412848006843
:1014500000F110042688A068C0B1BEB1A588B542CD
:1014600000D93546A8B2A168884707462088401BA6
:101470002080608828446080002001F01FF98046A9
:10148000AAB24146384602F01BF900BF208850B18D
:101490004FF44050174908800021084602F0F4FC40
:1014A0003020154908802088A188884204DB032069
:1014B0000F490968087218E02088002804DD05201B
:1014C0000B490968087210E0208870B906200849A5
:1014D0000968087200210948006880B2801C084A27
:1014E00042F81010302004490880BDE8F081000067
:1014F000EC000020FC000020FE000020505C0040BA
:10150000006000402DE9F84F9B48006845780027AF
:10151000BA46062D1BD198480068007800F07F007D
:10152000002813D1944909688878012803D1934988
:101530000968CF690AE0022803D1904909680F6A57
:1015400004E0032802D18D4909684F6A94E0002D18
:1015500064D189480068408800285FD186480068C7
:10156000C08802285AD1844800680079002855D1E3
:1015700081480068007800F07F0028B97E48006844
:10158000808808B97E4F77E07B480068007800F0DB
:101590007F00012810D1784909684879774909689E
:1015A0008A6900219047002866D173480068807AD4
:1015B000002861D0724F5FE06F480068007800F04B
:1015C0007F00022858D16C480068407900F00F066F
:1015D00069480068407900F0700967480068407900
:1015E00000F0800038B1674901EB8600D0F8000CAC
:1015F00000F0300806E0634901EB8600D0F8000CEB
:1016000000F4405860480078B04235D9B9F1000F75
:1016100032D1B8F1000F2FD0594F2DE0082D07D14E
:1016200055480068007800F07F0028BB574F23E042
:101630000A2D21D150480068007800F07F00012871
:101640001AD14D480068807AB0B14B480068408894
:1016500090B949480068007970B947480068C08867
:10166000012809D1444909684879444909688A69C7
:101670000021904700B9464F57B13F480068A0F895
:1016800012A03D48006887610020B84700240FE0A1
:10169000394A12685078394A1268116988470446F5
:1016A000032C05D10920344909680872BDE8F88F78
:1016B00031480068008A4FF6FF71884204D1092042
:1016C0002D4909680872F1E7022C03D02A48006806
:1016D000008A20B90820284909680872E6E72648E8
:1016E0000068007800F08000E0B323480068C088FC
:1016F000009021480068008A0099884204D91E4958
:1017000000980968088223E01B480068008A1A498B
:101710000968C98888421BDA17480068008A174997
:10172000096891F82C10884203DA002019490870E2
:101730000EE011480068008A1049096891F82C10E1
:1017400090FBF1F201FB120010B901201149087061
:101750000A48006890F82C10074800688182FFF75B
:1017600013FE07E0FFE7032003490968087200033E
:101770000949088000BF99E7EC000020F000002034
:10178000D942000800500040700100205D4200086E
:10179000AD420008E4000020FC000020704700007B
:1017A00000200A4908700A4908700A4908704FF475
:1017B000E1600949088048808880C8800020074986
:1017C000086048608860C860704700001000002012
:1017D0001100002012000020000000204402002020
:1017E0002DE9F04104460D46601C08B9002607E0CB
:1017F000092C01DDBDE8F0814F48065D4F48075DCB
:10180000152D71D2DFE805F0700B10151A1F242971
:101810002E33383D42474C51565B60656A00314675
:101820002A2003F0EDFD60E03146282003F0D4FDCE
:101830005BE03146262003F0CFFD56E03146242000
:1018400003F0CAFD51E03146222003F0C5FD4CE013
:1018500031462A2003F030FE47E03146282003F0CD
:1018600017FE42E03146262003F012FE3DE03146ED
:10187000242003F00DFE38E03146222003F008FE5C
:1018800033E03146202003F0A7FD2EE031461E2034
:1018900003F0A2FD29E031461C2003F09DFD24E069
:1018A00031461A2003F098FD1FE03146182003F05E
:1018B00093FD1AE03146202003F0EAFD15E03146A1
:1018C0001E2003F0E5FD10E031461C2003F0E0FD92
:1018D0000BE031461A2003F0DBFD06E0314618200C
:1018E00003F0D6FD01E0FFE700BF00BFA5F1150042
:1018F00005281DD2DFE800F003080D121700394655
:10190000072003F069FD14E03946052003F064FD6B
:101910000FE03946112003F088FD0AE03946132014
:1019200003F083FD05E03946152003F07EFD00E05D
:1019300000BF00BF00BF5DE75C630008676300088D
:101940002DE9F84F0446884615461E46DDE90B7A18
:10195000DDF82890A748006818B95146204604F0E1
:10196000EDFB0B2C16D004DC012C07D0062C23D168
:101970000AE0102C14D0152C1ED117E001220821EA
:101980000C2003F0A7FB17E0012204210C2003F038
:10199000A1FB11E0012202210C2003F09BFB0BE0D4
:1019A000012211460C2003F095FB05E00122C02125
:1019B0000B2003F08FFB00BF00BF00213846FEF76D
:1019C00027FE01D287F000478B493846FEF72AFEF2
:1019D00051D88A493846FEF71BFE4CD23846FEF7EE
:1019E000D3FD8749B0FBF1F201FB120042F2107106
:1019F000B0FBF1FB21465846FFF7F2FE3846FEF7F2
:101A0000C3FD42F21071B0FBF1F201FB12004FF482
:101A10007A71B0FBF1FB41465846FFF7E1FE3846CC
:101A2000FEF7B2FD4FF47A71B0FBF1F201FB120048
:101A30006421B0FBF1FB29465846FFF7D1FE38463A
:101A4000FEF7A2FD6421B0FBF1F201FB12000A21B6
:101A5000B0FBF1FB31465846FFF7C2FE3846FEF7B1
:101A600093FD0A21B0FBF1F201FB120B49465846E7
:101A7000FFF7B6FEBCE063493846FEF7D3FD41D818
:101A80005D493846FEF7C4FD3CD23846FEF77CFD82
:101A900042F21071B0FBF1F201FB12004FF47A71C7
:101AA000B0FBF1FB41465846FFF79AFE3846FEF779
:101AB0006BFD4FF47A71B0FBF1F201FB120064216F
:101AC000B0FBF1FB29465846FFF78AFE3846FEF781
:101AD0005BFD6421B0FBF1F201FB12000A21B0FBB7
:101AE000F1FB31465846FFF77BFE3846FEF74CFDCA
:101AF0000A21B0FBF1F201FB120B49465846FFF7F1
:101B00006FFE75E040493846FEF78CFD30D83D4900
:101B10003846FEF77DFD2BD23846FEF735FD4FF4F3
:101B20007A71B0FBF1F201FB12006421B0FBF1FB12
:101B300029465846FFF754FE3846FEF725FD642136
:101B4000B0FBF1F201FB12000A21B0FBF1FB3146C0
:101B50005846FFF745FE3846FEF716FD0A21B0FB52
:101B6000F1F201FB120B49465846FFF739FE3FE000
:101B700026493846FEF756FD20D823493846FEF759
:101B800047FD1BD23846FEF7FFFC6421B0FBF1F2A3
:101B900001FB12000A21B0FBF1FB31465846FFF76A
:101BA0001FFE3846FEF7F0FC0A21B0FBF1F201FB04
:101BB000120B49465846FFF713FE19E0002138463C
:101BC000FEF730FD14D811493846FEF721FD0FD23B
:101BD0000D493846FEF7CAFA0090FEF7D5FC0A21F7
:101BE000B0FBF1F201FB120B49465846FFF7F8FD36
:101BF000BDE8F88F8800002000401C460050C34715
:101C0000A086010000007A440000C8420000204184
:101C10002DE9F0438DB00546002D71DD142D6FDCEC
:101C200007A9284601F0FAFB294685A003F096FC97
:101C3000894840680A2814D2DFE800F005142A40D9
:101C40005663798FA5BB002409E007A951F8240049
:101C50008249FEF78BFA03A941F82400641C042C86
:101C6000F3DBB2E0002410E007A951F82400FEF7EE
:101C70009FFC80467A4A7B4BFEF78FFB0646FEF7B9
:101C8000AAFC03A941F82400641C042CECDB9CE0B2
:101C9000002410E007A951F82400FEF789FC8046D3
:101CA000714A724BFEF779FB0646FEF794FC03A9D6
:101CB00041F82400641C042CECDB86E0002410E0D6
:101CC00007A951F82400FEF773FC8046664A674B6B
:101CD000FEF763FB0646FEF77EFC03A941F82400ED
:101CE000641C042CECDB70E0002006E007A951F82E
:101CF000201003AA42F82010401C0428F6DB64E000
:101D000097E0002410E007A951F82400FEF750FCEA
:101D10008046574A574BFEF740FB0646FEF75BFCF2
:101D200003A941F82400641C042CECDB4DE00024E2
:101D300010E007A951F82400FEF73AFC80464E4A0D
:101D40004E4BFEF72AFB0646FEF745FC03A941F879
:101D50002400641C042CECDB37E0002410E007A90D
:101D600051F82400FEF724FC8046454A454BFEF717
:101D700014FB0646FEF72FFC03A941F82400641C5F
:101D8000042CECDB21E0002410E007A951F824002A
:101D9000FEF70EFC80463C4A3C4BFEF7FEFA064638
:101DA000FEF719FC03A941F82400641C042CECDBA9
:101DB0000BE0002006E007A951F8201003AA42F822
:101DC0002010401C0428F6DB00BF00BF00242DE0DB
:101DD0000BA830F8140003A951F8241004EB840276
:101DE000521DD2B204EB8406361DF3B204EB840616
:101DF000F61CCDE900210290F2B204EB8406B61C79
:101E0000F1B204EB8406761CF0B2FFF799FD07A946
:101E100051F82400FEF7CCFBCDE900010BA830F807
:101E2000142021461AA003F099FB641C042CCFDB7C
:101E300003E0294621A003F091FB0DB0BDE8F0833B
:101E4000CFD4CABEC0FACAB7BCC7C2BCCBF7D2FD9A
:101E50003A2025640A000000540200200000C84215
:101E60009A9999999999B93F821DFF058200E83F97
:101E70005F8DFD76233D9E3F8675E3DD91B1D93FB1
:101E8000DB8AFD65F76424401A8057152BB48D3F1B
:101E900050726573737572652025643A2041445F02
:101EA00056616C75653D2025642C20D1B9C1A63DD5
:101EB00020252E3266204850610D0A00CEDED0A7C4
:101EC000B5C4C0FACAB7BCC7C2BCCBF7D2FD3A2072
:101ED00025640A002DE9FE4300223F21162003F06D
:101EE000F9F800223F21172003F0F4F8CB484068AE
:101EF0000A2819D2DFE800F00519344F6A7B96B141
:101F0000CCE701222021162003F0E4F8002409E0A8
:101F1000C34951F82400C349FEF728F9C24941F8E2
:101F20002400641C042CF3DBDEE0012230211620A7
:101F300003F0D0F8002410E0B94951F82400FEF76E
:101F400037FB0746B94ABA4BFEF727FA0546FEF7B4
:101F500042FBB54941F82400641C042CECDBC3E0CF
:101F600001220821162003F0B5F8002410E0AC4946
:101F700051F82400FEF71CFB0746AE4AAE4BFEF7B5
:101F80000CFA0546FEF727FBA74941F82400641C1C
:101F9000042CECDBA8E001220421162003F09AF8BF
:101FA000002410E09E4951F82400FEF701FB07468B
:101FB000A04AA14BFEF7F1F90546FEF70CFB9A4942
:101FC00041F82400641C042CECDB8DE00122032189
:101FD000162003F07FF8002006E0914951F8201008
:101FE000914A42F82010401C0428F6DB7CE00122D4
:101FF0001146172003F06EF8002410E0884951F8CC
:102000002400FEF7D5FA07468C4A8D4BFEF7C5F93A
:102010000546FEF7E0FA844941F82400641C042CCC
:10202000ECDB61E001220221172003F053F80024C9
:1020300010E07B4951F82400FEF7BAFA0746814ABE
:10204000814BFEF7AAF90546FEF7C5FA764941F835
:102050002400641C042CECDB46E001220421172040
:1020600003F038F8002410E06D4951F82400FEF721
:102070009FFA0746754A764BFEF78FF90546FEF73D
:10208000AAFA694941F82400641C042CECDB2BE01B
:1020900001222021172003F01DF8002410E06049E0
:1020A00051F82400FEF784FA07466A4A6A4BFEF7A5
:1020B00074F90546FEF78FFA5B4941F82400641C69
:1020C000042CECDB10E001221021172003F002F8B1
:1020D000002006E0524951F82010534A42F82010DF
:1020E000401C0428F6DB00BF00BF4C488068002875
:1020F0005AD1002201210F2002F0ECFF0122082119
:102100000A2002F0E7FF55480068E0BBFFF752F8ED
:1021100053480078012801D1FFF742FB514800885D
:102120004149096805220423CDE9002102900322D8
:1021300002210120FFF704FC4A4840883A494968D7
:102140000A220923CDE90021029008220721062056
:10215000FFF7F6FB42480078012807D100204049EC
:1021600008704FF4E1603F498880C8803D4881880D
:102170002D4880680F220E23CDE9002002910D2208
:102180000C210B2000E00FE0FFF7DAFB3548C08898
:102190002549C96814221323CDE900210290122297
:1021A00011211020FFF7CCFB1C488068012833D197
:1021B000002208210A2002F08DFF012211460F2083
:1021C00002F088FF2548006830BBFEF7F3FF244883
:1021D0000078012804D1002021490870FFF7E0FAB7
:1021E000204800881049096805220423CDE9002110
:1021F0000290032202210120FFF7A2FB1948408828
:10220000094949680A220923CDE9002102900822E0
:1022100007210620FFF794FBBDE8FE83540200204F
:10222000340200200000C842440200209A99999983
:102230009999B93F821DFF058200E83F5F8DFD76C9
:10224000233D9E3F8675E3DD91B1D93FDB8AFD6575
:10225000F76424401A8057152BB48D3F8800002066
:10226000900000200000002070B52248B0F8020461
:102270002049B1F80014884200D170BD1D48B0F863
:1022800002041C49B1F80014884208DA1948B0F871
:1022900000041849B1F80214401A84B205E0154848
:1022A000B0F80204C0F5806084B2402C00DD402408
:1022B0001048B0F80254B0F8020420440D49A1F8C7
:1022C00002040846B0F80204B0F5806F02DB00207B
:1022D000A1F80204074948192246C02102F020FF54
:1022E0002146012001F0D0FD012001F0FBFD00BFDF
:1022F000C3E70000440B002010B50649032002F09C
:1023000091FE84B2E1B2034802F0A4FE032001F082
:1023100091FD10BDD81000200149086070470000F1
:1023200014040140002123498279002A3AD00A4648
:10233000126803689A430B461A600A1D1268036804
:102340009A430B1D1A60027911440A6803681A4304
:102350000A60184A0832126803689A43154B08331A
:102360001A601A1D126803689A43124B0C331A60E4
:102370004279102A0ED11A1F126803681A430D4BB6
:1023800008331A601A1D126803681A43094B0C338C
:102390001A600DE00749427911440A6803681A433C
:1023A0000A6005E0027911440A6803689A430A60EA
:1023B000704700000004014010B503A003F0CEF800
:1023C00003200849086010BD75736220656E74654E
:1023D00072206C6F7720706F776572206D6F646507
:1023E0000D0A0000F801002030B5044604254FF422
:1023F000302000F06FF80546042D17D10C48006915
:1024000040F002000A49086108464461006940F052
:10241000400008614FF4302000F05CF805460448A5
:10242000006941F6FD71084001490861284630BD48
:102430000020024004200B49C96801F0010109B1E4
:1024400001200EE00749C96801F0040109B102202A
:1024500007E00449C96801F0100109B1032000E058
:1024600004207047002002400348006940F08000CB
:1024700001490861704700000020024070B5044621
:102480000D460426F00200F025F80646042E11D170
:102490000948006940F00100074908612580F00201
:1024A00000F018F806460448006941F6FE7108403D
:1024B00001490861304670BD0020024002480349CE
:1024C0004860034848607047230167450020024088
:1024D000AB89EFCD00B502460423FFF7ABFF0346FF
:1024E00003E0FFF7A7FF0346521E012B01D1002A8C
:1024F000F7D102B90523184600BD2DE9F041024687
:1025000000250026002000230024002791F803C0A6
:102510000CF00F0591F803C00CF0100CBCF1000F8B
:1025200003D091F802C04CEA050591F800C0BCF157
:10253000000F31D0146800202BE04FF0010C0CFA92
:1025400000F3B1F800C00CEA03069E4220D18300DC
:102550004FF00F0C0CFA03F7BC4305FA03FC4CEAEE
:10256000040491F803C0BCF1280F06D14FF0010C10
:102570000CFA00FCC2F814C00AE091F803C0BCF1E8
:10258000480F05D14FF0010C0CFA00FCC2F810C046
:10259000401C0828D1D31460B1F800C0BCF1FF0F73
:1025A00034DD546800202EE000F1080C4FF00108E3
:1025B00008FA0CF3B1F800C00CEA03069E4221D1E0
:1025C00083004FF00F0C0CFA03F7BC4305FA03FC31
:1025D0004CEA040491F803C0BCF1280F05D100F1C6
:1025E000080C08FA0CF8C2F8148091F803C0BCF18A
:1025F000480F07D100F1080C4FF0010808FA0CF859
:10260000C2F81080401C0828CED35460BDE8F08189
:10261000F0B50A46002300240021002500F0004602
:10262000B6F1004F02D11D4EF16901E01B4E7168F9
:10263000C0F3034583B200F44016B6F5401F08D13D
:1026400021F07061154E766826F07066134F7E603B
:1026500012E000F48016B6F5801F06D1032606FAB4
:1026600005F4A14341F0706106E0460D360103FA1E
:1026700006F6B14341F0706122B1460D360103FA0E
:1026800006F6314300F00046B6F1004F02D1034E8A
:10269000F16101E0014E7160F0BD000000000140F9
:1026A0000246002093680B400BB1012000E000209F
:1026B000704741617047016170470000014605485D
:1026C000006880B200EBC100001D034A32F8100020
:1026D00080B27047505C00400060004001460648F0
:1026E000006880B200EBC100801D044A32F810007F
:1026F000C0F3090070470000505C004000600040DB
:1027000001460548006880B200EBC100034A32F878
:10271000100080B270470000505C00400060004034
:1027200070B506460024002504E03046FEF73EF969
:1027300004446D1C0A2DF8DB0A20B4FBF0F4A0B2AF
:1027400070BD000070B50A480468001D0568001DD2
:102750000668344454B108220649204600F05CFC67
:10276000042204491031284600F056FC70BD0000D8
:10277000E8F7FF1F0401002070B504464FF4004144
:102780000C48FFF796FF0321C02000F061F8A10676
:10279000080E072100F05CF8042003F03FFC00F075
:1027A0000BF805464FF400410248FFF784FF284626
:1027B00070BD0000000C014038B500244FF480507B
:1027C000ADF8000048208DF8030069461548FFF772
:1027D00094FE042003F022FC00250CE0641000F0BD
:1027E00023F84FF480510F48FFF75AFF08B144F027
:1027F0008004681CC5B2082DF0DB4FF48050ADF8A2
:10280000000003208DF8020010208DF803006946B7
:102810000448FFF772FE4FF480510248FFF74BFF68
:10282000204638BD000C014010B54FF480410748E8
:10283000FFF73FFF042003F0F1FB4FF48041034812
:10284000FFF739FF042003F0E9FB10BD000C014045
:1028500070B504460D46002621E004F0800028B142
:102860004FF480510F48FFF726FF04E04FF48051EA
:102870000C48FFF71EFF4FF400510A48FFF719FFFD
:10288000022003F0CBFB4FF400510648FFF713FF83
:102890006006040E042003F0C1FB701CC6B2AE42F9
:1028A000DBDB70BD000C014070B504460D46002610
:1028B00020E004F0010028B14FF480510F48FFF7E9
:1028C000FAFE04E04FF480510C48FFF7F2FE4FF49B
:1028D00000510A48FFF7EDFE022003F09FFB4FF482
:1028E00000510648FFF7E7FE6410042003F096FB52
:1028F000701CC6B2AE42DCDB70BD0000000C0140B3
:1029000010B504462948006808B100F0FDFC012C10
:1029100002D0042C47D132E02548006880B901205C
:102920002349086010212348FFF7C5FE08212248EB
:10293000FFF7C1FE012240210F2002F0CBFB1DE07A
:102940001E48006808B9012000E000201B4908600B
:102950000846006848B908211748FFF7ACFE012275
:1029600040210F2002F0B6FB08E008211248FFF7D3
:10297000A0FE002240210F2002F0ACFB14E00C4826
:10298000006878B100200A49086008210A48FFF76A
:1029900090FE002240210F2002F09CFB10210548F0
:1029A000FFF787FE00E000BF00BF10BD540200200B
:1029B0009C00002000080140000C0140A000002005
:1029C00010B504463F48006808B100F09DFC3E4841
:1029D00003683E48214602683DA002F0BFFD012C7D
:1029E00002D0042C6BD141E03848006800282BD07D
:1029F0003548006878B93348406809300A2190FBAF
:102A0000F1F201FB12002F494860084641683DA0E1
:102A100002F0A4FD29E02C480068012825D12949AD
:102A20008968481C00EBD0714910A0EB4101254A90
:102A300091601046806808B9022000E00420014639
:102A400034A002F08BFD10E038480068401C60B1F3
:102A500036480068012808DD34480068401E3349C4
:102A6000086008460068FFF7D3F829E015480068B9
:102A700008B9012000E000201249086008460068FB
:102A800008B12BA000E02CA001462DA002F066FDAD
:102A90000C48006840B12DA002F060FD0122202109
:102AA0000F2002F017FB07E02EA002F057FD0022D6
:102AB00020210F2002F00EFB01F080F800E000BFA3
:102AC00000BF10BD540200208C00002088000020B0
:102AD000B0B4BCFC31CAC2BCFE3A2025642C2073C1
:102AE000657474696E67735F6D6F64653A20256401
:102AF0002C2073657474696E675F6974656D3A2024
:102B000025640A00B5B1C7B0B5A5CEBB3A2025648F
:102B10000D0A0000B5B1C7B0B4ABB8D0C6F7CAFD56
:102B2000C1BF3A2025640D0A000000009800002073
:102B3000B4F2BFAA00000000B9D8B1D5000000006F
:102B4000B7E4C3F9C6F725730D0A0000D5E2C0EF5C
:102B5000D2AAB5E3C1C1B7E4C3F9C6F7CDBCB1EAA7
:102B60000D0A0000D5E2C0EFD2AACFA8C3F0B7E4A7
:102B7000C3F9C6F7CDBCB1EA0D0A000030B587B085
:102B800004463848006808B100F0BEFB012C02D0B2
:102B9000042C62D13FE03448006840B9012032493A
:102BA0000860012220210E2002F094FA32E02FA0CA
:102BB00002F0D4FC00200CE02F4951F8201001AAAB
:102BC00042F820102D4931F8102005A921F81020D5
:102BD000401C0428F0DB01A929480068401C00F0D3
:102BE000F5FF27480068401C142190FBF1F201FB1F
:102BF0001205294623A002F0B1FC21480068401CC0
:102C0000152190FBF1F201FB12001D49086000F054
:102C1000C9FF00BF22E021480068401C80B9184865
:102C200000681E490860012260210E2002F052FA5D
:102C30001BA002F093FC19480068FEF7E9FF0BE0C7
:102C40004FF0FF301549086019A002F087FC002200
:102C500060210E2002F03EFA00E000BF00BF07B086
:102C600030BD000054020020A4000020B1A3B4E64F
:102C7000CAFDBEDD0D0A0000340200200000002065
:102C800094000020B1A3B4E6CAFDBEDDB5BDBCC74B
:102C9000C2BCCBF7D2FD3A2025640A009800002080
:102CA000B2E9BFB4C0FACAB7CAFDBEDD0A0000006F
:102CB000CDCBB3F6B2E9BFB4C0FACAB7CAFDBEDD28
:102CC000C4A3CABD0A00000010B504462D48006820
:102CD00008B100F019FB012C02D0042C4ED126E0E3
:102CE0002948006808B9012000E000202649086052
:102CF0000846006808B125A000E026A0014627A0EC
:102D000002F02CFC2048006840B1012280210F20F5
:102D100002F0E0F901202449087007E00022802138
:102D20000F2002F0D7F900201F49087027E01F4844
:102D3000006808B9012000E000201C49086008462E
:102D4000006808B111A000E012A0014613A002F033
:102D500005FC1648006840B1012280210F2002F0D6
:102D6000B9F901201249087007E0002280210F20E4
:102D700002F0B0F900200E49087000E000BF00BF6B
:102D800010BD000054020020A8000020CBF8B6A817
:102D900000000000BDE2CBF800000000CAFDBEDD6F
:102DA00025730D0A0000000084000020AC00002004
:102DB0008500002010B504463048006808B100F0D6
:102DC000A3FA012C04D0022C46D0042C53D149E0A4
:102DD0002B48006800282BD02A48006878B927487B
:102DE00040680B300A2190FBF1F201FB12002349ED
:102DF00048600846416824A002F0B0FB2BE021485F
:102E00000068012827D11D498968C81C00EBD071D2
:102E10004910A0EB4101194A91601046806808B939
:102E2000022000E0042001461BA002F097FB12E004
:102E30001F480068401C70B11D4800681D490968A2
:102E4000884208DA1A480068401C19490860084698
:102E50000068FEF7DDFE0FE000F0CEFE16A002F0E7
:102E60007DFB09E0012006490860FEF7B0F91AA0D1
:102E700002F074FB00E000BF00BF10BD5402002050
:102E8000880000208C000020B5B1C7B0B5A5CEBB2E
:102E90003A2025640D0A0000B5B1C7B0B4ABB8D074
:102EA000C6F7CAFDC1BF3A2025640D0A0000000024
:102EB0009800002094000020B1A3B4E6C9E8D6C36E
:102EC000B2A2CCF8D7AAB5BDCFC2D2BBB8F6C9E87A
:102ED000D6C3CFEE0A000000BDF8C8EBC9E8D6C3E0
:102EE000C4A3CABD0D0A000010B50446134800680B
:102EF00008B100F009FA012C02D0042C1BD114E017
:102F0000012204210F2002F0E5F801200C4908708D
:102F10004FF4967003F05CF8002204210F2002F0B9
:102F2000D9F808A002F01AFB06E0FEF7D5F807A0D2
:102F300002F014FB00E000BF00BF10BD54020020EF
:102F4000900000205A45524F0D0A0000C7E530B3EB
:102F5000A4B0B4503D300D0A0000000000BFFEE7F1
:102F600010B518480068047A022C01D0042C05D151
:102F7000FEF70AFA13480068047A1CE0062C19D1FF
:102F800010480068407805280ED10E480068007887
:102F900000F07F0040B90B490968C87800F0CAFE0C
:102FA00009490968086A80470849096888688047AC
:102FB000082400E00824034909680C7200F096FB1D
:102FC00010BD0000EC000020F8000020F000002000
:102FD00010B5104800F03CFA00F014FA0D480068F3
:102FE00030B10C480068012802D00120094908606E
:102FF000084840680A2802DB002006494860054866
:10300000806830B103488068012802D0002001495F
:10301000886010BD5402002030B50B46002100BF6F
:1030200016E00A24B4EB107F05D9302404EB1074A9
:1030300003F8114005E0412404EB10740A3C03F846
:103040001140000100254C00641C1D554C1CE1B2D0
:103050009142E6DB30BD10B50446A068804710B948
:103060000020A07001E00120A07010BD08B5012172
:10307000102000F0CDFB3F20ADF8000003208DF8BC
:10308000020004208DF8030069460948FFF735FA6D
:10309000002008490873084908730849087308495B
:1030A000087301200749087300200749087308BD09
:1030B00000100140240000203400002044000020C3
:1030C00054000020640000207400002010B501218D
:1030D0000148FFF7E5FA10BD0010014010B50221CC
:1030E0000148FFF7DDFA10BD0010014010B50421C2
:1030F0000148FFF7D5FA10BD0010014010B50821B6
:103100000148FFF7CDFA10BD0010014010B51021A5
:103110000148FFF7C5FA10BD0010014010B520218D
:103120000148FFF7BDFA10BD0010014010B504467C
:103130002046FFF790FFE078062878D2DFE800F01D
:10314000030E1939466BA07820B90120E0700020E9
:10315000207102E00020E070207182E0A07820B9A8
:103160000220E0700020207102E00020E070207159
:1031700077E0A07848B92088C82806DB0320E070F3
:10318000042020710020208012E0A07850B920880F
:10319000C82807DA2088401C20800220E070002028
:1031A000207105E0002020800420E07000202071C4
:1031B00057E0A07828B90320E0700020207120801B
:1031C00003E00020E070207120804AE0A07840B148
:1031D0002088322805DB00202080E070012020714B
:1031E00018E0A07850B12088322807DA2088401CE7
:1031F00020800420E070002020710BE0002020805F
:10320000207B20B10520E0700020207102E0012029
:10321000E070207125E0A07850B92088C82807DB2D
:103220000320E070012020710020208017E017E0CB
:10323000A07850B92088C82807DA2088401C208050
:103240000520E0700020207109E000202080E0705F
:10325000207B10B10220207101E00120207100E0EC
:1032600000BF00BF10BD000010B52048007950B16C
:1032700010211F48FFF71FFA1C490879FFF740FB90
:1032800000201A4908711B48007930B119490879A2
:10329000FFF796FB0020174908711748007930B1F5
:1032A00015490879FFF76AFC002013490871134893
:1032B000007930B111490879FFF706FD00200F4968
:1032C00008710F48007930B10D490879FFF772FD98
:1032D00000200B4908710B48007930B10949087981
:1032E000FFF702FE00200749087110BD24000020EE
:1032F0000008014034000020440000205400002059
:10330000640000207400002010B5FDF794FD6420D7
:1033100002F05EFEFDF788FD10BD000008B501213A
:10332000092000F075FA01211348FFF771F9082010
:10333000ADF8000010208DF8030003208DF8020086
:1033400069460E48FFF7D9F84FF47040ADF8000019
:1033500010208DF8030003208DF80200694607480D
:10336000FFF7CBF808210548FFF7A3F94FF47041A8
:103370000248FFF7A0F908BD00023000000C014030
:1033800010B5FFF7CBFF012000F0B4FC032000F0E4
:10339000B1FC02F0CBFD08210848FFF78CF90122AF
:1033A00040210F2001F096FE05480068012804D155
:1033B000012220210F2001F08DFE10BD000C0140E4
:1033C0005402002010B5074C07A002F0C7F8A07AFD
:1033D00018B105200A49086002E001200849086088
:1033E00010BD0000280B00206C65617665206C6FB5
:1033F0007720706F776572206D6F64650D0A00002D
:10340000F801002010B502220249034800F012FB27
:1034100010BD000094000020FC00030870B50446B5
:103420000D46002C11DD142C0FDC601E142190FBC6
:10343000F1F201FB120606EB4601044A02EBC10061
:103440000C22294600F0F6FA00BF70BD0001030807
:1034500010B5044606222146014800F0EBFA10BDE3
:103460000000030810B501F0F1F802F08FFD00F044
:103470001AF8FFF7ADFD4FF4E13002F01FFFFDF742
:103480005BFC01F03CFEFDF753FBFDF781FC41F6D0
:103490001F41312001F070F9FFF7E8FD10BD00BFBA
:1034A000FEE77047704710B54FF4A06000F03AF89F
:1034B00010BD000070B5002100230F22C47804B3B2
:1034C000154C246804F4E064C4F5E064210AC1F1F9
:1034D0000403CA40447804FA03F184781440214379
:1034E00009010E4C0678A155047804F01F0501244B
:1034F000AC4005786D11AD0005F1E025C5F800413F
:1035000009E0047804F01F050124AC40044D06785E
:10351000761145F8264070BD0CED00E000E400E0B7
:1035200080E100E002490143024A11607047000057
:103530000000FA050CED00E070B50226474800686F
:10354000447846480068007800F07F00002844D1A5
:10355000092C03D100F040FF06465FE0052C14D192
:103560003E480068C0787F280BDC3C4800688078C3
:1035700038B93A480068808818B938480068807AB5
:1035800008B1082565E0002648E0032C0ED1334839
:103590000068C078012807D130480068808818B9D1
:1035A00000F03EFF064639E0022637E0012C35D117
:1035B0002A480068C07801280DD128480068808812
:1035C00048B926480068407A00F0200018B100F0A1
:1035D0008FFD064622E0022620E0204800680078A1
:1035E00000F07F00012805D10B2C17D100F094FFCB
:1035F000064613E019480068007800F07F000228B2
:103600000BD1012C03D100F073FD064606E0032C1C
:1036100004D100F019FF064600E002264EB1E0B2E8
:103620000F4A1268516988470646032E01D10925C1
:103630000FE00EB108250CE00625002109480068BE
:1036400080B2801C084A42F81010302007490880D8
:1036500000BF024909680D7270BD0000EC00002037
:10366000F0000020505C004000600040FE000020A0
:1036700010B511480068047A022C01D0042C01D145
:10368000082412E0032C01D0052C05D1FDF7DCFE47
:1036900009480068047A08E0072C05D10749096841
:1036A000C8688047082400E00824034909680C72B0
:1036B00000F01CF810BD0000EC000020F00000201D
:1036C000F0B5561C7510074E06EB41042B4605E07D
:1036D00034F8047B20F8017B401C5B1E002BF7D1E3
:1036E000F0BD0000006000407047000010B50D48BC
:1036F00090F82C10002000F057FB0B480068007A6F
:10370000082805D14002094908801020084908808E
:1037100005480068007A092801D1012010BD002069
:10372000FCE7000074010020EC000020FC000020F9
:10373000FE00002010B5012001F0DEFA01240B4844
:10374000046000200A49088008460088074908608C
:103750000020091D08604FF4E05005490880084624
:10376000008802490860002010BD0000405C004055
:10377000F60000202DE9F04105460E4600240DE03C
:103780000B4931F81400FCF7E9FE0746324629469A
:10379000FDF7CCF8074941F82400641C042CEFDB4A
:1037A000FEF798FB4FF4FA7002F012FCBDE8F081CE
:1037B000000000203402002001460020034A506827
:1037C00020F4404008435060704700000010024061
:1037D00029B1064A52690243044B5A6104E0034A84
:1037E00052698243014B5A61704700000010024049
:1037F00029B1064AD2690243044BDA6104E0034A64
:10380000D2698243014BDA61704700000010024028
:1038100029B1064A92690243044B9A6104E0034AC3
:1038200092698243014B9A61704700000010024088
:1038300030B500210022002400232D4D6D6805F0D5
:103840000C0121B1042905D0082923D105E0294D17
:10385000056022E0274D05601FE0254D6D6805F4E9
:103860007012234D6D6805F48034022505EB9242F9
:103870001CB9214D554305600BE01D4D6D6805F4E5
:1038800000351DB11C4D5543056002E0194D5543EF
:10389000056002E0174D056000BF00BF144D6D6864
:1038A00005F0F0010909154D6B5C0568DD404560C8
:1038B0000F4D6D6805F4E061090A104D6B5C4568B9
:1038C000DD4085600A4D6D6805F46051C90A0B4DF5
:1038D0006B5C4568DD40C560054D6D6805F4404191
:1038E000890B074D6B5CC568B5FBF3F5056130BD11
:1038F0000010024000127A0000093D00B0000020D4
:10390000C00000200149086070470000D800424212
:1039100070B50546072D01D02E4805702D4800785A
:1039200008284ED2DFE800F004111A202B384E4F41
:103930002948006828B900F053F806202549087086
:1039400002E005202349087041E000F049F8042016
:103950002049087001202049086038E002201D49F4
:1039600048700320087032E01A484078401E194918
:1039700048700846407808B90420087027E01748C6
:10398000006884B244F01004144804600520114912
:1039900008700A2048701AE00E484078401E0D4911
:1039A00048700846407858B90C48006884B224F042
:1039B00010040A48046006200870002006490860C8
:1039C00005E000BF00BF06200249087000BF00BF2D
:1039D00070BD0000FD01002000020020405C00409E
:1039E00010B50748006884B224F004040448046059
:1039F000FFF7E8FC4FF43F400149086010BD0000AC
:103A0000405C004010B50948006805280CD1084802
:103A100001680068401C064A1060052904D1002096
:103A200011460860FEF720FC10BD0000F8010020E0
:103A30001C01002030B503460C461546002207E065
:103A4000184600F008F824F812009B1C501C82B2A3
:103A5000AA42F5DB30BD0146088870472DE9F05FCA
:103A600080468A461746B8F1006F02D33748804532
:103A700001D3BDE8F09FFEF721FDA8F1006B4FEAEE
:103A8000DB25CBF34909C9F58064A74200DC3C463D
:103A900056E04FF0006101EBC5204A142C49FFF7B6
:103AA000C9FF00260BE009EB0600294931F8100098
:103AB0004FF6FF71884200D003E0701C86B2A64228
:103AC000F1DB00BFA64223DA4FF0006000EBC52116
:103AD000021420A001F042FD4FF0006101EBC5206F
:103AE000FEF782FC002608E03AF8160006EB090112
:103AF000174A22F81100701C86B2A642F4DB4FF080
:103B0000006101EBC5204A14114900F037F804E0C8
:103B100022465146404600F031F8A74200D110E05D
:103B20006D1C4FF000090AEB440A08EB4408381BEF
:103B300087B2B7F5806F02DD4FF4806400E03C4649
:103B4000A7E700BFFEF790FC00BF92E7000008085F
:103B500060020020B2C1B3FDC9C8C7F8B5D8D6B756
:103B60003A203078253038582C20B4F3D0A13A20B0
:103B7000256420D7D6BDDA0A000000002DE9F04107
:103B800005460E461746002407E036F8141028466E
:103B9000FEF774FCAD1C601C84B2BC42F5DBBDE8D2
:103BA000F081704710B5022202490348FFF756FF23
:103BB00010BD000094000020FC00030810B502486E
:103BC00000F08EF810BD00005402002070B50446CD
:103BD0000D46601E142190FBF1F201FB120606EB6C
:103BE0004601044A02EBC1000C222946FFF736FFCA
:103BF00070BD00000001030810B51848806808B9BE
:103C0000022000E0042002461448416814A001F09C
:103C1000A5FCFFF7D3FF1D490968481C00EBD071D4
:103C20004910A0EB4101194A11601046006818B90B
:103C300017A001F093FC06E014480068012802D1A7
:103C400017A001F08BFC1148006828B900201A4920
:103C500008601AA001F082FC10BD00005402002090
:103C6000B1A3B4E6C9E8D6C33A20B5B1C7B0B5A58B
:103C7000CEBB3A2025642C20B5B1C7B0B4ABB8D0C8
:103C8000C6F7CAFDC1BF3A2025640A008C00002097
:103C9000C7D0BBBBB5BDC9E8D6C3B5A5CEBB0A006E
:103CA000C7D0BBBBB5BDC9E8D6C3B4ABB8D0C6F7A7
:103CB000CAFDC1BF0A00000088000020CBF9D3D0A4
:103CC000C9E8D6C3CFEEB6BCC9E8D6C3CDEAA3AC2B
:103CD000CDCBB3F6C9E8D6C3C4A3CABD0A00000061
:103CE00010B50446062221460148FFF7B7FE10BD75
:103CF0000000030810B504464FF400410848FEF7E1
:103D0000D8FC03218020FEF7A3FD09212046FEF701
:103D10009FFD4FF400410248FEF7CDFC10BD0000AE
:103D2000000C01404FF6F8710140014A11607047E4
:103D3000505C004030B501460F4B1A78002014E06B
:103D400003060E4C04EB9353D3F8003C48F68F74F3
:103D5000234048F280042343C4B223430406074DA2
:103D600005EB9454C4F8003C401C9042E8D341F069
:103D70008003034C236030BD7001002000500040E0
:103D80004C5C004010B54A105300054A126892B2CC
:103D900002EBC002121D034C44F8123010BD0000AB
:103DA000505C00400060004010B502460F480068BB
:103DB00080B200EBC200801D0D4C04EB40033E2995
:103DC0000BDD481101F01F040CB9441EA0B24FF4E2
:103DD000004444EA80241C6007E0481001F001041C
:103DE0000CB1441CA0B284021C6010BD505C0040A9
:103DF0000060004030B50E4C04EB8003D3F8003C6B
:103E00004BF68F7403EA040201F480530BB182F481
:103E1000805201F400530BB182F4005242F400438B
:103E200043F08003024D05EB8004C4F8003C30BD34
:103E30000050004010B50B4B03EB8002D2F8002C71
:103E40004BF68F7302EA030181F4805181F4005133
:103E500041F4004242F08002024C04EB8003C3F8BC
:103E6000002C10BD0050004010B54A105200044B09
:103E70001B689BB203EBC003024C44F8132010BD37
:103E8000505C004000600040044A126892B202EBAD
:103E9000C002921C024B43F812107047505C004065
:103EA0000060004030B50E4C04EB8003D3F8003CBA
:103EB00048F6BF7403EA040201F010030BB182F06C
:103EC000100201F020030BB182F0200242F4004303
:103ED00043F08003024D05EB8004C4F8003C30BD84
:103EE0000050004010B50B4B03EB8002D2F8002CC1
:103EF00048F6BF7302EA030181F0100181F020014E
:103F000041F4004242F08002024C04EB8003C3F80B
:103F1000002C10BD0050004010B5074B03EB800291
:103F2000D2F8002C48F68F131A400A43024C04EBD7
:103F30008003C3F8002C10BD0050004010B500F005
:103F400001F810BD0CB500200190009033480068C6
:103F500040F480303149086000BF3048006800F408
:103F6000003000900198401C0190009818B9019809
:103F7000B0F5A06FF1D12948006800F4003010B10D
:103F80000120009001E0002000900098012843D11A
:103F90002348006840F01000214908600846006886
:103FA00020F0030008600846006840F00200086046
:103FB0001A48406819494860084640684860084601
:103FC000406840F4806048600846406820F47C10F7
:103FD00048600846406840F4E810486008460068B9
:103FE00040F08070086000BF0C48006800F000706E
:103FF0000028F9D00948406820F0030007494860CC
:104000000846406840F00200486000BF034840682E
:1040100000F00C000828F9D10CBD0000001002408F
:104020000020024010B50020FFF76CFC0121C805FC
:10403000FFF7DEFB10BD000038B5012429480068F9
:1040400080B2001D284931F8100080B201EB400019
:10405000009026480068007A092832D0009800783D
:104060002249096808700098401C00900098007868
:104070001E49096848700098401C0090009800EBA9
:1040800044000090009931F8020B0091FCF7DAFE31
:10409000164909684880009800EB44000090009998
:1040A00031F8020B0091FCF7CDFE104909688880B9
:1040B000009800EB44000090009800880B490968C4
:1040C000C880012009490968087208480068C0884A
:1040D00010B9FFF731FA01E0FDF714FAFFF706FB1C
:1040E00038BD0000505C004000600040EC00002043
:1040F0002DE9F04754480068007800F07F08B8F1D7
:10410000000F0AD150480068407A00F0DF004E49A5
:10411000096848720020BDE8F087B8F1020F7CD131
:1041200049480068408818B947480068007908B1D4
:104130000220F0E7DFF8149143480068477927F040
:1041400080052C4640480068407900F0800038B176
:104150003F4901EB8400D0F8000C00F0300606E087
:104160003B4901EB8400D0F8000C00F4405699F86C
:104170000000A84204D91EB133480068807A08B90B
:104180000220C8E707F0800080B1314901EB8400CC
:10419000D0F8000C00F0300010284BD1E0B2FCF752
:1041A000EFFFE0B23021FFF77DFE43E0284901EB4D
:1041B0008400D0F8000C00F44050B0F5805F39D195
:1041C000E4B9244A92F82C10E0B2FFF7EDFD204A42
:1041D00002EB8401D1F8001C4BF68F7201EA020059
:1041E00080F4805080F4005040F4004141F08001A0
:1041F000174B03EB8402C2F8001C1BE0E0B2FCF793
:10420000A5FF134A02EB8401D1F8001C4BF68F7214
:1042100001EA020080F4805000E011E080F40050D8
:1042200040F4004141F08001094B03EB8402C2F8E5
:10423000001C00BF084909684869804700206AE7F8
:1042400000BF022067E70000EC00002070010020A2
:104250000050004074010020F800002010B5044612
:104260002CB90120064909680882002010BD0549C3
:10427000096808688047024800680A30F6E70000CD
:10428000EC000020F800002010B502460648006847
:10429000438A32B98888C01A034C246820820020DF
:1042A00010BD08681844FBE7EC00002010B5044678
:1042B0002CB90120064909680882002010BD054973
:1042C000096888688047024800680C30F6E70000FB
:1042D000EC000020F800002010B504462CB90220A4
:1042E000394909680882002010BD0020374908803C
:1042F00035480068007800F07F0018BB3249096833
:10430000487A00F0200131B13049097841F00201CA
:104310002E4A117005E02D49097801F0FD012B4A64
:10432000117000F0400131B12849097841F00101D4
:10433000264A117005E02549097801F0FE01234A5B
:1043400011703AE020480068007800F07F000128F2
:1043500001D11E48C8E71C480068007800F07F00C3
:10436000022828D1184A1268517901F00F0001F093
:1043700080027AB1164B03EB8002D2F8002C02F0D7
:104380003002102A16D1114A127842F001020F4B66
:104390001A700FE00E4B03EB8002D2F8002C02F4EF
:1043A0004052B2F5805F05D1084A127842F001020E
:1043B000064B1A7001E0002096E706490968086973
:1043C0008047024890E70000EC000020E200002057
:1043D00000500040F800002010B50E480068C0787A
:1043E0000D494978884213DC0A480068807878B91A
:1043F00008480068808858B906480068C0780549B0
:10440000096888720549096848688047002010BD1E
:104410000220FCE7EC00002070010020F8000020E2
:1044200010B507480068407A40F020000449096848
:10443000487204490968C8698047002010BD00001F
:10444000EC000020F80000202DE9F0412E48006823
:10445000467926F080073C462B480068407900F0FA
:10446000800038B1294901EB8400D0F8000C00F03D
:10447000300506E0254901EB8400D0F8000C00F47B
:10448000405523480078A04208D91F48006840885A
:1044900020B91DB11C480068807A10B90220BDE81F
:1044A000F08106F08000A0B1184A02EB8401D1F837
:1044B000001C48F6BF7201EA020080F0100040F4D0
:1044C000004141F08001114B03EB8402C2F8001C53
:1044D00014E00E4A02EB8401D1F8001C4BF68F72F7
:1044E00001EA020080F4805040F4004141F0800174
:1044F000064B03EB8402C2F8001C00BF05490968A3
:10450000886980470020CAE7EC0000200050004086
:1045100070010020F800002010B5174B1B68D978F7
:10452000154B1B685879154B1B689A6990470446D0
:1045300011480068807AE8B13CB90F4800680079FA
:1045400018B90D480068807808B1022010BD8CB9F8
:104550000B490968C86880470748006840790649E0
:104560000968C87204480068C0780349096808737C
:104570000020EBE70220E9E7EC000020F00000203B
:10458000F800002038B50025002000902148006880
:1045900084B200BF09E0204901EB8500D0F8000C8F
:1045A00080B21E4941F825006D1C082DF3D344F458
:1045B00080641848046044F00104046024F001049D
:1045C000046000BF1348001D006800F480600028EC
:1045D000F8D04FF6FF300F49091D0860002509E0AB
:1045E0000E4850F8250080B20B4A02EB8501C1F855
:1045F000000C6D1C082DF3D344F00804054804603A
:10460000006884B244F0040402480460FDF7D4FE5C
:1046100038BD0000405C00400050004018110020F0
:10462000042808D14FF0E021096941F004014FF05E
:10463000E022116107E04FF0E021096921F0040157
:104640004FF0E022116170477047000010B5134829
:10465000006840F0010011490860084640681049B0
:1046600008400E494860084600680E4908400B495A
:1046700008600846006820F480200860084640680A
:1046800020F4FE0048604FF41F008860FFF756FCDE
:104690004FF000600449086010BD000000100240A7
:1046A0000000FFF8FFFFF6FE08ED00E010B5012165
:1046B000244800F0D2F8002843D00121214800F01E
:1046C000BDF8FEF7D1FD20480068401C1E49086077
:1046D0001E480068401C1D4908601B48006864288B
:1046E00012D10020184908601948007808B9012043
:1046F00000E00020164908700846007820B9012023
:10470000144908701449087010480068B0F57A7FA1
:1047100005D100200D49086001201049087010489B
:10472000FEF704FD0F48FEF701FD0F48FEF7FEFC03
:104730000E48FEF7FBFC0E48FEF7F8FC0D48FEF7AE
:10474000F5FC10BD000400401400002018000020FB
:104750001D0000201C000020200000201F00002061
:1047600024000020340000204400002054000020D9
:1047700064000020740000207FB505460C4601212E
:104780000220FFF735F8ADF80850ADF804400020DE
:10479000ADF80A00ADF8060001A90D4800F0C6F812
:1047A000012211460A4800F069F81D208DF800002A
:1047B00000208DF801008DF8020001208DF8030023
:1047C0006846FEF777FE0121014800F03AF87FBD08
:1047D0000004004070B504460D46092C00D970BD98
:1047E0001548065D072D23D2DFE805F02204090EE7
:1047F00013181D003146092000F0EEFD19E0314686
:10480000072000F0E9FD14E03146052000F0E4FD4A
:104810000FE03146112000F008FE0AE03146132077
:1048200000F003FE05E03146152000F0FEFD00E03B
:1048300000BF00BF00BFD2E767630008CA4302821F
:10484000704721B1028842F00102028004E0028830
:104850004FF6FE731A400280704730B502460020C2
:1048600000230024158A05EA0103958905EA01045D
:1048700013B10CB1012000E0002030BD1AB18389D2
:104880000B43838102E083898B438381704700005F
:1048900070B5002400220023058C4FF6FE763540CB
:1048A0000584028C8388048B4FF68F752C40B51ECF
:1048B0002C400D882C43751E2A400D892A434D88B3
:1048C0002A43144DA8420BD0134DA84208D0134DD3
:1048D000A84205D0124DA84202D0124DA84213D1D1
:1048E0004FF6F7752A404D892A434FF6FB752A404B
:1048F0008D882A434FF6FF652B404FF6FF552B401E
:104900008D892B43CD892B4383800483CD88858675
:10491000028470BD002C0140003401400040014081
:10492000004401400048014081867047002202880F
:104930001D4B98420ED01D4B98420BD0B0F1804FCA
:1049400008D01B4B984205D01A4B984202D01A4B04
:10495000984204D14FF68F731A404B881A43174B75
:10496000984207D0164B984204D04FF6FF431A40A6
:10497000CB881A4302808B8883850B8803850A4B7A
:1049800098420BD0094B984208D00E4B984205D064
:104990000D4B984202D00D4B984201D10B7A038601
:1049A0000123838270470000002C01400034014045
:1049B0000004004000080040000C004000100040CF
:1049C0000014004000400140004401400048014004
:1049D00070B540F22551244800F0C2F8002841D0BB
:1049E000214800F079F9C4B22048008800F4004062
:1049F000C0BB1E48008800F4804060B10A2C03D080
:104A000000201A4908802DE01848008840F4004032
:104A10001649088026E00D2C06D11448008840F481
:104A20008040124908801DE010480088C0F30D0046
:104A30000F490C540D480088401C0C49088008465A
:104A40000088C72801DD0020088040F22551064873
:104A500000F010F8044800F03FF9054629460248E6
:104A600000F03FF970BD000000380140E000002078
:104A7000600A002010B50022002340F66A14A1420B
:104A800000D100BF0A1201249440A3B2DC43048089
:104A900010BD21B1828942F40052828104E08289F2
:104AA0004DF6FF731A4082817047000010B5002058
:104AB0000E49A1F80204A1F800040D4908800D4830
:104AC00001790DA000F04AFD0A48417910A000F0DC
:104AD00045FD0848817915A000F040FD05480168B2
:104AE00019A000F03BFD012010BD0000440B002088
:104AF00000010020680100206C696E65636F6469C5
:104B00006E672E666F726D61743A25640D0A00003F
:104B10006C696E65636F64696E672E70617269742B
:104B200079747970653A25640D0A00006C696E65C8
:104B3000636F64696E672E64617461747970653A3D
:104B400025640D0A000000006C696E65636F64697E
:104B50006E672E626974726174653A25640D0A008D
:104B600070B50246002400230025002040F66A1696
:104B7000B14200D100BFC1F3421501F01F0301266D
:104B800006FA03F3012D02D19689334006E0022D87
:104B900002D1168A334001E0968A33400C12012676
:104BA00006FA04F41688344013B10CB1012000E079
:104BB000002070BDF0B5034600240026002500202B
:104BC00040F66A17B94200D100BF1846C1F342143B
:104BD00001F01F06012707FA06F5012C01D10C3060
:104BE00004E0022C01D1103000E014301AB1076843
:104BF0002F43076002E00768AF430760F0BD000085
:104C00002DE9F04786B005460E460024A24600BFB7
:104C1000A1460027B08900B100BF2F462C8A4CF670
:104C2000FF700440F08804432C82AC894EF6F310E8
:104C30000440B08831890843718908430443AC813A
:104C4000AC8A4FF6FF400440B0890443AC8201A80F
:104C5000FEF7EEFD1F48874202D1DDF810A001E00B
:104C6000DDF80CA0A88900F4004040B10AEBCA00AE
:104C700000EB0A1031684900B0FBF1F807E00AEBDD
:104C8000CA0000EB0A1031688900B0FBF1F864201B
:104C9000B8FBF0F004012009642101FB1089A88908
:104CA00000F4004040B1322000EBC900B0FBF1F04D
:104CB00000F00700044308E0322000EB09106421F3
:104CC000B0FBF1F000F00F0004432C8106B0BDE80A
:104CD000F08700000038014001468888C0F30800D2
:104CE0007047C1F308028280704710B54FF48020EE
:104CF000FDF712FB10BD000010B504461CB104A066
:104D000000F02CFC02E008A000F028FC10BD000020
:104D10007573622070756C6C20757020656E6162B1
:104D20006C650D0A000000007573622070756C6C74
:104D30002075702064697361626C650D0A00000063
:104D400010B5084808490860022009680872074839
:104D50000749086007480849086005490968086864
:104D6000804710BD280B0020EC00002074010020BB
:104D7000F0000020A4010020F80000200EB54FF440
:104D80008020FDF7C9FA4FF48020009008208DF8AC
:104D9000050001208DF806006846FDF7C3FA1420CF
:104DA0008DF8080001208DF8090000208DF80A0018
:104DB00001208DF80B0002A8FEF77CFB2A208DF85D
:104DC000080000208DF8090002A8FEF773FB0EBD55
:104DD00010B588B000246948006869490880084611
:104DE000008800F4007067490988084050B14FF608
:104DF000FF506249086064480078401C62490870AE
:104E0000FEF700FE5E48008800F400405D49098816
:104E1000084008B1FCF71CF85948008800F480608D
:104E200058490988084030B14FF6FF3053490860AF
:104E30005649486880475248008800F4005051495C
:104E40000988084018B14DF6FF704C4908604C487D
:104E5000008800F480504B490988084030B14EF674
:104E6000FF70464908600020FEF752FD4448008864
:104E700000F4006043490988084060B14448007864
:104E800010B1FFF77FFB02E00220FEF741FD4FF279
:104E9000FF703A4908603A48008800F48070394948
:104EA00009880840002866D04FF6FF603349086043
:104EB000081D006800F40040002856D035480068FE
:104EC000401C3449086008460068032850D92B4824
:104ED000001F006800F00800002849D12748001F83
:104EE000006880B22C490860002408E02B4901EBDF
:104EF0008400D0F8000C80B24DF82400641C082C0B
:104F0000F4D32548006840F00100234908600846B2
:104F1000006880B21949091F08601F48006820F026
:104F200001001D4908600846006880B21349091F46
:104F3000086000BF1148006800F480600028F9D0C4
:104F40004FF6FF300D490860002408E05DF82400AA
:104F500080B2124A02EB8401C1F8000C641C082CD8
:104F6000F4D300200B49086002E0002009490860E2
:104F70000720FEF7CDFC08B010BD0000445C0040E7
:104F800020010020F60000202201002074010020F2
:104F9000FC010020240100202801002000500040D6
:104FA00010B5FFF715FF10BD10B504460121042010
:104FB000FEF72EFC3CB10F48006880B220F00200E2
:104FC0000C49086014E00B48006880B240F0020011
:104FD000084908600848006820F47F2006490860F6
:104FE0000846006840F44C3008600020034908601F
:104FF00010BD0000405C004004080140B0012142A7
:105000000020064908604FF43F40054908800846E3
:1050100000880249091F086000207047445C004076
:10502000F60000202DE9F04104460E46002504F06C
:105030007F00FDF753FB054604F07F00FDF73EFBC4
:1050400007462A4639463046FEF73AFB2846BDE871
:10505000F081000030B503460A46002133E0585C79
:105060001A4C248804F400445CBB184C248804F4D3
:10507000804464B10A2803D00024144D2C8020E021
:10508000124C248844F40044104D2C8019E00D2863
:1050900006D10E4C248844F480440C4D2C8010E042
:1050A0000A4C2488C4F30D04094D2855074C248864
:1050B000641C064D2C802C462488C72C01DD00245E
:1050C0002C804C1CE1B29142C9DB30BD00010020B4
:1050D000101000202DE9F04107460C4616463846D0
:1050E000FDF74AFB05460EB1254300E0A5432946DE
:1050F000384600F0AFF9BDE8F08100BFFEE710B51B
:105100000020FFF751FF642000F062FF0120FFF74D
:105110004BFFFEF787FFFFF731FEFFF711FE10BDD3
:10512000F0B5144604F1010C4FEA6C07DFF824C017
:105130000CEB41033D460AE00678401C90F800C0A5
:1051400046EA0C2223F8022B9B1C401C6D1E002DEE
:10515000F2D1F0BD0060004070B504460025212C5E
:1051600008D112480068007800F07F0021280ED195
:105170000F4D0CE0202C0AD10C480068007800F09C
:105180007F00212800D10B4D20200B4908700DB95C
:10519000022070BD05480068856100210348006851
:1051A00041820020A8470020F3E70000EC00002027
:1051B000E5510008755300086401002010B504464D
:1051C00002492046FFF760F810BD0000D001002022
:1051D00010B5044602492046FFF756F810BD0000FE
:1051E000C8010020014629B90820034A126810822C
:1051F000002070470148FCE7EC0000206801002017
:1052000070B5054606480068C478042C01DD00200E
:1052100070BD044800EBC4012846FFF735F8F7E7F6
:10522000EC000020D80100200246002901DD022008
:105230007047012A01DD0220FAE70020F8E70000AC
:10524000014608480068007800F07F00212807D157
:10525000022901D100207047222901D10020FAE75C
:105260000220F8E7EC00002010B50020344909685E
:1052700088723448C0793249096848720020304940
:105280000968C872FEF74EFD4FF400710020FEF76A
:1052900043FE10210020FEF705FE40210020FEF70E
:1052A00071FD80210020FEF7DFFD0020FBF7AEFF3F
:1052B000254890F82C100020FEF776FD0020FEF720
:1052C000B9FD00210120FEF727FEC0210120FEF7D5
:1052D000CBFD20210120FEF7E5FD00210120FEF796
:1052E00089FD4FF4C0610220FEF716FE4FF4807175
:1052F0000220FEF7B9FD00210220FEF77BFD2021F0
:105300000220FEF7CFFD00210320FEF705FE4FF43B
:1053100088710320FEF736FD40210320FEF744FD8F
:105320004FF440510320FEF765FD00210320FEF7F6
:10533000B9FD0020FEF7FEFC01200449086010BD05
:10534000EC0000208463000874010020F8010020B4
:105350000348817A11B10521024A116070470000AB
:10536000280B0020F8010020042001490860704744
:10537000F8010020014629B90820034A126810826A
:10538000002070470148FCE7EC0000206801002085
:1053900010B505480078202804D1FFF787FB0020CE
:1053A0000149087010BD0000640100207047000032
:1053B00010B5FDF7C7F90020054909688872FEF7A6
:1053C000B9F9FFF71DFE00200249086010BD00007A
:1053D000EC000020F80100202DE9F04104460D46C4
:1053E0002746002608E02946384600F099F8781C40
:1053F000C7B22D11701CC6B2022EF4DBBDE8F081DD
:105400002DE9F04104460D462746002609E02946CD
:10541000384600F085F8A7F11D00C7B22D11701CA9
:10542000C6B2022EF3DBBDE8F0812DE9F04104465F
:105430000D462746002608E02946384600F070F859
:10544000781EC7B22D11701CC6B2022EF4DBBDE867
:10545000F081000070B504460D464FF400410B4842
:10546000FDF727F90321A020FDF7F2F9A106080EA8
:105470000721FDF7EDF908212846FDF715FA4FF44D
:1054800000410248FDF717F970BD0000000C014013
:105490002DE9F04104460D462746002608E029463E
:1054A000384600F01FF8781CC7B22D11701CC6B228
:1054B000022EF4DBBDE8F0812DE9F04104460D46F3
:1054C0002746002609E02946384600F00BF8A7F1E8
:1054D0001D00C7B22D11701CC6B2022EF3DBBDE851
:1054E000F081000070B504460D464FF400410B48B2
:1054F000FDF7DFF80321A020FDF7AAF9A106080EA9
:105500000721FDF7A5F904212846FDF7CDF94FF451
:1055100000410248FDF7CFF870BD0000000C0140CB
:1055200070B504460D464FF400410B48FDF7C1F835
:105530000321A020FDF78CF9A106080E0721FDF735
:1055400087F92907080E0821FDF7AEF94FF400414D
:105550000148FDF7B0F870BD000C01400FB4054BD9
:1055600010B503A9044A029800F0DAF810BC5DF8FF
:1055700014FB000069600008DC00002002E008C89D
:10558000121F08C1002AFAD170477047002001E0BD
:1055900001C1121F002AFBD1704700002DE9FF5FF7
:1055A00082B00021DDE90430020DDDF840B0034394
:1055B00018D044F61050A2F2FF324243151411984D
:1055C00001281FD0A5EB0B00401C5FEA000A4FF03A
:1055D00000064E4FDFF83891B046504615D5CAF157
:1055E000000413E0119801244AA3012801D16FEAB5
:1055F0000B010298119AC0E90031C0E9024206B0DD
:10560000BDE8F09FCBF10000DFE704460021404AEF
:10561000491842EB0450CDE9001012E0E00707D032
:1056200032463B4640464946FAF7B7FE8046894631
:1056300032463B4610461946FAF7AFFE06460F467D
:105640006410002CEAD1DDE90401DDE90023BAF1A0
:10565000000F06DAFAF7A1FE42464B46FAF79DFE26
:1056600005E0FAF70CFF42464B46FAF708FF0446FE
:105670000E460022284BFBF7F3F803D84FF0FF301B
:10568000014607E00022254B20463146FAF7DEFDB1
:10569000FBF7CEF8102409E0002C0ADB0A220023D5
:1056A000FAF7E0FF039B30321A55641E50EA0102FC
:1056B000F2D1641C039AC4F111031444119A012A13
:1056C00003D0012208430DD10AE0084304D0002092
:1056D0004FF0110B119072E7A3EB0B056D1E0DE05F
:1056E0005B4504DD4FF0000205F1010504E003DA3B
:1056F0004FF00002A5F10105002AECD002981199A3
:10570000C0E90231C0E9004579E70000000014401B
:105710000000F03F300000000000F0430000E03FD8
:105720002DE9FF4F95B09A46884606460025EEE1E2
:10573000252877D100242746F94A0121039400E067
:10574000044316F8013F203B01FA03F01042F7D161
:1057500030782A2811D06FF02F033078A0F1300272
:10576000092A16D8039A44F0020402EB820203EBE2
:1057700042021044761C0390EFE758F8042B039282
:10578000002A03DA504244F40054039044F0020427
:10579000761C30782E2816D116F8010F44F0040438
:1057A0002A280DD06FF02F023078A0F13003092B9A
:1057B00009D807EB870302EB4303C718761CF3E70E
:1057C00058F8047B761C30786C280FD006DC4C2807
:1057D00017D068280DD06A2814D104E0742810D09E
:1057E0007A280FD10DE044F400140AE044F4801448
:1057F00001E044F440147278824202D104F580142E
:10580000761C761C307866280BD013DC582877D0AD
:1058100009DC002875D04528F6D04628F4D0472862
:105820001AD193E118E0632835D0642879D065282F
:1058300012D18BE1702873D008DC6728F1D0692879
:105840006FD06E280DD06F2806D1ACE073282CD015
:10585000752874D0782853D05246179990476D1CFC
:1058600054E1C4F30250022809D003280DD0D8F81F
:10587000001004280DD00D6008F1040846E1D8F8A6
:105880000010EA17C1E90052F6E7D8F800100D80C1
:10589000F2E70D70F0E718F8041B8DF800100020F7
:1058A0008DF80100EB46012003E058F804BB4FF0EF
:1058B000FF3061074FF0000102D40DE009F1010152
:1058C0008946B9420FDA8145F8DB1BF80910002937
:1058D000F4D108E009F1010189468142FADB1BF8A5
:1058E00009100029F6D103985346A0EB0907214679
:1058F0003846179A00F080FA284400EB090507E0C3
:1059000044E008E10DE01BF8010B5246179990475F
:10591000B9F10109F7D2534621463846179AF2E009
:1059200039E00A21C4F302524FF0000B0091022A21
:1059300006D058F8040BC117032A09D00AE023E067
:1059400008F1070020F00702F2E80201904605E0A6
:1059500000B2C117042A01D140B2C117002906DAEA
:105960000A460021404261EB02012D2202E022059D
:1059700004D52B228DF80420012203E0E20701D098
:105980002022F7E7914657E00A2100E010214FF06E
:10599000000B00910BE010214FF0000B44F00404C9
:1059A0000827009103E008204FF0000B0090C4F39B
:1059B0000252022A05D058F8040B0021032A08D00D
:1059C00008E008F1070020F00702F2E80201904623
:1059D00003E080B2042A00D1C0B24FF000092207D0
:1059E0002AD53278702A07D0DDF800C08CF0100C70
:1059F0005CEA0B0C05D00EE040228DF80420012259
:105A000008E050EA010306D030238DF804308DF809
:105A1000052002229146009B83F0080353EA0B0302
:105A20000AD150EA010201D1620705D530228DF872
:105A300004204FF001097F1E3278582A04D039A281
:105A40000C920CAA02920BE03BA2F9E75B46009A8B
:105A5000FAF708FE0C9B9B5C029A521E029213708E
:105A600050EA0102F2D1029804A9081A00F1200BB1
:105A7000600702D524F4803400E001275F4502DD91
:105A8000A7EB0B0000E0002000EB0B010090039857
:105A90004944401A0390E00306D453462146179A1E
:105AA000039800F0A9F90544002706E001A8524632
:105AB000C05D179990476D1C7F1C4F45F6DBE003D6
:105AC0000CD553462146179A039800F095F90544E2
:105AD00004E030205246179990476D1C0099481EEB
