:020000040800F2
:10000000F80B0020A11000082504000827040008B0
:100010002B0400082F04000833040008000000002F
:10002000000000000000000000000000370400088D
:1000300039040008000000003B040008B910000863
:10004000BB100008BB100008BB100008BB10000864
:10005000BB100008BB100008BB100008BB10000854
:10006000BB100008BB100008BB100008BB10000844
:10007000BB100008BB100008BB100008BB10000834
:10008000BB100008BB100008BB100008BB10000824
:10009000BB100008BB100008BB100008BB10000814
:1000A000BB100008BB100008BB100008BB10000804
:1000B000BB100008BB100008BB100008BB100008F4
:1000C000BB100008BB100008BB100008BB100008E4
:1000D000BB100008A9220008BB100008BB100008D4
:1000E000BB100008BB100008BB10000800F002F8AD
:1000F00000F04AF80AA090E8000C82448344AAF178
:100100000107DA4501D100F03FF8AFF2090EBAE875
:100110000F0013F0010F18BFFB1A43F0010318473B
:100120003C5E00005C5E0000103A24BF78C878C1D5
:10013000FAD8520724BF30C830C144BF04680C60ED
:10014000704700000023002400250026103A28BF35
:1001500078C1FBD8520728BF30C148BF0B60704739
:10016000662903F06787642902F026810020704722
:100170001FB502F0DBFB04000020002103F03CF976
:10018000E0601FBD10B510BD02F0ECFC1146FFF79A
:10019000EFFF00F089F802F00AFD03B4FFF7F2FF69
:1001A00003BC02F027F800002DE9F04104460E469A
:1001B00017464FF47A7096FBF0F0303004EB840170
:1001C0007E4A50544FF47A7096FBF0F100FB1160B8
:1001D000642190FBF1F0303004EB8401114448704D
:1001E000642096FBF0F100FB11600A2190FBF1F016
:1001F000303004EB8401114488700A2096FBF0F142
:1002000000FB1160303004EB84011144C8706C496C
:10021000384603F043FE804603F00CFE054669486D
:10022000854200DC054667484042854200DB0546C2
:10023000002D07DA2D2004EB4401634A02F8110077
:100240006D4205E0202004EB44015F4A02F81100F2
:1002500042F2107095FBF0F0303004EB44015A4A42
:1002600002EB4101487042F2107095FBF0F100FB87
:1002700011504FF47A7190FBF1F0303004EB4401EF
:1002800002EB410188704FF47A7095FBF0F100FBAE
:100290001150642190FBF1F0303004EB440102EB8B
:1002A0004101C870BDE8F0811CB501F033FF01F0D9
:1002B0009BFF4FF4E13001F0ABFF00F0AFF900F02D
:1002C00043FE002000F090FA002000F09BFA00F0BE
:1002D000CBFA40F6C41001F05AFF00F0E8FA6CE0E7
:1002E000002464E00CB9002000E002200646F0B2D1
:1002F000142100F0F7F98146484603F0B7FD0746A0
:10030000324A334900F005FA0546284603F0A4FCBA
:100310004A46CDE9000131462EA002F00DF82A46EA
:1003200049462046FFF740FF00F0C1FA00201023A5
:1003300034A21946009000F058FC002010231F4AF8
:1003400019460090482000F050FC002010232FA2F6
:100350002021009000F049FC002010231A4A20219F
:100360000090482000F041FC0020102329A23021F9
:10037000009000F03AFC00201023104A521D30215A
:100380000090482000F031FC0020102323A24021DF
:10039000009000F02AFC002010230B4A921D4021FF
:1003A0000090482000F021FC00F05EFA641C022C52
:1003B00098DB4FF4FA7001F0EAFE91E73400002078
:1003C00000007A446179FEFF3E000020CDCC4C3C19
:1003D0003D0AB73F4368616E6E656C2025643A2024
:1003E000566F6C746167653A202564206D562C2029
:1003F00050726573737572653A202566206D62616F
:10040000720D0A0043485F303A0000005072655F89
:10041000303A000043485F323A0000005072655F96
:10042000323A0000704700BFFEE700BFFEE700BFA2
:10043000FEE700BFFEE77047704770470CB500202D
:10044000019000906C48006840F480306A49086070
:1004500000BF6948006800F4003000900198401C1B
:100460000190009818B90198B0F5A06FF1D16248D9
:10047000006800F4003010B10120009001E000207D
:1004800000900098012843D15C48006840F01000BB
:100490005A4908600846006820F0030008600846D2
:1004A000006840F0020008605348406852494860C4
:1004B0000846406848600846406840F480604860EC
:1004C0000846406820F47C1048600846406840F4C4
:1004D000E81048600846006840F08070086000BF7F
:1004E0004548006800F000700028F9D04248406894
:1004F00020F00300404948600846406840F0020090
:10050000486000BF3C48406800F00C000828F9D162
:100510000CBD10B5FFF792FF10BD10B5364800684E
:1005200040F00100344908600846406834490840FA
:100530003149486008460068324908402E49086041
:100540000846006820F4802008600846406820F4CF
:10055000FE0048604FF41F008860FFF7DAFF4FF09D
:1005600000602949086010BD10B50021002000225C
:10057000214B5B6803F00C0121B1042906D0082946
:1005800028D107E0214B224C236027E01F4B204C51
:10059000236023E0184B5B6803F47010164B5B6814
:1005A00003F48032022303EB904022B9194B4343FA
:1005B000174C23600DE0104B5B6803F4003323B14C
:1005C000144B4343124C236003E0104B4343104C45
:1005D000236003E00D4B0E4C236000BF00BF064BB1
:1005E0005B68C3F303130C4CE15C094B1B68CB4005
:1005F000074C236010BD00000010024000200240A4
:100600000000FFF8FFFFF6FE08ED00E000127A00A0
:100610000000002000093D000400002000B587B064
:1006200001214FF4017001F0E5F84FF4004001F0B2
:1006300045F80120ADF8040000208DF8070001A95D
:100640004B4800F01BFE0420ADF8040000208DF89C
:10065000070001A9464800F011FE464801F032FBB0
:100660000020029001208DF80C008DF80D004FF451
:10067000602004900020059003208DF8180002A946
:100680003C4801F046FB01213A4801F06EFB394835
:1006900001F08DFB00BF374801F08EFB0028FAD136
:1006A000344801F093FB00BF324801F094FB00286E
:1006B000FAD107B000BD10B5044607230122214638
:1006C0002C4801F0BEFB01212A4801F08EFB00BF3F
:1006D0000221284801F0FAFC0028F9D0254801F051
:1006E00017FC10BD2DE9F04107460C4600250026F9
:1006F00008E03846FFF7DFFF0544052001F047FD1D
:10070000701CC6B2A642F4DBB5FBF4F080B2BDE8C3
:10071000F0812DE9F74F88B08A469346584603F09A
:100720009BFACDE90601504603F096FACDE90201A5
:100730004FF08B41089803F0BBFA019003F08CFA5C
:1007400080464FF066320C4B03F09EF80646DDE91A
:10075000022303F097F9CDE90401DDE9062302F055
:100760003BFF044602F05EFE0BB0BDE8F08F0000D8
:10077000000801400024014066660A4070B5044646
:100780000E4626B10221F94800F025FE03E00221C1
:10079000F64800F022FE1021F54800F01EFE00256C
:1007A00017E01021F34800F018FE04F0800020B19B
:1007B0002021F04800F00FFE03E02021ED4800F07A
:1007C0000CFE1021EB4800F006FE6006040E681CCB
:1007D000C5B2082DE5DB1021E54800F0FCFD022143
:1007E000E24800F0F8FD70BD10B504461CB90021C8
:1007F000A620FFF7C3FF012C03D10021A720FFF79C
:10080000BDFF10BD10B504463CB90021C820FFF75C
:10081000B5FF0021A120FFF7B1FF012C07D1002176
:10082000C020FFF7ABFF0021A020FFF7A7FF10BDFE
:1008300010B500218D20FFF7A1FF00211420FFF744
:100840009DFF0021AF20FFF799FF10BD10B50021DB
:100850008D20FFF793FF00211020FFF78FFF00216D
:10086000AE20FFF78BFF10BD70B500241CE004F133
:10087000B001C8B20021FFF781FF00210220FFF77D
:100880007DFF00211020FFF779FF002508E0BA491D
:1008900001EBC501085D0121FFF770FF681CC5B2BF
:1008A000802DF4DB601CC4B2082CE0DB70BD70B599
:1008B00000240CE0002506E00020AF4901EBC50153
:1008C0000855681CC5B2802DF6DB601CC4B2082C2C
:1008D000F0DBFFF7C9FF70BDF0B514460B46CF172C
:1008E00001EB5777C7F3C702CF1701EB5777FF101C
:1008F000A1EBC707FEB20123B340DDB24CB19E4B62
:1009000003EBC0039B5C2B439B4F07EBC007BB541F
:100910001AE0994B03EBC0039B5CDB43964F07EB5C
:10092000C007BB54944B03EBC0039B5C2B43924F1B
:1009300007EBC007BB54904B03EBC0039B5CDB434E
:100940008D4F07EBC007BB54F0BD2DE9FF4F84B0BE
:1009500081468A460020029083460698A0EB09044F
:100960000798A0EB0A06CDF80490CDF800A0002C63
:1009700001DD012705E00CB9002702E04FF0FF3749
:100980006442002E02DD4FF0010806E016B94FF078
:10099000000802E04FF0FF386642B44201DD254610
:1009A00000E03546002003901EE0009AD1B2019A83
:1009B000D0B2119AFFF790FF029820440290B344FE
:1009C0000298A84205DD0298401B02900198384425
:1009D0000190AB4504DDABEB050B00984044009063
:1009E0000398401C80B20390691C03988842DCDBAA
:1009F00008B0BDE8F08F2DE9F04306460F4690465B
:100A00000025444643E03A1BD1B27219D0B201220C
:100A1000FFF762FF3A1BD1B2721BD0B20122FFF77F
:100A20005BFF3A19D1B2721BD0B20122FFF754FF1B
:100A30003A19D1B27219D0B20122FFF74DFF7A19DB
:100A4000D1B23219D0B20122FFF746FF7A1BD1B2E0
:100A50003219D0B20122FFF73FFF7A1BD1B2321B0D
:100A6000D0B20122FFF738FF7A19D1B2321BD0B2CF
:100A70000122FFF731FF6D1C05FB05F004FB0400AC
:100A800008FB1809B9F1000F01DD641E6D1E60003E
:100A9000604308FB08F18842B5DABDE8F0832DE930
:100AA000FE4F0746884692461C460197CDF80080C7
:100AB000082C02D14FF006091FE02046E31704EB93
:100AC0005373DB1021464FEAE47C04EB5C7C4FEA75
:100AD000EC0CA4EBCC0CBCF1000F02D04FF0010CDD
:100AE00001E04FF0000C6344224604EBD27C4FEA55
:100AF0006C0C03FB0CF303F0FF09AAF12000C6B253
:100B000000256EE0082C07D106EB46001B4901EBDF
:100B1000400010F805B01DE00C2C07D106EB460094
:100B2000174901EB800010F805B013E0102C05D137
:100B3000144800EB061010F805B00BE0182C07D194
:100B400006EBC600104901EB800010F805B001E08B
:100B5000BDE8FE8F002002902CE00BF00100A8B150
:100B6000414638460C9AFFF7B7FE19E0000C0140E9
:100B700000080140001001404A00002038400008F1
:100B800060420008D4460008C44C00080C9808B91C
:100B9000012000E00020024641463846FFF79CFE57
:100BA0004FEA6B0B08F1010000F0FF080298401CAF
:100BB000C0B2029002980828CFDB781CC7B2082C7C
:100BC0000BD004EBD4714A100199791A8A4204D1EE
:100BD000019F00980830C0B20090DDF80080681CCA
:100BE000C5B24D458EDB00BFB2E72DE9F8410646A0
:100BF0000F4614461D46DDF81C8013E0CDF800803A
:100C000022782B4639463046FFF749FF082D02D19E
:100C1000B01DC6B205E0284605EBD07106EB6101B8
:100C2000CEB2641C2078202802DB20787E28E5DD07
:100C3000BDE8F88110B50246012000E050430B1ECC
:100C4000A1F10104E1B2F9D110BD2DE9FF4F82B04D
:100C5000064691461F46DDE90F4A4FF0000B082C6F
:100C600001D14FF0020B002530E0781B401EC1B2CD
:100C70000A20FFF7DFFFB9FBF0F00A21B0FBF1F229
:100C800001FB1208B8F1000F0ED104EBD4710BEB8D
:100C9000610101FB0561C8B223463022CDE900A401
:100CA0000399FFF7FCFE0FE004EBD4710BEB61013D
:100CB00001FB0561C8B208F13001CAB22346CDE993
:100CC00000A40399FFF7EBFE681CC5B2BD42CCDB64
:100CD00006B0BDE8F08F2DE9FC4F07468846164662
:100CE0001C46BB46CDF804802046E21704EB527246
:100CF000D2102146E31704EB5373DB10A4EBC303BC
:100D00000BB1012300E000231A44624392B2009227
:100D1000002555E0102C05D1DA4800EB461010F8FC
:100D200005A01BE0182C07D106EBC600D64901EB45
:100D3000C00010F805A011E0202C05D1D34800EB2D
:100D4000C61010F805A009E0402C05D1D04800EBF2
:100D5000462010F805A001E0BDE8FC8F4FF0000927
:100D60001CE00AF0010028B1414638460B9AFFF713
:100D7000B3FD09E00B9808B9012000E0002002460D
:100D800041463846FFF7A8FD4FEA6A0A08F101001C
:100D900000F0FF0809F1010000F0FF09B9F1080FA8
:100DA000DFDB781CC7B2A7EB0B00A04204D15F4683
:100DB00001980830C0B20190DDF80480681C85B24B
:100DC00000988542A6DB00BFC6E708B58046894685
:100DD0009246002600274BE04FB9102332461821D7
:100DE0008020CDF800A0FFF776FF701CC6B2464504
:100DF00022D14FF0000B1AE0012410E000250AE098
:100E0000A44800EBC400415D601EA24A02EBC00092
:100E10004155681CC5B2082DF2DB601CC4B2902C91
:100E2000ECDBFFF721FD0BF1010000F0FF0B4FEAB7
:100E300009105845E0DC0026781CC7B2102F00D1FD
:100E40000027012410E000250AE0924800EBC400CE
:100E5000415D601E8F4A02EBC0004155681CC5B25F
:100E6000082DF2DB601CC4B2902CECDBFFF7FCFC1D
:100E7000B2E72DE9FF4F05460E4617461C46DDF842
:100E800038904FF0000A0095B3462046E21704EB75
:100E90005272D2102146E31704EB5373DB10A4EB1C
:100EA000C3030BB1012300E000231A44D4B24FF076
:100EB000000845E0002003903BE00D9810F80A0080
:100EC00002900AF101001FFA80FA002001901DE053
:100ED000029800F0010028B14A4631462846FFF743
:100EE000FBFC0AE0B9F1000F01D1012000E0002075
:100EF000024631462846FFF7EFFC02984010029068
:100F0000701CC6B20198401CC0B20190019808281C
:100F1000DEDB681CC5B20098281AB84204D1009DD7
:100F20000BF1080000F0FF0B5E460398401CC0B2B6
:100F300003900398B842C0DB08F1010000F0FF08FD
:100F4000A045B7DBBDE8FF8F08B501213C2000F0CC
:100F500051FC3020ADF8000010208DF80300032074
:100F60008DF8020069464C4800F088F930214A4863
:100F700000F031FA0320ADF800006946474800F060
:100F80007DF90321454800F026FA0121434800F08D
:100F900024FAC82001F0FBF80121404800F01BFAB8
:100FA0000021AE20FFF7EAFB00210220FFF7E6FB5D
:100FB00000211020FFF7E2FB00214020FFF7DEFBBD
:100FC0000021B020FFF7DAFB00218120FFF7D6FBDC
:100FD0000021CF20FFF7D2FB0021A120FFF7CEFB9D
:100FE0000021A620FFF7CAFB0021A820FFF7C6FBBF
:100FF00000213F20FFF7C2FB0021AD20FFF7BEFB21
:1010000000218B20FFF7BAFB00213320FFF7B6FB4E
:101010000021C820FFF7B2FB0021D320FFF7AEFB71
:1010200000210846FFF7AAFB0021D520FFF7A6FB09
:1010300000218020FFF7A2FB0021D920FFF79EFBB3
:1010400000211F20FFF79AFB0021DA20FFF796FB13
:1010500000211220FFF792FB0021DB20FFF78EFB1F
:1010600000214020FFF78AFBFFF721FC0021AF2081
:10107000FFF784FB08BD10B5044621464020FFF76A
:101080007DFB10BD205A0008005C0008485C000889
:10109000C85C00084A00002000100140000C01401C
:1010A0000948804709480047FEE7FEE7FEE7FEE7FC
:1010B000FEE7FEE7FEE7FEE7FEE7FEE70448054938
:1010C000054A064B704700001B050008ED000008AC
:1010D000F8050020F80B0020F8070020F807002092
:1010E00031490143314A1160704770B50021002336
:1010F0000F22C47804B32D4C246804F4E064C4F5D2
:10110000E064210AC1F10403CA40447804FA03F1FF
:101110008478144021430901254C0678A1550478B0
:1011200004F01F050124AC4005786D11AD0005F1F8
:10113000E025C5F8004109E0047804F01F0501240A
:10114000AC401C4D0678761145F8264070BD1A4A11
:101150000A400243154B1B1F1A60704739B1134AEE
:10116000121D12680243114B1B1D1A6006E00F4A44
:10117000121D126882430D4B1B1D1A607047042814
:1011800008D14FF0E021096941F004014FF0E0225D
:10119000116107E04FF0E021096921F004014FF0EF
:1011A000E0221161704700000000FA050CED00E03C
:1011B00000E400E080E100E080FFFF1F10B504467E
:1011C000CC48844208D10121042000F02DFB0021ED
:1011D000042000F029FB46E0C748844208D10121E1
:1011E000082000F021FB0021082000F01DFB3AE060
:1011F000C248844208D10121102000F015FB0021D3
:10120000102000F011FB2EE0BD48844208D10121DE
:10121000202000F009FB0021202000F005FB22E047
:10122000B848844208D10121402000F0FDFA002195
:10123000402000F0F9FA16E0B348844208D10121B9
:10124000802000F0F1FA0021802000F0EDFA0AE0A1
:10125000AE48844207D10121801500F0E5FA002153
:10126000A01500F0E1FA10BD10B50121084600F00C
:10127000DBFA0021012000F0D7FA10BD2DE9F04182
:10128000024600250026002000230024002791F8B4
:1012900003C00CF00F0591F803C00CF0100CBCF16A
:1012A000000F03D091F802C04CEA050591F800C088
:1012B000BCF1000F31D0146800202BE04FF0010C7E
:1012C0000CFA00F3B1F800C00CEA03069E4220D1EC
:1012D00083004FF00F0C0CFA03F7BC4305FA03FC34
:1012E0004CEA040491F803C0BCF1280F06D14FF07A
:1012F000010C0CFA00FCC2F814C00AE091F803C01B
:10130000BCF1480F05D14FF0010C0CFA00FCC2F8FB
:1013100010C0401C0828D1D31460B1F800C0BCF143
:10132000FF0F34DD546800202EE000F1080C4FF070
:10133000010808FA0CF3B1F800C00CEA03069E425B
:1013400021D183004FF00F0C0CFA03F7BC4305FAD0
:1013500003FC4CEA040491F803C0BCF1280F05D14A
:1013600000F1080C08FA0CF8C2F8148091F803C0D8
:10137000BCF1480F07D100F1080C4FF0010808FA42
:101380000CF8C2F81080401C0828CED35460BDE889
:10139000F0814FF6FF710180022181700421C1703C
:1013A00070470246002093680B400BB1012000E01B
:1013B000002070470146886880B2704702460020CE
:1013C000D3680B400BB1012000E0002070470146BC
:1013D000C86880B2704701617047416170470AB1C7
:1013E000016100E041617047C16070474FF4803295
:1013F0000A43826181618261826982697047024623
:101400000020434B18684FF68073184040EA0210E2
:1014100008433F4B186070473E49C8617047F0B5BC
:101420000A46002300240021002500F00046B6F102
:10143000004F02D1364EF16901E0354E7168C0F3BC
:10144000034583B200F44016B6F5401F08D121F0E1
:1014500070612F4E766826F070662D4F7E6012E028
:1014600000F48016B6F5801F06D1032606FA05F4AF
:10147000A14341F0706106E0460D360103FA06F61D
:10148000B14341F0706122B1460D360103FA06F610
:10149000314300F00046B6F1004F02D11C4EF1611D
:1014A00001E01B4E7160F0BD30B500228B071C0FB0
:1014B0000F2303FA04F2164B08338C1053F8243030
:1014C0009343134C08348D1044F8253023468C1078
:1014D00053F824308C07240F00FA04F423430C4CF7
:1014E00008348D1044F8253030BD0A49DC310860DD
:1014F0007047000000080140000C0140001001404E
:101500000014014000180140001C0140002001406F
:101510000000014000002042DF48006840F0010068
:10152000DD49086008464068DC490840DA494860FF
:1015300008460068DA490840D7490860084600684C
:1015400020F4802008600846406820F4FE004860CF
:101550004FF41F0088607047CF49096821F480313B
:10156000CD4A11601146096821F480211160B0F55F
:10157000803F03D0B0F5802F0ED106E0C649096840
:1015800041F48031C44A116007E0C349096841F45D
:10159000A021C14A116000E000BF00BF704710B534
:1015A00001460022002300204A11012A02D1BA4C30
:1015B000236806E0022A02D1B74C236A01E0B64C48
:1015C000636A01F01F02012494401C400CB1012009
:1015D00000E0002010BD38B5002000900024002558
:1015E00000BF3120FFF7DBFF05460098401C00904C
:1015F0000098B0F5A06F01D0002DF2D03120FFF798
:10160000CEFF08B1012400E00024204638BD014689
:101610000020A14A106820F0F80040EAC1001060E4
:101620007047A04908607047024600209A4B5868EE
:1016300020F47C1042EA01031843974B586070472E
:1016400098490866704701460020934A506820F088
:1016500003000843506070478F48406800F00C005A
:101660007047014600208C4A506820F0F000084383
:101670005060704701460020874A506820F4E060BF
:1016800008435060704701460020834A506820F4A8
:10169000605040EAC1005060704729B17E4A527ADA
:1016A00002437D4B5A7204E07B4A527A82437A4B62
:1016B0005A7270477B49D831086070470146002054
:1016C000754A506820F4404008435060704700213C
:1016D000714A20321170704A82F82010012802D01D
:1016E00004280AD104E001216B4A2032117005E080
:1016F0000521694A2032117000E000BF00BF704729
:101700006949086070476449096A0143624A116285
:101710007047654944390860704730B500210022A0
:10172000002400235C4D6D6805F00C0121B10429F3
:1017300005D0082923D105E05C4D056022E05B4D12
:1017400005601FE0544D6D6805F47012524D6D68D0
:1017500005F48034022505EB92421CB9544D5543E3
:1017600005600BE04C4D6D6805F400351DB1504D22
:101770005543056002E04D4D5543056002E04B4D79
:10178000056000BF00BF444D6D6805F0F001090918
:10179000484D6B5C0568DD4045603F4D6D6805F464
:1017A000E061090A434D6B5C4568DD4085603A4D58
:1017B0006D6805F46051C90A3E4D6B5C4568DD40BB
:1017C000C560354D6D6805F44041890B3A4D6B5C41
:1017D000C568B5FBF3F5056130BD29B12E4A5269E4
:1017E00002432D4B5A6104E02B4A526982432A4B33
:1017F0005A61704729B1284A92690243264B9A617F
:1018000004E0254A92698243234B9A61704729B1CB
:10181000214AD2690243204BDA6104E01E4AD269B0
:1018200082431D4BDA61704729B11B4AD2680243DB
:10183000194BDA6004E0184AD2688243164BDA602A
:10184000704729B1144A12690243134B1A6104E02C
:10185000114A12698243104B1A617047124940398C
:10186000086070470F49C86470470B49C8717047DA
:101870000948406A40F08070074948627047014655
:101880000020054A92680A400AB1012000E00020C9
:101890007047014988727047001002400000FFF84D
:1018A000FFFFF6FE000042428004424200127A002E
:1018B00000093D00140000202400002010B504465B
:1018C000FB48844209D101218803FFF7ADFF0021C5
:1018D0004FF48040FFF7A8FF32E0F648844209D178
:1018E00001214804FFF7ADFF00214FF40030FFF75E
:1018F000A8FF25E0F048844209D101218804FFF7C0
:10190000A0FF00214FF48020FFF79BFF18E0EB4879
:10191000844209D10121C804FFF793FF00214FF44D
:101920000020FFF78EFF0BE0E548844208D101213B
:101930000805FFF786FF00214FF48010FFF781FFB5
:1019400010BD2DE9F04786B005460E460024A2469C
:1019500000BFA1460027B08900B100BF2F462C8AE6
:101960004CF6FF700440F08804432C82AC894EF69C
:10197000F3100440B0883189084371890843044357
:10198000AC81AC8A4FF6FF400440B0890443AC827E
:1019900001A8FFF7C2FEC648874202D1DDF810A0B9
:1019A00001E0DDF80CA0A88900F4004040B10AEB8A
:1019B000CA0000EB0A1031684900B0FBF1F807E0FB
:1019C0000AEBCA0000EB0A1031688900B0FBF1F89D
:1019D0006420B8FBF0F004012009642101FB1089A8
:1019E000A88900F4004040B1322000EBC900B0FBF0
:1019F000F1F000F00700044308E0322000EB09108A
:101A00006421B0FBF1F000F00F0004432C8106B01C
:101A1000BDE8F0874FF41651016000218180C1803C
:101A200001810C21418100218181704710B502465E
:101A30000020108A4FF2FF0318400B884C88234384
:101A40008C882343CC8823431843108210BD002187
:101A5000018041808180C180704721B1828942F438
:101A60000052828104E082894DF6FF731A40828120
:101A70007047F0B50346002400260025002040F6FC
:101A80006A17B94200D100BF1846C1F3421401F0F1
:101A90001F06012707FA06F5012C01D10C3004E0DE
:101AA000022C01D1103000E014301AB107682F4326
:101AB000076002E00768AF430760F0BD1AB1838A90
:101AC0000B43838202E0838A8B4383827047028ABE
:101AD0004FF6F0731A400282028A0A43028270476C
:101AE00082894FF2FF731A40828182890A43828180
:101AF000704721B1828942F00202828104E082892A
:101B00004FF6FD731A4082817047028A4FF6DF73E9
:101B10001A400282028A0A430282704721B1028A75
:101B200042F48042028204E0028A4BF6FF731A40BC
:101B300002827047C1F3080282807047014688889C
:101B4000C0F308007047818941F00101818170472D
:101B5000028BD2B20283028B42EA012202837047D7
:101B6000028B02F47F420283028B0A430283704796
:101B700021B1828A42F02002828204E0828A4FF6FA
:101B8000DF731A408282704721B1828A42F01002CC
:101B9000828204E0828A4FF6EF731A408282704795
:101BA00021B1828A42F00802828204E0828A4FF6E2
:101BB000F7731A408282704721B1828942F4004251
:101BC000828103E08289C2F30E028281704721B1D3
:101BD000828A42F40062828204E0828A4FF2FF73BA
:101BE0001A4082827047828A4FF6FB731A408282C3
:101BF000828A0A438282704721B1828A42F00202BD
:101C0000828204E0828A4FF6FD731A408282704716
:101C100002460020B1F5007F00D100BF13880B40C1
:101C20000BB1012000E00020704701F40072B2F512
:101C3000007F00D100BFCA430280704770B50246E2
:101C4000002400230025002040F66A16B14200D18E
:101C500000BFC1F3421501F01F03012606FA03F38A
:101C6000012D02D19689334006E0022D02D1168A59
:101C7000334001E0968A33400C12012606FA04F440
:101C80001688344013B10CB1012000E0002070BD73
:101C900010B50022002340F66A14A14200D100BF13
:101CA0000A1201249440A3B2DC43048010BD00005A
:101CB000003801400044004000480040004C004013
:101CC0000050004010B50446FA48844208D1012172
:101CD0004015FFF7A9FD00216015FFF7A5FD17E0EE
:101CE000F548844208D101210015FFF79DFD002130
:101CF0002015FFF799FD0BE0F048844208D101213F
:101D0000C803FFF791FD00214FF40040FFF78CFD61
:101D100010BD30B50246002000235068E84C20403A
:101D20000D790C6844EA0524204350609068E54C26
:101D30002040D1E902542C434D7944EA4504204324
:101D40009060D06A20F470000C7C641EE4B22343DF
:101D500040EA0350D06230BD002101600171417141
:101D60008160C16001210174704721B1826842F035
:101D70000102826003E0826822F001028260704703
:101D800021B1826842F48072826003E0826822F4AA
:101D900080728260704710B50023CBB21AB14468DC
:101DA0001C43446002E044689C43446010BD816869
:101DB00041F0080181607047014600208A6802F006
:101DC00008020AB1012000E000207047816841F05C
:101DD000040181607047014600208A6802F0040215
:101DE0000AB1012000E00020704721B1826842F46E
:101DF000A002826003E0826822F4A0028260704741
:101E0000014600208A6802F480020AB1012000E045
:101E10000020704710B50A4600210023416821F4D4
:101E20006041531E41EA4331416010BD21B1426817
:101E300042F40062426003E0426822F400624260C1
:101E40007047F0B504460D4600200021092D11DD34
:101E5000E068A5F10A0606EB4607072606FA07F131
:101E60008843A5F10A0606EB460603FA06F1084385
:101E7000E0600CE0206905EB4507072606FA07F14C
:101E8000884305EB450603FA06F108432061072A5B
:101E90000FDA606B561E06EB86071F2606FA07F15F
:101EA0008843561E06EB860605FA06F10843606372
:101EB00022E00D2A0FDA206BD61F06EB86071F26BD
:101EC00006FA07F18843D61F06EB860605FA06F1E7
:101ED0000843206310E0E06AA2F10D0606EB8607D6
:101EE0001F2606FA07F18843A2F10D0606EB8606C7
:101EF00005FA06F10843E062F0BD21B1826842F4C0
:101F00008012826003E0826822F48012826070474F
:101F10000146C86C80B2704766484C300068704714
:101F200021B1426842F48062426003E0426822F4D8
:101F300080624260704721B1426842F48052426040
:101F400003E0426822F48052426070470A46002152
:101F5000816821F4E04111438160704721B18268BA
:101F600042F40042826003E0826822F40042826010
:101F7000704721B1826842F40212826003E08268F5
:101F800022F4021282607047014600208A6802F43F
:101F900000120AB1012000E000207047F0B50446AD
:101FA0001546002000220026092911DDE068A1F174
:101FB0000A0707EB470C072707FA0CF29043A1F139
:101FC0000A0707EB470703FA07F21043E0600CE04B
:101FD000206901EB410C072707FA0CF2904301EB53
:101FE000410703FA07F210432061A06BC0F30156CA
:101FF000EF1C06F1010CA7EB0C0707EB870C1F2762
:1020000007FA0CF29043EF1C06F1010CA7EB0C074A
:1020100007EB870701FA07F21043A063F0BD10B584
:102020000A4600210023816B21F44011531E41EA2E
:102030000351816310BD08B5002300930090009BFD
:102040000B440093009B1A6008BD08B502460020AF
:102050000090009201F12800009B18440090009825
:10206000006880B208BD0A4600214168164B19403D
:102070001143416070474162826270470A46002105
:10208000416821F01F0111434160704740B1094987
:102090000831096841F40001064A0832116007E07E
:1020A00004490831096821F40001024A083211602C
:1020B000704700000024014000280140003C01401E
:1020C000FFFEF0FFFDF7F1FFFFFD3FFF024600209E
:1020D00013680B400BB1012000E000207047CA4399
:1020E0000260704770B502460020002300240B12E6
:1020F0005568CEB205EA060415681D4015B10CB14D
:10210000012000E0002070BD00220A12D3430360CA
:102110007047000010B56FF00400FFF730F82E484C
:1021200000682E49B0FBF1F02D4908700846007890
:1021300000EB4001C1EBC0104FF6FF7101EAC00097
:102140002849088010BD0146254A12784A434FF0BD
:10215000E0235A6100229A611A46126942F0010294
:102160001A6100BF4FF0E022106900F001021AB1BD
:1021700000F48032002AF5D04FF0E022126922F0FC
:1021800001024FF0E0231A6100229A617047014674
:10219000144A12884A434FF0E0235A6100229A61A0
:1021A0001A46126942F001021A6100BF4FF0E022A4
:1021B000106900F001021AB100F48032002AF5D053
:1021C0004FF0E022126922F001024FF0E0231A6181
:1021D00000229A61704700000000002000127A007F
:1021E000280000202A00002010B54FF4A060FEF760
:1021F00077FF10BD00BF704700BF4A4A128802F047
:102200004002002AF9D0C2B2464B1B1D1A8070470B
:1022100010B586B00446012144F20400FFF7EAFA43
:102220004FF40070ADF8140003208DF8160018204C
:102230008DF8170005A93C48FFF720F84FF480609F
:10224000ADF8140004208DF8170005A93648FFF7F3
:1022500015F825208DF8000003208DF801008DF879
:10226000020001208DF803006846FEF73EFF01944E
:102270000020ADF80800ADF80A00ADF80C00ADF88C
:1022800010000C20ADF80E0001A92648FFF759FBFD
:10229000012240F225512348FFF7EBFB01212148A1
:1022A000FFF7DBFB06B010BD10B540F225511D480D
:1022B000FFF7C4FC10B31B48FFF740FCC4B21B4837
:1022C000008800F40040C8B91848008800F4804035
:1022D00060B10A2C03D000201449088020E0134884
:1022E000008840F400401149088019E00D2C06D107
:1022F0000E48008840F480400C49088010E00B48EC
:102300000088C0F30D000A490C5408480088401C9E
:102310000649088008460088C72801DD002008809B
:1023200010BD0000003801400008014030000020CE
:10233000CA040020704700000FB4044910B503AA76
:10234000029800F0E1FA10BC5DF814FB2C000020AC
:102350002DE9F0410E460446002020622046E16847
:10236000884730B3252805D0D4E901219047206A59
:10237000401CF2E7E168204600278847050018D096
:10238000A5F14100192802D820354FF400673246E4
:10239000294620462760FDF7E3FE40B1012804D01E
:1023A000F61D26F007060836D8E7361DD6E728467C
:1023B000DAE7206ABDE8F0812DE9F0410646002405
:1023C00010687529314616A510D0AFF3008000289B
:1023D00002DA404213A507E031688A0701D512A549
:1023E00002E0490704D511A5012401E0AFF3008004
:1023F00000210A2206F1240709E0B0FBF2FCB0FB41
:10240000F2F302FB1C00303078541846491C0028B7
:10241000F3D123462A463046BDE8F04100F00CB81F
:10242000000000002D0000002B0000002000000034
:1024300070477047704770472DE9F0470D46994641
:102440009246044600F124080168880604D5E06934
:1024500021F01001216000E00120A84201DD471BAE
:1024600000E00027A1697A1902EB0900081AA061AF
:102470002078C00602D42046AFF30080002608E092
:10248000D4E901211AF806009047206A401C761C06
:1024900020624E45F4DB2078C0060AD52046AFF313
:1024A000008006E0D4E9012130209047206A401CDA
:1024B0002062381EA7F10107F4DC07E0D4E901210E
:1024C00018F805009047206A401C2062281EA5F1DC
:1024D0000105F3DC2046AFF300802078000602D52A
:1024E0000220BDE8F0870120FBE770472DE9FF4F90
:1024F0000C461E464FF0FF378BB0D2E90001DDF8E5
:1025000060800A908A46C1F30A5505B93D4600210C
:1025100008464FF00000BAF1000F00F4400005DA61
:1025200000EB80004FF4400101EA50004FEA90595F
:10253000B9F1010F00DDB9460A9850EA4A000ED001
:1025400044F61050A5F2FF3545432F14B8F1000FA3
:102550001ED07542291E1EDDC9F100021CE0B8F133
:10256000010F4FF0000001D0302103E0F24305E0FD
:102570002154401CB042FBDB304600220021215494
:102580000B99C1F80880C1E900200FB0BDE8F08FB9
:10259000BD1B6D1CDEE74A4600DA694206A800F062
:1025A00067FA06AB93E8070003AB83E807005046E1
:1025B0000A9900F045FB8DE80700A0F500501F3890
:1025C00000900398002D0ADD42F21F014A4608449C
:1025D000002303A90390684600F0AEFD09E0A0F5D2
:1025E00000504A461F38002303A90390684600F0B4
:1025F000B8FD8DE807000004000C03D04FF0FF3059
:10260000410800E01046B8F1000F03D0002200920C
:1026100015461EE0751E05D400F08CF93032625567
:102620006D1EF9D5B3460122084302D000227F1C5B
:1026300004E02078302801D100227F1E002A09976B
:1026400084D01DE0112D07DA00F074F930326255A4
:102650006D1C50EA0102F5D1084302D00098C8B1C0
:102660000EE00021681E05E0235C625C6354225486
:10267000401E491C8142F7DBAB46A81B401E099057
:10268000002004F80B000B98099AC0F80880C0E9F4
:10269000002B7AE711264FF0000857E72DE9F04F9D
:1026A00088460446D21D22F0070191B0D1E900010D
:1026B000CDE90A0100F08CFE02460B98C00F01D054
:1026C0002D2007E02068810701D52B2002E0202182
:1026D00001EAC000032A099001D0072A05DB03465E
:1026E0004146204600F084F90BE12078800601D5B0
:1026F000E06900E00620B8F1650F814606D0B8F128
:10270000660F18D0B8F1670F70D131E00020B9F131
:10271000110F009001DB112301E009F101030AAA66
:1027200001A90CA8FFF7E2FEDDE90C70002609F113
:102730000105834647E001204B4600904FF00047DB
:102740000AAA01A90CA8FFF7D1FEDDE90DB00C998A
:102750005D46002610B909F101000D18B9EB05001E
:1027600003D4C0F1FF3609F10105A5EB09002BE008
:10277000B9F1010F01DA4FF001090020B9F1110F91
:102780000090484601DD112300E003460AAA01A992
:102790000CA8FFF7ABFEDDE90C704D460026834622
:1027A000207800070AD4AB4500DA5D4601A8012D68
:1027B00004DD411911F8011C302907D04F4502DA18
:1027C00017F1040F04DA012082460FE06D1EEEE7D8
:1027D000002F02DCED1B3E4403E0781CA84200DD24
:1027E0007D1CB81B00F1010A4FF00047207800075C
:1027F00003D4AA4501DB4FF0FF3A0021B7F1004FA7
:102800000DF143088DF8431024D002202B23002F14
:1028100001DA7F422D230A21021EA0F1010000DC13
:102820005FB197FBF1FC97FBF1F201FB1C7C1746B3
:102830000CF1300C08F801CDEEE7A8F101000370AF
:102840002188090501D5452100E06521A0F1010895
:1028500000F8011C09980FA9A1EB0807FF1D00B1A2
:102860000120411901EBEA70A1693844081A401EA1
:10287000A0612078C00602D42046AFF300800998FA
:1028800028B1D4E901219047206A401C20622078B9
:10289000C00622D52046AFF300801EE0002E04DBE8
:1028A000B34502DD01A8805D00E03020D4E90121BC
:1028B0009047206A401C2062761CAAF101005FEA62
:1028C000000A0AD100F032F8C0680168405CD4E91F
:1028D00001219047206A401C2062281EA5F10105B5
:1028E000DCDC07E0D4E9012118F8010B9047206AED
:1028F000401C2062381EA7F10107F3DC2046AFF32D
:102900000080032011B041E6074B70B50D467B44B3
:1029100000F05BF80446284600F01CF910B14FF0B7
:10292000FF3070BD204670BDE7F8FFFF00487047DC
:10293000B405002030B5B0F10A024FEA900E71F1F3
:1029400000034EEA817EB0EB0E0061EB91014FEA8D
:10295000101E4EEA017E10EB0E0041EB11114FEA02
:10296000102E4EEA016E10EB0E0041EB11214FEAE2
:10297000104E4EEA014E10EB0E0041EB1141401893
:1029800041F100014FEAD00040EA41704FEAD10125
:1029900010EB80054FEA810444EA907444EB010493
:1029A0006D1944EB0404521BA3414FF0000348BFD0
:1029B0000A3200D530BD401C41F1000130BD00009D
:1029C00001694A1C02610878704700B58FB0CDE9F3
:1029D00001310021059105497944CDE903101146E3
:1029E0006846FFF7B5FC0FB000BD0000E5FFFFFF34
:1029F0002DE9F0411F46044603260168072A01F429
:102A0000006004DB08B116A505E016A503E008B1D7
:102A100015A500E015A521F010002060A069C01EDA
:102A2000A0610FB1401EA0612046AFF300804FB1FE
:102A3000D4E9012138469047206A401C2062C01C1E
:102A4000206206E0206AFAE7D4E9012115F8010BBB
:102A50009047761EF8D22046AFF30080BDE8F081A3
:102A60004E414E006E616E00494E4600696E660032
:102A70002DE9F047814616468AB0354878440DC89E
:102A80008DE80D0032487844801C03AC0DC884E802
:102A90000D0041F69B300844372190FBF1F290FB8A
:102AA000F1F5A5F1800501FB12041B3C02D564423F
:102AB000012000E00020DFF898A080460027FA44BB
:102AC000AAF1BE0A0EE0E0070AD03246684607EBDC
:102AD000470101230AEB810100F043FB8DE8070069
:102AE00064107F1C002CEED1194F7F44AE3F19E0DB
:102AF000E80715D007EB04100DF1180A90E80E0056
:102B00008AE80E00C068F04201D198190890324658
:102B1000012306A903A800F024FB03AB83E8070008
:102B20006D10641C002DE3D14FF00103324669465D
:102B3000B8F1000F03A802D000F0FEFA01E000F0A7
:102B400010FBC9E90001C9F808200AB0BDE8F08708
:102B5000C4340000007B00F08000704700487047DC
:102B6000940500207546FFF7F9FFAE46050069465B
:102B7000534620F00700854618B020B5FEF79EFAB0
:102B8000BDE820404FF000064FF000074FF000086E
:102B90004FF0000B21F00701AC46ACE8C009ACE8EF
:102BA000C009ACE8C009ACE8C0098D46704710B553
:102BB0000446AFF300802046BDE81040FDF7EDBAB3
:102BC0004FF0013C50F8042B51F8043B9A4221D1BC
:102BD000A2EB0C03934313EACC1317D150F8042B48
:102BE00051F8043B9A4215D1A2EB0C03934313EA2C
:102BF000CC130BD150F8042B51F8043B9A4209D165
:102C0000A2EB0C03934313EACC13DBD04FF000008C
:102C1000704700BFD01A01BAB1FA81F101F0180172
:102C200022FA01F0CB40C1F12001DBB2C0B2C01AE0
:102C30002CFA01F3D11A914311EAC311E6D170477E
:102C40005FEA400C08BF91F0000F4FEA8C234FEA77
:102C5000C12243EA51514FEA1C5018BF00F5F04021
:102C60004FEA300018BF41F000415FEA6C5C00F0B1
:102C70002980BCF1FF3F08BF40F080407047130C33
:102C800006BF12044FF0100C4FF0000C130E04BFDF
:102C900012020CF1080C130F04BF12010CF1040C0A
:102CA000930F04BF92000CF1020CD30F04BF52002B
:102CB0000CF1010C11464FF00002A0F11F00A0EB37
:102CC0000C00704711F0004F08BF704731F0004111
:102CD0003FF4D5AF0B0C06BF09044FF0100C4FF0BA
:102CE000000C0B0E04BF09020CF1080C0B0F04BF03
:102CF00009010CF1040C8B0F04BF89000CF1020CCC
:102D0000CB0F04BF49000CF1010CCCF12003A0EB68
:102D10000C0022FA03F302FA0CF241EA030100F17B
:102D20000100704720F07F4C80EA030023F07F47CA
:102D3000ACEB070303F57C5300F0004003F1FF0305
:102D40002DE980494FEA154B09B44FEA144325EAAF
:102D50000B4E24EA03480FF2042606EB132749081A
:102D60003E785FEA320203FB0667C7F5000707FB00
:102D700006F64FEA54374FEAD64606F1020607FB3D
:102D8000066CCCF1005C4FEA1C472CEA074C07FBB1
:102D900006F40CFB06F504EB15464FEA961634BF15
:102DA00000204FF000404FEAD13706FB07FC4FEA06
:102DB0001C4C0CFB0BF7D21B03FB0CF761EB070160
:102DC0000CFB0EF7B0EB074072EB17420CFB08F759
:102DD00034BFA2EB0742B2EB074261EB17414FEA67
:102DE0000C444FEA910706FB07FC4FEA1C4C0CFB16
:102DF0000BF7B0EBC74072EB573203FB0CF734BF55
:102E0000A2EBC742B2EBC74261EB57310CFB0EF7A6
:102E1000B0EBC70072EB57720CFB08F734BFA2EBA4
:102E2000C702B2EBC70261EB5771039F4FEA8161A2
:102E300041EA921104EBCC044FEAD1374FEA8262A7
:102E400006FB07FC42EA90124FEA80604FEA1C4CF6
:102E50000CFB0BF7D21B03FB0CF761EB07010CFB20
:102E60000EF7B0EB074072EB17420CFB08F734BFCC
:102E7000A2EB0742B2EB074261EB17414FEA8C55D8
:102E80004FEA910704EB9C2406FB07FC4FEA1C4C1D
:102E90000CFB0BF7B0EBC74072EB573203FB0CF7A0
:102EA00034BFA2EBC742B2EBC74261EB57310CFB18
:102EB0000EF7B0EBC70072EB57720CFB08F734BF8C
:102EC000A2EBC702B2EBC70261EB577115EB4C25C1
:102ED0004FEA816141EA92114FEA82624FEAD137AB
:102EE00042EA901206FB07FC44F100044FEA8060BE
:102EF0004FEA1C4C0CFB0BF7D21B03FB0CF761EBEE
:102F000007010CFB0EF7B0EB074072EB17420CFB0E
:102F100008F734BFA2EB0742B2EB074261EB17415F
:102F200015EB1C154FEA813141EA92414FEA82329A
:102F300042EA90424FEA80304FEA0C7644F10004B6
:102F400048EA03434EEA0B484FF0000EB2EB080C80
:102F500071EB030724BF624639464EEB0E0E4FF06D
:102F6000000B0018524149414BEB0B0BB2EB080C24
:102F700071EB03077BF1000B24BF624639464EEB31
:102F80000E0E4FF0000B0018524149414BEB0B0B5A
:102F9000B2EB080C71EB03077BF1000B24BF624618
:102FA00039464EEB0E0E51EA020718BF46F00106F5
:102FB00016EB0E7655F1000254F1000103D5BDE881
:102FC0008901BDE80088BDE88901BDE80048B6195F
:102FD000524141EB0101A3F10103704780807F7EE4
:102FE0007D7C7B7A7978777676757473727171707F
:102FF0006F6E6E6D6C6C6B6A6A6968686766666531
:103000006464636362616160605F5F5E5E5D5D5CBE
:103010005C5B5B5A5A59595858575756565555552F
:103020005454535352525251515050504F4F4F4E8F
:103030004E4D4D4D4C4C4C4B4B4B4A4A4A494949DD
:10304000484848474747474646464545454444441F
:10305000444343434342424242414141002B9C4648
:1030600030D477002BD01CB54FEA370703B44FF0AC
:1030700010004FF01001BAF1000F06D0BCF1000FA4
:10308000DCBF40F0080040F008014FF000000FBC2A
:10309000BDE810400BF1010BBBF1010F08BF5FEA67
:1030A000170722BF12F1010211F101014FF0004197
:1030B00043F1000300F0004043EA00007047F9D3F9
:1030C0005708D0E746EA064613F1400F4FEA164686
:1030D0001FDD13F1200FDFBF16430A460021203306
:1030E0005B42BED0C3F1200746EA064602FA07F764
:1030F0004FEA164646EA0706C3F1200722FA03F212
:1031000001FA07F721FA03F14FF0000342EA070240
:10311000A7E746EA020646EA06464FEA164646EAA8
:103120000106BCBF46EA0646360C4FF000034FF0DE
:1031300000024FF0000194E72DE9804C9A46934637
:1031400070B491E8380007C831EA400C48BF34EA4F
:10315000430C03D5FFF7E6FDFFF780FFF0BCBDE8A9
:10316000008C2DE9804C9A46934670B491E8380063
:1031700007C810F0804F08BF13F0804F03D100F054
:1031800005F8FFF76BFFF0BCBDE8008C20F07F472F
:1031900080EA030023F07F4C07EB0C03A3F57C537C
:1031A00000F00040A3F1FE0392F0000F00F0B380A6
:1031B00095F0000F00F077802DE901494FEA1140AA
:1031C0004FEA144621EA004800FB06FC24EA0647C1
:1031D00008FB06F607FB08F800FB07F718EB0648A4
:1031E0004CEB164C4FEA124B18EB07484FEA1546CA
:1031F0004CEB174022EA0B4E0BFB06FC25EA064778
:103200000EFB06F607FB0EFE0BFB07F71EEB064E4A
:103210004CEB164C4FF000061EEB074E4CEB174BD9
:1032200018EB0B0840F1000018EB0E0B58EB0008F0
:1032300040F100008F1A4FF000013CBFC943661BEC
:1032400014BFB5EB040C00213CBFC943F61B4FEA89
:1032500017444EEA8E0E27EA04454FEA1C4704FB4A
:1032600007622CEA074C05FB07F70CFB05F604FB8D
:103270000CFC16EB074642EB174216EB0C4642EBF2
:103280001C421BEB060658EB0202414146EA9E0631
:1032900001D5BDE80189B619524141EB0101A3F105
:1032A0000103BDE801894FEA14454FEA114724EABA
:1032B000054621EA074C05FB07F406FB07F70CFB64
:1032C00006F105FB0CFC11EB074144EB17444FEAF8
:1032D000124711EB0C4144EB1C4422EA074C05FB5E
:1032E00007F206FB07F70CFB06F605FB0CFC16EBDA
:1032F000074642EB174216EB0C4642EB1C456A1898
:1033000054F1000148BF7047B619524141EB010129
:10331000A3F10103704795F0000F37D04FEA114237
:103320004FEA144721EA024624EA074C02FB07F160
:1033300006FB07F70CFB06F402FB0CFC14EB07443E
:1033400041EB17414FEA154714EB0C4441EB1C418C
:1033500025EA074C02FB07F506FB07F70CFB06F610
:1033600002FB0CFC16EB074645EB174516EB0C462B
:1033700045EB1C42121951F1000148BF7047B619C4
:10338000524141EB0101A3F1010370474FEA14459B
:103390004FEA114724EA054621EA074C05FB07F1ED
:1033A00006FB07F70CFB06F24FF0000605FB0CFCD2
:1033B00012EB074241EB174112EB0C4251EB1C415F
:1033C00048BF7047921841EB0101A3F10103704718
:1033D000490050EAC12018BF04204A0D18BF40F030
:1033E000010040F2FF72B2EB515F08BF40F00200F3
:1033F000012808BF0520704710B500290AD00878B9
:10340000002807D005487844FFF7DAFB002801D0F0
:10341000002010BD0248784410BD0000762B00004B
:103420006E2B000021F00042A2F16052B2F5801F25
:1034300001F0004328BFD2F17F6C0BD95FEA001C7A
:1034400043EAC20242EB507018BF704728BF20F019
:1034500001007047B2F5801FBCBF184670474FEAA5
:10346000410C1CF5001F02D2084600F0DEBD70B50D
:1034700000F0B4FA00000089FFF7F6BF4FF00040FB
:10348000A0F580007047000010B591EA030F48BF17
:1034900083F0004300F1FE82841A71EB030C05D225
:1034A000121943EB0C03001B61EB0C01DFF824E164
:1034B0004FEA1154A4EB135C1EEA430F18BF9EEAB7
:1034C000445F73D023EA0E03DCF1200E21EA04519D
:1034D00043F4801332D322FA0CFE10EB0E0023FAD1
:1034E0000CFE41EB0E01CCF1200E03FA0EFE10EBA8
:1034F0000E0051F10001B1F5801FCCF1200E32D247
:1035000001EB045112FA0EF2BDE8104058BF7047AB
:10351000401C38BF5FEA420218BF7047002814BF42
:1035200020F0010041F100014FEA410313F5001FB3
:1035300038BF7047A1F1C04100F09EBA012A43EBA9
:103540000302ACF1200CDCF11F0E32BF4FF0000E75
:1035500023FA0CF310EB030041EB0451B4EB115FC1
:10356000D0D0A1EB045101F5801149085FEA300089
:1035700001EB04510ED350F1000038BF12FA0EFED9
:1035800008D1BDE81040C9E7401C38BF5FEA4202DD
:10359000CAD1C3E7BDE810404FEA410313F5001F4D
:1035A00038BF7047A1F1C04100F066BA9EEA445F9F
:1035B00008D011EA5E0FBDE8104004BF01F00041E1
:1035C00000207047BDE8104070B500F007FA00BF5A
:1035D00064FBBE3E0000E0FF2DE9C04130B4DFF8DF
:1035E000A0C23CEA111418BF3CEA131400F0EC80AE
:1035F00081EA03051CEA111444EAD57418BF1CEAD9
:10360000131500F0C780A4EB05044FF0004545EA10
:10361000C12145EAC32341EA505143EA525304F120
:103620007F74994204F500344FEAC0204FEAC22269
:1036300008BF904200F09C804FEA13650FF24016DD
:10364000765D4FEA134506FB05F7C7F1807706FB69
:1036500007F74FEAD737A7FB03687642C8F58038EB
:10366000A7FB06CE38BFA8F1010807FB08E64FF01C
:10367000000EA6FB028CE6FB03CEDCF1000CCEF1C3
:10368000004E38BFAEF1010EA6FB0C584FF00007FC
:103690004FF00005E6FB0E87A1FB08C6A0FB07CE96
:1036A00016EB0E0645F10005E1FB076515F1E04E4E
:1036B0007EBFA4F580345FEA46066D4116F18007AF
:1036C00045F100054FEA17274FEA066647EA056706
:1036D000A6F1DE46B6F1805F4FEA15251FD93846C0
:1036E00024F0010C05EBC471BCF1FE6F01EB0C1171
:1036F00002D8F0BCBDE8008124425CBF01F5801E09
:103700009EEAC47F02D4F0BCBDE80081244238D4D4
:10371000F0BCA1F1C041BDE8004100F0ADB94FEAF5
:10372000D22242EA43524FEAD323A7FB02864FEA52
:10373000D02040EA415007FB03661EEA0E0F4FEA15
:10374000D12105FB026658BFA6EB0056B6EB00562A
:103750004FEA520E4EEAC37E18EB0E0E56EB530E96
:10376000BDD518EB02085E417F1C55F10005B6E798
:103770004FF480154FF000074FF000064FF000089F
:10378000ADE7F0BC4FF0000001F1C04101F0004195
:10379000BDE8008111EA0C1F0CEA131500D00CE003
:1037A00013EA0C1F00F025804FF00000F0BC81EA06
:1037B000030101F00041BDE80081F0BCBDE800411B
:1037C00081EA030100F058B9F0BCBDE8004170B5D2
:1037D00000F004F9097EFC3E00F007B881EA03011D
:1037E0004FF0000001F00041704781EA030100F052
:1037F00043B9F0BCBDE800414FF0000021497047DB
:10380000FFFDFBF9F7F5F4F2F0EEEDEBE9E8E6E4A5
:10381000E3E1E0DEDDDBDAD8D7D5D4D3D1D0CFCD2C
:10382000CCCBCAC8C7C6C5C4C2C1C0BFBEBDBCBB65
:10383000BAB9B8B7B6B5B4B3B2B1B0AFAEADACAB60
:10384000AAA9A8A8A7A6A5A4A3A3A2A1A09F9F9E3A
:103850009D9C9C9B9A9999989797969595949393EC
:10386000929191908F8F8E8E8D8C8C8B8B8A898983
:103870008888878786858584848383828281818006
:103880000000FF070000F87FDFF848C170B51CEAB0
:10389000111E1EBF1CEA13159EEA0C0F95EA0C0FB1
:1038A00000F06F8081EA030423EA4C134EEAD47ED1
:1038B00021EA4C1141F4801143F48013AE44A1FB82
:1038C000024CA0FB0365AEF17F7E361955EB0C056B
:1038D000A1FB034C4CF10003A0FB021C16EB0C06F1
:1038E000654153F10003094218BF46F0010613F485
:1038F000007F0BD14FEA03314FEA0530340341EA30
:10390000155140EA16506FF003020AE04FEAC32156
:103910004FEAC520F40241EA555140EA56506FF093
:10392000020202EB2E4201EB025585EACE710AD06B
:103930005FEA440C18BF24F0004450F1000041F14C
:10394000000120EAD47040F2FE7C624500D270BDD6
:10395000A84214BF4FF080444FF04044002E08BFEF
:103960000024BEF1806FA8BFA1F1C041BDE8704046
:1039700080F282804FF0000001F1C04101F000416F
:1039800070479EEA0C0F0CEA131518BF95EA0C0F4E
:1039900006D04FF0000081EA030E0EF0004170BD2A
:1039A00000F01CF88900013E00F007B800F009B8EB
:1039B0004FEA430C5FEA5C5C08D081EA030100F047
:1039C0005BB84FEA410C5FEA5C5CF6D14FF0000057
:1039D000014970470000FF070000F87F0EF1020E5A
:1039E0002EF0030E5EF8046B364205D4012A43EB39
:1039F000030515F5001F12D8012841EB010C1CF539
:103A0000001F0CD80ED14FEAD17C15F5001F0CEB2E
:103A10004C0C0CF1020C08BF4CEBD37C04E04FF0D3
:103A2000080C01E04FEAD37C0CEB4C0526FA05F6B6
:103A300006F00706B6F1040C06D20EEB860CBDE8C4
:103A400070404CF0010C6047DFE80CF0090B0202FB
:103A50004FF000414FF00000A1F5002170BD194664
:103A60001046012851EB010418BFD4F5001484BF9F
:103A7000002001F0004170BD0808A0F500114FEAD8
:103A80003101704710B591EA030F48BF83F000433E
:103A90003FF502AD841A71EB030C07D212198CF0BA
:103AA000004C43EB0C03001B61EB0C01DFF8A4E1BD
:103AB0004FEA1154A4EB135C1EEA430F18BF9EEAB1
:103AC000445F00F0B08023EA6E03524221EA0451C1
:103AD000C3EB6E0338BF5B1EDCF1200E25D322FA48
:103AE0000CFE10EB0E0043FA0CFE41EB0E01CCF184
:103AF000200E03FA0EFE10EB0E0051F10001CCF186
:103B0000200E29D412FA0EF201EB0451BDE8104048
:103B100058BF7047401C1CBFB2F1004F70470028CF
:103B20000CBF491C20F00100704712EB020E43EB62
:103B3000030218BF4FF0010E4EEA4202ACF1200C16
:103B4000DCF11E0E54D943FA0CFE10EB0E0051F1BD
:103B5000FF31CCF11E0ED5D50EF1010E12FA0EFE7C
:103B6000404141EB010101EB445C5FEA5C5C10D930
:103B700010EBDE7001EB045138BFBEF1004FBDE821
:103B8000104018BF704700280CBF491C20F00100EE
:103B9000704730D24FEAD42C11F5001124F40064A0
:103BA0001BD0B1FA81F20B3AA41AA41ED2F1200361
:103BB000914030FA03F31943904001EBCC71002C93
:103BC00001EB0451BDE81040A8BF704701F1C041AE
:103BD0004FF0000001F000417047B0FA80F310FA96
:103BE00003F100D110BDE41A173C4805C90AE4E707
:103BF00001EB045110BD491001EB0451BDE8104028
:103C00004FEA300002E04FF0000170474A0008BF61
:103C10000042F8D0B2F5001F28BF704701F0004104
:103C20004FF0000070479EEA445F07D011EA5E0F34
:103C3000BDE8104004BF002100207047BDE81040DF
:103C400070B5FFF7CBFE00BF40DFF63E83F00041CA
:103C5000104670470000E0FF43004FEAD30C4FEAE4
:103C60003C0C43401FBF40070CF1605113F0FE4F66
:103C700070471CF0006F03D100200CF0004170472A
:103C80000CF0004343EA507010B540EACC0000F05D
:103C900086F900BF000000924FEA0001FFF7ECBE7A
:103CA0004FF000414FF00000A1F5002170470000E7
:103CB0004FF47F0C1CEAD0121EBF1CEAD11392EA0B
:103CC0000C0F93EA0C0F00F0858090EA010F48BFBB
:103CD00042F4807240F4000C41F400002CF07F416B
:103CE00020F07F4000B58142A2EB03020FF2081CD6
:103CF000ACEB504EC0F100009EF800E04FEA4E0ED3
:103D000000FB0EFC38BF49004FEA2C1C02F5FA02FA
:103D10000CFB0EF34FEACE1E4FEA112C4FEAC121E5
:103D20000EEB635E42EB22420EFB0CFC4FEA1C538F
:103D300000FB03114FEA112C4FEA01310EFB0CFC82
:103D40004FEADC4C00FB0C11C14228BF09184CEBB8
:103D500003335DF804EB10EB410143EBC250B2F5C5
:103D60007C0F38BF704729D512F0F00F1CBF00F14F
:103D7000C04000F0004070470081828384858687C0
:103D800088898B8C8D8E8F919293959697999A9C1A
:103D90009D9FA0A2A3A5A7A8AAACAEB0B2B3B5B789
:103DA000B9BCBEC0C2C5C7C9CCCED1D4D7D9DCDF5F
:103DB000E2E6E9ECF0F3F7FAFE0000004FEA400C0F
:103DC0000CF1807CBCF17E4F28BF7047B0F1C04041
:103DD00000F02BB990EA010F0CEAD11348BF42F46E
:103DE0008072624538BF634507D213F47F0F16D047
:103DF00080EA010000F00040704710B500F0CFF8F5
:103E0000097EFC3E00F005B880EA010000F00040A9
:103E1000704780EA010000F0004000F006B912F49B
:103E20007F0F04BF0248704780EA010000F0FDB830
:103E30000000C07F41000B0ED3F19E0208D950F460
:103E400000034FEA032323FA02F048BF40427047C1
:103E500010B500F0A4F800BF4992248000207047FC
:103E60006FF0004282EA20007047000010F000412D
:103E700048BF4042B0FA80F310FA03F2C3F19D0349
:103E80000BD051EAC35101EB1220530638BF7047E3
:103E900000F1010008BF20F0010070474FF47F0CD3
:103EA0001CEAD0121EBF1CEAD11392EA0C0F93EA4F
:103EB0000C0F00F0478090EA010F48BF42F4807277
:103EC0004FF0004C4CEA00204CEA012102EB0302C7
:103ED000A0FB0113A2F50002002918BF43F0010363
:103EE0005B0028BF4FEA330342EB22425FEA132C08
:103EF0004CEBC2502EBFBCEB436FB2F57C0F70474A
:103F00004FEA036CBCF1004F08BF20F00100B2F58E
:103F10007C0F38BF70470BD582F0FF0212F5803F4F
:103F2000C8BF704700F1C040D8BF00F000407047E4
:103F300000F5000C5FEA4C0C48BF7047B0F1C04080
:103F400000F073B890EA010F0CEAD11348BF42F4B5
:103F50008072624538BF634504D280EA010000F0F8
:103F60000040704710B500F01AF800BF8900013E0C
:103F700000F007B800F009B85FEA410C5FEA1C6C7A
:103F800008D080EA010000F050B85FEA400C5FEA18
:103F90001C6CF6D14FF00040A0F5800070470EF188
:103FA000020E2EF0030E5EF8044B244204D44FEAB6
:103FB0004102B2F17F4F11D84FEA4003B3F17F4F76
:103FC0000CD80ED14FEAD07CB2F17F4F0CEB4C0CE9
:103FD0000CF1020C08BF4CEBD17C04E04FF0080C54
:103FE00001E04FEAD17C0CEB4C0324FA03F404F01B
:103FF0000704B4F1040C06D20EEB840CBDE81040AB
:104000004CF0010C6047DFE80CF0070802024FF0AB
:104010000040A0F5800010BD0846420018BFD2F154
:10402000807288BF00F0004010BDFF2141EAD050EF
:10403000C0057047FEF732BB000000000000000022
:10404000002F000000000700070000147F147F14F9
:1040500000242A7F2A12006264081323003649557F
:10406000225000000503000000001C224100000057
:1040700041221C000014083E08140008083E0808ED
:10408000000000A060000008080808080000606048
:104090000000002010080402003E5149453E000087
:1040A000427F4000004261514946002141454B3169
:1040B000001814127F10002745454539003C4A4935
:1040C00049300001710905030036494949360006A7
:1040D0004949291E0000363600000000563600000F
:1040E000000814224100001414141414000041228A
:1040F000140800020151090600324959513E007C62
:104100001211127C007F49494936003E414141224B
:10411000007F4141221C007F49494941007F090934
:104120000901003E4149497A007F0808087F0000E4
:10413000417F4100002040413F01007F081422419F
:10414000007F40404040007F020C027F007F040857
:10415000107F003E4141413E007F09090906003EB3
:104160004151215E007F09192946004649494931DC
:104170000001017F0101003F4040403F001F2040FF
:10418000201F003F4038403F0063140814630007BD
:104190000870080700615149454300007F41410014
:1041A00000552A552A55000041417F0000040201B4
:1041B0000204004040404040000001020400002092
:1041C00054545478007F48444438003844444420D0
:1041D00000384444487F00385454541800087E097D
:1041E00001020018A4A4A47C007F08040478000045
:1041F000447D4000004080847D00007F1028440002
:104200000000417F4000007C04180478007C080412
:10421000047800384444443800FC2424241800184E
:10422000242418FC007C080404080048545454203A
:1042300000043F444020003C4040207C001C2040C3
:10424000201C003C4030403C004428102844001C06
:10425000A0A0A07C004464544C44141414141414FE
:104260000000000000000000000000000000FC0052
:104270000000000002000000000C020C0200000020
:104280000000000090D0BCD0BC90000300030000F0
:104290001824FE448C000302070201001824D8B041
:1042A0004C80000300010201C038E438E000010244
:1042B00002010202080600000000000000000000E9
:1042C000000000F80402000000010204000204F8EB
:1042D00000000004020100009060F86090000000FF
:1042E000010000002020FC20200000000100000050
:1042F0000000000000000806000000002020202030
:10430000200000000000000000000000000000028B
:10431000000000000080601C020004030000000098
:10432000F8040404F8000102020201000008FC0085
:104330000000000203020000188444241800030255
:104340000202020008042424D80001020202010033
:1043500040B088FC80000000000302003C242424BC
:10436000C400010202020100F824242CC000010252
:10437000020201000C04E41C040000000300000021
:10438000D8242424D8000102020201003844444405
:10439000F80000030202010000001000000000000D
:1043A00002000000000020000000000006000000E5
:1043B00000205088040200000000010290909090BC
:1043C000900000000000000000020488502000025D
:1043D000010000001804C4241800000002000000BE
:1043E000F804E494F80001020202020000E09CF0EC
:1043F000800002030000030204FC2424D80002030E
:1044000002020100F80404040C000102020201008F
:1044100004FC0404F80002030202010004FC2474FA
:104420000C0002030202030004FC24740C000203CB
:1044300002000000F0080444CC4000010202010028
:1044400004FC2020FC040203000003020404FC041A
:104450000400020203020200000404FC0404060437
:104460000403000004FC24D00C0402030200030235
:1044700004FC04000000020302020203FC3CC03CF6
:10448000FC0003000300030004FC30C4FC0402032E
:1044900002000300F8040404F80001020202010013
:1044A00004FC24241800020302000000F8848404A1
:1044B000F80001020207050004FC246498000203CE
:1044C00002000302182424448C00030202020100AB
:1044D0000C04FC040C0000020302000004FC0000B9
:1044E000FC04000102020100047C80E01C040000C6
:1044F000030000001CE03CE01C000003000300007F
:10450000049C609C0400020300030200041CE01CE5
:1045100004000002030200000C84641C0400020377
:10452000020203000000FE02020000000704040073
:10453000000E30C00000000000010200000202FE78
:104540000000000404070000000402040000000052
:10455000000000000000000000000808080808082B
:104560000000020000000000000000000040A0A0C9
:10457000C00000010202030204FC2020C00000036E
:104580000202010000C020206000000102020200BF
:1045900000C02024FC0000010202030200C0A0A011
:1045A000C0000001020202000020F82424040002DE
:1045B000030202000040A0A0602000070A0A0A04CB
:1045C00004FC2020C0000203020003020020E400DB
:1045D0000000000203020000000020E400000808C0
:1045E0000807000004FC80E0202002030200030210
:1045F0000404FC000000020203020200E020E020AC
:10460000C00003000300030020E02020C0000203DC
:104610000200030200C02020C000000102020100CD
:1046200020E02020C000080F0A02010000C0202066
:10463000E0000001020A0F0820E0402020000203F1
:10464000020000000060A0A020000002020203009F
:104650000020F820000000000102020020E00020FD
:10466000E00000010202030220E020806020000040
:10467000030100006080E080600000030003000090
:1046800020608060200002030003020020E0208000
:1046900060200808070100000020A0602000000240
:1046A00003020200000020DE0200000000070400F8
:1046B000000000FF00000000000F00000002DE20EC
:1046C00000000004070000000201020404020000D0
:1046D00000000000000000000000000000000000DA
:1046E00000000000000000F800000000000000339F
:1046F0003000000000100C06100C06000000000046
:104700000000000040C07840C0784000043F04042E
:104710003F040400007088FC08300000001820FFEF
:10472000211E0000F008F000E018000000211C032A
:104730001E211E0000F00888700000001E212324A6
:104740001927211010160E000000000000000000C4
:1047500000000000000000E0180402000000000754
:104760001820400000020418E0000000004020185B
:1047700007000000404080F0804040000202010F2E
:1047800001020200000000F0000000000101011F12
:1047900001010100000000000000000080B0700076
:1047A0000000000000000000000000000001010106
:1047B0000101010100000000000000000030300095
:1047C000000000000000000080601804006018066F
:1047D0000100000000E010080810E000000F1020A9
:1047E00020100F00001010F8000000000020203FF3
:1047F000202000000070080808887000003028247D
:10480000222130000030088888483000001820201D
:1048100020110E000000C02010F800000007042442
:10482000243F240000F80888880808000019212087
:1048300020110E0000E0108888180000000F1120E1
:1048400020110E0000380808C83808000000003F9A
:10485000000000000070880808887000001C2221F9
:1048600021221C0000E010080810E00000003122A6
:1048700022110F00000000C0C00000000000003046
:104880003000000000000080000000000000806098
:104890000000000000008040201008000001020419
:1048A0000810200040404040404040000404040400
:1048B00004040400000810204080000000201008BC
:1048C00004020100007048080808F00000000030F1
:1048D00036010000C030C828E810E000071827247F
:1048E00023140B000000C038E0000000203C23022D
:1048F0000227382008F8888888700000203F202090
:1049000020110E00C03008080808380007182020C1
:104910002010080008F808080810E000203F2020B8
:1049200020100F0008F88888E8081000203F202099
:104930002320180008F88888E8081000203F20008D
:1049400003000000C03008080838000007182020C5
:10495000221E020008F808000008F808203F210184
:1049600001213F20000808F8080800000020203F2F
:104970002020000000000808F8080800C08080809F
:104980007F00000008F888C028180800203F200198
:104990002638200008F8080000000000203F2020F2
:1049A0002020300008F8F800F8F80800203F003F09
:1049B000003F200008F830C00008F808203F200021
:1049C00007183F00E01008080810E0000F10202032
:1049D00020100F0008F808080808F000203F210107
:1049E00001010000E01008080810E0000F1824245E
:1049F00038504F0008F8888888887000203F2000D1
:104A0000030C302000708808080838000038202186
:104A100021221C00180808F8080818000000203F90
:104A20002000000008F808000008F808001F2020F7
:104A300020201F000878880000C8380800000738C8
:104A40000E010000F80800F80008F800033C070019
:104A5000073C0300081868808068180820302C0381
:104A6000032C30200838C800C83808000000203F58
:104A70002000000010080808C83808002038262147
:104A800020201800000000FE020202000000007F4B
:104A900040404000000C30C0000000000000000159
:104AA0000638C00000020202FE0000000040404044
:104AB0007F00000000000402020204000000000069
:104AC00000000000000000000000000080808080E6
:104AD00080808080000202040000000000000000CE
:104AE0000000000000008080808000000019242267
:104AF00022223F2008F8008080000000003F1120A3
:104B000020110E000000008080800000000E1120A7
:104B100020201100000000808088F800000E112085
:104B200020103F200000808080800000001F222293
:104B300022221300008080F0888888180020203FFF
:104B4000202000000000808080808000006B949412
:104B50009493600008F8008080800000203F2100CE
:104B600000203F2000809898000000000020203F97
:104B700020200000000000809898000000C0808085
:104B8000807F000008F8000080808000203F240221
:104B90002D302000000808F8000000000020203F11
:104BA000202000008080808080808000203F2000C6
:104BB0003F20003F8080008080800000203F210057
:104BC00000203F200000808080800000001F202007
:104BD00020201F00808000808000000080FFA12036
:104BE00020110E000000008080808000000E112047
:104BF00020A0FF80808080008080800020203F21D6
:104C00002000010000008080808080000033242488
:104C100024241900008080E0808000000000001F34
:104C2000202000008080000000808000001F2020E5
:104C300020103F20808080000080808000010E30A6
:104C40000806010080800080008080800F300C0307
:104C50000C300F0000808000808080000020312E0A
:104C60000E312000808080000080808080818E70E6
:104C70001806010000808080808080000021302C98
:104C80002221300000000000807C020200000000B1
:104C9000003F404000000000FF0000000000000056
:104CA000FF0000000002027C800000000040403F46
:104CB00000000000000601010202040400000000E0
:104CC00000000000000000000000000000000000E4
:104CD00000000000000000000000000000000000D4
:104CE00000000000000000000000000000F0F0F0F4
:104CF000000000000000000000017F010000000033
:104D000000000000001C1C1C00000000000080606F
:104D1000301C8C60301C0C00000000000000000003
:104D20000000000000000000000000000000000083
:104D3000000000E00000000000E000000086E69FA8
:104D400086868686E69F860000011F01010101011B
:104D50001F010100000080C06020F820E0C00000BA
:104D6000000003070C18FF70E18100000000070F2E
:104D700010107F100F07000080602060800000008E
:104D8000E02000000F3020309F70DC371030C00072
:104D90000000100E03000718101807000000C020C4
:104DA00020E0C0000000000080E01F38E88703C456
:104DB0003C040000070F1810100B070D101008001E
:104DC00000808C4C38000000000000000000000053
:104DD00000000000000000000000000000000000D3
:104DE0000000000000000000000080E03008040027
:104DF0000000000000FEFF010000000000000000B5
:104E00000000030F1820400000040830E08000007C
:104E1000000000000000000001FFFE000000000094
:104E2000004020180F0300000000000000000000F8
:104E30000000C00000000000004266663C18FF1839
:104E40003C66664200000000000003000000000015
:104E500000000000000080000000000000101010A2
:104E60001010FF10101010100000000000000300D0
:104E70000000000000000000000000000000000032
:104E800000000000000000000000000000808C4CCA
:104E900038000000000000000000000000000000DA
:104EA0000000000000101010101010101010100062
:104EB00000000000000000000000000000000000F2
:104EC00000000000000000000000000000000000E2
:104ED0000000000000001C1C1C000000000000007E
:104EE0000000000000000000E0380C00000000009E
:104EF00080701C03000000000060380E01000000FC
:104F000000000000000080C060202060C080000021
:104F100000FEFF010000000001FFFE000001070E7F
:104F2000181010180E0701000000808080C0E000FB
:104F3000000000000000000000FFFF000000000073
:104F400000001010101F1F101010000000804020E3
:104F500020202060C0800000000303008040203833
:104F60001F070000001C1A1918181818181F000035
:104F70000080C020202060C08000000000030300EB
:104F80001010182FE780000000070F1010101018E5
:104F90000F070000000000000000C0E0F00000006B
:104FA00000C0B088868180FFFF8080000000000084
:104FB0000010101F1F1010000000E06060606060B3
:104FC0006060000000003F1008080818F0E00000D2
:104FD00000070B101010101C0F030000000080C011
:104FE00040202020E0C0000000FCFF21100808083D
:104FF00018F0E0000001070C18101010080F030053
:105000000000C0E06060606060E0600000000300DD
:105010000000E0180700000000000000001F1F0053
:10502000000000000080C0602020202060C08000C0
:105030000087EF2C1818303068CF830000070F0866
:1050400010101010180F07000000C0C020202020F2
:10505000C0800000001F3F604040402010FFFE0065
:1050600000000C1C101010080F03000000000000CE
:10507000000000000000000000000000000E0E0E06
:105080000000000000000000001C1C1C00000000CC
:105090000000000000000000000000000000000010
:1050A000000C0C0000000000000000000058380058
:1050B0000000000000000000000000804020100000
:1050C00000001028448201000000000000000000E1
:1050D00000000102040810000000000000000000B1
:1050E0000000000000848484848484848484840098
:1050F0000000000000000000000000000000102080
:10510000408000000000000000000000000001825C
:1051100044281000000010080402010000000000F4
:1051200000C020201010101030E0C0000003030069
:1051300000F010080C070300000000001C1C1C00FD
:1051400000000000000000C0406020202040C0009F
:1051500000FCFF01F00E03C1FE03807F0001070E7B
:1051600008111110110904020000000080E0E000A5
:10517000000000000000807C4340477FF880000072
:1051800010181F1000000000131F1C1020E0E0206A
:1051900020202060C080000000FFFF1010101018B9
:1051A0002FE78000101F1F1010101010180F07009D
:1051B000000080C0402020202060E00000FCFF01B3
:1051C00000000000000001000001070E1810101080
:1051D0000804030020E0E02020202040C0800000E0
:1051E00000FFFF000000000001FFFE00101F1F1065
:1051F000101018080E07010020E0E02020202020D9
:105200002060800000FFFF101010107C00000000E4
:10521000101F1F10101010101018060020E0E020C2
:10522000202020206060800000FFFF101010107C04
:1052300000000100101F1F1000000000000000000F
:10524000000080C06020202040E0000000FCFF0142
:1052500000004040C0C140400001070E181010106F
:105260000F0F000020E0E0200000000020E0E02020
:1052700000FFFF101010101010FFFF00101F1F1074
:1052800000000000101F1F100000202020E0E02080
:10529000202000000000000000FFFF0000000000D0
:1052A00000001010101F1F10101000000000000060
:1052B000202020E0E020202000000000000000FF6F
:1052C000FF0000000060E0808080C07F3F000000A1
:1052D00020E0E020000020A06020200000FFFF3040
:1052E000187CE3C000000000101F1F100000011315
:1052F0001F1C181020E0E02000000000000000004B
:1053000000FFFF000000000000000000101F1F1041
:10531000101010101018060020E0E0E0000000005F
:10532000E0E0E02000FF013FFEC0E01E01FFFF00C3
:10533000101F1000031F0300101F1F1020E0E0C00B
:10534000000000000020E02000FF0003071C78E0C0
:105350008000FF00101F100000000000030F1F005E
:10536000000080C060202060C080000000FEFF01BF
:105370000000000000FFFE000001070E18101018CA
:105380000C07010020E0E0202020202060C08000E9
:1053900000FFFF2020202020301F0F00101F1F10B3
:1053A0000000000000000000000080C060202060BD
:1053B000C080000000FEFF010000000000FFFE00B2
:1053C0000001070E1111133C7C67210020E0E02052
:1053D0002020202060C0800000FFFF101030F0D09F
:1053E000080F0700101F1F10000000030F1C1010F3
:1053F0000080C060202020204040E00000070F0C0B
:105400001818303060E08100001F0C0810101010D8
:10541000180F07008060202020E0E020202060801E
:105420000100000000FFFF0000000001000000007C
:10543000101F1F100000000020E0E020000000000E
:105440000020E02000FFFF00000000000000FF003F
:1054500000070F1810101010100807002060E0E07F
:105460002000000020E060200000077FF88000801E
:105470007C03000000000000071F1C070000000064
:1054800020E0E02000E0E0200020E0200007FFF81E
:10549000E01FFFFCE01F00000000031F0300011FCE
:1054A00003000000002060E0A0000020E060200079
:1054B000000000038F7CF8C6010000000010181ED9
:1054C000130001171F1810002060E0E0200000000A
:1054D00020E06020000001073EF8E018070000000F
:1054E00000000010101F1F1010000000008060203E
:1054F000202020A0E0E0200000000000C0F03E0FCF
:105500000300000000101C1F1710101010180600D8
:105510000000000000FC040404040400000000007B
:1055200000FF00000000000000000000007F40407D
:1055300040404000000010E00000000000000000BB
:1055400000000000031C608000000000000000005C
:10555000000000030C70800000000404040404FC3C
:105560000000000000000000000000FF000000003C
:10557000000040404040407F00000000000000105C
:10558000080C040C081000000000000000000000DF
:10559000000000000000000000000000000000000B
:1055A00000000000000000000000000000000000FB
:1055B00000000000000000008080808080808080EB
:1055C00080808080000000040408080000000000C3
:1055D00000000000000000000000000000000000CB
:1055E00000000000000000000000000000000000BB
:1055F00000000000000098D844642424FCF8000057
:10560000000F1F18101010081F1F10180020E0F0C6
:1056100000000000000000000000FFFF1808040464
:105620000CF8F00000001F0F18101010180F0300E6
:1056300000000000000000000000000000E0F8187A
:105640000404043C3800000000030F0C101010107C
:10565000080600000000000000000020E0F000004C
:1056600000E0F81C04040408FFFF000000030F180A
:10567000101010081F0F08000000000000000000BC
:10568000000000000000E0F8484444444C787000FA
:105690000000030F0C181010100804000000000098
:1056A00080C0602020E0C00000040404FFFF040468
:1056B00004040000000010101F1F10101000000054
:1056C000000000000000000000000000000070F872
:1056D0008C04048CF874040C007076CF8D8D8D8949
:1056E000C87870000020E0F000000000000000001A
:1056F0000000FFFF08040404FCF8000000101F1F56
:10570000100000101F1F100000000000006060006B
:10571000000000000000040404FCFC000000000085
:1057200000001010101F1F101010000000000000DB
:10573000000000606000000000000000040404FCA1
:10574000FC0000000000C0C08080C07F3F0000005F
:105750000020E0F000000000000000000000FFFF5B
:1057600080C0F41C0404000000101F1F1100031F60
:105770001C1010000000202020E0F00000000000BD
:105780000000000000FFFF000000000000001010FB
:10579000101F1F101010000000000000000000008B
:1057A0000000000004FCFC0804FCFC0804FCFC00F5
:1057B000101F1F10001F1F10001F1F1000000000EF
:1057C00000000000000000000004FCFC08080404C5
:1057D000FCF8000000101F1F100000101F1F100019
:1057E00000000000000000000000000000E0F018D1
:1057F0000C04040C18F0E00000030F0C1010101043
:105800000C0F03000000000000000000000000007A
:105810000004FCFC080404040CF8F0000080FFFF06
:10582000889010101C0F0300000000000000000012
:105830000000000000E0F81C04040408F8FC00006C
:1058400000030F1810109088FFFF80000000000078
:105850000000000000000000040404FCFC10080428
:10586000040C0C001010101F1F101010000000007E
:105870000000000000000000000000000000307880
:10588000CCC48484840C1C0000001E18101010115D
:10589000190F06000000000000C00000000000001A
:1058A00000040404FFFF04040400000000000000E2
:1058B0000F1F1010100C000000000000000000007E
:1058C000000000000004FCFE00000004FCFE0000DC
:1058D00000000F1F181010081F0F08000000000024
:1058E000000000000000000000040C3CFCC40000AC
:1058F000C43C0C0400000000010F1E0E010000005B
:10590000000000000000000000000000043CFCC497
:1059100000E47CFC84807C040000071F0700000773
:105920001F07000000000000000000000000000051
:105930000004041C7CE4C0341C0404000010101C8F
:105940001601131F1C1810000000000000000000CA
:105950000000000000040C3CFCC400C43C04040033
:105960000000C080C1370E010000000000000000F0
:10597000000000000000000000001C0404C4F47CCF
:105980001C0400000000101C1F17111010180E003E
:1059900000000000000000F80C04000000000000FF
:1059A000001028EF00000000000000000000003F91
:1059B00060400000000000000000FF000000000048
:1059C000000000000000FF000000000000000000D8
:1059D0000000FF00000000000000040CF8000000C0
:1059E0000000000000000000EF2810000000000090
:1059F000000040603F0000000000000000180602A8
:105A00000204081020203008000000000000000000
:105A10000000000000000000000000000000000086
:105A20000000F010101010FF10101010F000000017
:105A300000000F04040404FF040404040F00000029
:105A40004040405F555555755555555F40404000A5
:105A50000040200F094989790909090F20400000F9
:105A600000FE02424ACA4A4ACA4A4A4202FE0000AC
:105A700000FF40504C4340404F50505C40FF0000FE
:105A80000000F888888888FF88888888F8000000E7
:105A900000001F080808087F888888889F80F00019
:105AA00080828282828282E2A2928A8682808000C2
:105AB000000000000040807F0000000000000000A7
:105AC000101010FF109008888888FF8888880800C8
:105AD0000444827F01808040432C1028468180004E
