:020000040800F2
:10000000E015002049010008FF47000821410008D1
:10001000FB470008251000082F6B000800000000B7
:100020000000000000000000000000003B5100083C
:10003000911A000800000000E54B0008595F000815
:100040006301000863010008630100086301000800
:1000500063010008630100086301000863010008F0
:1000600063010008630100086301000863010008E0
:1000700063010008630100086301000863010008D0
:1000800063010008630100086301000863010008C0
:100090007D6900086301000863010008630100082E
:1000A00063010008630100086301000863010008A0
:1000B00063010008BD5F00086301000863010008D8
:1000C0006301000863010008630100086301000880
:1000D00063010008AD6300086301000863010008C4
:1000E0006301000863010008C76600086301000897
:1000F0006301000863010008630100086301000850
:10010000630100086301000863010008630100083F
:10011000630100086301000863010008630100082F
:10012000630100086301000863010008630100081F
:10013000DFF810D000F032FC00480047E17A0008F8
:10014000AFF30080E01500200648804706480047CE
:10015000FEE7FEE7FEE7FEE7FEE7FEE7FEE7FEE777
:10016000FEE7FEE75D5F000831010008F0B480EAB9
:100170000102D40F4200B2EB410F02D20246084600
:1001800011464A0042D0C30DDDB2C1F3C752AD1AC9
:10019000202D35DAC1F3160141F4000204B15242B8
:1001A000C5F1200602FA06F12A411044B3EBD05FF4
:1001B00023D0C4B1012DA0EBC35009DCF0BC4FF03B
:1001C000004202EAC352DBB200F5000000F02BBB94
:1001D000400000F1807000EBC350A0F1807040EA55
:1001E000D170490009E0490841EAC071A0EBC35051
:1001F00000F50000400800EBC350F0BC00F00ABB63
:100200006142012202EB4101001BF6E7F0BC70479E
:1002100081F00041AAE780F00040A7E780EA0102F0
:1002200010B502F00043400022D04A001FD0010E5A
:1002300001EB1261C0F35600C2F3560240F4000015
:1002400042F40002A0FB022000047F39140400D015
:10025000401C50EA124001D44000491EC2B20C06B4
:1002600004EBD010401C4008802A02D003E000209C
:1002700010BD20F00100002900DA0020184310BD55
:1002800030B480EA010202F0004530F0004221F073
:10029000004013D090B1C30DD40DC2F31601C0F3CA
:1002A0001600E41A41F4000140F400027D3491424A
:1002B00001D3641C00E04900002C02DA30BC0020AD
:1002C00070474FF400000023914201D3891A034381
:1002D00040084FEA4101F7D151B1914202D14FF0AC
:1002E000004105E002D24FF0010101E06FF0010191
:1002F00003EBC450284430BC00F08CBA2DE9FE4F0B
:10030000804681EA0300C00F0C46009021F00041B6
:1003100023F00045B8EB0200A94105D24046214632
:1003200090461C460B46024623F00040104347D03F
:10033000270DC7F30A00C3F30A510290401A019037
:1003400040286BDAC3F3130040F4801B00989246F8
:1003500020B10023D2EB030A63EB0B0B0198594643
:10036000C0F14002504600F034FA06460D465046B1
:100370005946019A00F03CFA10EB08006141002454
:1003800087EA115284EAE7731A4340D0009A62B3B5
:10039000019A012A4FEA075215DC001B61EB0201AA
:1003A0004FF0004202EA0752CDE90042001C41F53D
:1003B000801132462B4600F073FA03B0BDE8F08F8F
:1003C00040462146F9E7001B61EB0201001C41F5A4
:1003D000801300185B412018A2F5001747EB0301BA
:1003E00040EAD570B6196D4111E06D084FEA360646
:1003F00045EAC0754FEA0752001B61EB0201001C81
:1004000041F5801149084FEA300000195141324648
:100410002B4603B0BDE8F04F00F033BA009801223C
:1004200040000023D0EB020263EBE073009821460A
:100430004FEAE074B8EB000061EB0401E9E783F0F8
:1004400000435BE781F0004158E72DE9FE4F81EA68
:10045000030404F0004421F0004100944FF0000B2D
:1004600023F0004350EA01045ED052EA03045BD05B
:10047000C3F30A54C1F30A552C44A4F2F334019493
:10048000A0FB0254C1F3130141F48011C3F3130321
:1004900043F4801301FB024400FB034E840A970AD5
:1004A00044EA815447EA8357A4FB076802958D0A02
:1004B00005FB07854FEA932C04FB0C542705029D8E
:1004C0004FEA065847EA1637B5EB08056EEB070CFE
:1004D000870E920E47EA811742EA8312A7FB0201B8
:1004E000B6EB0B0164EB00042B0D43EA0C335E18F2
:1004F00044EB1C50DA465146E7FB0201C5F31304F6
:100500004FEA0B3343EA14534FEA0432019C43EAA7
:100510000603A4F10C040294009CCDE900B400F0A1
:10052000BFF903B0BDE8F08F00200146F9E72DE9DF
:10053000F04D81EA030404F0004B21F0004514461D
:100540004FF0000A23F0004150EA050220D054EA9F
:1005500001021DD0C5F30A570246C5F31303C1F3C8
:100560001300C1F30A5640F4801543F48013A7EB3F
:100570000608101BD64608F2FD3873EB050002D3BF
:1005800008F1010801E092185B41B8F1000F03DAAD
:1005900000200146BDE8F08D00204FF48011064692
:1005A00084460EE0171B73EB050705D3121B63EBA4
:1005B000050306434CEA010C49084FEA3000921843
:1005C0005B4150EA0107EDD152EA030012D082EA02
:1005D000040083EA0501084305D0101BAB4106D295
:1005E0000122002306E000224FF0004302E06FF0FA
:1005F000010253101AEB06004CEB085110EB0A00F5
:1006000041EB0B01BDE8F04D00F03BB9C10F80EAB2
:10061000E0700844CA079623002100F004B996232D
:100620000022114600F0FFB80EB5C10F80EAE0705D
:100630000844CA07002140F233438DE80E000A4601
:100640000B4600F02DF903B000BD0EB540F233416A
:1006500002910021CDE900110A460B4600F020F975
:1006600003B000BD00F0004220F00040C10DC0F317
:10067000160040F400007F2901DA00207047962917
:1006800003DCC1F19601C84001E096398840002A98
:10069000F4D04042704720F00040C10DC0F3160076
:1006A00040F400007F2901DA00207047962903DC1E
:1006B000C1F19601C840704796398840704700F0F4
:1006C000004230F000400AD0C10D01F56071C0F366
:1006D000160042EA0151C20840071143704700204A
:1006E0000146704701F0004330B421F0004150EA68
:1006F000010206D00A0DA2F56072C1F31301002AAF
:1007000002DC30BC00207047440F44EAC104C10041
:10071000E01830BC00EBC25000F07CB8002801DBD0
:10072000C0F10040002901DBC1F100418142704766
:10073000002801DBC0F10040002901DBC1F10041CC
:100740008842704730B50B46014600202022012424
:1007500009E021FA02F59D4205D303FA02F5491B8F
:1007600004FA02F52844151EA2F10102F1DC30BDA5
:100770002DE9F05F0546002092469B4688460646D6
:10078000814640241BE0284641464746224600F069
:1007900017F953465A46C01A914110D311461846CC
:1007A000224600F016F82D1A67EB01084F46224644
:1007B0000120002100F00DF817EB00094E41201E2A
:1007C000A4F10104DFDC484631462A464346BDE831
:1007D000F09F202A04DB203A00FA02F10020704743
:1007E0009140C2F1200320FA03F31943904070476F
:1007F000202A06DBCB17203A41FA02F043EAE073E5
:1008000006E041FA02F3D040C2F1200291400843D1
:10081000194670470029A8BF7047401C490008BF0F
:1008200020F00100704710B4B0FA80FC00FA0CF020
:1008300050EA010404BF10BC704749B1CCF1200458
:1008400021FA04F411FA0CF118BF012121430843E5
:10085000A3EB0C01CB1D4FEA00614FEA102042BF11
:10086000002010BC704700EBC35010440029A4BF07
:1008700010BC7047401C490008BF20F0010010BCAC
:10088000704710B5141E73F1000408DA401C41F1E2
:10089000000192185B411A4301D120F0010010BD04
:1008A0002DE9F04D92469B4611B1B1FA81F202E07A
:1008B000B0FA80F220329046FFF78BFF04460F46D5
:1008C00040EA0A0041EA0B0153465A46084313D056
:1008D000114653EA010019D0C8F14002504600F019
:1008E0006FF805460E46504659464246FFF771FFDF
:1008F000084305D0012004E020463946BDE8F08DCC
:100900000020054346EAE0762C4337430A98630506
:10091000E40AA0EB08000022FD0A44EA47540A302A
:1009200002D500200146E9E7010510196941DDE91A
:10093000084500196941BDE8F04DA2E7C1F30A522C
:10094000C1F3130140F2FF3341F480119A4202DAFD
:1009500000200146704740F233439A42A2F23342EC
:1009600002DC524200F02CB8FFF733BF30B5041E52
:1009700071F1000404DB4FF00044404264EB0101DC
:10098000141E73F1000405DB1C464FF00043524275
:1009900063EB0403994208BF904230BD064C074DFB
:1009A00006E0E06840F0010394E80700984710343F
:1009B000AC42F6D3FFF7C0FBAC7F0008CC7F000849
:1009C000202A04DB203A21FA02F00021704721FAA4
:1009D00002F3D040C2F1200291400843194670470B
:1009E00070B58C1810F8015B15F0070301D110F8F1
:1009F000013B2A1106D110F8012B03E010F8016B1E
:100A000001F8016B5B1EF9D12B0705D40023521EA0
:100A10000DD401F8013BFAE710F8013BCB1A921C08
:100A200003E013F8015B01F8015B521EF9D5A14206
:100A3000D8D3002070BD000070B50121114800F02E
:100A400096FA00F0E1F800210E4800F090FA002438
:100A500015E00D4931F814100C4A12688818FFF798
:100A6000D5FD06460A4850F824103046FFF7D0FB63
:100A70000546FFF710FE044921F81400641C042CFD
:100A8000E7DB70BD0024014008000020C400002006
:100A9000F80200202DE9F74F8CB08A46934658465D
:100AA000FFF70DFECDE906015046FFF708FE0446AC
:100AB0000D464FF08B410C98FFF7E2FB0190FFF7DA
:100AC000FEFD06464FF06632104BFFF7BEFC224695
:100AD0002B46CDE90201FFF7B2FCCDE90401DDE9C7
:100AE0000623FFF724FD0022094BCDE90801FFF79B
:100AF000ACFC80464FF03332064BFFF7FFFBCDE9ED
:100B00000A01FFF7EFFD0FB0BDE8F08F66660A40FF
:100B1000000024403333254010B50446072301224A
:100B200021460B4800F0C2F90121094800F01FFAE4
:100B30000121074800F052F800BF0221044800F0EC
:100B4000E7F80028F9D0024800F0DEF810BD0000F8
:100B50000028014000B587B001214FF4816004F006
:100B600023F94FF4004004F0F3F800208DF81B0047
:100B70002020ADF8180006A9154802F0DEFB002081
:100B80008DF80900049001908DF8080001208DF87F
:100B900014004FF46020039001A90E4800F0CCF837
:100BA00001210D4800F01AF80B4800F0DBF900BFF6
:100BB000094800F0B6F80028FAD1074800F0E2F939
:100BC00000BF054800F096F80028FAD107B000BD34
:100BD00000080140002401400028014021B1826842
:100BE00042F00102826003E0826822F0010282602A
:100BF000704721B1826842F48072826003E08268AB
:100C000022F480728260704710B58AB0002006908E
:100C100007900890099004900590334903C9CDE9E5
:100C20000201002000900190002127E00B46CC1724
:100C300001EB9474A410A1EB84002C4B33F8112029
:100C400006AB53F82030134406AC44F8203004AB14
:100C500033F81030934202DA04AB23F8102002ABD1
:100C600033F81030934202DD02AB23F810203DF838
:100C700010305B1C9BB22DF81030491C2829D5DBA5
:100C800000202DE006A951F8201004AA32F8102007
:100C9000891A06AA42F8201006A951F8201002AAC3
:100CA00032F81020891A06AA42F820103DF81010D8
:100CB000891E89B22DF810103DF8101000290ADDA8
:100CC00006A951F820103DF81020B1FBF2F1084AB6
:100CD00022F8101003E00021054A22F81010401CF1
:100CE0000428CFDB0AB010BDDC7E000828020020FB
:100CF00008000020014600208A6802F004020AB1C0
:100D0000012000E0002070470146C86C80B27047A7
:100D10000246002013680B400BB1012000E00020C8
:100D20007047014600208A6802F008020AB10120DB
:100D300000E000207047000030B50246002000238C
:100D400050680F4C20400D790C6844EA052420437C
:100D5000506090680B4C2040D1E902542C434D79EF
:100D600044EA450420439060D06A20F470000C7C73
:100D7000641EE4B2234340EA0350D06230BD000059
:100D8000FFFEF0FFFDF7F1FF00B591B00121042057
:100D900004F00AF800208DF843000F20ADF8400061
:100DA00003208DF8420010A93C4802F0C6FA012148
:100DB000480203F0F9FF4FF4004003F0C9FF072396
:100DC00001220021364800F071F807230222012198
:100DD000334800F06BF8072303220221304800F06B
:100DE00065F80723042203212D4800F05FF8012055
:100DF0008DF805008DF8040004208DF81000002007
:100E000003904FF46020029000200090694624482F
:100E1000FFF792FF0121084603F0A6FF20484C305F
:100E2000059080150B90002009901E4806904FF405
:100E300080600C9080200A90002007902820089065
:100E400000200F9001211648FFF7D3FE20200D90BF
:100E5000C0010E9005A9144800F0F2FB01211248D0
:100E600000F0E2FB01210E48FFF7B8FE0C4800F04D
:100E700079F800BF0A48FFF754FF0028FAD1084864
:100E800000F080F800BF0648FFF734FF0028FAD1D1
:100E90000021034800F06BF811B000BD00080140CC
:100EA000002401402802002008000240F0B504465A
:100EB0000D4600200021092D11DDE068A5F10A068C
:100EC00006EB4607072606FA07F18843A5F10A064E
:100ED00006EB460603FA06F10843E0600CE02069E1
:100EE00005EB4507072606FA07F1884305EB45069B
:100EF00003FA06F108432061072A0FDA606B561ED9
:100F000006EB86071F2606FA07F18843561E06EBF6
:100F1000860605FA06F10843606322E00D2A0FDA1F
:100F2000206BD61F06EB86071F2606FA07F18843BB
:100F3000D61F06EB860605FA06F10843206310E08B
:100F4000E06AA2F10D0606EB86071F2606FA07F1F6
:100F50008843A2F10D0606EB860605FA06F1084362
:100F6000E062F0BD816841F008018160704721B105
:100F7000826842F4A002826003E0826822F4A00248
:100F800082607047816841F0040181607047000011
:100F900010B5002207210B2005F0B6FD0B48C068F4
:100FA00050B9002205210B2005F0AEFD01220521DC
:100FB0000B2005F0A9FD04E0012203210B2005F020
:100FC000A3FD322006F032FD10BD0000E802002033
:100FD00008B501210D2003F0E7FE10208DF8030075
:100FE000ADF8000003208DF8020069460B4802F0BE
:100FF000A4F9FFF7AFFD00208DF803000120ADF844
:10100000000003208DF802006946054802F095F9BA
:101010001021024802F06DFA08BD000000080140EE
:10102000000C014000BFFEE700B589B0012105209A
:1010300003F0BAFE0121084603F0A6FE01211E4876
:1010400002F006FA4FF40040ADF8200018208DF8A9
:10105000230003208DF8220008A9184802F06DF93A
:1010600040F2E730ADF818004720ADF8140000203A
:10107000ADF81A00ADF8160005A94FF0804005F054
:1010800043F96020ADF804000120ADF8060000200F
:10109000ADF80A00ADF80C0001A94FF0804005F052
:1010A000E5F80121880705F0BAF84FF4004103483C
:1010B00002F01FFA09B000BD00031800000801404B
:1010C00010B500214FF0804005F01CF910BD10B59F
:1010D0004FF4FA71080705F015F910BD0146CAB2C0
:1010E0000B1243EA0220704708B50020009022E16D
:1010F0009748008800F00F0096490870084600786D
:1011000000287CD1944800689449088008460088EB
:1011100000F03000924908809048008800F4405068
:101120008E4908808C4909684BF6BF7201EA0200BB
:1011300080F4005080F0200040F4004141F0800134
:10114000854A11608248008800F0100090BB10466C
:10115000006848F60F7108401146086002F0E6FF8B
:101160007D4909684BF6BF7201EA02007B49098894
:1011700001F4805109B180F480507849098801F464
:10118000005109B180F400507549098801F010013F
:1011900009B180F010007249098801F0200109B1FD
:1011A00080F0200081B241F4004141F080016A4AA0
:1011B000116008BDFFE76848006880B20090BDF884
:1011C000000000F40060B0B363480068C0F30E0094
:1011D00048F68F7108406049086004F091FB5E4951
:1011E00009684BF6BF7201EA02005C49098801F404
:1011F000805109B180F480505849098800E056E0D8
:1012000001F4005109B180F400505549098801F0FA
:10121000100109B180F010005149098801F0200146
:1012200009B180F0200081B241F4004141F0800119
:10123000494A1160BDE7FFE7BDF8000000F4004037
:10124000002878D044480068C0F30E0048F68F713B
:1012500008404149086003F089FC3F4909684BF6A2
:10126000BF7201EA02003D49098801F4805109B1C9
:1012700080F480503949098801F4005109B180F4A3
:1012800000503749098801F0100109B180F01000C1
:101290003349098801F0200109B180F0200081B2B2
:1012A00041F4004141F080012B4A116081E7294857
:1012B00000782C4901EB8000D0F8000C80B200903F
:1012C000BDF8000000F40040C0B12248007801EBF6
:1012D0008000D0F8000CC0F30E0048F68F71084073
:1012E0001C4909781F4A02EB8101C1F8000C194919
:1012F0000978491E1C4A52F821008047BDF80000B9
:1013000000F08000B8B113480078164901EB800066
:10131000D0F8000C48F60F7108400E490978114AC0
:1013200002EB8101C1F8000C0A490978491E0F4AF5
:1013300052F82100804708484430006880B20449D0
:10134000088000F4004000287FF4D2AE00BF30E7F0
:10135000440100200C010020005C0040200100201E
:1013600022010020005000406C01002050010020AC
:1013700010B5012210210F2005F0C6FB0122032128
:10138000142005F0C1FB4FF4FA7006F04FFB012268
:101390000C21142005F0B8FB4FF4FA7006F046FB60
:1013A00001220C21152005F0AFFB4FF4FA7006F076
:1013B0003DFB01220321152005F0A6FB4FF4FA7036
:1013C00006F034FB002210210F2005F09DFB0022C7
:1013D0000F21142005F098FB00220F21152005F0A5
:1013E00093FB10BD0B4A02EB8001D1F8001C01F405
:1013F000804171B102EB8001D1F8001C48F68F7278
:1014000011404CF280021143024B03EB8002C2F800
:10141000001C7047005000400B4A02EB8001D1F8DD
:10142000001C01F0400171B102EB8001D1F8001CF9
:1014300048F68F72114048F2C0021143024B03EB91
:101440008002C2F8001C70470050004010B5012413
:1014500006E021464FF0FF3000F000FD601CC4B2F2
:10146000142CF6DD10BD10B5002406E00022FF218B
:10147000204605F049FB601CC4B2042CF6DD0022B6
:10148000FF210C2005F040FB00228021172005F0F1
:101490003BFB0022FF21104605F036FBFFF7D6FF8D
:1014A00010BD10B5002220210B2005F02DFB0022DD
:1014B00080210A2005F028FB00224021162005F09B
:1014C00023FB052405E0E0B20022F02105F01CFB1F
:1014D000641C0B2CF7DB102405E0E0B20022F021A5
:1014E00005F012FB641C162CF7DB10BD084A02EB5A
:1014F0008001D1F8001C48F68F62114048F280024A
:101500001143034B03EB8002C2F8001C704700003C
:101510000050004010B512480078401C1049087077
:10152000084600783C2817D1002008700D48007844
:10153000401C0C490870084600783C280CD100205B
:10154000087009480078401C074908700846007870
:10155000182801D10020087000F008F810BD000024
:1015600010000020110000201200002010B5012200
:1015700020210B2005F0C8FA274800780A2190FBAB
:10158000F1F40121204604F013FE234800780A21DB
:1015900090FBF1F201FB12040221204604F008FE48
:1015A000012280210A2005F0AFFA1C4800780A21A8
:1015B00090FBF1F40321204604F0FAFD174800786F
:1015C0000A2190FBF1F201FB12040421204604F0F1
:1015D000EFFD01224021162005F096FA1048007810
:1015E0000A2190FBF1F40521204604F0E1FD0C48AE
:1015F00000780A2190FBF1F201FB1204062120463B
:1016000004F0D6FD0748806820B9012208210A208D
:1016100005F07AFA10BD0000120000201100002031
:1016200010000020E802002021B1026842F001020F
:10163000026004E002684FF6FE731A4002607047D1
:1016400010B50022026847F6F0739A430C6A8B6863
:1016500023430C6923434C6923438C692343CC699E
:1016600023434C6A23438C6A23431A430260CB68AA
:1016700043600B6883604B68C36010BD2DE9F04781
:101680002848006800F110052E8826480068077A6F
:10169000D6B9042F18D12448007801280FD1002191
:1016A0002248006880B2801C214A42F81010302085
:1016B0002049088000BF00201B49087003E007276D
:1016C00010201C49088027E0AC88A64201D80420DD
:1016D00000E002200746B44200D93446A0B2A9680F
:1016E00088478046002001F02BFF8146A2B2494680
:1016F000404605F02FFAA1B2002003F0B5FE28887D
:10170000001B2880688820446880302009490880B0
:1017100000020949088000BF024909680F72BDE84C
:10172000F08700001001002008010020505C0040FC
:101730000060004022010020200100202DE9F0413E
:101740002848006800F110042688A068C0B1BEB126
:10175000A588B54200D93546A8B2A1688847074692
:101760002088401B2080608828446080002001F091
:10177000C5FE8046AAB24146384603F01FFA00BFB4
:10178000208850B14FF44050174908800021084686
:1017900003F06AFE3020154908802088A18888421D
:1017A00004DB03200F490968087218E0208800282C
:1017B00004DD05200B490968087210E0208870B923
:1017C000062008490968087200210948006880B2AB
:1017D000801C084A42F81010302004490880BDE8F7
:1017E000F0810000100100202001002022010020D3
:1017F000505C0040006000402DE9F84F9B480068B5
:1018000045780027BA46062D1BD198480068007815
:1018100000F07F00002813D19449096888780128D6
:1018200003D193490968CF690AE0022803D190499E
:1018300009680F6A04E0032802D18D4909684F6ADC
:1018400094E0002D64D189480068408800285FD169
:1018500086480068C08802285AD184480068007908
:10186000002855D181480068007800F07F0028B931
:101870007E480068808808B97E4F77E07B48006822
:10188000007800F07F00012810D178490968487974
:10189000774909688A6900219047002866D1734812
:1018A0000068807A002861D0724F5FE06F4800685E
:1018B000007800F07F00022858D16C480068407919
:1018C00000F00F0669480068407900F07009674829
:1018D0000068407900F0800038B1674901EB86006C
:1018E000D0F8000C00F0300806E0634901EB8600F8
:1018F000D0F8000C00F4405860480078B04235D968
:10190000B9F1000F32D1B8F1000F2FD0594F2DE0AF
:10191000082D07D155480068007800F07F0028BBEB
:10192000574F23E00A2D21D150480068007800F07D
:101930007F0001281AD14D480068807AB0B14B4829
:101940000068408890B949480068007970B94748F4
:101950000068C088012809D1444909684879444988
:1019600009688A690021904700B9464F57B13F483E
:101970000068A0F812A03D48006887610020B847C1
:1019800000240FE0394A12685078394A1268116908
:1019900088470446032C05D1092034490968087298
:1019A000BDE8F88F31480068008A4FF6FF71884221
:1019B00004D109202D4909680872F1E7022C03D0EF
:1019C0002A480068008A20B9082028490968087256
:1019D000E6E726480068007800F08000E0B323487E
:1019E0000068C088009021480068008A00998842F9
:1019F00004D91E4900980968088223E01B48006842
:101A0000008A1A490968C98888421BDA17480068A1
:101A1000008A1749096891F82C10884203DA0020DF
:101A2000194908700EE011480068008A10490968D9
:101A300091F82C1090FBF1F201FB120010B901207B
:101A4000114908700A48006890F82C10074800688F
:101A50008182FFF713FE07E0FFE7032003490968CF
:101A6000087200030949088000BF99E710010020AF
:101A700014010020A15B00080050004094010020E8
:101A8000255B0008755B000808010020200100208C
:101A900070470000FF2004490870002003490870C7
:101AA000034908707047000010000020110000205A
:101AB000120000202DE9FF4F81B00746904699465D
:101AC0000F9E00213046FEF729FE01D286F0004627
:101AD0003046FEF7C7FD04462046FEF797FD314627
:101AE0000090FEF798FB8346D849FEF797FB8246A5
:101AF000FEF7B8FD054642F2107084423DDBD44843
:101B0000B4FBF0F100FB114042F21071B0FBF1FAAE
:101B10003946504600F0A2F942F21070B4FBF0F1E1
:101B200000FB11404FF47A71B0FBF1FA5046029974
:101B300000F094F94FF47A70B4FBF0F100FB11401F
:101B40006421B0FBF1FA4146504600F087F9642069
:101B5000B4FBF0F100FB11400A21B0FBF1FA494659
:101B6000504600F07BF90A20B4FBF0F100FB114A6B
:101B700050460E9900F072F964E1B4F57A7F5ADBB1
:101B800042F21070B4FBF0F100FB11404FF47A7197
:101B9000B0FBF1FA5046029900F060F94FF47A7008
:101BA000B4FBF0F100FB11406421B0FBF1FA4146B7
:101BB000504600F053F96420B4FBF0F100FB1140F3
:101BC0000A21B0FBF1FA4946504600F047F90A20D5
:101BD000B4FBF0F100FB114A50460E9900F03EF9BB
:101BE0009C480078012810D110231922232100904D
:101BF000384604F05DFF984800680128BCD10122F6
:101C00008021142004F080FF1CE192480078022813
:101C1000B2D1012010231B2225210090384604F068
:101C200047FF8D4800680128A6D10122802112209B
:101C300004F06AFF06E1642C4FDBB4F57A7F4CDADE
:101C40004FF47A70B4FBF0F100FB11406421B0FB5B
:101C5000F1FA4146504600F001F96420B4FBF0F17E
:101C600000FB11400A21B0FBF1FA4946504600F052
:101C7000F5F80A20B4FBF0F100FB114A50460E992A
:101C800000F0ECF873480078012810D110231922D5
:101C900023210090384604F00BFF6F4800680128AC
:101CA000B2D101228021142004F02EFFCAE069483D
:101CB00000780228A8D1012010231B2225210090A2
:101CC000384604F0F5FE6448006801289CD10122E2
:101CD0008021122004F018FFB4E00A2C5EDB642C93
:101CE0005CDA6420B4FBF0F100FB11400A21B0FB88
:101CF000F1FA4946504600F0B1F80A20B4FBF0F181
:101D000000FB114A50460E9900F0A8F8514800789F
:101D1000012819D14946002000F0A0F828460E9964
:101D200000F09CF80120102319222321009038464E
:101D300004F0BEFE48480068012804D10122802139
:101D4000142004F0E1FE7DE042480078022879D1B9
:101D50004146002000F082F80A2095FBF0FA49463F
:101D6000504600F07BF80A2095FBF0F100FB115A79
:101D700050460E9900F072F8012010231B222521F5
:101D80000090384604F094FE33480068012859D189
:101D900001228021122004F0B7FE53E0002C51DB19
:101DA0000A2C4FDA0A20B4FBF0F100FB114A50462E
:101DB0000E9900F053F827480078012819D14946B8
:101DC000002000F04BF828460E9900F047F801205B
:101DD0001023192223210090384604F069FE1E4882
:101DE000006801282ED101228021142004F08CFEED
:101DF00028E018480078022824D14146002000F04D
:101E00002DF80A2095FBF0FA4946504600F026F8D6
:101E10000A2095FBF0F100FB115A50460E9900F094
:101E20001DF8012010231B2225210090384604F0C4
:101E30003FFE09480068012804D1012280211220B8
:101E400004F062FE05B0BDE8F08F00000000204104
:101E5000A086010090000020B00000202DE9F04194
:101E600004460D46601C08B9002607E0092C01DD78
:101E7000BDE8F0816148065D6148075D152D71D2AE
:101E8000DFE805F0700B10151A1F24292E33383D9A
:101E900042474C51565B60656A0031462A2004F087
:101EA000C9FF60E03146282004F0B0FF5BE0314616
:101EB000262004F0ABFF56E03146242004F0A6FFB4
:101EC00051E03146222004F0A1FF4CE031462A20A7
:101ED00005F020F847E03146282005F007F842E0F9
:101EE0003146262005F002F83DE03146242004F07A
:101EF000FDFF38E03146222004F0F8FF33E03146A0
:101F0000202004F083FF2EE031461E2004F07EFFE7
:101F100029E031461C2004F079FF24E031461A20E4
:101F200004F074FF1FE03146182004F06FFF1AE040
:101F30003146202004F0DAFF15E031461E2004F07F
:101F4000D5FF10E031461C2004F0D0FF0BE03146F5
:101F50001A2004F0CBFF06E03146182004F0C6FF3B
:101F600001E0FFE700BF00BFA5F1150005281DD265
:101F7000DFE800F003080D1217003946072004F0CF
:101F800045FF14E03946052004F040FF0FE03946D4
:101F9000112004F078FF0AE03946132004F073FFA3
:101FA00005E03946152004F06EFF00E000BF00BFD9
:101FB000A5F11A0005281DD2DFE800F003080D1274
:101FC00017003946092004F091FF14E03946072034
:101FD00004F08CFF0FE03946052004F087FF0AE08B
:101FE0003946112004F03BFF05E03946132004F088
:101FF00036FF00E000BF00BF00BF39E7E47E000805
:10200000EF7E00082DE9FF4F81B0064690469946C5
:102010000F9F3046109905F04BFE012E06D0062E7C
:102020000AD00B2E0ED0102E18D111E0012208215B
:102030000C2004F069FD11E0012204210C2004F0C1
:1020400063FD0BE0012202210C2004F05DFD05E0A0
:10205000012211460C2004F057FD00BF00BF0021F3
:102060003846FEF75BFB01D287F000473846FEF7A3
:10207000F9FA04462046FEF7C9FA39460090FEF701
:10208000CAF88346D849FEF7C9F88246FEF7EAFA4D
:10209000054642F2107084423DDBD448B4FBF0F1B7
:1020A00000FB114042F21071B0FBF1FA314650468C
:1020B000FFF7D4FE42F21070B4FBF0F100FB1140C8
:1020C0004FF47A71B0FBF1FA50460299FFF7C6FE61
:1020D0004FF47A70B4FBF0F100FB11406421B0FBC7
:1020E000F1FA41465046FFF7B9FE6420B4FBF0F127
:1020F00000FB11400A21B0FBF1FA49465046FFF7B8
:10210000ADFE0A20B4FBF0F100FB114A50460E99D7
:10211000FFF7A4FE64E1B4F57A7F5ADB42F2107057
:10212000B4FBF0F100FB11404FF47A71B0FBF1FA0F
:1021300050460299FFF792FE4FF47A70B4FBF0F12B
:1021400000FB11406421B0FBF1FA41465046FFF715
:1021500085FE6420B4FBF0F100FB11400A21B0FBC6
:10216000F1FA49465046FFF779FE0A20B4FBF0F138
:1021700000FB114A50460E99FFF770FE9C4800780C
:10218000012810D11023192223210090304604F099
:102190008FFC984800680128BCD1012280211420BE
:1021A00004F0B2FC1CE1924800780228B2D1012070
:1021B00010231B2225210090304604F079FC8D4825
:1021C00000680128A6D101228021122004F09CFC85
:1021D00006E1642C4FDBB4F57A7F4CDA4FF47A7069
:1021E000B4FBF0F100FB11406421B0FBF1FA414671
:1021F0005046FFF733FE6420B4FBF0F100FB1140C2
:102200000A21B0FBF1FA49465046FFF727FE0A20A3
:10221000B4FBF0F100FB114A50460E99FFF71EFE89
:1022200073480078012810D110231922232100902F
:10223000304604F03DFC6F4800680128B2D101220D
:102240008021142004F060FCCAE06948007802286C
:10225000A8D1012010231B2225210090304604F034
:1022600027FC6448006801289CD1012280211220AB
:1022700004F04AFCB4E00A2C5EDB642C5CDA6420D7
:10228000B4FBF0F100FB11400A21B0FBF1FA494622
:102290005046FFF7E3FD0A20B4FBF0F100FB114AC2
:1022A00050460E99FFF7DAFD51480078012819D100
:1022B00049460020FFF7D2FD28460E99FFF7CEFDD4
:1022C00001201023192223210090304604F0F0FB56
:1022D00048480068012804D101228021142004F01C
:1022E00013FC7DE042480078022879D14146002065
:1022F000FFF7B4FD0A2095FBF0FA49465046FFF778
:10230000ADFD0A2095FBF0F100FB115A50460E99E5
:10231000FFF7A4FD012010231B2225210090304649
:1023200004F0C6FB33480068012859D101228021FE
:10233000122004F0E9FB53E0002C51DB0A2C4FDAA9
:102340000A20B4FBF0F100FB114A50460E99FFF74A
:1023500085FD27480078012819D149460020FFF75C
:102360007DFD28460E99FFF779FD012010231922E3
:1023700023210090304604F09BFB1E480068012892
:102380002ED101228021142004F0BEFB28E0184841
:102390000078022824D141460020FFF75FFD0A2083
:1023A00095FBF0FA49465046FFF758FD0A2095FB89
:1023B000F0F100FB115A50460E99FFF74FFD012036
:1023C00010231B2225210090304604F071FB0948A0
:1023D0000068012804D101228021122004F094FB1E
:1023E00005B0BDE8F08F000000002041A08601008C
:1023F00090000020B000002001B592B01298002893
:1024000071DBFE491298096888426CDA0BA91298B0
:1024100002F0B2F91299491CF9A004F0CDFDFE4872
:1024200040680A2823D2DFE800F00523568ABDE27F
:10243000FDFCFBFA01222021162004F065FB0020A0
:1024400006900EE0F549069851F82000F4490590F1
:10245000FDF7E4FE07AA069942F821000698401C01
:10246000069006980428EDDB0020EE490870A8E1EC
:1024700001223021162004F047FB0020069023E0C3
:102480000BA9069851F820000190FEF718F9E64ACA
:10249000E64BCDE90201FDF7D8FFCDE90401FEF7D7
:1024A00021F907AA069942F8210007A9069851F8D0
:1024B0002000DB490590FDF7B1FE07AA069942F816
:1024C00021000698401C069006980428D8DB0220BC
:1024D000D449087075E101220821162004F014FB8C
:1024E0000020069024E021E30BA9069851F8200073
:1024F0000190FEF7E4F8CE4ACE4BCDE90201FDF79C
:10250000A4FFCDE90401FEF7EDF807AA069942F809
:10251000210007A9069851F82000C7490590FDF74A
:102520007DFE07AA069942F821000698401C0690F5
:1025300006980428D8DB0120BA49087041E101223D
:102540000421162004F0E0FA0020069023E00BA9F5
:10255000069851F820000190FEF7B1F8B44AB54B47
:10256000CDE90201FDF771FFCDE90401FEF7BAF8EC
:1025700007AA069942F8210007A9069851F82000F9
:10258000AD490590FDF74AFE07AA069942F82100D9
:102590000698401C069006980428D8DB0120A14923
:1025A00008700EE101220321162004F0ADFA00208C
:1025B000069015E00BA9069851F8201007AA42F8DA
:1025C000201007A9069851F820009B490590FDF7B7
:1025D00025FE07AA069942F821000698401C06909D
:1025E00006980428E6DB01208E490870E9E0012204
:1025F0001146172004F088FA0020069028E00BA965
:10260000069851F820000190FEF759F88B4A8C4B40
:10261000CDE90201FDF719FFCDE9040103E0ABE0CC
:1026200077E04FE01BE0FEF75DF807AA069942F855
:10263000210007A9069851F8200079490590FDF777
:10264000EDFD07AA069942F821000698401C069065
:1026500006980428D3DB022072490870B1E00122F9
:102660000221172004F050FA0020069023E00BA965
:10267000069851F820000190FEF721F8714A724B3C
:10268000CDE90201FDF7E1FECDE90401FEF72AF8EC
:1026900007AA069942F8210007A9069851F82000D8
:1026A00065490590FDF7BAFD07AA069942F8210091
:1026B0000698401C069006980428D8DB0220594949
:1026C00008707EE001220421172004F01DFA00208A
:1026D000069017E00BA9069851F820000190FDF72D
:1026E000EEFF5A4A5A4BCDE90201FDF7AEFECDE9A5
:1026F0000401FDF7F7FF07AA069942F821000698A2
:10270000401C069006980428E4DB00204549087028
:1027100057E001222021172004F0F6F9002006904E
:1027200023E00BA9069851F820000190FDF7C7FFA0
:10273000484A494BCDE90201FDF787FECDE9040186
:10274000FDF7D0FF07AA069942F8210007A90698CD
:1027500051F8200032490590FDF760FD07AA06995F
:1027600042F821000698401C069006980428D8DB01
:1027700002202C49087024E001221021172004F0C7
:10278000C3F90020069015E00BA9069851F8201017
:1027900007AA42F8201007A9069851F820002649F8
:1027A0000590FDF73BFD07AA069942F8210006981F
:1027B000401C069006980428E6DB012019490870A1
:1027C00000BF00BF9DF8470001287CD100220821EE
:1027D0000A2004F099F9012211460F2004F094F91F
:1027E0000BA8C08A05220A990423CDE90021029092
:1027F000032202210120FFF705FC2FE0A8000020A2
:10280000CFD4CABEC0FACAB7BCC7C2BCCBF7D2FDD0
:102810003A2025640A000000E8020020C8020020D7
:102820000000C842900000209A9999999999B93F5F
:10283000821DFF058200E83F000020415F8DFD768C
:10284000233D9E3F8675E3DD91B1D93FDB8AFD656F
:10285000F76424401A8057152BB48D3F0BA8808A4B
:102860000A2209990923CDE90021029008220721B3
:102870000620FFF7C7FB012220210B2004F044F9BA
:102880009DF846000A2190FBF1F00121069003F02B
:102890008FFC9DF846000A2190FBF1F201FB12002B
:1028A0000221069003F084FC012280210A2004F01A
:1028B0002BF99DF845000A2190FBF1F003210690C9
:1028C00003F076FC00E053E09DF845000A2190FB00
:1028D000F1F201FB12000421069003F069FC0122D1
:1028E0004021162004F010F99DF844000A2190FBC5
:1028F000F1F00521069003F05BFC9DF844000A21ED
:1029000090FBF1F201FB12000621069003F050FC4F
:102910001298401C1E211D231C22CDE900101B21F2
:102920001A2002F04DF80E980390FDF7C8FECDE98D
:10293000040101460598CDE900100BA8C08A0246A3
:10294000002103907DA004F037FB0D980390FDF764
:10295000B6FECDE9040101460598CDE900100BA8AB
:10296000808A02460121039074A004F025FBDCE07C
:10297000002201210F2004F0C7F8012208210A20BB
:1029800004F0C2F80BA8C08A05220A990423CDE9F5
:1029900000210290032202210120FFF733FB0BA844
:1029A000808A0A2209990923CDE900210290082290
:1029B00007210620FFF726FBBDF83E000F220899ED
:1029C0000E23CDE9002102900D220C210B20FFF7F0
:1029D00019FBBDF83C00142207991323CDE900210F
:1029E0000290122211211020FFF70CFB012220215E
:1029F0000B2004F089F89DF846000A2190FBF1F0C5
:102A00000121069003F0D4FB9DF846000A2190FBBB
:102A1000F1F201FB12000221069003F0C9FB012232
:102A200080210A2004F070F89DF845000A2190FBEF
:102A3000F1F00321069003F0BBFB9DF845000A214D
:102A400090FBF1F201FB12000421069003F0B0FBB1
:102A500001224021162004F057F89DF844000A2175
:102A600090FBF1F00521069003F0A2FB9DF84400D5
:102A70000A2190FBF1F201FB12000621069003F0FF
:102A800097FB012208210A2004F03EF81298401C0E
:102A90001E211D231C22CDE900101B211A2001F04C
:102AA0008FFF0E980390FDF70AFECDE90401014661
:102AB0000598CDE900100BA8C08A024600210390BA
:102AC0001EA004F079FA0D980390FDF7F8FDCDE90A
:102AD0000401CDE900010BA8808A02460121039080
:102AE00016A004F069FA0C980390FDF7E8FDCDE913
:102AF000040101460598CDE90010BDF83E000246EC
:102B0000022103900DA004F057FA0B980390FDF7F3
:102B1000D6FDCDE90401CDE90001BDF83C00024637
:102B20000321039005A004F047FA04E01299491C20
:102B30000DA004F041FA13B000BD0000507265739F
:102B4000737572652025643A2041445F56616C7547
:102B5000653D2025642C20D1B9C1A63D20252E320B
:102B600066204850610D0A00CEDED0A7B5C4C0FA79
:102B7000CAB7BCC7C2BCCBF7D2FD3A2025640A0055
:102B80002DE9F04788B00446002050490870002C19
:102B90007EDB4F48006884427ADA01A9204601F0C2
:102BA000EBFD4C4D4C4E4FF0000A9DF81F000128E4
:102BB00020D14A498860022714E001A951F8270072
:102BC0002946FDF7B5FD02D201A850F8275001A90A
:102BD00051F827003146FDF7A1FD02D201A850F8B7
:102BE00027607F1C042FE8DB31462846FDF710FBE9
:102BF00082461DE0002714E001A951F8270029466C
:102C0000FDF796FD02D201A850F8275001A951F80E
:102C100027003146FDF782FD02D201A850F8276057
:102C20007F1C042FE8DB31462846FDF7F1FA824687
:102C30004FF000092A48006820B1012815D0022869
:102C40003AD126E0A946012280210B2003F05CFF47
:102C5000484602F0E1FC4846FDF731FD07463A469A
:102C60000B4620A004F0A8F926E0B146012240213D
:102C70000B2003F049FF484602F0CEFC4846FDF722
:102C80001EFD07463A460B461BA004F095F913E0DB
:102C900014E0D146012208210B2003F035FF4846FD
:102CA00002F0BAFC4846FDF70AFD07463A460B46D5
:102CB00016A004F081F900BF00BF03E0611C17A05B
:102CC00004F07AF908B0BDE8F0870000B8000020F1
:102CD000A8000020CAF249F1CAF24971E8020020B6
:102CE000B4000020CFD4CABED7EEB4F3D6B53A2094
:102CF000252E32660A000000CFD4CABED7EED0A17E
:102D0000D6B53A20252E32660A000000CFD4CABEBE
:102D1000B2EED6B53A20252E32660A00CEDED0A716
:102D2000B5C4C0FACAB7BCC7C2BCCBF7D2FD3A2003
:102D300025640A002DE9FE43C84840680A2817D2D6
:102D4000DFE800F0051738597A91B2D3ECFD002482
:102D500009E0C34951F82400C249FDF75FFAC249AE
:102D600041F82400641C042CF3DB0020BF490870E8
:102D70000EE1002418E0BA4951F82400FDF79FFC49
:102D80000746BB4ABB4BFDF760FB0546FDF7AAFCB7
:102D9000B54941F8240051F82400B249FDF73EFA44
:102DA000B14941F82400641C042CE4DB0220AF4943
:102DB0000870EDE0002418E0A94951F82400FDF75F
:102DC0007EFC0746AC4AAD4BFDF73FFB0546FDF7E1
:102DD00089FCA54941F8240051F82400A849FDF7D1
:102DE0001DFAA14941F82400641C042CE4DB0120F5
:102DF0009E490870CCE0002418E0994951F824005D
:102E0000FDF75DFC07469C4A9C4BFDF71EFB054603
:102E1000FDF768FC944941F8240051F824009849D2
:102E2000FDF7FCF9904941F82400641C042CE4DB14
:102E300001208E490870ABE000240EE0884850F86D
:102E40002400894941F8240051F824008C49FDF7F9
:102E5000E5F9854941F82400641C042CEEDB0120CF
:102E60008249087094E0002418E07D4951F824005C
:102E7000FDF725FC0746834A834BFDF7E6FA054636
:102E8000FDF730FC784941F8240051F824007549D9
:102E9000FDF7C4F9744941F82400641C042CE4DBF8
:102EA00002207249087073E0002418E06C4951F860
:102EB0002400FDF704FC0746744A754BFDF7C5FA7C
:102EC0000546FDF70FFC684941F8240051F824003D
:102ED0006B49FDF7A3F9644941F82400641C042CF4
:102EE000E4DB02206149087052E0002410E05C49F4
:102EF00051F82400FDF7E3FB0746664A664BFDF7F1
:102F0000A4FA0546FDF7EEFB574941F82400641C7E
:102F1000042CECDB00205549087039E000241AE04D
:102F20004F4951F82400FDF7CAFB07465B4A5C4B4A
:102F3000FDF78BFA0546FDF7D5FB4B4900E010E0A5
:102F400041F8240051F824004649FDF767F9464945
:102F500041F82400641C042CE2DB02204349087081
:102F600016E000240EE03E4850F824003E4941F8A7
:102F7000240051F824004249FDF750F93A4941F83C
:102F80002400641C042CEEDB01203849087000BFCB
:102F900000BF32488068D8BB01F0C4F8FEF756FA8B
:102FA0004048C0883049C96805220423CDE9002182
:102FB0000290032202210120FFF724F8394880887B
:102FC000294989680A220923CDE9002102900822B3
:102FD00007210620FFF716F8324840882249496841
:102FE0000F220E23CDE9002102900D220C210B208F
:102FF000FFF708F82B4800881B490968142213239F
:10300000CDE900210290122211211020FEF7FAFFD3
:103010001248806801281DD1FEF718FA2148C0889F
:103020001149C96805220423CDE900210290032239
:1030300002210120FEF7E6FF1A4880880A498968C4
:103040000A220923CDE90021029008220721062047
:10305000FEF7D8FF01F068F8BDE8FE83E802002023
:10306000C80200200000C842D802002090000020C2
:103070009A9999999999B93F821DFF058200E83F75
:10308000000020415F8DFD76233D9E3F8675E3DD88
:1030900091B1D93FDB8AFD65F76424401A8057154A
:1030A0002BB48D3F0800002070B52248B0F8020410
:1030B0002049B1F80014884200D170BD1D48B0F815
:1030C00002041C49B1F80014884208DA1948B0F823
:1030D00000041849B1F80214401A84B205E01548FA
:1030E000B0F80204C0F5806084B2402C00DD4024BA
:1030F0001048B0F80254B0F8020420440D49A1F879
:1031000002040846B0F80204B0F5806F02DB00202C
:10311000A1F80204074948192246C02103F01AFD0C
:103120002146012002F0A0F9012002F0CBF900BFF6
:10313000C3E70000EC0B002010B50649032003F0A4
:103140005FFC84B2E1B2034803F072FC032002F09A
:1031500061F910BD8011002001490860704700002E
:1031600014040140002123498279002A3AD00A46FA
:10317000126803689A430B461A600A1D12680368B6
:103180009A430B1D1A60027911440A6803681A43B6
:103190000A60184A0832126803689A43154B0833CC
:1031A0001A601A1D126803689A43124B0C331A6096
:1031B0004279102A0ED11A1F126803681A430D4B68
:1031C00008331A601A1D126803681A43094B0C333E
:1031D0001A600DE00749427911440A6803681A43EE
:1031E0000A6005E0027911440A6803689A430A609C
:1031F000704700000004014010B503A003F0DCFE9E
:1032000003200849086010BD75736220656E7465FF
:1032100072206C6F7720706F776572206D6F6465B8
:103220000D0A00001C02002030B5044604254FF4AE
:10323000302000F06FF80546042D17D10C480069C6
:1032400040F002000A49086108464461006940F004
:10325000400008614FF4302000F05CF80546044857
:10326000006941F6FD71084001490861284630BDFA
:103270000020024004200B49C96801F0010109B196
:1032800001200EE00749C96801F0040109B10220DC
:1032900007E00449C96801F0100109B1032000E00A
:1032A00004207047002002400348006940F080007D
:1032B00001490861704700000020024070B50446D3
:1032C0000D460426F00200F025F80646042E11D122
:1032D0000948006940F00100074908612580F002B3
:1032E00000F018F806460448006941F6FE710840EF
:1032F00001490861304670BD002002400248034980
:103300004860034848607047230167450020024039
:10331000AB89EFCD00B502460423FFF7ABFF0346B0
:1033200003E0FFF7A7FF0346521E012B01D1002A3D
:10333000F7D102B90523184600BD2DE9F041024638
:1033400000250026002000230024002791F803C058
:103350000CF00F0591F803C00CF0100CBCF1000F3D
:1033600003D091F802C04CEA050591F800C0BCF109
:10337000000F31D0146800202BE04FF0010C0CFA44
:1033800000F3B1F800C00CEA03069E4220D183008E
:103390004FF00F0C0CFA03F7BC4305FA03FC4CEAA0
:1033A000040491F803C0BCF1280F06D14FF0010CC2
:1033B0000CFA00FCC2F814C00AE091F803C0BCF19A
:1033C000480F05D14FF0010C0CFA00FCC2F810C0F8
:1033D000401C0828D1D31460B1F800C0BCF1FF0F25
:1033E00034DD546800202EE000F1080C4FF0010895
:1033F00008FA0CF3B1F800C00CEA03069E4221D192
:1034000083004FF00F0C0CFA03F7BC4305FA03FCE2
:103410004CEA040491F803C0BCF1280F05D100F177
:10342000080C08FA0CF8C2F8148091F803C0BCF13B
:10343000480F07D100F1080C4FF0010808FA0CF80A
:10344000C2F81080401C0828CED35460BDE8F0813B
:10345000F0B50A46002300240021002500F00046B4
:10346000B6F1004F02D11D4EF16901E01B4E7168AB
:10347000C0F3034583B200F44016B6F5401F08D1EF
:1034800021F07061154E766826F07066134F7E60ED
:1034900012E000F48016B6F5801F06D1032606FA66
:1034A00005F4A14341F0706106E0460D360103FAD0
:1034B00006F6B14341F0706122B1460D360103FAC0
:1034C00006F6314300F00046B6F1004F02D1034E3C
:1034D000F16101E0014E7160F0BD000000000140AB
:1034E0000246002093680B400BB1012000E0002051
:1034F000704741617047016170470000014605480F
:10350000006880B200EBC100001D034A32F81000D1
:1035100080B27047505C00400060004001460648A1
:10352000006880B200EBC100801D044A32F8100030
:10353000C0F3090070470000505C0040006000408C
:1035400001460548006880B200EBC100034A32F82A
:10355000100080B270470000505C004000600040E6
:1035600070B506460024002504E03046FDF7D4FA85
:1035700004446D1C0A2DF8DB0A20B4FBF0F4A0B261
:1035800070BD000070B50A480468001D0568001D84
:103590000668344454B108220649204600F02CFE47
:1035A000042204491031284600F026FE70BD0000B8
:1035B000E8F7FF1F2801002070B504464FF40041D2
:1035C0000C48FFF796FF0321C02000F061F8A10628
:1035D000080E072100F05CF8042004F04DFA00F01A
:1035E0000BF805464FF400410248FFF784FF2846D8
:1035F00070BD0000000C014038B500244FF480502D
:10360000ADF8000048208DF8030069461548FFF723
:1036100094FE042004F030FA00250CE0641000F061
:1036200023F84FF480510F48FFF75AFF08B144F0D8
:103630008004681CC5B2082DF0DB4FF48050ADF853
:10364000000003208DF8020010208DF80300694669
:103650000448FFF772FE4FF480510248FFF74BFF1A
:10366000204638BD000C014010B54FF4804107489A
:10367000FFF73FFF042004F0FFF94FF480410348B7
:10368000FFF739FF042004F0F7F910BD000C0140EA
:1036900070B504460D46002621E004F0800028B1F4
:1036A0004FF480510F48FFF726FF04E04FF480519C
:1036B0000C48FFF71EFF4FF400510A48FFF719FFAF
:1036C000022004F0D9F94FF400510648FFF713FF28
:1036D0006006040E042004F0CFF9701CC6B2AE429E
:1036E000DBDB70BD000C014070B504460D460026C2
:1036F00020E004F0010028B14FF480510F48FFF79B
:10370000FAFE04E04FF480510C48FFF7F2FE4FF44C
:1037100000510A48FFF7EDFE022004F0ADF94FF426
:1037200000510648FFF7E7FE6410042004F0A4F9F6
:10373000701CC6B2AE42DCDB70BD0000000C014064
:1037400010B5044600202F4908702F4908702F49F2
:103750000870012C02D0042C50D126E02C480078AF
:1037600010BB2C48006808B100F074FF2A480068BC
:1037700008B9012000E000202749086008460068D9
:1037800048B908212548FFF7B6FE012240210F2045
:1037900003F0BAF908E008212048FFF7AAFE00224A
:1037A00040210F2003F0B0F929E01A48006808B161
:1037B00000F050FF1A48006808B9012000E000201E
:1037C000174908600846006868B110211548FFF7DE
:1037D00092FE08211148FFF78EFE012240210F20A2
:1037E00003F092F909E004F0CFF808210B48FFF745
:1037F00080FE10210B48FFF77CFE00E000BF00BFF9
:1038000010BD00002A000020130000202900002025
:1038100094000020E8020020C0000020000C0140BD
:10382000BC0000200008014010B504465348007851
:1038300000287AD1524908705249087052490870DC
:103840005248006808B100F005FF5148036851482C
:103850002146026850A003F0AFFB012C70D14D4807
:10386000006800284FD04A48006888B94748406837
:1038700009300A2190FBF1F201FB12004349486034
:1038800001F0E6FF4148416850A003F095FB70E06D
:103890003F480068012816D13C498968481C00EB64
:1038A000D0714910A0EB4101384A916002F01CFB35
:1038B0003648806808B9022000E00420014647A08D
:1038C00003F07AFB55E032480068022851D12F49B5
:1038D000C968481C00EBD0714910A0EB41012B4A8C
:1038E000D160FDF755FB2948C06808B141A000E050
:1038F00042A0014643A003F05FFB2448C16846A0F4
:1039000003F05AFB35E04B480068401CC8B1FDF796
:103910009DFDFDF7A8FD47480068002806DD4548E5
:103920000068401E4349086005E025E04248006801
:10393000401E404908603F480068FEF75DFD18E002
:1039400018E01248006808B9012000E000200F4983
:1039500008600846006828B1012220210F2003F0EA
:10396000D3F804E0002220210F2003F0CDF801F06D
:10397000F9FB00E000BF00BF10BD00009400002074
:103980002A0000201300002029000020E802002067
:103990009C00002098000020B0B4BCFC31CAC2BC1E
:1039A000FE3A2025642C2073657474696E67735F1A
:1039B0006D6F64653A2025642C2073657474696E9C
:1039C000675F6974656D3A2025640A00B5B1C7B0B8
:1039D000B5A5CEBB3A2025640D0A0000B5B1C7B02D
:1039E000B4ABB8D0C6F7CAFDC1BF3A2025640D0AF2
:1039F00000000000BFAAC6F400000000B9D8B1D58D
:103A000000000000D7D4B6AFB9D8BBFAB9A6C4DC61
:103A10003A2025730D0A0000D7D4B6AFB9D8BBFA47
:103A2000B9A6C4DCB5B1C7B0D1A1D4F1CEAA3A20B1
:103A300025640A00AC000020A800002010B58AB060
:103A400004467548007800287ED17449087074498E
:103A50000870744908707448006808B100F0FAFDF5
:103A60000022C8210B2003F04FF8012C02D0042CB7
:103A70006BD182E06D48006808B1FDF712FD6C481B
:103A80000068401CF0B16948006870B1694800687E
:103A9000401C032190FBF1F201FB12006549086014
:103AA00063480068FFF76CF866E0FDF7FAFC002059
:103AB0006049086001205D4908605D480068FFF7C3
:103AC0005FF859E05C480078002855D15B480068F1
:103AD00040B9012059490860012220210E2003F03D
:103AE00013F849E000200CE0554951F8201003AAD2
:103AF00042F82010534931F8102007A921F810206E
:103B0000401C0428F0DB504800788DF824004F4812
:103B100000788DF825004E4800788DF82600424840
:103B2000007A8DF8270003A94A48006801F022FBBB
:103B300048480068401C142190FBF1F201FB120080
:103B400044490860444801E064E061E000681428EA
:103B500004DA41480068401C3F4908603D4800685D
:103B60001E211D231C22CDE900101B211A2000F06C
:103B700027FF01F0E3FA00BF4BE00022C8210B2031
:103B800002F0C2FF00202D49086001202A49087078
:103B900027480068401CF8B9FDF758FCFDF763FCA6
:103BA000FDF77FFC2C480068012800D100E00020D0
:103BB0001F490860012260210E2002F0A5FF0122AA
:103BC00010210B2002F0A0FF24A003F0F5F9184803
:103BD0000068FEF711FC1AE04FF0FF30144908604E
:103BE00000201249086021A003F0E6F9FDF72EFC41
:103BF000FDF739FC002260210E2002F085FF002233
:103C000010210B2002F080FF00200B49087000E01B
:103C100000BF00BF0AB010BD940000202A000020A1
:103C20001300002029000020E8020020B00000203E
:103C3000AC000020B4000020A1000020C80000203B
:103C4000C802002008000020100000201100002001
:103C500012000020A4000020A8000020B2E9BFB498
:103C6000C0FACAB7CAFDBEDD0A000000CDCBB3F66C
:103C7000B2E9BFB4C0FACAB7CAFDBEDDC4A3CABDAB
:103C80000A00000010B5044600201E4908701E49B5
:103C900008701E4908701E48006808B100F0DAFC80
:103CA000012C2CD11B48006810B101F07BFA25E0F3
:103CB0001948006808B9012000E000201649086092
:103CC0000846006808B115A000E016A0014617A03C
:103CD00003F072F91048006840B1012280210F20E2
:103CE00002F012FF01201449087007E00022802131
:103CF0000F2002F009FF00200F49087000E000BF0C
:103D000000BF10BD2A000020130000202900002061
:103D1000E802002098000020CC000020CBF8B6A8D4
:103D200000000000BDE2CBF800000000CAFDBEDDCF
:103D300025730D0A000000009400002010B5044611
:103D400046480078002871D14549087045490870F7
:103D5000454908704548006808B100F07BFC012C1B
:103D600002D0042C76D162E00022C8210B2002F0A0
:103D7000CBFE3F480068002840D03E48006860B94C
:103D80003A4840680B300A2190FBF1F201FB120027
:103D90003649486001F05CFD47E03648006801287C
:103DA0000CD132498968C81C00EBD0714910A0EBD6
:103DB00041012E4A916002F097F836E02D480068E4
:103DC000022832D12949C968481C00EBD07149103A
:103DD000A0EB4101254AD160FDF7DAF82348C0681D
:103DE00008B125A000E026A0014627A003F0E4F8D2
:103DF0001E48C16829A003F0DFF816E02E480068CD
:103E0000401C90B1FDF722FBFDF72DFB2A4800680E
:103E1000401C2A49096890FBF1F201FB1200264977
:103E2000086008460068FEF7E7FA14E014E0012095
:103E30000F490860002201210F2002F065FE0022D8
:103E400008210A2002F060FEFDF72BFBFDF70BFBBB
:103E500001E0FFE700BF00BF10BD0000940000209C
:103E60002A0000201300002029000020E802002082
:103E7000980000209C000020BFAAC6F400000000AB
:103E8000B9D8B1D500000000D7D4B6AFB9D8BBFAC5
:103E9000B9A6C4DC3A2025730D0A0000D7D4B6AF0A
:103EA000B9D8BBFAB9A6C4DCB5B1C7B0D1A1D4F1B9
:103EB000CEAA3A2025640A00AC000020A800002009
:103EC0002DE9F0478CB082467848007800287CD1F4
:103ED0007749087077490870774908707748006813
:103EE00008B100F0B7FBBAF1010F03D0BAF1040F2B
:103EF0006CD117E0012204210F2002F005FE3220D0
:103F000003F094FD01206E4908704FF4967003F0A1
:103F10008DFD002204210F2002F0F6FD322003F077
:103F200085FDBFE067480068401C90B1FDF720FAAE
:103F300000206549086065490860634800681E21E3
:103F40001D231C22CDE900101B211A2000F038FD92
:103F5000A6E05F48006808B9012000E000205C4945
:103F60000860FDF705FA5A480068002865D000206F
:103F70000A900B90002414E0FCF746FE00200AE0B3
:103F80000AA931F81010534A32F8102011440AAA35
:103F900022F81010401C0428F2DBC82003F046FD74
:103FA000641C0A2CE8DB4FF0000814E00AA931F881
:103FB0001800FCF74AFB06460022474BFCF7B7FA0D
:103FC0000446FCF78FFB454901E06CE069E041F8ED
:103FD000280008F10108B8F1040FE7DB4FF4DF60B7
:103FE0003F49086000F036FB3C49C868FCF767FBB6
:103FF000CDE9080139498868FCF761FB04460D46A4
:1040000036494868FCF75BFB06460F4633490868AB
:10401000FCF755FB80468946314800680690DDE98B
:10402000080142464B46CDE90067CDE90245CDE99E
:1040300004012CA002F0C0FF32E0002006E00021C5
:10404000264A42F82010264A1160401C0428F6DB5C
:1040500000F000FB2149C868FCF731FB04460D461F
:104060001E498868FCF72BFB06460F461B4948682B
:10407000FCF725FB8046894618490868FCF71FFBBA
:10408000CDE90A0116480068CDE90089CDE902674B
:10409000CDE90445069013A0DDE90A2302F08CFF68
:1040A00000E000BF00BF0CB0BDE8F0879400002026
:1040B0002A0000201300002029000020E802002030
:1040C000A0000020AC000020A4000020A8000020D8
:1040D000D00000200800002000002440F80200204A
:1040E000C4000020D0A3D7BCCDEAB3C93A204144D4
:1040F00043C6ABD2C6C1BF203D2025662C20256615
:104100002C2025662C2025663B696E697469616CDC
:104110005F76616C7565203D2025640A0000000013
:1041200000BFFEE772B6704762B6704710B5184818
:104130000068047A022C01D0042C05D1FDF79EFA08
:1041400013480068047A1CE0062C19D11048006856
:10415000407805280ED10E480068007800F07F00F6
:1041600040B90B490968C87801F0D4F809490968D1
:10417000086A80470849096888688047082400E081
:104180000824034909680C7200F02EFD10BD0000E0
:10419000100100201C0100201401002010B515485A
:1041A00000F002FB00F0D4FA1248006830B1114868
:1041B0000068012802D001200E4908600D484068BF
:1041C0000A2802DB00200B4948600A48806830B1A9
:1041D00008488068012802D0002006498860054808
:1041E000C06830B10348C068012802D000200149EE
:1041F000C86010BDE802002030B50B46002100BFAA
:1042000016E00A24B4EB107F05D9302404EB1074B7
:1042100003F8114005E0412404EB10740A3C03F854
:104220001140000100254C00641C1D554C1CE1B2DE
:104230009142E6DB30BD000010B50446A06880471F
:1042400040B90948844202D10120A0700AE0002050
:10425000A07007E00448844202D10020A07001E071
:104260000120A07010BD00003000002008B5012121
:10427000102000F099FD3E20ADF8000003208DF8DD
:10428000020004208DF8030069460F48FFF755F837
:104290000120ADF8000003208DF8020028208DF8E1
:1042A000030069460848FFF748F8002007490873EB
:1042B00007490873074908730749087307490873D2
:1042C0000749087308BD00000010014030000020BD
:1042D00040000020500000206000002070000020FE
:1042E0008000002010B501210148FFF7F9F810BD4A
:1042F0000010014010B502210148FFF7F1F810BD90
:104300000010014010B504210148FFF7E9F810BD85
:104310000010014010B508210148FFF7E1F810BD79
:104320000010014010B510210148FFF7D9F810BD69
:104330000010014010B520210148FFF7D1F810BD51
:104340000010014010B504469C48844272D12046BA
:10435000FFF772FFE07806286DD2DFE800F0030E69
:104360001939466DA07820B90120E0700020207135
:1043700002E00020E070207183E0A07820B90220E4
:10438000E0700020207102E00020E070207178E0F1
:10439000A07848B92088C82806DB0320E0700420F4
:1043A00020710020208012E0A07850B92088C82811
:1043B00007DA2088401C20800220E0700020207155
:1043C00005E0002020800420E0700020207158E0EB
:1043D000A07828B90320E07000202071208003E03D
:1043E0000020E070207120804BE0A07840B1208850
:1043F000012805DB00202080E0700120207118E0FA
:10440000A07850B12088012807DA2088401C20803D
:104410000420E070002020710BE000202080207B31
:1044200020B10520E0700020207102E00120E07042
:10443000207126E026E023E0A07848B92088C8282B
:1044400006DB0320E070012020710020208016E0B0
:10445000A07850B92088C82807DA2088401C20801E
:104460000520E0700020207109E000202080E0702D
:10447000207B10B10220207101E00120207100E0BA
:1044800000BF99E02046FFF7D7FEE078062878D2F3
:10449000DFE800F0030E1939466BA07820B901203F
:1044A000E0700020207102E00020E070207182E0C6
:1044B000A07820B90220E0700020207102E00020E6
:1044C000E070207177E0A07848B92088C82806DB22
:1044D0000320E070042020710020208012E0A078EA
:1044E00050B92088C82807DA2088401C2080022084
:1044F000E0700020207105E0002020800420E070A2
:104500000020207157E0A07828B90320E070002037
:104510002071208003E00020E070207120804AE0BC
:10452000A07840B12088012805DB00202080E070C1
:104530000120207118E0A07850B12088012807DA06
:104540002088401C20800420E070002020710BE0B7
:1045500000202080207B20B10520E0700020207109
:1045600002E00120E070207125E0A07850B9208899
:10457000C82807DB0320E070012020710020208084
:1045800017E017E0A07850B92088C82807DA2088FB
:10459000401C20800520E0700020207109E00020F0
:1045A0002080E070207B10B10220207101E001200A
:1045B000207100E000BF00BF10BD000030000020EF
:1045C00010B51E48007930B11C490879FFF7B8F8DA
:1045D00000201A4908711A48007930B11849087941
:1045E000FFF722F90020164908711648007930B10A
:1045F00014490879FFF722FA00201249087112487D
:10460000007930B110490879FFF73CFB00200E49D2
:1046100008710E48007930B10C490879FFF78EFB1C
:1046200000200A4908710A48007930B10849087920
:10463000FFF746FC00200649087110BD300000203D
:10464000400000205000002060000020700000208A
:104650008000002010B5FCF73AFD642003F0E6F975
:10466000FCF72EFD10BD000008B50121092000F067
:104670009BFB01211348FEF7EBFE0820ADF800007C
:1046800010208DF8030003208DF8020069460E48C3
:10469000FEF753FE4FF47040ADF8000010208DF887
:1046A000030003208DF8020069460748FEF745FE27
:1046B00008210548FEF71DFF4FF470410248FEF740
:1046C0001AFF08BD00023000000C014010B5FFF7D2
:1046D000CBFF012000F0FEFD032000F0FBFD03F006
:1046E00053F908210848FEF706FF012240210F2058
:1046F00002F00AFA05480068012804D101222021AD
:104700000F2002F001FA10BD000C0140E802002069
:1047100010B5074C07A002F04FFCA07A18B1052095
:104720000A49086002E001200849086010BD000045
:10473000D00B00206C65617665206C6F7720706F00
:10474000776572206D6F64650D0A00001C02002001
:1047500010B502220549064800F038FC022205493E
:104760000348001D00F032FC10BD0000A400002032
:1047700010000308A80000202DE9F04104460D4672
:10478000142094FBF0F100FB1146C6EBC60005496E
:1047900001EB80070E222946384600F017FCBDE8E1
:1047A000F08100000008030810B5044608222146E5
:1047B000014800F00BFC10BD0000030810B501F02B
:1047C000CDFB03F011F94FF4A06000F053F8FFF7B0
:1047D000E5FC4FF4E13003F031FBFCF7F9FB02F0AC
:1047E000A8F9FCF7D1FAFCF71FFCFFF73FFD41F6F3
:1047F0001F41312001F0AEFC10BD00BFFEE7704745
:104800007047000070B5002100230F22C47804B364
:10481000154C246804F4E064C4F5E064210AC1F195
:104820000403CA40447804FA03F184781440214315
:1048300009010E4C0678A155047804F01F050124E7
:10484000AC4005786D11AD0005F1E025C5F80041DB
:1048500009E0047804F01F050124AC40044D0678FB
:10486000761145F8264070BD0CED00E000E400E054
:1048700080E100E002490143024A116070470000F4
:104880000000FA050CED00E070B50226474800680C
:10489000447846480068007800F07F00002844D142
:1048A000092C03D101F0FCF906465FE0052C14D178
:1048B0003E480068C0787F280BDC3C480068807860
:1048C00038B93A480068808818B938480068807A52
:1048D00008B1082565E0002648E0032C0ED13348D6
:1048E0000068C078012807D130480068808818B96E
:1048F00001F0FAF9064639E0022637E0012C35D1FD
:104900002A480068C07801280DD1284800688088AE
:1049100048B926480068407A00F0200018B101F03C
:104920004BF8064622E0022620E020480068007886
:1049300000F07F00012805D10B2C17D101F050FAAF
:10494000064613E019480068007800F07F0002284E
:104950000BD1012C03D101F02FF8064606E0032C01
:1049600004D101F0D5F9064600E002264EB1E0B2CE
:104970000F4A1268516988470646032E01D109255E
:104980000FE00EB108250CE006250021094800685B
:1049900080B2801C084A42F8101030200749088075
:1049A00000BF024909680D7270BD000010010020AF
:1049B00014010020505C00400060004022010020F3
:1049C0002DE9F0470546884616461F46DDE908945E
:1049D00042F2107084423FDB634884423CDAB4FB0D
:1049E000F0F100FB114042F21071B0FBF1FA2946E0
:1049F0005046FDF733FA42F21070B4FBF0F100FBC1
:104A000011404FF47A71B0FBF1FA41465046FDF780
:104A100025FA4FF47A70B4FBF0F100FB11406421E9
:104A2000B0FBF1FA31465046FDF718FA6420B4FBAA
:104A3000F0F100FB11400A21B0FBF1FA3946504673
:104A4000FDF70CFA0A20B4FBF0F100FB114A4946CD
:104A50005046FDF703FA84E0B4F57A7F32DB42F288
:104A6000107084422EDAB4FBF0F100FB11404FF4D9
:104A70007A71B0FBF1FA41465046FDF7EFF94FF479
:104A80007A70B4FBF0F100FB11406421B0FBF1FA45
:104A900031465046FDF7E2F96420B4FBF0F100FB2B
:104AA00011400A21B0FBF1FA39465046FDF7D6F91C
:104AB0000A20B4FBF0F100FB114A49465046FDF7CD
:104AC000CDF94EE0642C25DBB4F57A7F22DA4FF481
:104AD0007A70B4FBF0F100FB11406421B0FBF1FAF5
:104AE00031465046FDF7BAF96420B4FBF0F100FB03
:104AF00011400A21B0FBF1FA39465046FDF7AEF9F4
:104B00000A20B4FBF0F100FB114A49465046FDF77C
:104B1000A5F926E00A2C17DB642C15DA6420B4FB17
:104B2000F0F100FB11400A21B0FBF1FA3946504682
:104B3000FDF794F90A20B4FBF0F100FB114A494655
:104B40005046FDF78BF90CE0002C0ADB0A2C08DA42
:104B50000A20B4FBF0F100FB114A49465046FDF72C
:104B60007DF9BDE8F0870000A086010010B511486E
:104B70000068047A022C01D0042C01D1082412E030
:104B8000032C01D0052C05D1FCF7D8FD094800689D
:104B9000047A08E0072C05D107490968C8688047EE
:104BA000082400E00824034909680C7200F01CF88E
:104BB00010BD00001001002014010020F0B5561CAB
:104BC0007510074E06EB41042B4605E034F8047BD4
:104BD00020F8017B401C5B1E002BF7D1F0BD0000CC
:104BE000006000407047000010B50D4890F82C1090
:104BF000002000F0C9FB0B480068007A082805D1A6
:104C000040020949088010200849088005480068CA
:104C1000007A092801D1012010BD0020FCE7000026
:104C20009801002010010020200100202201002016
:104C300010B5012001F04EFD01240B480460002056
:104C40000A49088008460088074908600020091DB5
:104C500008604FF4E0500549088008460088024982
:104C60000860002010BD0000405C00401A010020D8
:104C70002DE9FC4105460E46FBF7DEFE00240DE063
:104C8000164931F81400FBF7CAFC0746324629469C
:104C9000FBF700FF124941F82400641C042CEFDBF1
:104CA00010A002F089F900240EE00D4951F824000B
:104CB000FBF705FDCDE90001084830F81420214636
:104CC00018A002F079F9641C042CEEDB00F0C0FDA2
:104CD00001F00AF9FEF72EF8BDE8FC81080000207B
:104CE000C80200202D2D2D2D2D2D2D2D2D2D2D2DBE
:104CF0002D2D2D2D2D2D2D2D2D2D2D5072657373B8
:104D000075726556616C75652D2D2D2D2D2D2D2DF2
:104D10002D2D2D2D2D2D2D2D2D2D2D2D2D2D200DF0
:104D20000A00000050726573737572652025643A3D
:104D30002041445F56616C75653D2025642C20D16F
:104D4000B9C1A63D20252E3266204850610D0A00CB
:104D500001460020034A506820F440400843506058
:104D6000704700000010024029B1064A5269024310
:104D7000044B5A6104E0034A52698243014B5A6171
:104D8000704700000010024029B1064AD269024370
:104D9000044BDA6104E0034AD2698243014BDA61D1
:104DA000704700000010024029B1064A9269024390
:104DB000044B9A6104E0034A92698243014B9A6171
:104DC000704700000010024030B50021002200248E
:104DD00000232D4D6D6805F00C0121B1042905D08B
:104DE000082923D105E0294D056022E0274D056003
:104DF0001FE0254D6D6805F47012234D6D6805F4B4
:104E00008034022505EB92421CB9214D55430560C3
:104E10000BE01D4D6D6805F400351DB11C4D55436B
:104E2000056002E0194D5543056002E0174D05602D
:104E300000BF00BF144D6D6805F0F0010909154D64
:104E40006B5C0568DD4045600F4D6D6805F4E06101
:104E5000090A104D6B5C4568DD4085600A4D6D6840
:104E600005F46051C90A0B4D6B5C4568DD40C560B7
:104E7000054D6D6805F44041890B074D6B5CC568B5
:104E8000B5FBF3F5056130BD0010024000127A0059
:104E900000093D00D4000020E40000200149086022
:104EA00070470000D800424270B50546072D01D07A
:104EB0002E4805702D48007808284ED2DFE800F013
:104EC00004111A202B384E4F2948006828B900F0E9
:104ED00053F806202549087002E005202349087090
:104EE00041E000F049F804202049087001202049E1
:104EF000086038E002201D4948700320087032E045
:104F00001A484078401E194948700846407808B948
:104F10000420087027E01748006884B244F01004A9
:104F2000144804600520114908700A2048701AE0EE
:104F30000E484078401E0D4948700846407858B9E0
:104F40000C48006884B224F010040A48046006206B
:104F5000087000200649086005E000BF00BF062079
:104F60000249087000BF00BF70BD00002102002090
:104F700024020020405C004010B50748006884B25D
:104F800024F0040404480460FFF7C2FB4FF43F40E0
:104F90000149086010BD0000405C004010B50948A0
:104FA000006805280CD1084801680068401C064AC2
:104FB0001060052904D1002011460860FEF774F83E
:104FC00010BD00001C0200204001002030B5034647
:104FD0000C461546002207E0184600F008F824F8B1
:104FE00012009B1C501C82B2AA42F5DB30BD014668
:104FF000088870472DE9F05F80468A461746B8F169
:10500000006F02D33748804501D3BDE8F09FFEF71B
:1050100075F9A8F1006B4FEADB25CBF34909C9F517
:105020008064A74200DC3C4656E04FF0006101EB93
:10503000C5204A142C49FFF7C9FF00260BE009EBF5
:105040000600294931F810004FF6FF71884200D060
:1050500003E0701C86B2A642F1DB00BFA64223DA51
:105060004FF0006000EBC521021420A001F0A4FF66
:105070004FF0006101EBC520FEF7D6F8002608E0EE
:105080003AF8160006EB0901174A22F81100701CC5
:1050900086B2A642F4DB4FF0006101EBC5204A1452
:1050A000114900F037F804E022465146404600F02E
:1050B00031F8A74200D110E06D1C4FF000090AEB57
:1050C000440A08EB4408381B87B2B7F5806F02DD4D
:1050D0004FF4806400E03C46A7E700BFFEF7E4F829
:1050E00000BF92E70000080808030020B2C1B3FD2A
:1050F000C9C8C7F8B5D8D6B73A203078253038585F
:105100002C20B4F3D0A13A20256420D7D6BDDA0AEA
:10511000000000002DE9F04105460E461746002428
:1051200007E036F814102846FEF7C8F8AD1C601CDE
:1051300084B2BC42F5DBBDE8F081704710B50222B5
:1051400005490648FFF756FF022205490348001D9E
:10515000FFF750FF10BD0000A4000020100003085E
:10516000A800002010B5024800F0AAF810BD000009
:10517000E80200202DE9F04104460D46142094FB7E
:10518000F0F100FB1146C6EBC600054901EB8007B4
:105190000E2229463846FFF72DFFBDE8F0810000BA
:1051A0000008030810B52048806808B9022000E014
:1051B000042002461C4841681CA001F0FDFEFFF7D8
:1051C000D1FF25480068401C032190FBF1F201FB50
:1051D00012002149086000F087FE1F48006820B1D6
:1051E000012806D0022813D107E01CA001F0E4FE3C
:1051F0000EE01EA001F0E0FE0AE0FBF7C9FE21A0D0
:1052000001F0DAFE0848C16812A001F0D5FE00BF27
:1052100000BF1148006828B900201F4908601FA07E
:1052200001F0CAFE10BD0000E8020020B1A3B4E600
:10523000C9E8D6C33A20B5B1C7B0B5A5CEBB3A20B0
:1052400025642C20B5B1C7B0B4ABB8D0C6F7CAFD41
:10525000C1BF3A2025640A009C000020C7D0BBBB18
:10526000B5BDC9E8D6C3B5A5CEBB0A00C7D0BBBB88
:10527000B5BDC9E8D6C3B4ABB8D0C6F7CAFDC1BF87
:105280000A000000C7D0BBBBB5BDC9E8D6C3D7D4A0
:10529000B6AFB9D8BBFA0A0098000020CBF9D3D03A
:1052A000C9E8D6C3CFEEB6BCC9E8D6C3CDEAA3AC35
:1052B000CDCBB3F6C9E8D6C3C4A3CABD0A0000006B
:1052C00010B50446082221460148FFF793FE10BDA1
:1052D0000000030810B504464FF400410848FEF7EB
:1052E00008F903218020FEF7D3F909212046FEF7B3
:1052F000CFF94FF400410248FEF7FDF810BD000061
:10530000000C01404FF6F8710140014A11607047EE
:10531000505C004030B501460F4B1A78002014E075
:1053200003060E4C04EB9353D3F8003C48F68F74FD
:10533000234048F280042343C4B223430406074DAC
:1053400005EB9454C4F8003C401C9042E8D341F073
:105350008003034C236030BD9401002000500040C6
:105360004C5C004010B54A105300054A126892B2D6
:1053700002EBC002121D034C44F8123010BD0000B5
:10538000505C00400060004010B502460F480068C5
:1053900080B200EBC200801D0D4C04EB40033E299F
:1053A0000BDD481101F01F040CB9441EA0B24FF4EC
:1053B000004444EA80241C6007E0481001F0010426
:1053C0000CB1441CA0B284021C6010BD505C0040B3
:1053D0000060004030B50E4C04EB8003D3F8003C75
:1053E0004BF68F7403EA040201F480530BB182F48C
:1053F000805201F400530BB182F4005242F4004396
:1054000043F08003024D05EB8004C4F8003C30BD3E
:105410000050004010B50B4B03EB8002D2F8002C7B
:105420004BF68F7302EA030181F4805181F400513D
:1054300041F4004242F08002024C04EB8003C3F8C6
:10544000002C10BD0050004010B54A105200044B13
:105450001B689BB203EBC003024C44F8132010BD41
:10546000505C004000600040044A126892B202EBB7
:10547000C002921C024B43F812107047505C00406F
:105480000060004030B50E4C04EB8003D3F8003CC4
:1054900048F6BF7403EA040201F010030BB182F076
:1054A000100201F020030BB182F0200242F400430D
:1054B00043F08003024D05EB8004C4F8003C30BD8E
:1054C0000050004010B50B4B03EB8002D2F8002CCB
:1054D00048F6BF7302EA030181F0100181F0200158
:1054E00041F4004242F08002024C04EB8003C3F816
:1054F000002C10BD0050004010B5074B03EB80029C
:10550000D2F8002C48F68F131A400A43024C04EBE1
:105510008003C3F8002C10BD0050004010B500F00F
:1055200001F810BD0CB500200190009033480068D0
:1055300040F480303149086000BF3048006800F412
:10554000003000900198401C0190009818B9019813
:10555000B0F5A06FF1D12948006800F4003010B117
:105560000120009001E0002000900098012843D124
:105570002348006840F01000214908600846006890
:1055800020F0030008600846006840F00200086050
:105590001A4840681949486008464068486008460B
:1055A000406840F4806048600846406820F47C1001
:1055B00048600846406840F4E810486008460068C3
:1055C00040F08070086000BF0C48006800F0007078
:1055D0000028F9D00948406820F0030007494860D6
:1055E0000846406840F00200486000BF0348406839
:1055F00000F00C000828F9D10CBD0000001002409A
:105600000020024010B50020FFF748FC0121C8052A
:10561000FFF7BAFB10BD00002DE9FC4704464FF030
:1056200000097B4840680A2871D2DFE800F00513C2
:105630002D4761718BA5BAD401222021162001F0DB
:1056400063FA74492046FAF7E9FD81460020724961
:105650000870D0E001223021162001F055FA2046D2
:10566000FBF72DF807466D4A6D4BFAF7EEFE05463F
:10567000FBF738F8814667494846FAF7CFFD81467F
:10568000022065490870B6E001220821162001F0C9
:105690003BFA2046FBF713F80746624A624BFAF7DB
:1056A000D4FE0546FBF71EF8814660494846FAF7E6
:1056B000B5FD81460120584908709CE00122042173
:1056C000162001F021FA2046FAF7F9FF0746554A5D
:1056D000554BFAF7BAFE0546FBF704F881465349E5
:1056E0004846FAF79BFD814601204B49087082E04D
:1056F00001220321162001F007FAA1464B49484632
:10570000FAF78CFD814601204349087073E071E08F
:1057100001221146172001F0F7F92046FAF7CFFFD2
:105720000746434A434BFAF790FE0546FAF7DAFF7D
:10573000814638494846FAF771FD814602203649CC
:10574000087058E001220221172001F0DDF92046FF
:10575000FAF7B5FF0746384A384BFAF776FE0546A2
:10576000FAF7C0FF814631494846FAF757FD8146AE
:105770000220294908703EE001220421172001F08F
:10578000C3F92046FAF79BFF05462D4A2D4BFAF741
:105790005CFE0746FAF7A6FF814600201E49087006
:1057A00029E001222021172001F0AEF92046FAF766
:1057B00086FF0546244A254BFAF747FE0746FAF7C7
:1057C00091FF814613494846FAF728FD8146022099
:1057D000114908700FE001221021172001F094F9FF
:1057E000A14612494846FAF719FD814601200A49A7
:1057F000087000E000BF00BF1920182317221621EF
:10580000CDE900091520FCF755F9BDE8FC8700003B
:10581000E80200200000C842900000209A9999995F
:105820009999B93F821DFF058200E83F00002041A1
:105830005F8DFD76233D9E3F8675E3DD91B1D93FB7
:10584000DB8AFD65F76424401A8057152BB48D3F21
:1058500010B500223F21162001F056F900223F2109
:10586000172001F051F9254840680A2842D2DFE8A4
:1058700000F0050B11171D23292F353B0122202194
:10588000162001F041F936E001223021162001F006
:105890003BF930E001220821162001F035F92AE019
:1058A00001220421162001F02FF924E00122032116
:1058B000162001F029F91EE001221146172001F0FF
:1058C00023F918E001220221172001F01DF912E04E
:1058D00001220421172001F017F90CE001222021F8
:1058E000172001F011F906E001221021172001F024
:1058F0000BF900E000BF00BF10BD0000E80200206F
:1059000038B501242948006880B2001D284931F8C3
:10591000100080B201EB4000009026480068007A39
:10592000092832D000980078224909680870009848
:10593000401C0090009800781E4909684870009843
:10594000401C0090009800EB44000090009931F852
:10595000020B0091FBF7C2FB1649096848800098CA
:1059600000EB44000090009931F8020B0091FBF726
:10597000B5FB104909688880009800EB440000904E
:10598000009800880B490968C88001200949096806
:10599000087208480068C08810B9FEF775FF01E07A
:1059A000FBF72AFFFFF720F938BD0000505C0040EC
:1059B00000600040100100202DE9F04754480068C5
:1059C000007800F07F08B8F1000F0AD15048006855
:1059D000407A00F0DF004E49096848720020BDE8B7
:1059E000F087B8F1020F7CD149480068408818B9A7
:1059F00047480068007908B10220F0E7DFF8149109
:105A000043480068477927F080052C4640480068E5
:105A1000407900F0800038B13F4901EB8400D0F8B4
:105A2000000C00F0300606E03B4901EB8400D0F8A2
:105A3000000C00F4405699F80000A84204D91EB1A9
:105A400033480068807A08B90220C8E707F0800070
:105A500080B1314901EB8400D0F8000C00F0300037
:105A600010284BD1E0B2FBF7D7FCE0B23021FFF7B2
:105A700009FD43E0284901EB8400D0F8000C00F454
:105A80004050B0F5805F39D1E4B9244A92F82C1027
:105A9000E0B2FFF779FC204A02EB8401D1F8001C48
:105AA0004BF68F7201EA020080F4805080F40050BF
:105AB00040F4004141F08001174B03EB8402C2F82F
:105AC000001C1BE0E0B2FBF78DFC134A02EB8401E3
:105AD000D1F8001C4BF68F7201EA020080F480506E
