:020000040800F2
:100000001005002049010008B10300087103000831
:10001000AD030008BD0100089710000800000000B3
:100020000000000000000000000000005105000872
:10003000C10100080000000039040008650600083E
:100040006301000863010008630100086301000800
:1000500063010008630100086301000863010008F0
:1000600063010008630100086301000863010008E0
:1000700063010008630100086301000863010008D0
:1000800063010008630100086301000863010008C0
:1000900063010008630100086301000863010008B0
:1000A00063010008630100086301000863010008A0
:1000B00063010008090900086301000863010008E2
:1000C0006301000863010008630100086301000880
:1000D00063010008350E0008630100086301000891
:1000E0006301000863010008630100086301000860
:1000F0006301000863010008630100086301000850
:1001000063010008630100087D0A0008630100081C
:10011000630100086301000863010008630100082F
:10012000630100086301000863010008630100081F
:10013000DFF810D000F030F800480047DD1200086A
:10014000AFF30080100500200648804706480047AE
:10015000FEE7FEE7FEE7FEE7FEE7FEE7FEE7FEE777
:10016000FEE7FEE7690600083101000830B50B46DE
:10017000014600202022012409E021FA02F59D42D7
:1001800005D303FA02F5491B04FA02F52844151EAB
:10019000A2F10102F1DC30BD064C074D06E0E0683B
:1001A00040F0010394E8070098471034AC42F6D3BE
:1001B000FFF7C2FF201400084014000800BFFEE74C
:1001C00070472DE9F041024600250026002000235B
:1001D0000024002791F803C00CF00F0591F803C02C
:1001E0000CF0100CBCF1000F03D091F802C04CEAE7
:1001F000050591F800C0BCF1000F31D01468002053
:100200002BE04FF0010C0CFA00F3B1F800C00CEA3F
:1002100003069E4220D183004FF00F0C0CFA03F727
:10022000BC4305FA03FC4CEA040491F803C0BCF19A
:10023000280F06D14FF0010C0CFA00FCC2F814C0D4
:100240000AE091F803C0BCF1480F05D14FF0010C52
:100250000CFA00FCC2F810C0401C0828D1D314606E
:10026000B1F800C0BCF1FF0F34DD546800202EE06F
:1002700000F1080C4FF0010808FA0CF3B1F800C0C7
:100280000CEA03069E4221D183004FF00F0C0CFABA
:1002900003F7BC4305FA03FC4CEA040491F803C0DD
:1002A000BCF1280F05D100F1080C08FA0CF8C2F8CF
:1002B000148091F803C0BCF1480F07D100F1080C7D
:1002C0004FF0010808FA0CF8C2F81080401C08280A
:1002D000CED35460BDE8F081F0B50A460023002477
:1002E0000021002500F00046B6F1004F02D11D4E5E
:1002F000F16901E01B4E7168C0F3034583B200F45D
:100300004016B6F5401F08D121F07061154E766891
:1003100026F07066134F7E6012E000F48016B6F58A
:10032000801F06D1032606FA05F4A14341F070614F
:1003300006E0460D360103FA06F6B14341F070615E
:1003400022B1460D360103FA06F6314300F00046AD
:10035000B6F1004F02D1034EF16101E0014E716030
:10036000F0BD00000000014041617047016170472D
:1003700000BFFEE708B50121102000F06FF84FF430
:10038000E070ADF8000002208DF8020010208DF81A
:10039000030069460448FFF714FF4FF4E071024878
:1003A000FFF7E4FF08BD00000010014000BFFEE7BA
:1003B0007047000070B5002100230F22C47804B3F9
:1003C000154C246804F4E064C4F5E064210AC1F12A
:1003D0000403CA40447804FA03F1847814402143AA
:1003E00009010E4C0678A155047804F01F0501247C
:1003F000AC4005786D11AD0005F1E025C5F8004170
:1004000009E0047804F01F050124AC40044D06788F
:10041000761145F8264070BD0CED00E000E400E0E8
:1004200080E100E002490143024A11607047000088
:100430000000FA050CED00E07047000029B1064A03
:10044000D2690243044BDA6104E0034AD269824371
:10045000014BDA61704700000010024029B1064AE2
:1004600092690243044B9A6104E0034A9269824311
:10047000014B9A61704700000010024030B5002126
:100480000022002400232D4D6D6805F00C0121B1E0
:10049000042905D0082923D105E0294D056022E073
:1004A000274D05601FE0254D6D6805F47012234D42
:1004B0006D6805F48034022505EB92421CB9214D8C
:1004C000554305600BE01D4D6D6805F400351DB109
:1004D0001C4D5543056002E0194D5543056002E08F
:1004E000174D056000BF00BF144D6D6805F0F001A9
:1004F0000909154D6B5C0568DD4045600F4D6D6861
:1005000005F4E061090A104D6B5C4568DD408560CB
:100510000A4D6D6805F46051C90A0B4D6B5C456866
:10052000DD40C560054D6D6805F44041890B074D00
:100530006B5CC568B5FBF3F5056130BD001002408A
:1005400000127A0000093D00040000201400002081
:10055000704710B500F002F810BD00000CB5002087
:10056000019000903348006840F4803031490860C1
:1005700000BF3048006800F4003000900198401C33
:100580000190009818B90198B0F5A06FF1D12948F1
:10059000006800F4003010B10120009001E000205C
:1005A00000900098012843D12348006840F01000D3
:1005B000214908600846006820F0030008600846EA
:1005C000006840F0020008601A4840681949486015
:1005D0000846406848600846406840F480604860CB
:1005E0000846406820F47C1048600846406840F4A3
:1005F000E81048600846006840F08070086000BF5E
:100600000C48006800F000700028F9D009484068E4
:1006100020F00300074948600846406840F00200A7
:10062000486000BF0348406800F00C000828F9D17A
:100630000CBD00000010024000200240042808D138
:100640004FF0E021096941F004014FF0E02211610F
:1006500007E04FF0E021096921F004014FF0E022AA
:10066000116170477047000010B51348006840F0F2
:1006700001001149086008464068104908400E49C9
:100680004860084600680E4908400B490860084663
:10069000006820F4802008600846406820F4FE00CE
:1006A00048604FF41F008860FFF753FF4FF0006071
:1006B0000449086010BD0000001002400000FFF86F
:1006C000FFFFF6FE08ED00E0F0B50C4615460022EF
:1006D0000021068C4FF6FE773E400684028B018C8B
:1006E0004FF60C7632407E1C06EA03162E43324348
:1006F000104EB0420ED0104EB0420BD0B0F1804F31
:1007000008D00E4EB04205D00D4EB04202D00D4E74
:10071000B04206D14FF6FD76314044F00106314338
:1007200005E04FF6F576314044F00106314302838F
:100730000184F0BD002C0140003401400004004061
:1007400000080040000C0040F0B50C4615460022A1
:1007500000210026078C4FF6EF7C07EA0C07078480
:10076000028B018C4FF6FF7707EA041640F6FF472D
:100770003A404FF6FF7707EA03373A434FF6FF77E1
:1007800007EA05273A43114FB8420ED0104FB8423E
:100790000BD0B0F1804F08D00E4FB84205D00E4FAD
:1007A000B84202D00D4FB84206D14FF6DF7739403C
:1007B00046F01007394305E04FF65F77394044F0C3
:1007C0001007394302830184F0BD0000002C014072
:1007D000003401400004004000080040000C0040CC
:1007E000F0B50C461546002200210026078C4FF676
:1007F000FF6C07EA0C070784828B018C4FF6FF77AA
:1008000007EA04264FF60C773A404FF6FF7707EADF
:1008100003172F433A43114FB8420ED0104FB8423E
:100820000BD0B0F1804F08D00E4FB84205D00E4F1C
:10083000B84202D00D4FB84206D14FF6FF573940AB
:1008400046F48077394305E04FF2FF57394044F4CE
:100850008077394382830184F0BD0000002C014081
:10086000003401400004004000080040000C00403B
:10087000F0B50C461546002200210026078C4EF6E6
:10088000FF7C07EA0C070784828B018C4FF6FF7709
:1008900007EA043640F6FF473A404FF6FF7707EA8B
:1008A00005273A434FF6FF7707EA03373A43114FDC
:1008B000B8420ED0104FB8420BD0B0F1804F08D0E4
:1008C0000E4FB84205D00E4FB84202D00D4FB8427D
:1008D00006D14DF6FF77394046F48057394305E09D
:1008E00047F6FF57394044F48057394382830184E7
:1008F000F0BD0000002C0140003401400004004025
:1009000000080040000C004010B50121084800F02C
:1009100036F958B10121064800F01CF90548006875
:1009200008B9012000E000200249086010BD000065
:1009300000040040B401224230B589B005460C469F
:1009400001210220FFF77AFD01210920FFF786FD32
:1009500001211D48FFF7C0FC2020ADF82000182021
:100960008DF8230003208DF8220008A91748FFF70F
:1009700028FCADF81850ADF814400020ADF81A006E
:10098000ADF8160005A9124800F002FA7020ADF883
:1009900004000120ADF806000020ADF80A00ADF813
:1009A0000C0001A90A4800F063F90821084800F08A
:1009B000B1F90121064800F0C1F80121044800F016
:1009C000CCF809B030BD000000081A00000C01404E
:1009D0000004004030B585B005460C4601210820D2
:1009E000FFF72CFD01210420FFF738FD0120ADF8B1
:1009F000100028208DF8130004A91D48FFF7E1FB23
:100A000001211B48FFF7B0FCADF80850ADF80440D9
:100A10000020ADF80A00ADF8060001A9154800F065
:100A2000B7F9002014490880488001208880002000
:100A3000C88008810F4800F0B3F832208DF800001C
:100A400002208DF8010000208DF8020001208DF8B1
:100A500003006846FFF7AEFC01220321054800F0C1
:100A6000F5F80121034800F078F805B030BD00002A
:100A700000080140000C00403800002010B52C4850
:100A8000007800F0800000284CD10121294800F0B6
:100A900076F8D0B12648007800F04000A8B124488C
:100AA000007800F03F003F280AD12148007840F04C
:100AB00080001F4908704FF6FF701F49088004E04E
:100AC0001B480078401C1A4908700221194800F0A0
:100AD00056F838B31648007800F0400078B1144852
:100AE000007840F0800012490870124800F041F888
:100AF0001149088000210F4800F0B1F812E00020F1
:100B00000B4908700C49088000210A4800F011F9CF
:100B10000748007840F04000054908700221054868
:100B200000F09DF80321034800F014F810BD000008
:100B300000000020000C00400200002021B10288CB
:100B400042F08002028004E002884FF67F731A4070
:100B500002807047CA430282704721B1028842F086
:100B60000102028004E002884FF6FE731A40028000
:100B700070470146888E70470146088F704730B530
:100B80000246002000230024158A05EA0103958906
:100B900005EA010413B10CB1012000E0002030BDD2
:100BA00070B505460C46244885420ED02348854240
:100BB0000BD0B5F1804F08D02148854205D021489F
:100BC000854202D02048854200D100E000BF208845
:100BD00050B92389A28861882846FFF775FDE1880E
:100BE000284600F0A8F825E0208804280AD12389A7
:100BF000A28861882846FFF7A7FDE188284600F013
:100C0000A3F817E0208808280AD12389A2886188E0
:100C10002846FFF7E5FDE188284600F0A2F809E044
:100C20002389A28861882846FFF722FEE1882846AA
:100C300000F0A0F870BD0000002C0140003401401D
:100C40000004004000080040000C00401AB18389F5
:100C50000B43838102E083898B43838170470A467B
:100C60000021018C4FF6FD73194011430184704738
:100C700070B5002400220023058C4FF6EF76354036
:100C80000584028C8388048B48F6FF752C404FF650
:100C9000FF452C400D884FF6FF7606EA05252C43CC
:100CA0004FF6DF752A400D8906EA05152A434D885F
:100CB00006EA05152A43154DA84202D0144DA84254
:100CC0001DD14FF67F752A404D894FF6FF7606EA13
:100CD00005152A434FF6BF752A408D8806EA05158B
:100CE0002A434FF6FF352B404FF2FF752B408D897D
:100CF00006EA85052B43CD8906EA85052B438380CB
:100D00000483CD880587028470BD0000002C01405B
:100D1000003401400A460021018B4FF2FF73194055
:100D20004FF6FF7303EA02231943018370470187DB
:100D3000704781847047028B4FF6F3731A40028329
:100D4000028B0A4302837047028B4FF2FF331A4033
:100D50000283028B4FF6FF7303EA01231A430283D7
:100D60007047828B4FF6F3731A408283828B0A435B
:100D700082837047828B4FF2FF331A408283828BCB
:100D80004FF6FF7303EA01231A4382837047000082
:100D9000002202881D4B98420ED01D4B98420BD06A
:100DA000B0F1804F08D01B4B984205D01A4B9842A7
:100DB00002D01A4B984204D14FF68F731A404B88D9
:100DC0001A43174B984207D0164B984204D04FF65F
:100DD000FF431A40CB881A4302808B8883850B8897
:100DE00003850A4B98420BD0094B984208D00E4B12
:100DF000984205D00D4B984202D00D4B984201D13C
:100E00000B7A03860123838270470000002C014087
:100E1000003401400004004000080040000C004085
:100E20000010004000140040004001400044014018
:100E30000048014070B540F22551244800F067F8A1
:100E4000002841D0214800F01DF9C4B22048008894
:100E500000F40040C0BB1E48008800F4804060B130
:100E60000A2C03D000201A4908802DE01848008879
:100E700040F400401649088026E00D2C06D11448A5
:100E8000008840F48040124908801DE01048008826
:100E9000C0F30D000F490C540D480088401C0C494C
:100EA000088008460088C72801DD0020088040F23D
:100EB0002551064800F010F8044800F0E3F8054614
:100EC0002946024800F0E3F870BD000000380140F8
:100ED000340000204200002010B50022002340F61C
:100EE0006A14A14200D100BF0A1201249440A3B2A7
:100EF000DC43048010BD21B1828942F4005282811A
:100F000004E082894DF6FF731A408281704770B504
:100F10000246002400230025002040F66A16B14254
:100F200000D100BFC1F3421501F01F03012606FAEC
:100F300003F3012D02D19689334006E0022D02D140
:100F4000168A334001E0968A33400C12012606FAD5
:100F500004F41688344013B10CB1012000E00020E5
:100F600070BDF0B50346002400260025002040F6A1
:100F70006A17B94200D100BF1846C1F3421401F00C
:100F80001F06012707FA06F5012C01D10C3004E0F9
:100F9000022C01D1103000E014301AB107682F4341
:100FA000076002E00768AF430760F0BD2DE9F04736
:100FB00086B005460E460024A24600BFA146002783
:100FC000B08900B100BF2F462C8A4CF6FF70044058
:100FD000F08804432C82AC894EF6F3100440B088AC
:100FE00031890843718908430443AC81AC8A4FF6C8
:100FF000FF400440B0890443AC8201A8FFF73EFAE9
:101000001F48874202D1DDF810A001E0DDF80CA0F6
:10101000A88900F4004040B10AEBCA0000EB0A10B6
:1010200031684900B0FBF1F807E00AEBCA0000EBB9
:101030000A1031688900B0FBF1F86420B8FBF0F0C9
:1010400004012009642101FB1089A88900F40040F3
:1010500040B1322000EBC900B0FBF1F000F0070016
:10106000044308E0322000EB09106421B0FBF1F0EA
:1010700000F00F0004432C8106B0BDE8F0870000AB
:101080000038014001468888C0F308007047C1F36A
:1010900008028280704700BFFEE700000FB4054BD6
:1010A00010B503A9044A029800F018F810BC5DF8C6
:1010B00014FB0000C11200083000002002E008C844
:1010C000121F08C1002AFAD170477047002001E0C2
:1010D00001C1121F002AFBD1704700002DE9FF4F0C
:1010E00089B09B460446002506E025280BD05A46C9
:1010F0000B999047641C6D1C20780028F5D10DB029
:101100002846BDE8F08F0027B8460122474900E095
:10111000074314F8013F203B02FA03F00842F7D1DD
:1011200020782E2819D114F8010F47F004072A2837
:101130000ED06FF02F022078A0F1300109290CD8D1
:1011400008EB880102EB410100EB0108641CF2E7A7
:101150000A98641C50F8048B0A9020780028CED09E
:10116000642808D0692806D075281ED05A460B99E5
:1011700090476D1C58E00A994FF00A0901C90A917D
:10118000002802DA40422D2102E0390504D52B2146
:101190008DF82010012103E0F90704D02021F7E7A2
:1011A0008A4608AE0DE00021FAE70A994FF00A09D5
:1011B00001C90A91F7E74946FEF7D8FF303106F832
:1011C000011D0028F7D1ADEB060000F120097807DA
:1011D00001D44FF00108C84502DDA8EB090000E08A
:1011E00000208046002706E008A85A46C05D0B99FB
:1011F00090476D1C7F1C5745F6DB04E030205A46B3
:101200000B9990476D1CB8F10001A8F10108F5DCBD
:1012100005E016F8010B5A460B9990476D1CB9F181
:101220000001A9F10109F4DC641C65E7092801004B
:1012300010B56FF00400FFF701FA0A4800680A4988
:10124000B0FBF1F0094908700846007800EB400156
:10125000C1EBC0104FF6FF7101EAC00004490880DD
:1012600010BD00001800002000127A002C000020A1
:101270002E0000200146114A12884A434FF0E02315
:101280005A6100229A611A46126942F001021A61FB
:1012900000BF4FF0E022106900F001021AB100F423
:1012A0008032002AF5D04FF0E022126922F00102CC
:1012B0004FF0E0231A6100229A6170472E0000204F
:1012C00000BF054A128802F04002002AF9D0C2B2DB
:1012D000014B1B1D1A807047003801400024FFF7A6
:1012E000A7FF4FF4A060FFF79DF84FF4E13000F046
:1012F00047F8FFF73FF8002140F28330FFF71CFB6F
:1013000047214FF6FF70FFF765FB29E00A20FFF742
:10131000B1FF1448FFF730FC401C85B22946114844
:10132000FFF705FD0F48FFF727FCB0F5967F03D1C7
:1013300000210C48FFF7FBFC0B48007800F0800010
:1013400070B10948007800F03F0424040748008881
:101350000444214606A0FFF7A1FE002002490870C0
:10136000D4E700000004004000000020020000203C
:10137000484947483A25642075730D0A000000006B
:1013800010B586B00446012144F20400FFF766F868
:101390004FF40070ADF8140003208DF816001820EB
:1013A0008DF8170005A91C48FEF70BFF4FF480606D
:1013B000ADF8140004208DF8170005A91648FEF7B3
:1013C00000FF25208DF8000003208DF801008DF826
:1013D000020001208DF803006846FEF7EBFF019440
:1013E0000020ADF80800ADF80A00ADF80C00ADF82B
:1013F00010000C20ADF80E0001A90848FFF7D6FD3B
:10140000012240F225510548FFF7ABFD01210348B9
:10141000FFF771FD06B010BD000801400038014023
:10142000401400080000002038000000BC10000834
:101430007814000838000020D8040000CC10000800
:101440000000000000000000010203040102030488
:10145000060708090204060800A24A04000000006A
:101460000000000001020304060708090000000054
:08147000000000000000000074
:0400000508000131BD
:00000001FF
