S31508000000F80C002085020008D119000825190008F7
S31508000010CD190008C5170008BF2300080000000016
S31508000020000000000000000000000000ED010008CC
S31508000030C917000800000000310200083521000831
S315080000409F0200089F0200089F0200089F020008FE
S315080000509F0200089F0200089F0200089F020008EE
S315080000609F0200089F0200089F0200089F020008DE
S315080000709F0200089F0200089F0200089F020008CE
S315080000809F0200089F0200089F0200089F020008BE
S315080000909F0200089F0200089F0200089F020008AE
S315080000A09F0200089F0200089F0200089F0200089E
S315080000B09F0200089F0200089F0200089F0200088E
S315080000C09F0200089F0200089F0200089F0200087E
S315080000D09F0200089D2100089F0200089F02000851
S315080000E09F0200089F0200089F0200089F0200085E
S315080000F09F0200089F0200089F0200089F0200084E
S315080001009F0200089F0200089F0200089F0200083D
S315080001109F0200089F0200089F0200089F0200082D
S315080001209F0200089F0200089F0200089F0200081D
S3150800013000F002F800F04AF80AA090E8000C8244A1
S315080001408344AAF10107DA4501D100F03FF8AFF27E
S31508000150090EBAE80F0013F0010F18BFFB1A43F097
S3150800016001031847B4520000D4520000103A24BFC5
S3150800017078C878C1FAD8520724BF30C830C144BFFE
S3150800018004680C6070470000002300240025002640
S31508000190103A28BF78C1FBD8520728BF30C148BFDC
S315080001A00B607047662903F0A381642900F0CC80B0
S315080001B0002070471FB500F081FB040000200021D5
S315080001C002F078FBE0601FBD10B510BD00F092FC90
S315080001D01146FFF7EFFF02F061F900F0B0FC03B437
S315080001E0FFF7F2FF03BC02F000F90000224B196882
S315080001F00868B0E8F00F80F30988BFF36F8F4FF0F7
S31508000200000080F311884EF00D0E704700000000C4
S3150800021006480068006880F3088862B661B6BFF3CE
S315080002204F8FBFF36F8F00DF00BF00BF08ED00E000
S31508000230EFF30980BFF36F8F0F4B1A6820E9F00FB1
S31508000240106008B54FF0BF0080F31188BFF34F8FD9
S31508000250BFF36F8F02F056FA4FF0000080F3118853
S31508000260BDE8084019680868B0E8F00F80F3098807
S31508000270BFF36F8F704700BF00000020EFF30580C3
S31508000280704700000948804709480047FEE7FEE72F
S31508000290FEE7FEE7FEE7FEE7FEE7FEE7FEE7FEE728
S315080002A004480549054A064B704700003D210008E9
S315080002B031010008F8060020F80C0020F808002094
S315080002C0F8080020704700000FB4044910B503AAC7
S315080002D0029800F0E1FA10BC5DF814FB5400002007
S315080002E02DE9F0410E460446002020622046E168CA
S315080002F0884730B3252805D0D4E901219047206ADC
S31508000300401CF2E7E168204600278847050018D018
S31508000310A5F14100192802D820354FF40067324666
S31508000320294620462760FFF73DFF40B1012804D043
S31508000330F61D26F007060836D8E7361DD6E72846FE
S31508000340DAE7206ABDE8F0812DE9F0410646002487
S3150800035010687529314616A510D0AFF3008000281D
S3150800036002DA404213A507E031688A0701D512A5CB
S3150800037002E0490704D511A5012401E0AFF3008086
S3150800038000210A2206F1240709E0B0FBF2FCB0FBC3
S31508000390F2F302FB1C00303078541846491C00283A
S315080003A0F3D123462A463046BDE8F04100F00CB8A2
S315080003B0000000002D0000002B00000020000000B7
S315080003C070477047704770472DE9F0470D469946C4
S315080003D09246044600F124080168880604D5E069B7
S315080003E021F01001216000E00120A84201DD471B31
S315080003F000E00027A1697A1902EB0900081AA06132
S315080004002078C00602D42046AFF30080002608E014
S31508000410D4E901211AF806009047206A401C761C88
S3150800042020624E45F4DB2078C0060AD52046AFF395
S31508000430008006E0D4E9012130209047206A401C5C
S315080004402062381EA7F10107F4DC07E0D4E9012190
S3150800045018F805009047206A401C2062281EA5F15E
S315080004600105F3DC2046AFF300802078000602D5AC
S315080004700220BDE8F0870120FBE770472DE9FF4F12
S315080004800C461E464FF0FF378BB0D2E90001DDF867
S3150800049060800A908A46C1F30A5505B93D4600218F
S315080004A008464FF00000BAF1000F00F4400005DAE4
S315080004B000EB80004FF4400101EA50004FEA9059E2
S315080004C0B9F1010F00DDB9460A9850EA4A000ED084
S315080004D044F61050A5F2FF3545432F14B8F1000F26
S315080004E01ED07542291E1EDDC9F100021CE0B8F1B6
S315080004F0010F4FF0000001D0302103E0F24305E080
S315080005002154401CB042FBDB304600220021215416
S315080005100B99C1F80880C1E900200FB0BDE8F08F3B
S31508000520BD1B6D1CDEE74A4600DA694206A800F0E4
S3150800053067FA06AB93E8070003AB83E80700504663
S315080005400A9900F045FB8DE80700A0F500501F3812
S3150800055000900398002D0ADD42F21F014A4608441E
S31508000560002303A90390684600F0AEFD09E0A0F554
S3150800057000504A461F38002303A90390684600F036
S31508000580B8FD8DE807000004000C03D04FF0FF30DB
S31508000590410800E01046B8F1000F03D0002200928F
S315080005A015461EE0751E05D400F08CF930326255EA
S315080005B06D1EF9D5B3460122084302D000227F1CDE
S315080005C004E02078302801D100227F1E002A0997EE
S315080005D084D01DE0112D07DA00F074F93032625527
S315080005E06D1C50EA0102F5D1084302D00098C8B143
S315080005F00EE00021681E05E0235C625C6354225409
S31508000600401E491C8142F7DBAB46A81B401E0990D9
S31508000610002004F80B000B98099AC0F80880C0E976
S31508000620002B7AE711264FF0000857E72DE9F04F1F
S3150800063088460446D21D22F0070191B0D1E900018F
S31508000640CDE90A0101F0BDFE02460B98C00F01D0A4
S315080006502D2007E02068810701D52B2002E0202104
S3150800066001EAC000032A099001D0072A05DB0346E0
S315080006704146204600F084F90BE12078800601D532
S31508000680E06900E00620B8F1650F814606D0B8F1AA
S31508000690660F18D0B8F1670F70D131E00020B9F1B4
S315080006A0110F009001DB112301E009F101030AAAE9
S315080006B001A90CA8FFF7E2FEDDE90C70002609F196
S315080006C00105834647E001204B4600904FF000475E
S315080006D00AAA01A90CA8FFF7D1FEDDE90DB00C990D
S315080006E05D46002610B909F101000D18B9EB0500A1
S315080006F003D4C0F1FF3609F10105A5EB09002BE08B
S31508000700B9F1010F01DA4FF001090020B9F1110F13
S315080007100090484601DD112300E003460AAA01A914
S315080007200CA8FFF7ABFEDDE90C704D4600268346A4
S31508000730207800070AD4AB4500DA5D4601A8012DEA
S3150800074004DD411911F8011C302907D04F4502DA9A
S3150800075017F1040F04DA012082460FE06D1EEEE75A
S31508000760002F02DCED1B3E4403E0781CA84200DDA6
S315080007707D1CB81B00F1010A4FF0004720780007DE
S3150800078003D4AA4501DB4FF0FF3A0021B7F1004F29
S315080007900DF143088DF8431024D002202B23002F97
S315080007A001DA7F422D230A21021EA0F1010000DC96
S315080007B05FB197FBF1FC97FBF1F201FB1C7C174636
S315080007C00CF1300C08F801CDEEE7A8F10100037032
S315080007D02188090501D5452100E06521A0F1010818
S315080007E000F8011C09980FA9A1EB0807FF1D00B125
S315080007F00120411901EBEA70A1693844081A401E24
S31508000800A0612078C00602D42046AFF3008009987C
S3150800081028B1D4E901219047206A401C206220783B
S31508000820C00622D52046AFF300801EE0002E04DB6A
S31508000830B34502DD01A8805D00E03020D4E901213E
S315080008409047206A401C2062761CAAF101005FEAE4
S31508000850000A0AD100F032F8C0680168405CD4E9A1
S3150800086001219047206A401C2062281EA5F1010537
S31508000870DCDC07E0D4E9012118F8010B9047206A6F
S31508000880401C2062381EA7F10107F3DC2046AFF3AF
S315080008900080032011B041E6074B70B50D467B4436
S315080008A000F05BF80446284600F01CF910B14FF03A
S315080008B0FF3070BD204670BDDF1B00000048704742
S315080008C0B806002030B5B0F10A024FEA900E71F171
S315080008D000034EEA817EB0EB0E0061EB91014FEA10
S315080008E0101E4EEA017E10EB0E0041EB11114FEA85
S315080008F0102E4EEA016E10EB0E0041EB11214FEA65
S31508000900104E4EEA014E10EB0E0041EB1141401815
S3150800091041F100014FEAD00040EA41704FEAD101A7
S3150800092010EB80054FEA810444EA907444EB010415
S315080009306D1944EB0404521BA3414FF0000348BF52
S315080009400A3200D530BD401C41F1000130BD00001F
S3150800095001694A1C02610878704700B58FB0CDE975
S3150800096001310021059105497944CDE90310114665
S315080009706846FFF7B5FC0FB000BD0000E5FFFFFFB6
S315080009802DE9F0411F46044603260168072A01F4AB
S31508000990006004DB08B116A505E016A503E008B15A
S315080009A015A500E015A521F010002060A069C01E5D
S315080009B0A0610FB1401EA0612046AFF300804FB181
S315080009C0D4E9012138469047206A401C2062C01CA1
S315080009D0206206E0206AFAE7D4E9012115F8010B3E
S315080009E09047761EF8D22046AFF30080BDE8F08126
S315080009F04E414E006E616E00494E4600696E6600B5
S31508000A002DE9F047814616468AB0354878440DC820
S31508000A108DE80D0032487844801C03AC0DC884E884
S31508000A200D0041F69B300844372190FBF1F290FB0C
S31508000A30F1F5A5F1800501FB12041B3C02D56442C1
S31508000A40012000E00020DFF898A080460027FA443D
S31508000A50AAF1BE0A0EE0E0070AD03246684607EB5E
S31508000A60470101230AEB810100F043FB8DE80700EB
S31508000A7064107F1C002CEED1194F7F44AE3F19E05D
S31508000A80E80715D007EB04100DF1180A90E80E00D8
S31508000A908AE80E00C068F04201D1981908903246DB
S31508000AA0012306A903A800F024FB03AB83E807008B
S31508000AB06D10641C002DE3D14FF0010332466946E0
S31508000AC0B8F1000F03A802D000F0FEFA01E000F02A
S31508000AD010FBC9E90001C9F808200AB0BDE8F0878B
S31508000AE0F0490000007B00F080007047004870471E
S31508000AF0980600207546FFF7F9FFAE4605006946D9
S31508000B00534620F00700854618B020B5FFF7C8FB06
S31508000B10BDE820404FF000064FF000074FF00008F0
S31508000B204FF0000B21F00701AC46ACE8C009ACE871
S31508000B30C009ACE8C009ACE8C0098D46704710B5D5
S31508000B400446AFF300802046BDE81040FFF747BBD8
S31508000B504FF0013C50F8042B51F8043B9A4221D13E
S31508000B60A2EB0C03934313EACC1317D150F8042BCA
S31508000B7051F8043B9A4215D1A2EB0C03934313EAAE
S31508000B80CC130BD150F8042B51F8043B9A4209D1E7
S31508000B90A2EB0C03934313EACC13DBD04FF000000F
S31508000BA0704700BFD01A01BAB1FA81F101F01801F5
S31508000BB022FA01F0CB40C1F12001DBB2C0B2C01A63
S31508000BC02CFA01F3D11A914311EAC311E6D1704701
S31508000BD05FEA400C08BF91F0000F4FEA8C234FEAFA
S31508000BE0C12243EA51514FEA1C5018BF00F5F040A4
S31508000BF04FEA300018BF41F000415FEA6C5C00F034
S31508000C002980BCF1FF3F08BF40F080407047130CB5
S31508000C1006BF12044FF0100C4FF0000C130E04BF61
S31508000C2012020CF1080C130F04BF12010CF1040C8C
S31508000C30930F04BF92000CF1020CD30F04BF5200AD
S31508000C400CF1010C11464FF00002A0F11F00A0EBB9
S31508000C500C00704711F0004F08BF704731F0004193
S31508000C603FF4D5AF0B0C06BF09044FF0100C4FF03C
S31508000C70000C0B0E04BF09020CF1080C0B0F04BF85
S31508000C8009010CF1040C8B0F04BF89000CF1020C4E
S31508000C90CB0F04BF49000CF1010CCCF12003A0EBEB
S31508000CA00C0022FA03F302FA0CF241EA030100F1FE
S31508000CB00100704720F07F4C80EA030023F07F474D
S31508000CC0ACEB070303F57C5300F0004003F1FF0388
S31508000CD02DE980494FEA154B09B44FEA144325EA32
S31508000CE00B4E24EA03480FF2042606EB132749089D
S31508000CF03E785FEA320203FB0667C7F5000707FB83
S31508000D0006F64FEA54374FEAD64606F1020607FBBF
S31508000D10066CCCF1005C4FEA1C472CEA074C07FB33
S31508000D2006F40CFB06F504EB15464FEA961634BF97
S31508000D3000204FF000404FEAD13706FB07FC4FEA88
S31508000D401C4C0CFB0BF7D21B03FB0CF761EB0701E2
S31508000D500CFB0EF7B0EB074072EB17420CFB08F7DB
S31508000D6034BFA2EB0742B2EB074261EB17414FEAE9
S31508000D700C444FEA910706FB07FC4FEA1C4C0CFB98
S31508000D800BF7B0EBC74072EB573203FB0CF734BFD7
S31508000D90A2EBC742B2EBC74261EB57310CFB0EF729
S31508000DA0B0EBC70072EB57720CFB08F734BFA2EB27
S31508000DB0C702B2EBC70261EB5771039F4FEA816125
S31508000DC041EA921104EBCC044FEAD1374FEA82622A
S31508000DD006FB07FC42EA90124FEA80604FEA1C4C79
S31508000DE00CFB0BF7D21B03FB0CF761EB07010CFBA3
S31508000DF00EF7B0EB074072EB17420CFB08F734BF4F
S31508000E00A2EB0742B2EB074261EB17414FEA8C555A
S31508000E104FEA910704EB9C2406FB07FC4FEA1C4C9F
S31508000E200CFB0BF7B0EBC74072EB573203FB0CF722
S31508000E3034BFA2EBC742B2EBC74261EB57310CFB9A
S31508000E400EF7B0EBC70072EB57720CFB08F734BF0E
S31508000E50A2EBC702B2EBC70261EB577115EB4C2543
S31508000E604FEA816141EA92114FEA82624FEAD1372D
S31508000E7042EA901206FB07FC44F100044FEA806040
S31508000E804FEA1C4C0CFB0BF7D21B03FB0CF761EB70
S31508000E9007010CFB0EF7B0EB074072EB17420CFB91
S31508000EA008F734BFA2EB0742B2EB074261EB1741E2
S31508000EB015EB1C154FEA813141EA92414FEA82321D
S31508000EC042EA90424FEA80304FEA0C7644F1000439
S31508000ED048EA03434EEA0B484FF0000EB2EB080C03
S31508000EE071EB030724BF624639464EEB0E0E4FF0F0
S31508000EF0000B0018524149414BEB0B0BB2EB080CA7
S31508000F0071EB03077BF1000B24BF624639464EEBB3
S31508000F100E0E4FF0000B0018524149414BEB0B0BDC
S31508000F20B2EB080C71EB03077BF1000B24BF62469A
S31508000F3039464EEB0E0E51EA020718BF46F0010677
S31508000F4016EB0E7655F1000254F1000103D5BDE803
S31508000F508901BDE80088BDE88901BDE80048B619E1
S31508000F60524141EB0101A3F10103704780807F7E66
S31508000F707D7C7B7A79787776767574737271717001
S31508000F806F6E6E6D6C6C6B6A6A69686867666665B3
S31508000F906464636362616160605F5F5E5E5D5D5C41
S31508000FA05C5B5B5A5A5959585857575656555555B2
S31508000FB05454535352525251515050504F4F4F4E12
S31508000FC04E4D4D4D4C4C4C4B4B4B4A4A4A49494960
S31508000FD048484847474747464646454545444444A2
S31508000FE0444343434342424242414141002B9C46CB
S31508000FF030D477002BD01CB54FEA370703B44FF02F
S3150800100010004FF01001BAF1000F06D0BCF1000F26
S31508001010DCBF40F0080040F008014FF000000FBCAC
S31508001020BDE810400BF1010BBBF1010F08BF5FEAE9
S31508001030170722BF12F1010211F101014FF0004119
S3150800104043F1000300F0004043EA00007047F9D37B
S315080010505708D0E746EA064613F1400F4FEA164608
S315080010601FDD13F1200FDFBF16430A460021203388
S315080010705B42BED0C3F1200746EA064602FA07F7E6
S315080010804FEA164646EA0706C3F1200722FA03F294
S3150800109001FA07F721FA03F14FF0000342EA0702C3
S315080010A0A7E746EA020646EA06464FEA164646EA2B
S315080010B00106BCBF46EA0646360C4FF000034FF061
S315080010C000024FF0000194E72DE9804C9A469346BA
S315080010D070B491E8380007C831EA400C48BF34EAD2
S315080010E0430C03D5FFF7E6FDFFF780FFF0BCBDE82C
S315080010F0008C2DE9804C9A46934670B491E83800E6
S3150800110007C810F0804F08BF13F0804F03D100F0D6
S3150800111005F8FFF76BFFF0BCBDE8008C20F07F47B1
S3150800112080EA030023F07F4C07EB0C03A3F57C53FE
S3150800113000F00040A3F1FE0392F0000F00F0B38028
S3150800114095F0000F00F077802DE901494FEA11402C
S315080011504FEA144621EA004800FB06FC24EA064743
S3150800116008FB06F607FB08F800FB07F718EB064826
S315080011704CEB164C4FEA124B18EB07484FEA15464C
S315080011804CEB174022EA0B4E0BFB06FC25EA0647FA
S315080011900EFB06F607FB0EFE0BFB07F71EEB064ECD
S315080011A04CEB164C4FF000061EEB074E4CEB174B5C
S315080011B018EB0B0840F1000018EB0E0B58EB000873
S315080011C040F100008F1A4FF000013CBFC943661B6F
S315080011D014BFB5EB040C00213CBFC943F61B4FEA0C
S315080011E017444EEA8E0E27EA04454FEA1C4704FBCD
S315080011F007622CEA074C05FB07F70CFB05F604FB10
S315080012000CFC16EB074642EB174216EB0C4642EB74
S315080012101C421BEB060658EB0202414146EA9E06B3
S3150800122001D5BDE80189B619524141EB0101A3F187
S315080012300103BDE801894FEA14454FEA114724EA3C
S31508001240054621EA074C05FB07F406FB07F70CFBE6
S3150800125006F105FB0CFC11EB074144EB17444FEA7A
S31508001260124711EB0C4144EB1C4422EA074C05FBE0
S3150800127007F206FB07F70CFB06F605FB0CFC16EB5C
S31508001280074642EB174216EB0C4642EB1C456A181A
S3150800129054F1000148BF7047B619524141EB0101AC
S315080012A0A3F10103704795F0000F37D04FEA1142BA
S315080012B04FEA144721EA024624EA074C02FB07F1E3
S315080012C006FB07F70CFB06F402FB0CFC14EB0744C1
S315080012D041EB17414FEA154714EB0C4441EB1C410F
S315080012E025EA074C02FB07F506FB07F70CFB06F693
S315080012F002FB0CFC16EB074645EB174516EB0C46AE
S3150800130045EB1C42121951F1000148BF7047B61946
S31508001310524141EB0101A3F1010370474FEA14451D
S315080013204FEA114724EA054621EA074C05FB07F16F
S3150800133006FB07F70CFB06F24FF0000605FB0CFC54
S3150800134012EB074241EB174112EB0C4251EB1C41E1
S3150800135048BF7047921841EB0101A3F1010370479A
S315080013602DE9F04107460C460025002608E03846D8
S3150800137000F00EF80544052001F05CF8701CC6B2B2
S31508001380A642F4DBB5FBF4F080B2BDE8F0810000BC
S3150800139010B50446072301222146094800F0C6F87D
S315080013A00121074800F023F900BF0221044800F094
S315080013B081F80028F9D0024800F078F810BD00003E
S315080013C0002401402DE9F74F88B08A4693465846CF
S315080013D001F0A0FECDE90601504601F09BFECDE9DD
S315080013E002014FF08B41089801F0C0FE019001F010
S315080013F091FE80464FF06632094B01F0A3FC064683
S31508001400DDE9022301F09CFDCDE90401DDE90623AF
S3150800141001F040FB044601F063FA0BB0BDE8F08F1B
S3150800142066660A4021B1826842F00102826003E0E2
S31508001430826822F0010282607047000010B50446F7
S315080014401248844208D10121401500F071FD00219F
S31508001450601500F06DFD17E00D48844208D10121A2
S31508001460001500F065FD0021201500F061FD0BE078
S315080014700848844208D10121C80300F059FD00211B
S315080014804FF4004000F054FD10BD00000024014058
S3150800149000280140003C0140014600208A6802F00D
S315080014A004020AB1012000E0002070470146C86C1A
S315080014B080B270470246002013680B400BB101202A
S315080014C000E000207047014600208A6802F0080202
S315080014D00AB1012000E000207047000030B502463E
S315080014E00020002350680F4C20400D790C6844EA10
S315080014F005242043506090680B4C2040D1E90254E3
S315080015002C434D7944EA450420439060D06A20F480
S3150800151070000C7C641EE4B2234340EA0350D06298
S3150800152030BD0000FFFEF0FFFDF7F1FFF0B5044601
S315080015300D4600200021092D11DDE068A5F10A06F7
S3150800154006EB4607072606FA07F18843A5F10A06B9
S3150800155006EB460603FA06F10843E0600CE020694C
S3150800156005EB4507072606FA07F1884305EB450606
S3150800157003FA06F108432061072A0FDA606B561E44
S3150800158006EB86071F2606FA07F18843561E06EB62
S31508001590860605FA06F10843606322E00D2A0FDA8B
S315080015A0206BD61F06EB86071F2606FA07F1884327
S315080015B0D61F06EB860605FA06F10843206310E0F7
S315080015C0E06AA2F10D0606EB86071F2606FA07F162
S315080015D08843A2F10D0606EB860605FA06F10843CE
S315080015E0E062F0BD816841F008018160704721B171
S315080015F0826842F4A002826003E0826822F4A002B4
S3150800160082607047816841F004018160704700007C
S3150800161000B587B001214FF4017000F079FC4FF452
S31508001620004000F059FC0120ADF8040000208DF8B8
S31508001630070001A91D4800F0E6F80420ADF80400EB
S3150800164000208DF8070001A9184800F0DCF81848B2
S31508001650FFF7F4FE0020029001208DF80C008DF8AB
S315080016600D004FF4602004900020059003208DF8AB
S31508001670180002A90E48FFF731FF01210C48FFF7B1
S31508001680D1FE0B48FFF7AEFF00BF0948FFF71BFF67
S315080016900028FAD10648FFF7B5FF00BF0448FFF750
S315080016A0FBFE0028FAD107B000BD00000008014083
S315080016B0002401402DE9F04104460E4617464FF432
S315080016C07A7096FBF0F0303004EB8401394A5054B6
S315080016D04FF47A7096FBF0F100FB1160642190FBE1
S315080016E0F1F0303004EB840111444870642096FB15
S315080016F0F0F100FB11600A2190FBF1F0303004EBA9
S315080017008401114488700A2096FBF0F100FB1160F1
S31508001710303004EB84011144C8702749384601F07B
S315080017201BFE804601F0E4FD05462448854200DCA0
S31508001730054622484042854200DB0546002D07DA69
S315080017402D2004EB44011E4A02F811006D4205E003
S31508001750202004EB44011A4A02F8110042F21070E4
S3150800176095FBF0F0303004EB4401154A02EB4101D9
S31508001770487042F2107095FBF0F100FB11504FF4DF
S315080017807A7190FBF1F0303004EB440102EB410131
S3150800179088704FF47A7095FBF0F100FB11506421C4
S315080017A090FBF1F0303004EB440102EB4101C870C4
S315080017B0BDE8F0818006002000007A446179FEFFCA
S315080017C08A06002000BFFEE7704710B501210846CB
S315080017D000F09EFB0121042000F09AFB012108205D
S315080017E000F096FB0121102000F092FB0121042055
S315080017F000F07EFB0121082000F07AFB0121102071
S3150800180000F076FB10BD2DE9F041024600250026C2
S31508001810002000230024002791F803C00CF00F05D0
S3150800182091F803C00CF0100CBCF1000F03D091F82E
S3150800183002C04CEA050591F800C0BCF1000F31D092
S31508001840146800202BE04FF0010C0CFA00F3B1F8F5
S3150800185000C00CEA03069E4220D183004FF00F0C0D
S315080018600CFA03F7BC4305FA03FC4CEA040491F8A6
S3150800187003C0BCF1280F06D14FF0010C0CFA00FC8E
S31508001880C2F814C00AE091F803C0BCF1480F05D1AC
S315080018904FF0010C0CFA00FCC2F810C0401C0828D6
S315080018A0D1D31460B1F800C0BCF1FF0F34DD546821
S315080018B000202EE000F1080C4FF0010808FA0CF39E
S315080018C0B1F800C00CEA03069E4221D183004FF00E
S315080018D00F0C0CFA03F7BC4305FA03FC4CEA0404A4
S315080018E091F803C0BCF1280F05D100F1080C08FADD
S315080018F00CF8C2F8148091F803C0BCF1480F07D160
S3150800190000F1080C4FF0010808FA0CF8C2F810802C
S31508001910401C0828CED35460BDE8F0814161704769
S315080019200161704700BFFEE710B54FF4E071024849
S31508001930FFF7F6FF10BD00000010014010B54FF488
S31508001940E0710248FFF7EAFF10BD000000100140F1
S3150800195008B50121102000F0DBFA4FF4E070ADF86D
S31508001960000002208DF8020010208DF80300694659
S315080019700448FFF748FF4FF4E0710248FFF7D0FF2D
S3150800198008BD00000010014010B500F0D7FBFFF7B6
S315080019901CFF00F02DFD00F01CF84FF4E13000F0BC
S315080019A041FEFFF735FEFFF7D3FF00F0D3F800201E
S315080019B000F070F8002000F07BF800F067F940F6B8
S315080019C0C41000F037FD00F04DF810BD00BFFEE76B
S315080019D0704710B54FF4A06000F03AF810BD00004B
S315080019E070B5002100230F22C47804B3154C24686F
S315080019F004F4E064C4F5E064210AC1F10403CA40B2
S31508001A00447804FA03F184781440214309010E4C02
S31508001A100678A155047804F01F050124AC40057822
S31508001A206D11AD0005F1E025C5F8004109E004781F
S31508001A3004F01F050124AC40044D0678761145F8DC
S31508001A40264070BD0CED00E000E400E080E100E017
S31508001A5002490143024A1160704700000000FA0576
S31508001A600CED00E070B500240CE0002506E000202F
S31508001A70074901EBC5010855681CC5B2802DF6DB80
S31508001A80601CC4B2082CF0DB00F000F970BD000041
S31508001A903801002010B504461CB90021A62000F024
S31508001AA0DFF9012C03D10021A72000F0D9F910BDD8
S31508001AB010B504463CB90021C82000F0D1F9002130
S31508001AC0A12000F0CDF9012C07D10021C02000F09B
S31508001AD0C7F90021A02000F0C3F910BDF0B51446DF
S31508001AE00B46CF1701EB5777C7F3C702CF1701EBA2
S31508001AF05777FF10A1EBC707FEB20123B340DDB24B
S31508001B004CB1134B03EBC0039B5C2B43104F07EB05
S31508001B10C007BB541AE00E4B03EBC0039B5CDB43C8
S31508001B200B4F07EBC007BB54094B03EBC0039B5C89
S31508001B302B43074F07EBC007BB54054B03EBC0030A
S31508001B409B5CDB43024F07EBC007BB54F0BD0000AC
S31508001B503801002008B501213C2000F0D9F93020D1
S31508001B60ADF8000010208DF8030003208DF8020060
S31508001B7069464448FFF747FE30214248FFF7D0FE42
S31508001B800320ADF8000069463F48FFF73CFE0321F5
S31508001B903D48FFF7C5FE01213B48FFF7BFFEC820B9
S31508001BA000F048FC01213848FFF7BAFE0021AE20B4
S31508001BB000F056F90021022000F052F90021102009
S31508001BC000F04EF90021402000F04AF90021B0202B
S31508001BD000F046F90021812000F042F90021CF20CB
S31508001BE000F03EF90021A12000F03AF90021A620D4
S31508001BF000F036F90021A82000F032F900213F2034
S31508001C0000F02EF90021AD2000F02AF900218B20E2
S31508001C1000F026F90021332000F022F90021C8201F
S31508001C2000F01EF90021D32000F01AF90021084619
S31508001C3000F016F90021D52000F012F900218020C5
S31508001C4000F00EF90021D92000F00AF900211F2022
S31508001C5000F006F90021DA2000F002F9002112202E
S31508001C6000F0FEF80021DB2000F0FAF80021402001
S31508001C7000F0F6F8FFF7F6FE0021AF2000F0F0F8C6
S31508001C8008BD000000100140000C014070B500249A
S31508001C901CE004F1B001C8B2002100F0E1F800210F
S31508001CA0022000F0DDF80021102000F0D9F8002508
S31508001CB008E0084901EBC501085D012100F0D0F8EC
S31508001CC0681CC5B2802DF4DB601CC4B2082CE0DBAE
S31508001CD070BD0000380100202DE9FE4F07468846F2
S31508001CE092461C460197CDF80080082C02D14FF089
S31508001CF006091FE02046E31704EB5373DB10214661
S31508001D004FEAE47C04EB5C7C4FEAEC0CA4EBCC0CCD
S31508001D10BCF1000F02D04FF0010C01E04FF0000CAF
S31508001D206344224604EBD27C4FEA6C0C03FB0CF3AB
S31508001D3003F0FF09AAF12000C6B200255EE0082CD0
S31508001D4007D106EB46002F4901EB400010F805B015
S31508001D501DE00C2C07D106EB46002B4901EB800051
S31508001D6010F805B013E0102C05D1284800EB061032
S31508001D7010F805B00BE0182C07D106EBC60024496D
S31508001D8001EB800010F805B001E0BDE8FE8F0020E9
S31508001D9002901CE00BF0010028B1414638460C9A27
S31508001DA0FFF79CFE09E00C9808B9012000E0002026
S31508001DB0024641463846FFF791FE4FEA6B0B08F19B
S31508001DC0010000F0FF080298401CC0B20290029879
S31508001DD00828DFDB781CC7B2082C0BD004EBD471BB
S31508001DE04A100199791A8A4204D1019F009808304D
S31508001DF0C0B20090DDF80080681CC5B24D459EDB78
S31508001E0000BFC2E7F43400081C370008903B0008FE
S31508001E10804100082DE9F84106460F4614461D463E
S31508001E20DDF81C8013E0CDF8008022782B46394671
S31508001E303046FFF751FF082D02D1B01DC6B205E0A6
S31508001E40284605EBD07106EB6101CEB2641C2078FA
S31508001E50202802DB20787E28E5DDBDE8F881000031
S31508001E6070B504460E4626B102211848FFF758FDFC
S31508001E7003E002211548FFF751FD10211448FFF72A
S31508001E804DFD002517E010211248FFF747FD04F025
S31508001E90800020B120210F48FFF742FD03E02021F2
S31508001EA00C48FFF73BFD10210A48FFF739FD60068D
S31508001EB0040E681CC5B2082DE5DB10210448FFF79F
S31508001EC02FFD02210148FFF72BFD70BD000C0140D4
S31508001ED0000801400010014001460020034A5068EE
S31508001EE020F440400843506070470000001002404C
S31508001EF029B1064AD2690243044BDA6104E0034A6F
S31508001F00D2698243014BDA61704700000010024033
S31508001F1029B1064A92690243044B9A6104E0034ACE
S31508001F2092698243014B9A61704700000010024093
S31508001F3029B1064AD2680243044BDA6004E0034A30
S31508001F40D2688243014BDA607047000000100240F5
S31508001F5030B500210022002400232D4D6D6805F0C0
S31508001F600C0121B1042905D0082923D105E0294D02
S31508001F70056022E0274D05601FE0254D6D6805F4D4
S31508001F807012234D6D6805F48034022505EB9242E4
S31508001F901CB9214D554305600BE01D4D6D6805F4D0
S31508001FA000351DB11C4D5543056002E0194D5543DA
S31508001FB0056002E0174D056000BF00BF144D6D684F
S31508001FC005F0F0010909154D6B5C0568DD404560B3
S31508001FD00F4D6D6805F4E061090A104D6B5C4568A4
S31508001FE0DD4085600A4D6D6805F46051C90A0B4DE0
S31508001FF06B5C4568DD40C560054D6D6805F440417C
S31508002000890B074D6B5CC568B5FBF3F5056130BDFB
S315080020100010024000127A0000093D003C00002032
S315080020204C00002010B500F001F810BD0CB50020DA
S31508002030019000903348006840F4803031490860C8
S3150800204000BF3048006800F4003000900198401C3A
S315080020500190009818B90198B0F5A06FF1D12948F8
S31508002060006800F4003010B10120009001E0002063
S3150800207000900098012843D12348006840F01000DA
S31508002080214908600846006820F0030008600846F1
S31508002090006840F0020008601A484068194948601C
S315080020A00846406848600846406840F480604860D2
S315080020B00846406820F47C1048600846406840F4AA
S315080020C0E81048600846006840F08070086000BF65
S315080020D00C48006800F000700028F9D009484068EC
S315080020E020F00300074948600846406840F00200AF
S315080020F0486000BF0348406800F00C000828F9D182
S315080021000CBD00000010024000200240042808D13F
S315080021104FF0E021096941F004014FF0E022116116
S3150800212007E04FF0E021096921F004014FF0E022B1
S315080021301161704710B500F015FB10BD10B51348B6
S31508002140006840F0010011490860084640681049D7
S3150800215008400E494860084600680E4908400B4981
S3150800216008600846006820F4802008600846406831
S3150800217020F4FE0048604FF41F008860FFF752FF06
S315080021804FF000600449086010BD000000100240CE
S315080021900000FFF8FFFFF6FE08ED00E010B540F27C
S315080021A025511D4800F04AF810B31B4800F002F903
S315080021B0C4B21A48008800F40040C8B91748008815
S315080021C000F4804060B10A2C03D00020134908802F
S315080021D020E01248008840F400401049088019E0C1
S315080021E00D2C06D10D48008840F480400B49088024
S315080021F010E00A480088C0F30D0009490C54074846
S315080022000088401C0549088008460088C72801DD63
S315080022100020088010BD000000380140580000204A
S31508002220B805002021B1828942F40052828104E077
S3150800223082894DF6FF731A408281704770B502464F
S31508002240002400230025002040F66A16B14200D17A
S3150800225000BFC1F3421501F01F03012606FA03F376
S31508002260012D02D19689334006E0022D02D1168A45
S31508002270334001E0968A33400C12012606FA04F42C
S315080022801688344013B10CB1012000E0002070BD5F
S31508002290F0B50346002400260025002040F66A17FC
S315080022A0B94200D100BF1846C1F3421401F01F0617
S315080022B0012707FA06F5012C01D10C3004E0022C9F
S315080022C001D1103000E014301AB107682F430760B7
S315080022D002E00768AF430760F0BD00002DE9F0474C
S315080022E086B005460E460024A24600BFA146002732
S315080022F0B08900B100BF2F462C8A4CF6FF70044007
S31508002300F08804432C82AC894EF6F3100440B0885A
S3150800231031890843718908430443AC81AC8A4FF676
S31508002320FF400440B0890443AC8201A8FFF710FEC1
S315080023301F48874202D1DDF810A001E0DDF80CA0A5
S31508002340A88900F4004040B10AEBCA0000EB0A1065
S3150800235031684900B0FBF1F807E00AEBCA0000EB68
S315080023600A1031688900B0FBF1F86420B8FBF0F078
S3150800237004012009642101FB1089A88900F40040A2
S3150800238040B1322000EBC900B0FBF1F000F00700C5
S31508002390044308E0322000EB09106421B0FBF1F099
S315080023A000F00F0004432C8106B0BDE8F08700005A
S315080023B00038014001468888C0F30800704700BF0E
S315080023C0FEE7490050EAC12018BF04204A0D18BF8D
S315080023D040F0010040F2FF72B2EB515F08BF40F0D7
S315080023E00200012808BF0520704700BF704700009B
S315080023F010B56FF00400FFF789FE0A4800680A491D
S31508002400B0FBF1F0094908700846007800EB400176
S31508002410C1EBC0104FF6FF7101EAC00004490880FD
S3150800242010BD00005C00002000127A005000002059
S31508002430520000200146114A12884A434FF0E02311
S315080024405A6100229A611A46126942F001021A611B
S3150800245000BF4FF0E022106900F001021AB100F443
S315080024608032002AF5D04FF0E022126922F00102EC
S315080024704FF0E0231A6100229A617047520000204B
S3150800248000BF054A128802F04002002AF9D0C2B2FB
S31508002490014B1B1D1A807047003801401CB5FFF719
S315080024A073FA74E000246CE00CB9002000E0022006
S315080024B00646F0B20A21FEF753FF8146484600F069
S315080024C033FF0746324A3349FEF77CFF054628465E
S315080024D000F020FE4A46CDE9000131462EA0FDF760
S315080024E0F3FE2A4649462046FFF7E4F8FFF726FAA0
S315080024F040F6C410FFF79EFFFFF716FAFFF7B2FA89
S315080025000020102330A219460090FFF783FC002014
S3150800251010232F4A194600904820FFF77BFC00201D
S3150800252010232CA220210090FFF774FC0020102312
S315080025302A4A202100904820FFF76CFC002010232F
S3150800254027A230210090FFF765FC00201023204ABF
S31508002550521D302100904820FFF75CFC0020102314
S3150800256021A240210090FFF755FC002010231B4AAA
S31508002570921D402100904820FFF74CFCFFF786FB90
S31508002580641C022C90DB4FF4FA70FFF753FF89E7BF
S31508002590CDCC4C3C3D0AB73F4368616E6E656C20F6
S315080025A025643A20566F6C746167653A2025642065
S315080025B06D562C2050726573737572653A202566C0
S315080025C0206D6261720D0A0043485F303A000000D0
S315080025D0800600205072655F303A00008A060020A7
S315080025E043485F323A0000005072655F323A000095
S315080025F00A490968096809B9012100E0002121B1E1
S315080026004FF0FF31064A116006E004490968C968B7
S31508002610C868034A4168116070470000040000203A
S315080026203000002010B586B00446012144F20400AB
S31508002630FFF76EFC4FF40070ADF8140003208DF818
S31508002640160018208DF8170005A91C48FFF7DBF8B7
S315080026504FF48060ADF8140004208DF8170005A922
S315080026601648FFF7D0F825208DF8000003208DF8CE
S3150800267001008DF8020001208DF803006846FFF777
S31508002680AFF901940020ADF80800ADF80A00ADF8DE
S315080026900C00ADF810000C20ADF80E0001A9084892
S315080026A0FFF71CFE012240F225510548FFF7F0FD11
S315080026B001210348FFF7B6FD06B010BD000801402A
S315080026C00038014001460A69D1E901309860D1E92C
S315080026D0010358605068884201D18868506000201C
S315080026E008611068401E10601068704742684A60AA
S315080026F093688B60936859609160086103685B1CF6
S31508002700036070471248006818B101201149086033
S315080027101DE000200F4908600F480068B0FA80F0F5
S31508002720C0F11F0101EB81020C4B03EB82004268EA
S315080027305268426000F108024368934202D1426837
S31508002740526842604268D268054B1A6000BF7047FB
S315080027503800002024000020180000207000002007
S315080027600000002010B500BFBF2080F31188BFF31A
S315080027704F8FBFF36F8F00BF00F00EF818B14FF000
S3150800278080500449086000BF002080F3118800BF0C
S3150800279010BD000004ED00E02DE9F04100273A489D
S315080027A00068002863D139480068451C3748056029
S315080027B08DB93748D0F80080364800683449086033
S315080027C03448C0F8008034480068401C3249086024
S315080027D0FFF70EFF00BF3148006885423BD300BFB4
S315080027E02B480068006808B9012000E0002020B1E5
S315080027F04FF0FF30294908602CE025480068C0687A
S31508002800C4686668B54202D22448066022E0201DE4
S31508002810FFF758FFA06A18B104F11800FFF752FF36
S3150800282094F82C10012088401D49096808431C4962
S315080028300860E16A01EB81011A4A02EB8100211D59
S31508002840FFF754FF1849E06A0968C96A8842C7D37E
S315080028500127C5E700BF14480068C06A00EB80007E
S31508002860104951F82000012800D9012704E00F4833
S315080028700068401C0D4908600D48006800B1012732
S315080028803846BDE8F081000038000020140000201A
S315080028900400002008000020280000203000002046
S315080028A018000020700000200000002020000020F2
S315080028B02400002010B500290AD00878002807D07F
S315080028C005487844FEF744F9002801D0002010BDD9
S315080028D00248784410BD0000762B00006E2B0000DD
S315080028E021F00042A2F16052B2F5801F01F00043C8
S315080028F028BFD2F17F6C0BD95FEA001C43EAC202FB
S3150800290042EB507018BF704728BF20F0010070478F
S31508002910B2F5801FBCBF184670474FEA410C1CF53C
S31508002920001F02D2084600F0DEBD70B500F0B4FA0A
S3150800293000000089FFF7F6BF4FF00040A0F58000C1
S315080029407047000010B591EA030F48BF83F00043B3
S3150800295000F1FE82841A71EB030C05D2121943EBBF
S315080029600C03001B61EB0C01DFF824E14FEA11545C
S31508002970A4EB135C1EEA430F18BF9EEA445F73D0AC
S3150800298023EA0E03DCF1200E21EA045143F48013F6
S3150800299032D322FA0CFE10EB0E0023FA0CFE41EBA2
S315080029A00E01CCF1200E03FA0EFE10EB0E0051F1CB
S315080029B00001B1F5801FCCF1200E32D201EB045193
S315080029C012FA0EF2BDE8104058BF7047401C38BFD7
S315080029D05FEA420218BF7047002814BF20F00100C2
S315080029E041F100014FEA410313F5001F38BF704754
S315080029F0A1F1C04100F09EBA012A43EB0302ACF1F3
S31508002A00200CDCF11F0E32BF4FF0000E23FA0CF338
S31508002A1010EB030041EB0451B4EB115FD0D0A1EBEE
S31508002A20045101F5801149085FEA300001EB0451B1
S31508002A300ED350F1000038BF12FA0EFE08D1BDE8D9
S31508002A401040C9E7401C38BF5FEA4202CAD1C3E753
S31508002A50BDE810404FEA410313F5001F38BF704721
S31508002A60A1F1C04100F066BA9EEA445F08D011EAB7
S31508002A705E0FBDE8104004BF01F00041002070471A
S31508002A80BDE8104070B500F007FA00BF64FBBE3E13
S31508002A900000E0FF2DE9C04130B4DFF8A0C23CEAEF
S31508002AA0111418BF3CEA131400F0EC8081EA030500
S31508002AB01CEA111444EAD57418BF1CEA131500F071
S31508002AC0C780A4EB05044FF0004545EAC12145EA55
S31508002AD0C32341EA505143EA525304F17F749942A1
S31508002AE004F500344FEAC0204FEAC22208BF9042DC
S31508002AF000F09C804FEA13650FF24016765D4FEAA8
S31508002B00134506FB05F7C7F1807706FB07F74FEA7B
S31508002B10D737A7FB03687642C8F58038A7FB06CEE9
S31508002B2038BFA8F1010807FB08E64FF0000EA6FB20
S31508002B30028CE6FB03CEDCF1000CCEF1004E38BF6A
S31508002B40AEF1010EA6FB0C584FF000074FF000053A
S31508002B50E6FB0E87A1FB08C6A0FB07CE16EB0E0602
S31508002B6045F10005E1FB076515F1E04E7EBFA4F5CA
S31508002B7080345FEA46066D4116F1800745F1000587
S31508002B804FEA17274FEA066647EA0567A6F1DE46C3
S31508002B90B6F1805F4FEA15251FD9384624F0010C97
S31508002BA005EBC471BCF1FE6F01EB0C1102D8F0BC49
S31508002BB0BDE8008124425CBF01F5801E9EEAC47F01
S31508002BC002D4F0BCBDE80081244238D4F0BCA1F19F
S31508002BD0C041BDE8004100F0ADB94FEAD22242EA51
S31508002BE043524FEAD323A7FB02864FEAD02040EA96
S31508002BF0415007FB03661EEA0E0F4FEAD12105FB7B
S31508002C00026658BFA6EB0056B6EB00564FEA520EC0
S31508002C104EEAC37E18EB0E0E56EB530EBDD518EBD7
S31508002C2002085E417F1C55F10005B6E74FF4801592
S31508002C304FF000074FF000064FF00008ADE7F0BC74
S31508002C404FF0000001F1C04101F00041BDE80081EC
S31508002C5011EA0C1F0CEA131500D00CE013EA0C1F3E
S31508002C6000F025804FF00000F0BC81EA030101F076
S31508002C700041BDE80081F0BCBDE8004181EA0301DE
S31508002C8000F058B9F0BCBDE8004170B500F004F991
S31508002C90097EFC3E00F007B881EA03014FF0000008
S31508002CA001F00041704781EA030100F043B9F0BC26
S31508002CB0BDE800414FF0000021497047FFFDFBF9D0
S31508002CC0F7F5F4F2F0EEEDEBE9E8E6E4E3E1E0DE51
S31508002CD0DDDBDAD8D7D5D4D3D1D0CFCDCCCBCAC8C3
S31508002CE0C7C6C5C4C2C1C0BFBEBDBCBBBAB9B8B7EA
S31508002CF0B6B5B4B3B2B1B0AFAEADACABAAA9A8A8DD
S31508002D00A7A6A5A4A3A3A2A1A09F9F9E9D9C9C9BAA
S31508002D109A99999897979695959493939291919055
S31508002D208F8F8E8E8D8C8C8B8B8A898988888787E6
S31508002D308685858484838382828181800000FF075B
S31508002D400000F87FDFF848C170B51CEA111E1EBFE7
S31508002D501CEA13159EEA0C0F95EA0C0F00F06F801B
S31508002D6081EA030423EA4C134EEAD47E21EA4C1185
S31508002D7041F4801143F48013AE44A1FB024CA0FB3E
S31508002D800365AEF17F7E361955EB0C05A1FB034CA6
S31508002D904CF10003A0FB021C16EB0C06654153F12F
S31508002DA00003094218BF46F0010613F4007F0BD151
S31508002DB04FEA03314FEA0530340341EA155140EA38
S31508002DC016506FF003020AE04FEAC3214FEAC52006
S31508002DD0F40241EA555140EA56506FF0020202EBFE
S31508002DE02E4201EB025585EACE710AD05FEA440C01
S31508002DF018BF24F0004450F1000041F1000120EA18
S31508002E00D47040F2FE7C624500D270BDA84214BF61
S31508002E104FF080444FF04044002E08BF0024BEF116
S31508002E20806FA8BFA1F1C041BDE8704080F28280E2
S31508002E304FF0000001F1C04101F0004170479EEAE1
S31508002E400C0F0CEA131518BF95EA0C0F06D04FF0B5
S31508002E50000081EA030E0EF0004170BD00F01CF878
S31508002E608900013E00F007B800F009B84FEA430CA4
S31508002E705FEA5C5C08D081EA030100F05BB84FEAC0
S31508002E80410C5FEA5C5CF6D14FF0000001497047DF
S31508002E900000FF070000F87F0EF1020E2EF0030E69
S31508002EA05EF8046B364205D4012A43EB030515F593
S31508002EB0001F12D8012841EB010C1CF5001F0CD885
S31508002EC00ED14FEAD17C15F5001F0CEB4C0C0CF11A
S31508002ED0020C08BF4CEBD37C04E04FF0080C01E071
S31508002EE04FEAD37C0CEB4C0526FA05F606F00706E6
S31508002EF0B6F1040C06D20EEB860CBDE870404CF019
S31508002F00010C6047DFE80CF0090B02024FF00041A4
S31508002F104FF00000A1F5002170BD194610460128A2
S31508002F2051EB010418BFD4F5001484BF002001F04A
S31508002F30004170BD0808A0F500114FEA310170473D
S31508002F4010B591EA030F48BF83F000433FF502AD81
S31508002F50841A71EB030C07D212198CF0004C43EB60
S31508002F600C03001B61EB0C01DFF8A4E14FEA1154D6
S31508002F70A4EB135C1EEA430F18BF9EEA445F00F0F9
S31508002F80B08023EA6E03524221EA0451C3EB6E0372
S31508002F9038BF5B1EDCF1200E25D322FA0CFE10EB9F
S31508002FA00E0043FA0CFE41EB0E01CCF1200E03FA9B
S31508002FB00EFE10EB0E0051F10001CCF1200E29D4C3
S31508002FC012FA0EF201EB0451BDE8104058BF7047E3
S31508002FD0401C1CBFB2F1004F704700280CBF491CAB
S31508002FE020F00100704712EB020E43EB030218BFF4
S31508002FF04FF0010E4EEA4202ACF1200CDCF11E0E37
S3150800300054D943FA0CFE10EB0E0051F1FF31CCF106
S315080030101E0ED5D50EF1010E12FA0EFE404141EBF9
S31508003020010101EB445C5FEA5C5C10D910EBDE70D1
S3150800303001EB045138BFBEF1004FBDE8104018BF80
S31508003040704700280CBF491C20F00100704730D299
S315080030504FEAD42C11F5001124F400641BD0B1FA00
S3150800306081F20B3AA41AA41ED2F12003914030FA39
S3150800307003F31943904001EBCC71002C01EB04518A
S31508003080BDE81040A8BF704701F1C0414FF00000ED
S3150800309001F000417047B0FA80F310FA03F100D14D
S315080030A010BDE41A173C4805C90AE4E701EB0451C8
S315080030B010BD491001EB0451BDE810404FEA30003D
S315080030C002E04FF0000170474A0008BF0042F8D0FE
S315080030D0B2F5001F28BF704701F000414FF000000D
S315080030E070479EEA445F07D011EA5E0FBDE81040BC
S315080030F004BF002100207047BDE8104070B5FFF7F7
S31508003100CBFE00BF40DFF63E83F000411046704715
S315080031100000E0FF43004FEAD30C4FEA3C0C434063
S315080031201FBF40070CF1605113F0FE4F70471CF0AB
S31508003130006F03D100200CF0004170470CF00043EB
S3150800314043EA507010B540EACC0000F086F900BF9B
S31508003150000000924FEA0001FFF7ECBE4FF0004175
S315080031604FF00000A1F50021704700004FF47F0CD6
S315080031701CEAD0121EBF1CEAD11392EA0C0F93EA7E
S315080031800C0F00F0858090EA010F48BF42F4807268
S3150800319040F4000C41F400002CF07F4120F07F4001
S315080031A000B58142A2EB03020FF2081CACEB504EAD
S315080031B0C0F100009EF800E04FEA4E0E00FB0EFC40
S315080031C038BF49004FEA2C1C02F5FA020CFB0EF335
S315080031D04FEACE1E4FEA112C4FEAC1210EEB635E71
S315080031E042EB22420EFB0CFC4FEA1C5300FB031178
S315080031F04FEA112C4FEA01310EFB0CFC4FEADC4C6E
S3150800320000FB0C11C14228BF09184CEB03335DF8CB
S3150800321004EB10EB410143EBC250B2F57C0F38BF0B
S31508003220704729D512F0F00F1CBF00F1C04000F01E
S3150800323000407047008182838485868788898B8CC5
S315080032408D8E8F919293959697999A9C9D9FA0A201
S31508003250A3A5A7A8AAACAEB0B2B3B5B7B9BCBEC051
S31508003260C2C5C7C9CCCED1D4D7D9DCDFE2E6E9ECF2
S31508003270F0F3F7FAFE0000004FEA400C0CF1807CF0
S31508003280BCF17E4F28BF7047B0F1C04000F02BB9A3
S3150800329090EA010F0CEAD11348BF42F480726245E6
S315080032A038BF634507D213F47F0F16D080EA0100B2
S315080032B000F00040704710B500F0CFF8097EFC3EDC
S315080032C000F005B880EA010000F00040704780EA87
S315080032D0010000F0004000F006B912F47F0F04BFA9
S315080032E00248704780EA010000F0FDB80000C07F80
S315080032F041000B0ED3F19E0208D950F400034FEAA1
S31508003300032323FA02F048BF4042704710B500F085
S31508003310A4F800BF49922480002070476FF000424D
S3150800332082EA20007047000010F0004148BF404282
S31508003330B0FA80F310FA03F2C3F19D030BD051EAF9
S31508003340C35101EB1220530638BF704700F1010044
S3150800335008BF20F0010070474FF47F0C1CEAD0121A
S315080033601EBF1CEAD11392EA0C0F93EA0C0F00F069
S31508003370478090EA010F48BF42F480724FF0004C34
S315080033804CEA00204CEA012102EB0302A0FB0113E0
S31508003390A2F50002002918BF43F001035B0028BF0D
S315080033A04FEA330342EB22425FEA132C4CEBC2503E
S315080033B02EBFBCEB436FB2F57C0F70474FEA036C28
S315080033C0BCF1004F08BF20F00100B2F57C0F38BFF2
S315080033D070470BD582F0FF0212F5803FC8BF7047D1
S315080033E000F1C040D8BF00F00040704700F5000C5F
S315080033F05FEA4C0C48BF7047B0F1C04000F073B8A4
S3150800340090EA010F0CEAD11348BF42F48072624574
S3150800341038BF634504D280EA010000F000407047D7
S3150800342010B500F01AF800BF8900013E00F007B891
S3150800343000F009B85FEA410C5FEA1C6C08D080EA24
S31508003440010000F050B85FEA400C5FEA1C6CF6D148
S315080034504FF00040A0F5800070470EF1020E2EF0E6
S31508003460030E5EF8044B244204D44FEA4102B2F13B
S315080034707F4F11D84FEA4003B3F17F4F0CD80ED1D6
S315080034804FEAD07CB2F17F4F0CEB4C0C0CF1020CDE
S3150800349008BF4CEBD17C04E04FF0080C01E04FEA82
S315080034A0D17C0CEB4C0324FA03F404F00704B4F1C2
S315080034B0040C06D20EEB840CBDE810404CF0010C4F
S315080034C06047DFE80CF0070802024FF00040A0F55D
S315080034D0800010BD0846420018BFD2F1807288BF2E
S315080034E000F0004010BDFF2141EAD050C0057047EA
S315080034F0FDF79CB80000000000000000002F000047
S3150800350000000700070000147F147F1400242A7F98
S315080035102A12006264081323003649552250000017
S315080035200503000000001C224100000041221C0087
S315080035300014083E08140008083E0808000000A009
S315080035406000000808080808000060600000002005
S3150800355010080402003E5149453E0000427F4000E3
S31508003560004261514946002141454B310018141269
S315080035707F10002745454539003C4A494930000136
S315080035807109050300364949493600064949291E85
S3150800359000003636000000005636000000081422E7
S315080035A041000014141414140000412214080002E7
S315080035B00151090600324959513E007C1211127C0C
S315080035C0007F49494936003E41414122007F414139
S315080035D0221C007F49494941007F09090901003E2B
S315080035E04149497A007F0808087F0000417F410069
S315080035F0002040413F01007F08142241007F4040DF
S315080036004040007F020C027F007F0408107F003EC6
S315080036104141413E007F09090906003E4151215EAC
S31508003620007F091929460046494949310001017FA9
S315080036300101003F4040403F001F2040201F003F3F
S315080036404038403F006314081463000708700807F1
S3150800365000615149454300007F41410000552A5504
S315080036602A55000041417F0000040201020400407F
S3150800367040404040000001020400002054545478A1
S31508003680007F4844443800384444442000384444C1
S31508003690487F00385454541800087E09010200185F
S315080036A0A4A4A47C007F080404780000447D40009C
S315080036B0004080847D00007F102844000000417F80
S315080036C04000007C04180478007C0804047800385C
S315080036D04444443800FC242424180018242418FCE4
S315080036E0007C0804040800485454542000043F444D
S315080036F04020003C4040207C001C2040201C003C10
S315080037004030403C004428102844001CA0A0A07C5F
S31508003710004464544C441414141414140000000097
S3150800372000000000000000000000FC00000000008F
S3150800373002000000000C020C02000000000000005D
S3150800374090D0BCD0BC900003000300001824FE44AF
S315080037508C000302070201001824D8B04C8000032D
S3150800376000010201C038E438E00001020201020249
S31508003770080600000000000000000000000000F835
S315080037800402000000010204000204F8000000041C
S31508003790020100009060F86090000000010000003F
S315080037A02020FC202000000001000000000000008E
S315080037B0000008060000000020202020200000004D
S315080037C000000000000000000000000200000000E9
S315080037D00080601C0200040300000000F8040404D2
S315080037E0F8000102020201000008FC0000000002C5
S315080037F0030200001884442418000302020202008F
S3150800380008042424D80001020202010040B088FC02
S3150800381080000000000302003C242424C4000102A6
S3150800382002020100F824242CC00001020202010051
S315080038300C04E41C0400000003000000D82424241F
S31508003840D80001020202010038444444F80000038B
S315080038500202010000001000000000000200000043
S31508003860000020000000000006000000002050882C
S315080038700402000000000102909090909000000061
S315080038800000000000020488502000020100000029
S315080038901804C4241800000002000000F804E49488
S315080038A0F80001020202020000E09CF08000020318
S315080038B00000030204FC2424D800020302020100CB
S315080038C0F80404040C0001020202010004FC0404CA
S315080038D0F80002030202010004FC24740C0002032F
S315080038E00202030004FC24740C0002030200000018
S315080038F0F0080444CC4000010202010004FC202028
S31508003900FC040203000003020404FC04040002028F
S3150800391003020200000404FC040406040403000075
S3150800392004FC24D00C0402030200030204FC040075
S315080039300000020302020203FC3CC03CFC00030038
S315080039400300030004FC30C4FC0402030200030065
S31508003950F8040404F80001020202010004FC24240D
S315080039601800020302000000F8848404F80001022B
S315080039700207050004FC24649800020302000302FF
S31508003980182424448C000302020201000C04FC04DF
S315080039900C0000020302000004FC0000FC04000105
S315080039A002020100047C80E01C0400000300000001
S315080039B01CE03CE01C00000300030000049C609C23
S315080039C00400020300030200041CE01C04000002B9
S315080039D0030200000C84641C0400020302020300B4
S315080039E00000FE020200000007040400000E30C0BA
S315080039F00000000000010200000202FE00000004B0
S31508003A000407000000040204000000000000000093
S31508003A100000000000000808080808080000020066
S31508003A2000000000000000000040A0A0C000000147
S31508003A300202030204FC2020C00000030202010067
S31508003A4000C02020600000010202020000C02024FD
S31508003A50FC0000010202030200C0A0A0C000000191
S31508003A60020202000020F8242404000203020200D5
S31508003A700040A0A0602000070A0A0A0404FC2020CF
S31508003A80C0000203020003020020E4000000000256
S31508003A9003020000000020E40000080808070000F0
S31508003AA004FC80E020200203020003020404FC0058
S31508003AB00000020203020200E020E020C00003002A
S31508003AC00300030020E02020C000020302000302D6
S31508003AD000C02020C00000010202010020E02020D2
S31508003AE0C000080F0A02010000C02020E000000103
S31508003AF0020A0F0820E0402020000203020000000E
S31508003B000060A0A020000002020203000020F820A6
S31508003B10000000000102020020E00020E000000191
S31508003B200202030220E0208060200000030100005A
S31508003B306080E08060000003000300002060806071
S31508003B40200002030003020020E02080602008080D
S31508003B50070100000020A060200000020302020006
S31508003B60000020DE0200000000070400000000FF3D
S31508003B7000000000000F00000002DE200000000424
S31508003B800700000002010204040200000000000011
S31508003B900000000000000000000000000000000017
S31508003BA0000000F8000000000000003330000000AC
S31508003BB000100C06100C06000000000000000000B3
S31508003BC040C07840C0784000043F04043F04040025
S31508003BD0007088FC08300000001820FF211E000035
S31508003BE0F008F000E018000000211C031E211E004A
S31508003BF000F00888700000001E21232419272110D0
S31508003C0010160E0000000000000000000000000072
S31508003C10000000E018040200000000071820400019
S31508003C2000020418E0000000004020180700000009
S31508003C30404080F0804040000202010F010202006D
S31508003C40000000F0000000000101011F0101010051
S31508003C50000000000000000080B0700000000000B6
S31508003C60000000000000000000010101010101013F
S31508003C7000000000000000000030300000000000D6
S31508003C8000000000806018040060180601000000AB
S31508003C9000E010080810E000000F102020100F00A8
S31508003CA0001010F8000000000020203F202000002F
S31508003CB00070080808887000003028242221300087
S31508003CC000300888884830000018202020110E008F
S31508003CD00000C02010F8000000070424243F240038
S31508003CE000F80888880808000019212020110E000D
S31508003CF000E0108888180000000F112020110E001F
S31508003D0000380808C83808000000003F0000000016
S31508003D100070880808887000001C222121221C00D7
S31508003D2000E010080810E0000000312222110F0000
S31508003D30000000C0C0000000000000303000000095
S31508003D400000008000000000000080600000000005
S31508003D50000080402010080000010204081020001E
S31508003D604040404040404000040404040404040069
S31508003D7000081020408000000020100804020100FE
S31508003D80007048080808F0000000003036010000FE
S31508003D90C030C828E810E0000718272423140B00B1
S31508003DA00000C038E0000000203C2302022738202B
S31508003DB008F8888888700000203F202020110E000F
S31508003DC0C030080808083800071820202010080006
S31508003DD008F808080810E000203F202020100F00EF
S31508003DE008F88888E8081000203F202023201800BB
S31508003DF008F88888E8081000203F20000300000023
S31508003E00C03008080838000007182020221E0200C3
S31508003E1008F808000008F808203F210101213F2082
S31508003E20000808F8080800000020203F20200000AD
S31508003E3000000808F8080800C08080807F0000009D
S31508003E4008F888C028180800203F200126382000D6
S31508003E5008F8080000000000203F2020202030003D
S31508003E6008F8F800F8F80800203F003F003F200057
S31508003E7008F830C00008F808203F200007183F005F
S31508003E80E01008080810E0000F10202020100F008E
S31508003E9008F808080808F000203F21010101000081
S31508003EA0E01008080810E0000F18242438504F00C6
S31508003EB008F8888888887000203F2000030C302086
S31508003EC000708808080838000038202121221C00C4
S31508003ED0180808F8080818000000203F200000000D
S31508003EE008F808000008F808001F202020201F00F6
S31508003EF00878880000C83808000007380E01000056
S31508003F00F80800F80008F800033C0700073C03001F
S31508003F10081868808068180820302C03032C302085
S31508003F200838C800C83808000000203F20000000F4
S31508003F3010080808C838080020382621202018004C
S31508003F40000000FE020202000000007F4040400020
S31508003F50000C30C000000000000000010638C00058
S31508003F6000020202FE000000004040407F00000000
S31508003F700000040202020400000000000000000025
S31508003F800000000000000000808080808080808023
S31508003F90000202040000000000000000000000000B
S31508003FA000008080808000000019242222223F2001
S31508003FB008F8008080000000003F112020110E0044
S31508003FC00000008080800000000E112020201100D3
S31508003FD0000000808088F800000E112020103F2085
S31508003FE00000808080800000001F22222222130009
S31508003FF0008080F0888888180020203F2020000054
S315080040000000808080808000006B94949493600008
S3150800401008F8008080800000203F210000203F2013
S3150800402000809898000000000020203F2020000013
S31508004030000000809898000000C08080807F000003
S3150800404008F8000080808000203F24022D302000E0
S31508004050000808F8000000000020203F202000008B
S315080040608080808080808000203F20003F20003FA5
S315080040708080008080800000203F210000203F20B3
S315080040800000808080800000001F202020201F0064
S31508004090808000808000000080FFA12020110E0093
S315080040A00000008080808000000E112020A0FF8084
S315080040B0808080008080800020203F212000010031
S315080040C00000808080808000003324242424190086
S315080040D0008080E0808000000000001F2020000093
S315080040E08080000000808000001F202020103F20D4
S315080040F0808080000080808000010E300806010064
S3150800410080800080008080800F300C030C300F0008
S3150800411000808000808080000020312E0E31200033
S31508004120808080000080808080818E701806010063
S3150800413000808080808080000021302C2221300081
S3150800414000000000807C020200000000003F4040A2
S3150800415000000000FF00000000000000FF00000053
S315080041600002027C800000000040403F0000000082
S31508004170000601010202040400000000000000001D
S315080041800000000000000000000000000000000021
S315080041900000000000000000000000000000000011
S315080041A0000000000000000000F0F0F00000000031
S315080041B00000000000017F01000000000000000070
S315080041C0001C1C1C0000000000008060301C8C6075
S315080041D0301C0C0000000000000000000000000079
S315080041E0000000000000000000000000000000E0E1
S315080041F00000000000E000000086E69F86868686AE
S31508004200E69F860000011F01010101011F0101004F
S31508004210000080C06020F820E0C00000000003070E
S315080042200C18FF70E18100000000070F10107F10C6
S315080042300F0700008060206080000000E02000007A
S315080042400F3020309F70DC371030C0000000100E91
S3150800425003000718101807000000C02020E0C0005F
S315080042600000000080E01F38E88703C43C04000013
S31508004270070F1810100B070D1010080000808C4C43
S3150800428038000000000000000000000000000000E8
S315080042900000000000000000000000000000000010
S315080042A000000000000080E0300804000000000064
S315080042B000FEFF0100000000000000000000030FE0
S315080042C01820400000040830E080000000000000CC
S315080042D00000000001FFFE0000000000004020185A
S315080042E00F03000000000000000000000000C000EE
S315080042F000000000004266663C18FF183C666642ED
S31508004300000000000000030000000000000000009C
S315080043100000800000000000001010101010FF10B0
S31508004320101010100000000000000300000000003C
S31508004330000000000000000000000000000000006F
S31508004340000000000000000000808C4C38000000CF
S31508004350000000000000000000000000000000004F
S31508004360001010101010101010101000000000009F
S31508004370000000000000000000000000000000002F
S31508004380000000000000000000000000000000001F
S3150800439000001C1C1C0000000000000000000000BB
S315080043A000000000E0380C000000000080701C03CC
S315080043B0000000000060380E010000000000000048
S315080043C0000080C060202060C080000000FEFF0161
S315080043D00000000001FFFE000001070E181010186B
S315080043E00E0701000000808080C0E0000000000089
S315080043F00000000000FFFF00000000000000101091
S31508004400101F1F1010100000008040202020206080
S31508004410C080000000030300804020381F0700000A
S31508004420001C1A1918181818181F00000080C02038
S31508004430202060C080000000000303001010182F21
S31508004440E780000000070F10101010180F07000073
S31508004450000000000000C0E0F000000000C0B088C6
S31508004460868180FFFF808000000000000010101F7A
S315080044701F1010000000E06060606060606000006F
S3150800448000003F1008080818F0E0000000070B10AD
S315080044901010101C0F030000000080C040202020D0
S315080044A0E0C0000000FCFF211008080818F0E00032
S315080044B00001070C18101010080F03000000C0E0D8
S315080044C06060606060E06000000003000000E018C3
S315080044D00700000000000000001F1F000000000089
S315080044E00080C0602020202060C080000087EF2C5C
S315080044F01818303068CF830000070F081010101006
S31508004500180F07000000C0C020202020C08000002F
S31508004510001F3F604040402010FFFE0000000C1CBA
S31508004520101010080F030000000000000000000033
S315080045300000000000000000000E0E0E0000000043
S3150800454000000000001C1C1C000000000000000009
S31508004550000000000000000000000000000C0C0035
S3150800456000000000000000000058380000000000AD
S315080045700000000000000080402010000000102805
S315080045804482010000000000000000000000010253
S3150800459004081000000000000000000000000000F1
S315080045A000848484848484848484840000000000D5
S315080045B000000000000000000000102040800000FD
S315080045C000000000000000000000018244281000DE
S315080045D000001008040201000000000000C02020AE
S315080045E01010101030E0C0000003030000F010089F
S315080045F00C070300000000001C1C1C000000000043
S31508004600000000C0406020202040C00000FCFF01E0
S31508004610F00E03C1FE03807F0001070E081111107A
S31508004620110904020000000080E0E000000000001C
S315080046300000807C4340477FF880000010181F1058
S3150800464000000000131F1C1020E0E020202020603E
S31508004650C080000000FFFF10101010182FE7800020
S31508004660101F1F1010101010180F0700000080C030
S31508004670402020202060E00000FCFF010000000030
S31508004680000001000001070E1810101008040300AE
S3150800469020E0E02020202040C080000000FFFF002E
S315080046A00000000001FFFE00101F1F101010180860
S315080046B00E07010020E0E020202020202060800056
S315080046C000FFFF101010107C00000000101F1F10C4
S315080046D0101010101018060020E0E02020202020DE
S315080046E06060800000FFFF101010107C00000100C1
S315080046F0101F1F100000000000000000000080C00E
S315080047006020202040E0000000FCFF01000040403F
S31508004710C0C140400001070E181010100F0F00000E
S3150800472020E0E0200000000020E0E02000FFFF106D
S315080047301010101010FFFF00101F1F1000000000BF
S31508004740101F1F100000202020E0E020202000007D
S315080047500000000000FFFF0000000000000010102D
S31508004760101F1F101010000000000000202020E07D
S31508004770E020202000000000000000FFFF000000ED
S315080047800060E0808080C07F3F00000020E0E020DD
S31508004790000020A06020200000FFFF30187CE3C046
S315080047A000000000101F1F10000001131F1C181026
S315080047B020E0E020000000000000000000FFFF00ED
S315080047C00000000000000000101F1F10101010103D
S315080047D01018060020E0E0E000000000E0E0E0201D
S315080047E000FF013FFEC0E01E01FFFF00101F100082
S315080047F0031F0300101F1F1020E0E0C00000000088
S315080048000020E02000FF0003071C78E08000FF007E
S31508004810101F100000000000030F1F00000080C0DA
S3150800482060202060C080000000FEFF01000000003C
S3150800483000FFFE000001070E181010180C070100F3
S3150800484020E0E0202020202060C0800000FFFF201C
S3150800485020202020301F0F00101F1F10000000000E
S3150800486000000000000080C060202060C0800000BA
S3150800487000FEFF010000000000FFFE000001070E19
S315080048801111133C7C67210020E0E0202020202025
S3150800489060C0800000FFFF101030F0D0080F07003E
S315080048A0101F1F10000000030F1C10100080C060AE
S315080048B0202020204040E00000070F0C1818303058
S315080048C060E08100001F0C0810101010180F070078
S315080048D08060202020E0E020202060800100000089
S315080048E000FFFF000000000100000000101F1F105D
S315080048F00000000020E0E020000000000020E0208A
S3150800490000FFFF00000000000000FF0000070F186E
S3150800491010101010100807002060E0E020000000CA
S3150800492020E060200000077FF88000807C030000FC
S3150800493000000000071F1C070000000020E0E02020
S3150800494000E0E0200020E0200007FFF8E01FFFFC61
S31508004950E01F00000000031F0300011F0300000002
S31508004960002060E0A0000020E060200000000003B6
S315080049708F7CF8C6010000000010181E13000117EE
S315080049801F1810002060E0E02000000020E06020F2
S31508004990000001073EF8E0180700000000000010BC
S315080049A0101F1F101000000000806020202020A08B
S315080049B0E0E0200000000000C0F03E0F0300000009
S315080049C000101C1F17101010101806000000000019
S315080049D000FC0404040404000000000000FF0000BA
S315080049E00000000000000000007F404040404000FA
S315080049F0000010E0000000000000000000000000B9
S31508004A00031C608000000000000000000000000396
S31508004A100C70800000000404040404FC000000007C
S31508004A2000000000000000FF0000000000004040F9
S31508004A304040407F0000000000000010080C040CF5
S31508004A400810000000000000000000000000000040
S31508004A500000000000000000000000000000000048
S31508004A600000000000000000000000000000000038
S31508004A700000000080808080808080808080808028
S31508004A800000000404080800000000000000000000
S31508004A900000000000000000000000000000000008
S31508004AA000000000000000000000000000000000F8
S31508004AB0000098D844642424FCF80000000F1F184E
S31508004AC0101010081F1F10180020E0F0000000004A
S31508004AD0000000000000FFFF180804040CF8F000AE
S31508004AE000001F0F18101010180F03000000000018
S31508004AF0000000000000000000E0F8180404043C70
S31508004B003800000000030F0C1010101008060000F3
S31508004B100000000000000020E0F0000000E0F81CA3
S31508004B2004040408FFFF000000030F181010100803
S31508004B301F0F080000000000000000000000000031
S31508004B400000E0F8484444444C7870000000030F25
S31508004B500C181010100804000000000080C0602027
S31508004B6020E0C00000040404FFFF0404040400005D
S31508004B70000010101F1F1010100000000000000099
S31508004B800000000000000000000070F88C04048C8F
S31508004B90F874040C007076CF8D8D8D89C8787000F6
S31508004BA00020E0F000000000000000000000FFFF09
S31508004BB008040404FCF8000000101F1F1000001071
S31508004BC01F1F1000000000000060600000000000C9
S31508004BD00000040404FCFC000000000000001010A3
S31508004BE0101F1F10101000000000000000000060D9
S31508004BF06000000000000000040404FCFC00000043
S31508004C000000C0C08080C07F3F0000000020E0F0A8
S31508004C1000000000000000000000FFFF80C0F41C38
S31508004C200404000000101F1F1100031F1C101000B1
S31508004C300000202020E0F000000000000000000036
S31508004C4000FFFF000000000000001010101F1F10DA
S31508004C501010000000000000000000000000000026
S31508004C6004FCFC0804FCFC0804FCFC00101F1F10D4
S31508004C70001F1F10001F1F1000000000000000008A
S31508004C80000000000004FCFC08080404FCF800000E
S31508004C9000101F1F100000101F1F1000000000004A
S31508004CA0000000000000000000E0F0180C04040CEE
S31508004CB018F0E00000030F0C101010100C0F030082
S31508004CC00000000000000000000000000004FCFCDA
S31508004CD0080404040CF8F0000080FFFF8890101008
S31508004CE01C0F030000000000000000000000000088
S31508004CF000E0F81C04040408F8FC000000030F1880
S31508004D0010109088FFFF80000000000000000000DF
S31508004D1000000000040404FCFC100804040C0C0049
S31508004D201010101F1F1010100000000000000000D7
S31508004D30000000000000000000003078CCC4848425
S31508004D40840C1C0000001E1810101011190F060004
S31508004D500000000000C00000000000000004040479
S31508004D60FFFF040404000000000000000F1F1010DD
S31508004D70100C000000000000000000000000000009
S31508004D800004FCFE00000004FCFE000000000F1FEB
S31508004D90181010081F0F080000000000000000008F
S31508004DA00000000000040C3CFCC40000C43C0C04D9
S31508004DB000000000010F1E0E0100000000000000A8
S31508004DC00000000000000000043CFCC400E47CFC79
S31508004DD084807C040000071F070000071F070000E7
S31508004DE00000000000000000000000000004041C91
S31508004DF07CE4C0341C0404000010101C1601131FA8
S31508004E001C18100000000000000000000000000050
S31508004E1000040C3CFCC400C43C0404000000C08030
S31508004E20C1370E010000000000000000000000006D
S31508004E300000000000001C0404C4F47C1C040000EC
S31508004E400000101C1F17111010180E00000000009B
S31508004E50000000F80C04000000000000001028EF15
S31508004E6000000000000000000000003F6040000055
S31508004E70000000000000FF00000000000000000025
S31508004E800000FF0000000000000000000000FF0016
S31508004E90000000000000040CF800000000000000FC
S31508004EA000000000EF28100000000000000040602D
S31508004EB03F00000000000000001806020204081067
S31508004EC0202030080000000000000000000000005C
S31508004ED00000000000000000000000000000F010C4
S31508004EE0101010FF10101010F000000000000F0442
S31508004EF0040404FF040404040F0000004040405F5B
S31508004F00555555755555555F404040000040200F92
S31508004F10094989790909090F2040000000FE024263
S31508004F204ACA4A4ACA4A4A4202FE000000FF40509C
S31508004F304C4340404F50505C40FF00000000F8884A
S31508004F40888888FF88888888F800000000001F087D
S31508004F500808087F888888889F80F0008082828277
S31508004F60828282E2A2928A86828080000000000005
S31508004F700040807F0000000000000000101010FFB5
S31508004F80109008888888FF88888808000444827FEB
S31508004F9001808040432C10284681800000101010A4
S31508004FA010D030FF30D0121C101000001008040278
S31508004FB0010000FF00000102040810000404048434
S31508004FC0E43C2724242424E4040404000402010005
S31508004FD0FF0909090949897F0000000000FE225AD5
S31508004FE08600FE9292929292FE00000000FF04084C
S31508004FF00700FF4020030C14224140000080402097
S315080050001806800007182040800000000100207064
S315080050102826212020243860000101000010129261
S315080050209292929292121202FE0000000000003F35
S31508005030101010103F0040807F00000040404242A0
S31508005040424242FE42424242424040008080402064
S31508005050100C0300030C102040808000404042CC16
S315080050600008E9AAB8A8A8AAE90800000040201F75
S3150800507020405F4A4A4A4A4A5F404000F212FE12FE
S31508005080FE12F28040FE80FC40FF0000FF4A4948BD
S315080050904949FF80403F003F00FF000004C45F54B9
S315080050A0F4545FC41410FF1010F000008095959515
S315080050B07F55D55520184780403F0000000000C0A6
S315080050C080808080808080FC84808080808080C012
S315080050D0C0000000000000FF7F404040404040FF05
S315080050E040404040404040FF7F0000000000000074
S315080050F0000000000000007F7000000000000000B3
S315080051000000000000000000000000000000000091
S31508005110000000FCF800000000000000000000008D
S315080051200000000000000000FFFE02020202020268
S31508005130020202FFFF020202020202020202FF0349
S3150800514000000000000000001F1F040404040404FB
S31508005150040404FFFF0404040404040404041F00F4
S315080051600000000000000000000000000000000031
S315080051700000007F3F000000000000000000000063
S315080051800000000000000000000000000000000011
S315080051900000000000000000000000000000000001
S315080051A000F8F8F0F0702000000000000000000091
S315080051B000000000000000000000000000000000E1
S315080051C00000000000000000000000008000000051
S315080051D000000000000000000000000000000000C1
S315080051E000FFFFFFFF0000000000000000000000B5
S315080051F000000000000000008080000000000000A1
S3150800520000000000000000000000000000FFFFFE94
S315080052100606060606060606060606060606060620
S3150800522006FFFFFFFF06060606060606060606062C
S3150800523006060606060606FFFFFFFF070200000031
S3150800524000000000000000000000000000FFFFFF53
S315080052500000000000000000000000000000000040
S3150800526000FFFFFFFF000000000000000000000034
S3150800527000000000000000FFFFFFFF000000000024
S3150800528000000000000000000000000000FFFFFF13
S315080052901818181818181818181818181818181880
S315080052A018FFFFFFFF1818181818181818181818D4
S315080052B018181818181818FFFFFFFF00000000003C
S315080052C000000000000000000000000002010100CC
S315080052D000000000000000000000000000000000C0
S315080052E000FFFFFFFF0000000000000000000000B4
S315080052F0000000000000000101000000000000009E
S31508005300000000000000000000000000000000008F
S31508005310000000000000000000000000000000007F
S3150800532000FFFFFFFF000000000000000000000073
S31508005330000000000000000000000000000000005F
S31508005340000000000000000000000000000000004F
S31508005350000000000000000000000000000000003F
S31508005360001F1F0F0F0000000000000000000000D3
S31508005370000000000000000000000000000000001F
S315080053800000000002400000000000A0000000002D
S3150800539005400000000000C8000000000C400000A6
S315080053A00000409C00000000194000000020BCBE20
S315080053B00000000034400000BFC91B8E0000000436
S315080053C0B5400000504BCFD06607E2CF0100000081
S315080053D06C4100003E8251AADFEEA73401000000AE
S315080053E0D9420000DCB5A0E23A301F97FFFFFFFF65
S315080053F0B4450000FD25A0C8E9A3C14FFFFFFFFF84
S31508005400FF3F00000000008000000000FF3F000092
S31508005410000000800000000054540008000000202E
S31508005420700000006C010008C454000870000020D9
S31508005430880C0000880100081C00000043000000DA
S31508005440F8FFFFFF0C0000000E0000000F00000030
S315080054502E00000000000000000000000000000010
S31508005460000000000000000000000000000000002E
S31508005470000000000000000000000000000000001E
S31508005480000000000000000000000000000000000E
S3150800549000000000010203040102030406070809CC
S315080054A002040608000000000000000000000000DA
S315080054B000A24A04000000000000000001020304E4
S309080054C006070809BC
S70508000131C0
