S315080000009809002005010008E90D0008E10D00081F
S31508000010E50D0008BD0C0008B71700080000000031
S315080000200000000000000000000000002114000885
S31508000030C10C000800000000F11200081D010008AC
S315080000401F0100081F0100081F0100081F01000802
S315080000501F0100081F0100081F0100081F010008F2
S315080000601F0100081F0100081F0100081F010008E2
S315080000701F0100081F0100081F0100081F010008D2
S315080000801F0100081F0100081F0100081F010008C2
S315080000901F0100081F0100081F0100081F010008B2
S315080000A01F0100081F0100081F0100081F010008A2
S315080000B01F0100081F0100081F0100081F01000892
S315080000C01F0100081F0100081F0100081F01000882
S315080000D01F010008951500081F0100081F010008E8
S315080000E01F0100081F0100081F010008DFF810D0D3
S315080000F000F090FB0048004735210008AFF3008068
S31508000100980900200648804706480047FEE7FEE7AC
S31508000110FEE7FEE7FEE7FEE7FEE7FEE7FEE7FEE7A9
S3150800012035150008ED00000880EA010210B502F056
S315080001300043400022D04A001FD0010E01EB126195
S31508000140C0F35600C2F3560240F4000042F400021F
S31508000150A0FB022000047F39140400D0401C50EA9A
S31508000160124001D44000491EC2B20C0604EBD0105E
S31508000170401C4008802A02D003E0002010BD20F071
S315080001800100002900DA0020184310BD30B480EAC7
S31508000190010202F0004530F0004221F0004013D081
S315080001A090B1C30DD40DC2F31601C0F31600E41ABC
S315080001B041F4000140F400027D34914201D3641CED
S315080001C000E04900002C02DA30BC002070474FF4EA
S315080001D000000023914201D3891A034340084FEADD
S315080001E04101F7D151B1914202D14FF0004105E0EA
S315080001F002D24FF0010101E06FF0010103EBC45098
S31508000200284430BC00F041BA2DE9FE4F804681EA09
S315080002100300C00F0C46009021F0004123F0004572
S31508000220B8EB0200A94105D24046214690461C4635
S315080002300B46024623F00040104347D0270DC7F36C
S315080002400A00C3F30A510290401A019040286BDA5B
S31508000250C3F3130040F4801B0098924620B1002394
S31508000260D2EB030A63EB0B0B01985946C0F1400227
S31508000270504600F0E9F906460D4650465946019A99
S3150800028000F0F1F910EB08006141002487EA1152E9
S3150800029084EAE7731A4340D0009A62B3019A012AA6
S315080002A04FEA075215DC001B61EB02014FF00042D2
S315080002B002EA0752CDE90042001C41F58011324698
S315080002C02B4600F028FA03B0BDE8F08F40462146D9
S315080002D0F9E7001B61EB0201001C41F580130018C9
S315080002E05B412018A2F5001747EB030140EAD570D9
S315080002F0B6196D4111E06D084FEA360645EAC07534
S315080003004FEA0752001B61EB0201001C41F5801100
S3150800031049084FEA30000019514132462B4603B0CE
S31508000320BDE8F04F00F0E8B900980122400000232C
S31508000330D0EB020263EBE073009821464FEAE074C3
S31508000340B8EB000061EB0401E9E783F000435BE7E3
S3150800035081F0004158E72DE9FE4F81EA030404F0D5
S31508000360004421F0004100944FF0000B23F00043B5
S3150800037050EA01045ED052EA03045BD0C3F30A5480
S31508000380C1F30A552C44A4F2F3340194A0FB025499
S31508000390C1F3130141F48011C3F3130343F480132B
S315080003A001FB024400FB034E840A970A44EA81547F
S315080003B047EA8357A4FB076802958D0A05FB07855C
S315080003C04FEA932C04FB0C542705029D4FEA065866
S315080003D047EA1637B5EB08056EEB070C870E920E43
S315080003E047EA811742EA8312A7FB0201B6EB0B0123
S315080003F064EB00042B0D43EA0C335E1844EB1C50E7
S31508000400DA465146E7FB0201C5F313044FEA0B33FC
S3150800041043EA14534FEA0432019C43EA0603A4F163
S315080004200C040294009CCDE900B400F074F903B002
S31508000430BDE8F08F00200146F9E72DE9F04D81EA85
S31508000440030404F0004B21F0004514464FF0000A5F
S3150800045023F0004150EA050220D054EA01021DD0DB
S31508000460C5F30A570246C5F31303C1F31300C1F3D4
S315080004700A5640F4801543F48013A7EB0608101BB0
S31508000480D64608F2FD3873EB050002D308F10108D9
S3150800049001E092185B41B8F1000F03DA002001462B
S315080004A0BDE8F08D00204FF48011064684460EE024
S315080004B0171B73EB050705D3121B63EB05030643EE
S315080004C04CEA010C49084FEA300092185B4150EAA1
S315080004D00107EDD152EA030012D082EA040083EA4A
S315080004E00501084305D0101BAB4106D201220023A3
S315080004F006E000224FF0004302E06FF001025310BD
S315080005001AEB06004CEB085110EB0A0041EB0B0105
S31508000510BDE8F04D00F0F0B8C10F80EAE07008447D
S31508000520CA079623002100F0B9B800F0004220F06F
S315080005300040C10DC0F3160040F400007F2901DA1F
S3150800054000207047962903DCC1F19601C84001E0F6
S3150800055096398840002AF4D04042704700F000429D
S3150800056030F000400AD0C10D01F56071C0F31600E5
S3150800057042EA0151C208400711437047002001466C
S31508000580704701F0004330B421F0004150EA0102FF
S3150800059006D00A0DA2F56072C1F31301002A02DC27
S315080005A030BC00207047440F44EAC104C100E0187B
S315080005B030BC00EBC25000F068B830B50B460146B7
S315080005C000202022012409E021FA02F59D4205D3E4
S315080005D003FA02F5491B04FA02F52844151EA2F18E
S315080005E00102F1DC30BD2DE9F05F05460020924698
S315080005F09B4688460646814640241BE028464146D7
S315080006004746224600F018F953465A46C01A914101
S3150800061010D311461846224600F016F82D1A67EB35
S3150800062001084F4622460120002100F00DF817EB7D
S3150800063000094E41201EA4F10104DFDC484631467C
S315080006402A464346BDE8F09F202A04DB203A00FAF2
S3150800065002F1002070479140C2F1200320FA03F30B
S31508000660194390407047202A06DBCB17203A41FAF7
S3150800067002F043EAE07306E041FA02F3D040C2F121
S31508000680200291400843194670470029A8BF7047C1
S31508000690401C490008BF20F00100704710B4B0FAAA
S315080006A080FC00FA0CF050EA010404BF10BC704745
S315080006B049B1CCF1200421FA04F411FA0CF118BF5F
S315080006C0012121430843A3EB0C01CB1D4FEA00612E
S315080006D04FEA102042BF002010BC704700EBC35001
S315080006E010440029A4BF10BC7047401C490008BF2D
S315080006F020F0010010BC704710B5141E73F10004F9
S3150800070008DA401C41F1000192185B411A4301D1F5
S3150800071020F0010010BD2DE9F04D92469B4611B11F
S31508000720B1FA81F202E0B0FA80F220329046FFF781
S315080007308BFF04460F4640EA0A0041EA0B0153467E
S315080007405A46084313D0114653EA010019D0C8F196
S315080007504002504600F070F805460E465046594687
S315080007604246FFF771FF084305D0012004E0204602
S315080007703946BDE8F08D0020054346EAE0762C436D
S3150800078037430A986305E40AA0EB08000022FD0A2D
S3150800079044EA47540A3002D500200146E9E7010534
S315080007A010196941DDE9084500196941BDE8F04DB0
S315080007B0A2E7C1F30A52C1F3130140F2FF3341F431
S315080007C080119A4202DA00200146704740F233430C
S315080007D09A42A2F2334202DC524200F02DB8FFF7E9
S315080007E033BF000030B5041E71F1000404DB4FF07E
S315080007F00044404264EB0101141E73F1000405DB5A
S315080008001C464FF00043524263EB0403994208BF6B
S31508000810904230BD064C074D06E0E06840F0010303
S3150800082094E8070098471034AC42F6D3FFF762FC09
S31508000830D8410008F8410008202A04DB203A21FAAA
S3150800084002F00021704721FA02F3D040C2F12002DB
S31508000850914008431946704721B1826842F0010267
S31508000860826003E0826822F001028260704700001D
S3150800087010B504461248844208D10121401500F0FB
S3150800088055FD0021601500F051FD17E00D48844222
S3150800089008D10121001500F049FD0021201500F0BE
S315080008A045FD0BE00848844208D10121C80300F041
S315080008B03DFD00214FF4004000F038FD10BD00005A
S315080008C00024014000280140003C01400146002068
S315080008D08A6802F004020AB1012000E0002070478D
S315080008E00146C86C80B270470246002013680B4068
S315080008F00BB1012000E000207047014600208A68FD
S3150800090002F008020AB1012000E00020704700004A
S3150800091030B502460020002350680F4C20400D7960
S315080009200C6844EA05242043506090680B4C20402C
S31508000930D1E902542C434D7944EA4504204390609A
S31508000940D06A20F470000C7C641EE4B2234340EAAB
S315080009500350D06230BD0000FFFEF0FFFDF7F1FF47
S315080009602DE9F04107460C460025002608E03846E2
S3150800097000F00EF80544052001F0A8FB701CC6B26D
S31508000980A642F4DBB5FBF4F080B2BDE8F0810000C6
S3150800099010B50446072301222146094800F042F80B
S315080009A00121074800F09FF800BF02210448FFF71D
S315080009B09BFF0028F9D00248FFF792FF10BD000000
S315080009C0002401402DE9F74F88B08A4693465846D9
S315080009D0FFF7C4FDCDE906015046FFF7BFFDCDE997
S315080009E002014FF08B410898FFF7D0FB0190FFF703
S315080009F0B5FD80464FF06632094BFFF7ACFC06465C
S31508000A00DDE90223FFF7A1FCCDE90401DDE90623B0
S31508000A10FFF713FD0446FFF7B4FD0BB0BDE8F08FF2
S31508000A2066660A40F0B504460D4600200021092DE9
S31508000A3011DDE068A5F10A0606EB4607072606FA61
S31508000A4007F18843A5F10A0606EB460603FA06F1FE
S31508000A500843E0600CE0206905EB4507072606FA1F
S31508000A6007F1884305EB450603FA06F108432061BA
S31508000A70072A0FDA606B561E06EB86071F2606FA4C
S31508000A8007F18843561E06EB860605FA06F1084363
S31508000A90606322E00D2A0FDA206BD61F06EB860765
S31508000AA01F2606FA07F18843D61F06EB860605FABF
S31508000AB006F10843206310E0E06AA2F10D0606EB92
S31508000AC086071F2606FA07F18843A2F10D0606EBEC
S31508000AD0860605FA06F10843E062F0BD816841F032
S31508000AE008018160704721B1826842F4A0028260E1
S31508000AF003E0826822F4A00282607047816841F0B0
S31508000B00040181607047000000B587B001214FF4E9
S31508000B10017000F0FBFB4FF4004000F0EBFB0120F6
S31508000B20ADF8040000208DF8070001A91D4800F063
S31508000B30C8F80420ADF8040000208DF8070001A9C4
S31508000B40184800F0BEF81848FFF792FE00200290F9
S31508000B5001208DF80C008DF80D004FF460200490EC
S31508000B600020059003208DF8180002A90E48FFF70B
S31508000B70CFFE01210C48FFF76FFE0B48FFF7AEFFCB
S31508000B8000BF0948FFF7B9FE0028FAD10648FFF763
S31508000B90B5FF00BF0448FFF799FE0028FAD107B051
S31508000BA000BD000000080140002401402DE9F04185
S31508000BB004460E4617464FF47A7096FBF0F030302E
S31508000BC004EB8401394A50544FF47A7096FBF0F1DD
S31508000BD000FB1160642190FBF1F0303004EB8401D6
S31508000BE011444870642096FBF0F100FB11600A215D
S31508000BF090FBF1F0303004EB8401114488700A2030
S31508000C0096FBF0F100FB1160303004EB84011144CF
S31508000C10C87027493846FFF787FA8046FFF785FCEC
S31508000C2005462448854200DC05462248404285425E
S31508000C3000DB0546002D07DA2D2004EB44011E4A89
S31508000C4002F811006D4205E0202004EB44011A4A1F
S31508000C5002F8110042F2107095FBF0F0303004EB08
S31508000C604401154A02EB4101487042F2107095FBA7
S31508000C70F0F100FB11504FF47A7190FBF1F030302F
S31508000C8004EB440102EB410188704FF47A7095FB3E
S31508000C90F0F100FB1150642190FBF1F0303004EBC9
S31508000CA0440102EB4101C870BDE8F0817C050020D3
S31508000CB000007A446179FEFF8605002000BFFEE742
S31508000CC070472DE9F0410246002500260020002342
S31508000CD00024002791F803C00CF00F0591F803C013
S31508000CE00CF0100CBCF1000F03D091F802C04CEACE
S31508000CF0050591F800C0BCF1000F31D0146800203A
S31508000D002BE04FF0010C0CFA00F3B1F800C00CEA26
S31508000D1003069E4220D183004FF00F0C0CFA03F70E
S31508000D20BC4305FA03FC4CEA040491F803C0BCF181
S31508000D30280F06D14FF0010C0CFA00FCC2F814C0BB
S31508000D400AE091F803C0BCF1480F05D14FF0010C39
S31508000D500CFA00FCC2F810C0401C0828D1D3146055
S31508000D60B1F800C0BCF1FF0F34DD546800202EE056
S31508000D7000F1080C4FF0010808FA0CF3B1F800C0AE
S31508000D800CEA03069E4221D183004FF00F0C0CFAA1
S31508000D9003F7BC4305FA03FC4CEA040491F803C0C4
S31508000DA0BCF1280F05D100F1080C08FA0CF8C2F8B6
S31508000DB0148091F803C0BCF1480F07D100F1080C64
S31508000DC04FF0010808FA0CF8C2F81080401C0828F1
S31508000DD0CED35460BDE8F081416170470161704728
S31508000DE000BFFEE700BFFEE7704710B54FF4A060EE
S31508000DF000F03AF810BD000070B5002100230F225C
S31508000E00C47804B3154C246804F4E064C4F5E064BB
S31508000E10210AC1F10403CA40447804FA03F184782C
S31508000E201440214309010E4C0678A155047804F0B4
S31508000E301F050124AC4005786D11AD0005F1E025CC
S31508000E40C5F8004109E0047804F01F050124AC4008
S31508000E50044D0678761145F8264070BD0CED00E085
S31508000E6000E400E080E100E002490143024A116023
S31508000E70704700000000FA050CED00E070B500248C
S31508000E800CE0002506E00020074901EBC5010855DE
S31508000E90681CC5B2802DF6DB601CC4B2082CF0DBDA
S31508000EA000F000F970BD00003400002010B50446BB
S31508000EB01CB90021A62000F0DFF9012C03D100217E
S31508000EC0A72000F0D9F910BD10B504463CB9002199
S31508000ED0C82000F0D1F90021A12000F0CDF9012C9D
S31508000EE007D10021C02000F0C7F90021A02000F09A
S31508000EF0C3F910BDF0B514460B46CF1701EB57776B
S31508000F00C7F3C702CF1701EB5777FF10A1EBC70747
S31508000F10FEB20123B340DDB24CB1134B03EBC00361
S31508000F209B5C2B43104F07EBC007BB541AE00E4BD4
S31508000F3003EBC0039B5CDB430B4F07EBC007BB54BB
S31508000F40094B03EBC0039B5C2B43074F07EBC0071A
S31508000F50BB54054B03EBC0039B5CDB43024F07EB1B
S31508000F60C007BB54F0BD00003400002008B50121BD
S31508000F703C2000F0CBF93020ADF8000010208DF8A9
S31508000F80030003208DF8020069464448FFF799FEDE
S31508000F9030214248FFF722FF0320ADF800006946DA
S31508000FA03F48FFF78EFE03213D48FFF717FF012153
S31508000FB03B48FFF711FFC82001F088F8012138489F
S31508000FC0FFF70CFF0021AE2000F056F900210220A1
S31508000FD000F052F90021102000F04EF900214020BF
S31508000FE000F04AF90021B02000F046F900218120DE
S31508000FF000F042F90021CF2000F03EF90021A1209F
S3150800100000F03AF90021A62000F036F90021A820C0
S3150800101000F032F900213F2000F02EF90021AD2022
S3150800102000F02AF900218B2000F026F90021332050
S3150800103000F022F90021C82000F01EF90021D32073
S3150800104000F01AF90021084600F016F90021D5200B
S3150800105000F012F90021802000F00EF90021D920B5
S3150800106000F00AF900211F2000F006F90021DA2015
S3150800107000F002F90021122000F0FEF80021DB2022
S3150800108000F0FAF80021402000F0F6F8FFF7F6FE27
S315080010900021AF2000F0F0F808BD00000010014064
S315080010A0000C014070B500241CE004F1B001C8B280
S315080010B0002100F0E1F80021022000F0DDF800210F
S315080010C0102000F0D9F8002508E0084901EBC50111
S315080010D0085D012100F0D0F8681CC5B2802DF4DB4C
S315080010E0601CC4B2082CE0DB70BD00003400002090
S315080010F02DE9FE4F0746884692461C460197CDF8CD
S315080011000080082C02D14FF006091FE02046E3179D
S3150800111004EB5373DB1021464FEAE47C04EB5C7C5A
S315080011204FEAEC0CA4EBCC0CBCF1000F02D04FF04C
S31508001130010C01E04FF0000C6344224604EBD27C1C
S315080011404FEA6C0C03FB0CF303F0FF09AAF120002D
S31508001150C6B200255EE0082C07D106EB46002F49EB
S3150800116001EB400010F805B01DE00C2C07D106EB8A
S3150800117046002B4901EB800010F805B013E0102C4F
S3150800118005D1284800EB061010F805B00BE0182C1E
S3150800119007D106EBC600244901EB800010F805B01C
S315080011A001E0BDE8FE8F002002901CE00BF0010074
S315080011B028B1414638460C9AFFF79CFE09E00C9880
S315080011C008B9012000E00020024641463846FFF7EC
S315080011D091FE4FEA6B0B08F1010000F0FF08029838
S315080011E0401CC0B2029002980828DFDB781CC7B200
S315080011F0082C0BD004EBD4714A100199791A8A424B
S3150800120004D1019F00980830C0B20090DDF8008034
S31508001210681CC5B24D459EDB00BFC2E748230008DF
S3150800122070250008E4290008D42F00082DE9F841A4
S3150800123006460F4614461D46DDF81C8013E0CDF819
S31508001240008022782B4639463046FFF751FF082D95
S3150800125002D1B01DC6B205E0284605EBD07106EBF3
S315080012606101CEB2641C2078202802DB20787E2813
S31508001270E5DDBDE8F881000070B504460E4626B1E6
S3150800128002211848FFF7AAFD03E002211548FFF7D7
S31508001290A3FD10211448FFF79FFD002517E0102134
S315080012A01248FFF799FD04F0800020B120210F486D
S315080012B0FFF794FD03E020210C48FFF78DFD102170
S315080012C00A48FFF78BFD6006040E681CC5B2082D98
S315080012D0E5DB10210448FFF781FD02210148FFF7ED
S315080012E07DFD70BD000C0140000801400010014062
S315080012F07047000001460020034A506820F4404029
S3150800130008435060704700000010024029B1064AA1
S3150800131092690243044B9A6104E0034A9269824344
S31508001320014B9A61704700000010024029B1064A35
S31508001330D2680243044BDA6004E0034AD268824367
S31508001340014BDA60704700000010024030B50021FA
S315080013500022002400232D4D6D6805F00C0121B1F3
S31508001360042905D0082923D105E0294D056022E086
S31508001370274D05601FE0254D6D6805F47012234D55
S315080013806D6805F48034022505EB92421CB9214D9F
S31508001390554305600BE01D4D6D6805F400351DB11C
S315080013A01C4D5543056002E0194D5543056002E0A2
S315080013B0174D056000BF00BF144D6D6805F0F001BC
S315080013C00909154D6B5C0568DD4045600F4D6D6874
S315080013D005F4E061090A104D6B5C4568DD408560DF
S315080013E00A4D6D6805F46051C90A0B4D6B5C45687A
S315080013F0DD40C560054D6D6805F44041890B074D14
S315080014006B5CC568B5FBF3F5056130BD001002409D
S3150800141000127A0000093D0000000020100000209C
S31508001420704710B500F002F810BD00000CB500209A
S31508001430019000903348006840F4803031490860D4
S3150800144000BF3048006800F4003000900198401C46
S315080014500190009818B90198B0F5A06FF1D1294804
S31508001460006800F4003010B10120009001E000206F
S3150800147000900098012843D12348006840F01000E6
S31508001480214908600846006820F0030008600846FD
S31508001490006840F0020008601A4840681949486028
S315080014A00846406848600846406840F480604860DE
S315080014B00846406820F47C1048600846406840F4B6
S315080014C0E81048600846006840F08070086000BF71
S315080014D00C48006800F000700028F9D009484068F8
S315080014E020F00300074948600846406840F00200BB
S315080014F0486000BF0348406800F00C000828F9D18E
S315080015000CBD00000010024000200240042808D14B
S315080015104FF0E021096941F004014FF0E022116122
S3150800152007E04FF0E021096921F004014FF0E022BD
S315080015301161704710B51348006840F00100114961
S31508001540086008464068104908400E494860084641
S3150800155000680E4908400B4908600846006820F4F0
S31508001560802008600846406820F4FE0048604FF472
S315080015701F008860FFF755FF4FF0006004490860B8
S3150800158010BD0000001002400000FFF8FFFFF6FE45
S3150800159008ED00E010B540F225511D4800F04AF864
S315080015A010B31B4800F002F9C4B21A48008800F4C8
S315080015B00040C8B91748008800F4804060B10A2C7A
S315080015C003D000201349088020E01248008840F420
S315080015D000401049088019E00D2C06D10D480088F6
S315080015E040F480400B49088010E00A480088C0F3A0
S315080015F00D0009490C5407480088401C0549088015
S3150800160008460088C72801DD0020088010BD0000B4
S31508001610003801401C000020B404002021B1828952
S3150800162042F40052828104E082894DF6FF731A4023
S315080016308281704770B502460024002300250020E9
S3150800164040F66A16B14200D100BFC1F3421501F057
S315080016501F03012606FA03F3012D02D196893340AA
S3150800166006E0022D02D1168A334001E0968A3340FD
S315080016700C12012606FA04F41688344013B10CB18C
S31508001680012000E0002070BDF0B5034600240026C6
S315080016900025002040F66A17B94200D100BF184657
S315080016A0C1F3421401F01F06012707FA06F5012CBB
S315080016B001D10C3004E0022C01D1103000E01430C6
S315080016C01AB107682F43076002E00768AF4307604F
S315080016D0F0BD00002DE9F04786B005460E46002409
S315080016E0A24600BFA1460027B08900B100BF2F4619
S315080016F02C8A4CF6FF700440F08804432C82AC898F
S315080017004EF6F3100440B0883189084371890843BE
S315080017100443AC81AC8A4FF6FF400440B0890443C9
S31508001720AC8201A8FFF712FE1F48874202D1DDF8F6
S3150800173010A001E0DDF80CA0A88900F4004040B133
S315080017400AEBCA0000EB0A1031684900B0FBF1F851
S3150800175007E00AEBCA0000EB0A1031688900B0FB03
S31508001760F1F86420B8FBF0F004012009642101FBBC
S315080017701089A88900F4004040B1322000EBC90066
S31508001780B0FBF1F000F00700044308E0322000EB5C
S3150800179009106421B0FBF1F000F00F0004432C811E
S315080017A006B0BDE8F0870000003801400146888889
S315080017B0C0F30800704700BFFEE700000FB4054BF2
S315080017C010B503A9044A029800F0DAF810BC5DF8CF
S315080017D014FB0000192100081800002002E008C8C0
S315080017E0121F08C1002AFAD170477047002001E08D
S315080017F001C1121F002AFBD1704700002DE9FF5FC7
S3150800180082B00021DDE90430020DDDF840B0034363
S3150800181018D044F61050A2F2FF324243151411981C
S3150800182001281FD0A5EB0B00401C5FEA000A4FF009
S3150800183000064E4FDFF83891B046504615D5CAF126
S31508001840000413E0119801244AA3012801D16FEA84
S315080018500B010298119AC0E90031C0E9024206B0AC
S31508001860BDE8F09FCBF10000DFE704460021404ABF
S31508001870491842EB0450CDE9001012E0E00707D002
S3150800188032463B4640464946FEF765FD8046894650
S3150800189032463B4610461946FEF75DFD06460F469C
S315080018A06410002CEAD1DDE90401DDE90023BAF170
S315080018B0000F06DAFEF74FFD42464B46FEF74BFD94
S315080018C005E0FEF7BAFD42464B46FEF7B6FD04466E
S315080018D00E460022284BFEF785FF03D84FF0FF304F
S315080018E0014607E00022254B20463146FEF78CFCD0
S315080018F0FEF75FFF102409E0002C0ADB0A2200230A
S31508001900FEF771FE039B30321A55641E50EA010237
S31508001910F2D1641C039AC4F111031444119A012AE2
S3150800192003D0012208430DD10AE0084304D0002061
S315080019304FF0110B119072E7A3EB0B056D1E0DE02E
S315080019405B4504DD4FF0000205F1010504E003DA0A
S315080019504FF00002A5F10105002AECD00298119972
S31508001960C0E90231C0E9004579E7000000001440EB
S315080019700000F03F300000000000F0430000E03FA8
S315080019802DE9FF4F95B09A46884606460025EEE1B2
S31508001990252877D100242746F94A0121039400E037
S315080019A0044316F8013F203B01FA03F01042F7D131
S315080019B030782A2811D06FF02F033078A0F1300242
S315080019C0092A16D8039A44F0020402EB820203EBB2
S315080019D042021044761C0390EFE758F8042B039252
S315080019E0002A03DA504244F40054039044F00204F7
S315080019F0761C30782E2816D116F8010F44F0040408
S31508001A002A280DD06FF02F023078A0F13003092B69
S31508001A1009D807EB870302EB4303C718761CF3E7DD
S31508001A2058F8047B761C30786C280FD006DC4C28D6
S31508001A3017D068280DD06A2814D104E0742810D06D
S31508001A407A280FD10DE044F400140AE044F4801417
S31508001A5001E044F440147278824202D104F58014FD
S31508001A60761C761C307866280BD013DC582877D07D
S31508001A7009DC002875D04528F6D04628F4D0472832
S31508001A801AD193E118E0632835D0642879D06528FF
S31508001A9012D18BE1702873D008DC6728F1D0692849
S31508001AA06FD06E280DD06F2806D1ACE073282CD0E5
S31508001AB0752874D0782853D05246179990476D1CCC
S31508001AC054E1C4F30250022809D003280DD0D8F8EF
S31508001AD0001004280DD00D6008F1040846E1D8F876
S31508001AE00010EA17C1E90052F6E7D8F800100D8091
S31508001AF0F2E70D70F0E718F8041B8DF800100020C7
S31508001B008DF80100EB46012003E058F804BB4FF0BE
S31508001B10FF3061074FF0000102D40DE009F1010121
S31508001B208946B9420FDA8145F8DB1BF80910002906
S31508001B30F4D108E009F1010189468142FADB1BF874
S31508001B4009100029F6D103985346A0EB0907214648
S31508001B503846179A00F080FA284400EB090507E092
S31508001B6044E008E10DE01BF8010B5246179990472F
S31508001B70B9F10109F7D2534621463846179AF2E0D9
S31508001B8039E00A21C4F302524FF0000B0091022AF1
S31508001B9006D058F8040BC117032A09D00AE023E037
S31508001BA008F1070020F00702F2E80201904605E076
S31508001BB000B2C117042A01D140B2C117002906DABA
S31508001BC00A460021404261EB02012D2202E022056D
S31508001BD004D52B228DF80420012203E0E20701D068
S31508001BE02022F7E7914657E00A2100E010214FF03E
S31508001BF0000B00910BE010214FF0000B44F0040499
S31508001C000827009103E008204FF0000B0090C4F36A
S31508001C100252022A05D058F8040B0021032A08D0DC
S31508001C2008E008F1070020F00702F2E802019046F2
S31508001C3003E080B2042A00D1C0B24FF0000922079F
S31508001C402AD53278702A07D0DDF800C08CF0100C3F
S31508001C505CEA0B0C05D00EE040228DF80420012228
S31508001C6008E050EA010306D030238DF804308DF8D9
S31508001C70052002229146009B83F0080353EA0B03D2
S31508001C800AD150EA010201D1620705D530228DF842
S31508001C9004204FF001097F1E3278582A04D039A251
S31508001CA00C920CAA02920BE03BA2F9E75B46009A5B
S31508001CB0FEF799FC0C9B9B5C029A521E02921370CB
S31508001CC050EA0102F2D1029804A9081A00F1200B81
S31508001CD0600702D524F4803400E001275F4502DD61
S31508001CE0A7EB0B0000E0002000EB0B010090039827
S31508001CF04944401A0390E00306D453462146179AEE
S31508001D00039800F0A9F90544002706E001A8524601
S31508001D10C05D179990476D1C7F1C4F45F6DBE003A5
S31508001D200CD553462146179A039800F095F90544B1
S31508001D3004E030205246179990476D1C0099481EBA
S31508001D4000900029F5DC08E00298029952460078CE
S31508001D50491C0291179990476D1CBBF10001ABF124
S31508001D60010BF1DC5BE100F065F90544761C30787F
S31508001D7000287FF40DAE19B02846BDE8F08F0000A4
S31508001D800928010030313233343536373839616243
S31508001D906364656600000000303132333435363707
S31508001DA0383941424344454600000000600700D4E4
S31508001DB0062708F1070020F00700F0E8022380460E
S31508001DC003F0004C5FEA0C0001D097A009E020055B
S31508001DD001D596A005E0E00701D095A001E0AFF295
S31508001DE04C001390307823F0004365280CD006DCAD
S31508001DF0452809D046281DD047287FD13BE06628CC
S31508001E0018D067287AD136E00021112F01DB11207E
S31508001E1000E0781CCDE9000104A90CA8FFF7EEFC48
S31508001E20DDE90D010C9A4FF0000B07F1010910923C
S31508001E3000914EE04FF000400097CDE9011004A94B
S31508001E400CA8FFF7DBFCDDE90D020C9B0F994FF0A0
S31508001E50000B91461093009211B9791C00EB010909
S31508001E60B7EB090003D4C0F1FF3B07F10109A9EB61
S31508001E700700019042E0012F00DA01270021112F07
S31508001E8001DD112000E03846CDE9000104A90CA8BF
S31508001E90FFF7B4FCDDE90D010C9A00914FF0000B39
S31508001EA0B946109221070FD4009A4A4503DA91469B
S31508001EB001E0A9F10109B9F1010F05DD109AA9F1AF
S31508001EC00101515C3029F4D0B84202DA10F1040F4E
S31508001ED003DA0121CDE9011010E0002803DC834470
S31508001EE0A9EB000102E0411C494500DD8946A0EB4B
S31508001EF00B00401C01904FF000400290200705D4CB
S31508001F000198484502DB4FF0FF30019000208DF81C
S31508001F104B0002980DF14B07B0F1004F25D0022077
S31508001F200C902B200D90029800280CDA4042029063
S31508001F302D200D9007E00A210298FEF73EFB30316E
S31508001F40029007F8011D0C99481E0C900029F2DC36
S31508001F5002980028EFD1791E0D980870307800F0A5
S31508001F60200040F0450007F8020D11A8C01BC01D4F
S31508001F7002901398007800B1012000EB090101983E
S31508001F8001EBE071029801440398401A401E039041
S31508001F90E00306D453462146179A039800F05CF8E6
S31508001FA005441398007818B15246179990476D1C46
S31508001FB0E00323D553462146179A039800F04CF8B8
S31508001FC005441BE0BBF1000F07DB0098584504DD0C
S31508001FD01098179910F80B0001E01799302052460F
S31508001FE0904701980BF1010B401E05F10105019080
S31508001FF004D12E205246179990476D1CB9F100015D
S31508002000A9F10109DEDC05E017F8010B524617991C
S3150800201090476D1C0299481E02900029F4DC53462D
S315080020202146179A03989EE62D0000002B00000013
S31508002030200000002DE9F041044600251E461746FB
S31508002040880404D405E039462020B0476D1C641E78
S31508002050F9D52846BDE8F0812DE9F041044600256A
S315080020601E469046C80301D5302700E0202788047D
S3150800207004D505E041463846B0476D1C641EF9D5BF
S315080020802846BDE8F081000010B56FF00400FFF7A0
S315080020903DFA0A4800680A49B0FBF1F00949087098
S315080020A00846007800EB4001C1EBC0104FF6FF71FF
S315080020B001EAC0000449088010BD00002000002085
S315080020C000127A0014000020160000200146114A6A
S315080020D012884A434FF0E0235A6100229A611A4651
S315080020E0126942F001021A6100BF4FF0E02210693E
S315080020F000F001021AB100F48032002AF5D04FF040
S31508002100E022126922F001024FF0E0231A61002250
S315080021109A6170471600002000BF054A128802F02F
S315080021204002002AF9D0C2B2014B1B1D1A80704723
S31508002130003801401CB5FFF7A7FFFEF756FE4FF41F
S31508002140E13000F0B1F8FEF7DFFCFEF70FFF0020E4
S31508002150FEF7ACFE0020FEF7B7FEFEF7A3FF40F63B
S31508002160C410FFF7B3FFFEF789FE6CE0002464E0B5
S315080021700CB9002000E002200646F0B21421FEF752
S31508002180EFFB81464846FEF7C7F907462E4A2F4910
S31508002190FEF718FC05462846FEF7E0F94A46CDE95B
S315080021A0000131462AA0FFF709FB2A464946204680
S315080021B0FEF7FCFCFEF762FE0020102330A219464B
S315080021C00090FFF733F8002010232F4A1946009095
S315080021D04820FFF72BF8002010232CA2202100907E
S315080021E0FFF724F8002010232A4A202100904820CF
S315080021F0FFF71CF80020102327A230210090FFF7D4
S3150800220015F800201023204A521D3021009048203E
S31508002210FFF70CF80020102321A240210090FFF7B9
S3150800222005F8002010231B4A921D402100904820E3
S31508002230FEF7FCFFFEF736FF641C022C98DB4FF412
S31508002240FA70FFF743FF91E7CDCC4C3C3D0AB73F08
S315080022504368616E6E656C2025643A20566F6C740F
S315080022606167653A202564206D562C205072657387
S31508002270737572653A202566206D6261720D0A00D3
S3150800228043485F303A0000007C0500205072655FC5
S31508002290303A00008605002043485F323A000000C5
S315080022A05072655F323A000010B586B004460121C7
S315080022B044F20400FFF72AF84FF40070ADF8140052
S315080022C003208DF8160018208DF8170005A91C485C
S315080022D0FEF7F7FC4FF48060ADF8140004208DF883
S315080022E0170005A91648FEF7ECFC25208DF8000016
S315080022F003208DF801008DF8020001208DF80300F7
S315080023006846FEF779FD01940020ADF80800ADF89F
S315080023100A00ADF80C00ADF810000C20ADF80E0060
S3150800232001A90848FFF7D6F9012240F225510548C8
S31508002330FFF7AAF901210348FFF770F906B010BDA7
S3150800234000080140003801400000000000000000BD
S31508002350002F000000000700070000147F147F14F8
S3150800236000242A7F2A12006264081323003649557E
S31508002370225000000503000000001C224100000056
S3150800238041221C000014083E08140008083E0808EC
S31508002390000000A060000008080808080000606047
S315080023A00000002010080402003E5149453E000086
S315080023B0427F4000004261514946002141454B3168
S315080023C0001814127F10002745454539003C4A4934
S315080023D049300001710905030036494949360006A6
S315080023E04949291E0000363600000000563600000E
S315080023F00008142241000014141414140000412289
S31508002400140800020151090600324959513E007C60
S315080024101211127C007F49494936003E414141224A
S31508002420007F4141221C007F49494941007F090933
S315080024300901003E4149497A007F0808087F0000E3
S31508002440417F4100002040413F01007F081422419E
S31508002450007F40404040007F020C027F007F040856
S31508002460107F003E4141413E007F09090906003EB2
S315080024704151215E007F09192946004649494931DB
S315080024800001017F0101003F4040403F001F2040FE
S31508002490201F003F4038403F0063140814630007BC
S315080024A00870080700615149454300007F41410013
S315080024B000552A552A55000041417F0000040201B3
S315080024C00204004040404040000001020400002091
S315080024D054545478007F48444438003844444420CF
S315080024E000384444487F00385454541800087E097C
S315080024F001020018A4A4A47C007F08040478000044
S31508002500447D4000004080847D00007F1028440000
S315080025100000417F4000007C04180478007C080411
S31508002520047800384444443800FC2424241800184D
S31508002530242418FC007C0804040800485454542039
S3150800254000043F444020003C4040207C001C2040C2
S31508002550201C003C4030403C004428102844001C05
S31508002560A0A0A07C004464544C44141414141414FD
S315080025700000000000000000000000000000FC0051
S315080025800000000002000000000C020C020000001F
S315080025900000000090D0BCD0BC90000300030000EF
S315080025A01824FE448C000302070201001824D8B040
S315080025B04C80000300010201C038E438E000010243
S315080025C002010202080600000000000000000000E8
S315080025D0000000F80402000000010204000204F8EA
S315080025E000000004020100009060F86090000000FE
S315080025F0010000002020FC2020000000010000004F
S31508002600000000000000080600000000202020202E
S31508002610200000000000000000000000000000028A
S31508002620000000000080601C020004030000000097
S31508002630F8040404F8000102020201000008FC0084
S315080026400000000203020000188444241800030254
S315080026500202020008042424D80001020202010032
S3150800266040B088FC80000000000302003C242424BB
S31508002670C400010202020100F824242CC000010251
S31508002680020201000C04E41C040000000300000020
S31508002690D8242424D8000102020201003844444404
S315080026A0F80000030202010000001000000000000C
S315080026B002000000000020000000000006000000E4
S315080026C000205088040200000000010290909090BB
S315080026D0900000000000000000020488502000025C
S315080026E0010000001804C4241800000002000000BD
S315080026F0F804E494F80001020202020000E09CF0EB
S31508002700800002030000030204FC2424D80002030C
S3150800271002020100F80404040C000102020201008E
S3150800272004FC0404F80002030202010004FC2474F9
S315080027300C0002030202030004FC24740C000203CA
S3150800274002000000F0080444CC4000010202010027
S3150800275004FC2020FC040203000003020404FC0419
S315080027600400020203020200000404FC0404060436
S315080027700403000004FC24D00C0402030200030234
S3150800278004FC04000000020302020203FC3CC03CF5
S31508002790FC0003000300030004FC30C4FC0402032D
S315080027A002000300F8040404F80001020202010012
S315080027B004FC24241800020302000000F8848404A0
S315080027C0F80001020207050004FC246498000203CD
S315080027D002000302182424448C00030202020100AA
S315080027E00C04FC040C0000020302000004FC0000B8
S315080027F0FC04000102020100047C80E01C040000C5
S31508002800030000001CE03CE01C000003000300007D
S31508002810049C609C0400020300030200041CE01CE4
S3150800282004000002030200000C84641C0400020376
S31508002830020203000000FE02020000000704040072
S31508002840000E30C00000000000010200000202FE77
S315080028500000000404070000000402040000000051
S31508002860000000000000000000000808080808082A
S315080028700000020000000000000000000040A0A0C8
S31508002880C00000010202030204FC2020C00000036D
S315080028900202010000C020206000000102020200BE
S315080028A000C02024FC0000010202030200C0A0A010
S315080028B0C0000001020202000020F82424040002DD
S315080028C0030202000040A0A0602000070A0A0A04CA
S315080028D004FC2020C0000203020003020020E400DA
S315080028E00000000203020000000020E400000808BF
S315080028F00807000004FC80E020200203020003020F
S315080029000404FC000000020203020200E020E020AA
S31508002910C00003000300030020E02020C0000203DB
S315080029200200030200C02020C000000102020100CC
S3150800293020E02020C000080F0A02010000C0202065
S31508002940E0000001020A0F0820E0402020000203F0
S31508002950020000000060A0A020000002020203009E
S315080029600020F820000000000102020020E00020FC
S31508002970E00000010202030220E02080602000003F
S31508002980030100006080E08060000003000300008F
S3150800299020608060200002030003020020E02080FF
S315080029A060200808070100000020A060200000023F
S315080029B003020200000020DE0200000000070400F7
S315080029C0000000FF00000000000F00000002DE20EB
S315080029D000000004070000000201020404020000CF
S315080029E000000000000000000000000000000000D9
S315080029F000000000000000F800000000000000339E
S31508002A003000000000100C06100C06000000000044
S31508002A100000000040C07840C0784000043F04042D
S31508002A203F040400007088FC08300000001820FFEE
S31508002A30211E0000F008F000E018000000211C0329
S31508002A401E211E0000F00888700000001E212324A5
S31508002A501927211010160E000000000000000000C3
S31508002A6000000000000000E0180402000000000753
S31508002A701820400000020418E0000000004020185A
S31508002A8007000000404080F0804040000202010F2D
S31508002A9001020200000000F0000000000101011F11
S31508002AA001010100000000000000000080B0700075
S31508002AB00000000000000000000000000001010105
S31508002AC00101010100000000000000000030300094
S31508002AD0000000000000000080601804006018066E
S31508002AE00100000000E010080810E000000F1020A8
S31508002AF020100F00001010F8000000000020203FF2
S31508002B00202000000070080808887000003028247B
S31508002B10222130000030088888483000001820201C
S31508002B2020110E000000C02010F800000007042441
S31508002B30243F240000F80888880808000019212086
S31508002B4020110E0000E0108888180000000F1120E0
S31508002B5020110E0000380808C83808000000003F99
S31508002B60000000000070880808887000001C2221F8
S31508002B7021221C0000E010080810E00000003122A5
S31508002B8022110F00000000C0C00000000000003045
S31508002B903000000000000080000000000000806097
S31508002BA00000000000008040201008000001020418
S31508002BB008102000404040404040400004040404FF
S31508002BC004040400000810204080000000201008BB
S31508002BD004020100007048080808F00000000030F0
S31508002BE036010000C030C828E810E000071827247E
S31508002BF023140B000000C038E0000000203C23022C
S31508002C000227382008F8888888700000203F20208E
S31508002C1020110E00C03008080808380007182020C0
S31508002C202010080008F808080810E000203F2020B7
S31508002C3020100F0008F88888E8081000203F202098
S31508002C402320180008F88888E8081000203F20008C
S31508002C5003000000C03008080838000007182020C4
S31508002C60221E020008F808000008F808203F210183
S31508002C7001213F20000808F8080800000020203F2E
S31508002C802020000000000808F8080800C08080809E
S31508002C907F00000008F888C028180800203F200197
S31508002CA02638200008F8080000000000203F2020F1
S31508002CB02020300008F8F800F8F80800203F003F08
S31508002CC0003F200008F830C00008F808203F200020
S31508002CD007183F00E01008080810E0000F10202031
S31508002CE020100F0008F808080808F000203F210106
S31508002CF001010000E01008080810E0000F1824245D
S31508002D0038504F0008F8888888887000203F2000CF
S31508002D10030C302000708808080838000038202185
S31508002D2021221C00180808F8080818000000203F8F
S31508002D302000000008F808000008F808001F2020F6
S31508002D4020201F000878880000C8380800000738C7
S31508002D500E010000F80800F80008F800033C070018
S31508002D60073C0300081868808068180820302C0380
S31508002D70032C30200838C800C83808000000203F57
S31508002D802000000010080808C83808002038262146
S31508002D9020201800000000FE020202000000007F4A
S31508002DA040404000000C30C0000000000000000158
S31508002DB00638C00000020202FE0000000040404043
S31508002DC07F00000000000402020204000000000068
S31508002DD000000000000000000000000080808080E5
S31508002DE080808080000202040000000000000000CD
S31508002DF00000000000008080808000000019242266
S31508002E0022223F2008F8008080000000003F1120A1
S31508002E1020110E000000008080800000000E1120A6
S31508002E2020201100000000808088F800000E112084
S31508002E3020103F200000808080800000001F222292
S31508002E4022221300008080F0888888180020203FFE
S31508002E50202000000000808080808000006B949411
S31508002E609493600008F8008080800000203F2100CD
S31508002E7000203F2000809898000000000020203F96
S31508002E8020200000000000809898000000C0808084
S31508002E90807F000008F8000080808000203F240220
S31508002EA02D302000000808F8000000000020203F10
S31508002EB0202000008080808080808000203F2000C5
S31508002EC03F20003F8080008080800000203F210056
S31508002ED000203F200000808080800000001F202006
S31508002EE020201F00808000808000000080FFA12035
S31508002EF020110E000000008080808000000E112046
S31508002F0020A0FF80808080008080800020203F21D4
S31508002F102000010000008080808080000033242487
S31508002F2024241900008080E0808000000000001F33
S31508002F30202000008080000000808000001F2020E4
S31508002F4020103F20808080000080808000010E30A5
S31508002F500806010080800080008080800F300C0306
S31508002F600C300F0000808000808080000020312E09
S31508002F700E312000808080000080808080818E70E5
S31508002F801806010000808080808080000021302C97
S31508002F902221300000000000807C020200000000B0
S31508002FA0003F404000000000FF0000000000000055
S31508002FB0FF0000000002027C800000000040403F45
S31508002FC000000000000601010202040400000000DF
S31508002FD000000000000000000000000000000000E3
S31508002FE000000000000000000000000000000000D3
S31508002FF000000000000000000000000000F0F0F0F3
S31508003000000000000000000000017F010000000031
S3150800301000000000001C1C1C00000000000080606E
S31508003020301C8C60301C0C00000000000000000002
S315080030300000000000000000000000000000000082
S31508003040000000E00000000000E000000086E69FA7
S3150800305086868686E69F860000011F01010101011A
S315080030601F010100000080C06020F820E0C00000B9
S31508003070000003070C18FF70E18100000000070F2D
S3150800308010107F100F07000080602060800000008D
S31508003090E02000000F3020309F70DC371030C00071
S315080030A00000100E03000718101807000000C020C3
S315080030B020E0C0000000000080E01F38E88703C455
S315080030C03C040000070F1810100B070D101008001D
S315080030D000808C4C38000000000000000000000052
S315080030E000000000000000000000000000000000D2
S315080030F00000000000000000000080E03008040026
S315080031000000000000FEFF010000000000000000B3
S315080031100000030F1820400000040830E08000007B
S31508003120000000000000000001FFFE000000000093
S31508003130004020180F0300000000000000000000F7
S315080031400000C00000000000004266663C18FF1838
S315080031503C66664200000000000003000000000014
S3150800316000000000000080000000000000101010A1
S315080031701010FF10101010100000000000000300CF
S315080031800000000000000000000000000000000031
S3150800319000000000000000000000000000808C4CC9
S315080031A038000000000000000000000000000000D9
S315080031B00000000000101010101010101010100061
S315080031C000000000000000000000000000000000F1
S315080031D000000000000000000000000000000000E1
S315080031E00000000000001C1C1C000000000000007D
S315080031F00000000000000000E0380C00000000009D
S3150800320080701C03000000000060380E01000000FA
S3150800321000000000000080C060202060C080000020
S3150800322000FEFF010000000001FFFE000001070E7E
S31508003230181010180E0701000000808080C0E000FA
S31508003240000000000000000000FFFF000000000072
S3150800325000001010101F1F101010000000804020E2
S3150800326020202060C0800000000303008040203832
S315080032701F070000001C1A1918181818181F000034
S315080032800080C020202060C08000000000030300EA
S315080032901010182FE780000000070F1010101018E4
S315080032A00F070000000000000000C0E0F00000006A
S315080032B000C0B088868180FFFF8080000000000083
S315080032C00010101F1F1010000000E06060606060B2
S315080032D06060000000003F1008080818F0E00000D1
S315080032E000070B101010101C0F030000000080C010
S315080032F040202020E0C0000000FCFF21100808083C
S3150800330018F0E0000001070C18101010080F030051
S315080033100000C0E06060606060E0600000000300DC
S315080033200000E0180700000000000000001F1F0052
S31508003330000000000080C0602020202060C08000BF
S315080033400087EF2C1818303068CF830000070F0865
S3150800335010101010180F07000000C0C020202020F1
S31508003360C0800000001F3F604040402010FFFE0064
S3150800337000000C1C101010080F03000000000000CD
S31508003380000000000000000000000000000E0E0E05
S315080033900000000000000000001C1C1C00000000CB
S315080033A0000000000000000000000000000000000F
S315080033B0000C0C0000000000000000000058380057
S315080033C000000000000000000000008040201000FF
S315080033D000001028448201000000000000000000E0
S315080033E000000102040810000000000000000000B0
S315080033F00000000000848484848484848484840097
S31508003400000000000000000000000000000010207E
S31508003410408000000000000000000000000001825B
S3150800342044281000000010080402010000000000F3
S3150800343000C020201010101030E0C0000003030068
S3150800344000F010080C070300000000001C1C1C00FC
S3150800345000000000000000C0406020202040C0009E
S3150800346000FCFF01F00E03C1FE03807F0001070E7A
S3150800347008111110110904020000000080E0E000A4
S31508003480000000000000807C4340477FF880000071
S3150800349010181F1000000000131F1C1020E0E02069
S315080034A020202060C080000000FFFF1010101018B8
S315080034B02FE78000101F1F1010101010180F07009C
S315080034C0000080C0402020202060E00000FCFF01B2
S315080034D000000000000001000001070E181010107F
S315080034E00804030020E0E02020202040C0800000DF
S315080034F000FFFF000000000001FFFE00101F1F1064
S31508003500101018080E07010020E0E02020202020D7
S315080035102060800000FFFF101010107C00000000E3
S31508003520101F1F10101010101018060020E0E020C1
S31508003530202020206060800000FFFF101010107C03
S3150800354000000100101F1F1000000000000000000E
S31508003550000080C06020202040E0000000FCFF0141
S3150800356000004040C0C140400001070E181010106E
S315080035700F0F000020E0E0200000000020E0E0201F
S3150800358000FFFF101010101010FFFF00101F1F1073
S3150800359000000000101F1F100000202020E0E0207F
S315080035A0202000000000000000FFFF0000000000CF
S315080035B000001010101F1F1010100000000000005F
S315080035C0202020E0E020202000000000000000FF6E
S315080035D0FF0000000060E0808080C07F3F000000A0
S315080035E020E0E020000020A06020200000FFFF303F
S315080035F0187CE3C000000000101F1F100000011314
S315080036001F1C181020E0E020000000000000000049
S3150800361000FFFF000000000000000000101F1F1040
S31508003620101010101018060020E0E0E0000000005E
S31508003630E0E0E02000FF013FFEC0E01E01FFFF00C2
S31508003640101F1000031F0300101F1F1020E0E0C00A
S31508003650000000000020E02000FF0003071C78E0BF
S315080036608000FF00101F100000000000030F1F005D
S31508003670000080C060202060C080000000FEFF01BE
S315080036800000000000FFFE000001070E18101018C9
S315080036900C07010020E0E0202020202060C08000E8
S315080036A000FFFF2020202020301F0F00101F1F10B2
S315080036B00000000000000000000080C060202060BC
S315080036C0C080000000FEFF010000000000FFFE00B1
S315080036D00001070E1111133C7C67210020E0E02051
S315080036E02020202060C0800000FFFF101030F0D09E
S315080036F0080F0700101F1F10000000030F1C1010F2
S315080037000080C060202020204040E00000070F0C09
S315080037101818303060E08100001F0C0810101010D7
S31508003720180F07008060202020E0E020202060801D
S315080037300100000000FFFF0000000001000000007B
S31508003740101F1F100000000020E0E020000000000D
S315080037500020E02000FFFF00000000000000FF003E
S3150800376000070F1810101010100807002060E0E07E
S315080037702000000020E060200000077FF88000801D
S315080037807C03000000000000071F1C070000000063
S3150800379020E0E02000E0E0200020E0200007FFF81D
S315080037A0E01FFFFCE01F00000000031F0300011FCD
S315080037B003000000002060E0A0000020E060200078
S315080037C0000000038F7CF8C6010000000010181ED8
S315080037D0130001171F1810002060E0E02000000009
S315080037E020E06020000001073EF8E018070000000E
S315080037F000000010101F1F1010000000008060203D
S31508003800202020A0E0E0200000000000C0F03E0FCD
S315080038100300000000101C1F1710101010180600D7
S315080038200000000000FC040404040400000000007A
S3150800383000FF00000000000000000000007F40407C
S3150800384040404000000010E00000000000000000BA
S3150800385000000000031C608000000000000000005B
S31508003860000000030C70800000000404040404FC3B
S315080038700000000000000000000000FF000000003B
S31508003880000040404040407F00000000000000105B
S31508003890080C040C081000000000000000000000DE
S315080038A0000000000000000000000000000000000A
S315080038B000000000000000000000000000000000FA
S315080038C000000000000000008080808080808080EA
S315080038D080808080000000040408080000000000C2
S315080038E000000000000000000000000000000000CA
S315080038F000000000000000000000000000000000BA
S3150800390000000000000098D844642424FCF8000055
S31508003910000F1F18101010081F1F10180020E0F0C5
S3150800392000000000000000000000FFFF1808040463
S315080039300CF8F00000001F0F18101010180F0300E5
S3150800394000000000000000000000000000E0F81879
S315080039500404043C3800000000030F0C101010107B
S31508003960080600000000000000000020E0F000004B
S3150800397000E0F81C04040408FFFF000000030F1809
S31508003980101010081F0F08000000000000000000BB
S31508003990000000000000E0F8484444444C787000F9
S315080039A00000030F0C181010100804000000000097
S315080039B080C0602020E0C00000040404FFFF040467
S315080039C004040000000010101F1F10101000000053
S315080039D0000000000000000000000000000070F871
S315080039E08C04048CF874040C007076CF8D8D8D8948
S315080039F0C87870000020E0F0000000000000000019
S31508003A000000FFFF08040404FCF8000000101F1F54
S31508003A10100000101F1F100000000000006060006A
S31508003A20000000000000040404FCFC000000000084
S31508003A3000001010101F1F101010000000000000DA
S31508003A40000000606000000000000000040404FCA0
S31508003A50FC0000000000C0C08080C07F3F0000005E
S31508003A600020E0F000000000000000000000FFFF5A
S31508003A7080C0F41C0404000000101F1F1100031F5F
S31508003A801C1010000000202020E0F00000000000BC
S31508003A900000000000FFFF000000000000001010FA
S31508003AA0101F1F101010000000000000000000008A
S31508003AB00000000004FCFC0804FCFC0804FCFC00F4
S31508003AC0101F1F10001F1F10001F1F1000000000EE
S31508003AD000000000000000000004FCFC08080404C4
S31508003AE0FCF8000000101F1F100000101F1F100018
S31508003AF000000000000000000000000000E0F018D0
S31508003B000C04040C18F0E00000030F0C1010101041
S31508003B100C0F030000000000000000000000000079
S31508003B200004FCFC080404040CF8F0000080FFFF05
S31508003B30889010101C0F0300000000000000000011
S31508003B400000000000E0F81C04040408F8FC00006B
S31508003B5000030F1810109088FFFF80000000000077
S31508003B600000000000000000040404FCFC10080427
S31508003B70040C0C001010101F1F101010000000007D
S31508003B80000000000000000000000000000030787F
S31508003B90CCC48484840C1C0000001E18101010115C
S31508003BA0190F06000000000000C000000000000019
S31508003BB000040404FFFF04040400000000000000E1
S31508003BC00F1F1010100C000000000000000000007D
S31508003BD0000000000004FCFE00000004FCFE0000DB
S31508003BE000000F1F181010081F0F08000000000023
S31508003BF0000000000000000000040C3CFCC40000AB
S31508003C00C43C0C0400000000010F1E0E0100000059
S31508003C10000000000000000000000000043CFCC496
S31508003C2000E47CFC84807C040000071F0700000772
S31508003C301F07000000000000000000000000000050
S31508003C400004041C7CE4C0341C0404000010101C8E
S31508003C501601131F1C1810000000000000000000C9
S31508003C600000000000040C3CFCC400C43C04040032
S31508003C700000C080C1370E010000000000000000EF
S31508003C80000000000000000000001C0404C4F47CCE
S31508003C901C0400000000101C1F17111010180E003D
S31508003CA000000000000000F80C04000000000000FE
S31508003CB0001028EF00000000000000000000003F90
S31508003CC060400000000000000000FF000000000047
S31508003CD0000000000000FF000000000000000000D7
S31508003CE00000FF00000000000000040CF8000000BF
S31508003CF00000000000000000EF281000000000008F
S31508003D00000040603F0000000000000000180602A6
S31508003D1002040810202030080000000000000000FF
S31508003D200000000000000000000000000000000085
S31508003D300000F010101010FF10101010F000000016
S31508003D4000000F04040404FF040404040F00000028
S31508003D504040405F555555755555555F40404000A4
S31508003D600040200F094989790909090F20400000F8
S31508003D7000FE02424ACA4A4ACA4A4A4202FE0000AB
S31508003D8000FF40504C4340404F50505C40FF0000FD
S31508003D900000F888888888FF88888888F8000000E6
S31508003DA000001F080808087F888888889F80F00018
S31508003DB080828282828282E2A2928A8682808000C1
S31508003DC0000000000040807F0000000000000000A6
S31508003DD0101010FF109008888888FF8888880800C7
S31508003DE00444827F01808040432C1028468180004D
S31508003DF00010101010D030FF30D0121C1010000028
S31508003E0010080402010000FF000001020408100067
S31508003E1004040484E43C2724242424E4040404003D
S31508003E2004020100FF0909090949897F0000000009
S31508003E3000FE225A8600FE9292929292FE0000009E
S31508003E4000FF04080700FF4020030C14224140002D
S31508003E5000804020180680000718204080000000D7
S31508003E600100207028262120202438600001010046
S31508003E70001012929292929292121202FE00000082
S31508003E800000003F101010103F0040807F00000027
S31508003E9040404242424242FE424242424240400082
S31508003EA080804020100C0300030C10204080800006
S31508003EB0404042CC0008E9AAB8A8A8AAE908000028
S31508003EC00040201F20405F4A4A4A4A4A5F40400055
S31508003ED0F212FE12FE12F28040FE80FC40FF000045
S31508003EE0FF4A49484949FF80403F003F00FF00001C
S31508003EF004C45F54F4545FC41410FF1010F000009B
S31508003F00809595957F55D55520184780403F0000E8
S31508003F10000000C080808080808080FC8480808053
S31508003F20808080C0C0000000000000FF7F40404045
S31508003F30404040FF40404040404040FF7F00000076
S31508003F4000000000000000000000007F7000000074
S31508003F500000000000000000000000000000000053
S31508003F6000000000000000FCF8000000000000004F
S31508003F70000000000000000000000000FFFE020232
S31508003F8002020202020202FFFF0202020202020209
S31508003F900202FF0300000000000000001F1F0404C7
S31508003FA004040404040404FFFF04040404040404CD
S31508003FB004041F00000000000000000000000000CC
S31508003FC0000000000000007F3F0000000000000025
S31508003FD000000000000000000000000000000000D3
S31508003FE000000000000000000000000000000000C3
S31508003FF00000000000F8F8F0F07020000000000053
S3150800400000000000000000000000000000000000A2
S315080040100000000000000000000000000000000092
S315080040208000000000000000000000000000000002
S315080040300000000000FFFFFFFF0000000000000076
S315080040400000000000000000000000008080000062
S315080040500000000000000000000000000000000052
S3150800406000FFFFFE060606060606060606060606FE
S315080040700606060606FFFFFFFF06060606060606EE
S315080040800606060606060606060606FFFFFFFF07DD
S315080040900200000000000000000000000000000010
S315080040A000FFFFFF00000000000000000000000005
S315080040B00000000000FFFFFFFF00000000000000F6
S315080040C00000000000000000000000FFFFFFFF00E6
S315080040D000000000000000000000000000000000D2
S315080040E000FFFFFF181818181818181818181818A5
S315080040F01818181818FFFFFFFF1818181818181896
S315080041001818181818181818181818FFFFFFFF009D
S315080041100000000000000000000000000000000091
S31508004120020101000000000000000000000000007D
S315080041300000000000FFFFFFFF0000000000000075
S31508004140000000000000000000000001010000005F
S315080041500000000000000000000000000000000051
S315080041600000000000000000000000000000000041
S315080041700000000000FFFFFFFF0000000000000035
S315080041800000000000000000000000000000000021
S315080041900000000000000000000000000000000011
S315080041A00000000000000000000000000000000001
S315080041B000000000001F1F0F0F0000000000000095
S315080041C000000000000000000000000000000000E1
S315080041D00000000000000000F84100080000002070
S315080041E034000000DC1700082C42000834000020C8
S315080041F064090000EC17000800000000010203042F
S315080042000102030406070809020406080000000064
S31508004210000000000000000000A24A0400000000A0
S311080042200000000001020304060708095C
S705080000ED05
